:040000001FEF0CF0F2
:10100000003132334134353642373839432A3023C0
:1010100044000100100000010010301120030702FD
:1010200017303132333435363738396162636465AD
:101030006600253032782F253032782F25303278EF
:10104000200052756E233120202020413A4E6578D1
:101050007400536F7274696E672063616E732E2E15
:101060002E00416E79206B657920746F2073746F48
:1010700070002320736F75702063616E733A2034A3
:10108000002320736F64612063616E733A20360021
:10109000253032783A253032783A253032780023BC
:1010A000206F662063616E733A2031300020323A3F
:1010B0004C6F677300333A537461727400000A0E08
:1010C000146E000E156EE8D0250E1D18D8B404D08D
:1010D0001D5047EC0CF0E0D0000E1C6E000E1B6E95
:1010E000000E176E03D01784084A092A08C0F6FFBD
:1010F00009C0F7FF0800F550300AD8B4F4D708C08B
:10110000F6FF09C0F7FF0800F55010EC0CF0D8A06E
:1011100032D0000E1C6E000E1B6E1BC001F01CC0F6
:1011200002F0000E046E0A0E036EECEC0BF001C030
:101130001BF002C01CF0D00E106EFF0E116E08C026
:10114000F6FF09C0F7FF0800F550126E136A105041
:1011500012261150132212501B2613501C22084A2B
:10116000092A08C0F6FF09C0F7FF0800F55010EC87
:101170000CF0D8B0D2D708C0F6FF09C0F7FF084A74
:10118000092A0800F5CF1DF01D50000AD8B412003E
:10119000780AD8A481D014C0D9FF15C0DAFFDECFF9
:1011A00018F0DDCF19F0020E1426000E1522010EE4
:1011B0001D6E040E1D18D8B412D01D50020D120E53
:1011C000F324F66E100EF420F76E0900F550185C4B
:1011D0000900F5501958D8A002D01D2AEAD7800E70
:1011E0001DBE7F0E106E1B501D5C1C50800A1058D7
:1011F000D8B007D01D501B5E000E1DBEFF0E1C5A3E
:1012000004D0000E1C6E000E1B6E17A40BD01B50DA
:101210001C10D8B415D0300E47EC0CF01B06D8A02B
:101220001C06F5D71B501C10D8B40AD0200E47EC72
:101230000CF01B06D8A01C061B501C10D8A4F6D717
:101240001DC01AF025D018C001F019C002F01A50C4
:10125000020D120EF324F66E100EF420F76E090044
:10126000F5CF03F00A00F5CF04F068EC0BF0015065
:101270000F0B166E1650010D210EF324F66E100E94
:10128000F420F76E0800F5CF1DF01D5047EC0CF070
:101290001A061A28D8A4D7D708C0F6FF09C0F7FF46
:1012A000084A092A0800F5CF1DF01D50D8B41200D5
:1012B0000BD771EC0AF0000E286E010E276E000E9F
:1012C000226E000E216E000E266E000E256E680E38
:1012D0001F6EE40EE82EFED71F2EFCD700D0ACEC1C
:1012E0000AF027502810D8B451D0000E306EDFEC31
:1012F0000AF02AEC0CF0020E3018D8A441D0000EEF
:10130000286E000E276E010E4DEC0CF0680E1F6E5D
:10131000E40EE82EFED71F2EFCD700D0520E086E2A
:10132000100E096E5FEC08F0C00E4DEC0CF0620E72
:10133000086E100E096E5FEC08F0000E026E640E6F
:10134000016E91EC0BF0000E266E010E256E2BC087
:1013500001F0026A0E0E046E100E036EECEC0BF040
:101360002A503C0D29501F6E206AF3501F26F4505E
:10137000202201501F24236E02502020246EAFD75C
:101380003004D8A4ACD7DBEC09F0A9D7000E306E3E
:101390002AEC0CF03050D8B40AD0000E286E010EA2
:1013A000276E58EC0CF0000E266E000E256E020E15
:1013B000FFEC0BF094D7010E4DEC0CF0680E1E6E96
:1013C000E40EE82EFED71E2EFCD700D0420E086E8B
:1013D000100E096E5FEC08F0C00E4DEC0CF09F0E85
:1013E000086E100E096E5FEC08F034EC0CF0010E84
:1013F0004DEC0CF0680E1E6EE40EE82EFED71E2E8D
:10140000FCD700D0420E086E100E096E5FEC08F09B
:10141000C00E4DEC0CF0810E086E100E096E5FECE4
:1014200008F034EC0CF0010E4DEC0CF0680E1E6E62
:10143000E40EE82EFED71E2EFCD700D0420E086E1A
:10144000100E096E5FEC08F0C00E4DEC0CF0720E41
:10145000086E100E096E5FEC08F034EC0CF0120010
:10146000000E096E000E0A6E000E0B6E000E0C6E62
:101470000550061007100810D8B42AD0010E0D6EC2
:1014800006D0D89005360636073608360D2A08AE3F
:10149000F8D7D89009360A360B360C360550015C61
:1014A000065002580750035808500458D8A009D0D5
:1014B0000550015E0650025A0750035A0850045A5C
:1014C0000980D89008320732063205320D2EE1D756
:1014D00009C001F00AC002F00BC003F00CC004F018
:1014E0001200F20ED36E9B8C000E926EF20E936E73
:1014F000000E946E000E956E000E966ECB680C0E6C
:10150000BD6E000EBE6E050ECA6E550E896E550E6E
:101510008A6E550E8B6E000E8C6E000E8D6E8C805A
:101520008C928D808D92000EC26EC168B6EC0BF06D
:10153000100E0E6E270E0F6E000E106E000E116E46
:1015400010EC0BF0F19E010EC26E0B0EC16E000E80
:10155000B56EB496C08E120061EC0CF0000E036EF6
:10156000D00E026E53EC0CF0000E036E000E026EF5
:1015700053EC0CF05DEC0CF061EC0CF0000E036E23
:10158000D10E026E53EC0CF0000E046E050E0464D6
:1015900001D00ED00450010D290EF324D96E000E97
:1015A000F420DA6E010ED9EC0BF0DF6E042AEED7D0
:1015B000000ED9EC0BF02F6E5DEC0CF01200800EDB
:1015C0004DEC0CF0320E086E100E096E2FC00AF0B2
:1015D0000B6A2EC00CF00D6A2DC00EF00F6A5FEC86
:1015E00008F0B50E086E100E096E5FEC08F0C00E24
:1015F0004DEC0CF0900E086E100E096E2BC00AF028
:101600000B6A2AC00CF00D6A29C00EF00F6A5FEC5D
:1016100008F0AD0E086E100E096E5FEC08F01200B7
:10162000000EC76E280EC66E000EC56E000E016E4F
:10163000480E026EE80E036E010E046E0EC012F02C
:101640000FC013F010C014F011C015F0020ED890A6
:101650001236133614361536E82EF9D712C005F0B7
:1016600013C006F014C007F015C008F030EC0AF003
:101670000104C86E948694881200026E0250F00B2A
:10168000016E8C500F0B8C6E01508C108C6E8C96F2
:10169000420EE82EFED700D08C86420EE82EFED7F2
:1016A00000D00238F00B026E0250F00B016E8C502D
:1016B0000F0B8C6E01508C108C6E8C96420EE82EA7
:1016C000FED700D08C86420EE82EFED700D0120046
:1016D000000E066E000E056E03500410D8B41CD028
:1016E000010E076E04D0D89003360436072A04AEE4
:1016F000FAD7D890053606360350015C04500258DC
:10170000D8A005D00350015E0450025A0580D8903D
:1017100004320332072EEDD705C001F006C002F0F7
:10172000120001C003F0010E0316033ABD50031866
:10173000EF0B0318BD6E02340230046E0130036EED
:10174000010E0316033A0346BD500318DF0B0318BE
:10175000BD6E01C003F002C004F004340432033251
:101760000434043203320350BE6E12009C0E046E29
:10177000D70EE82EFED7042EFCD700F0330E4DEC2A
:101780000CF0320E4DEC0CF0280E4DEC0CF00F0E60
:101790004DEC0CF0060E4DEC0CF0010E4DEC0CF087
:1017A0009C0E046ED70EE82EFED7042EFCD700F058
:1017B0001200026E3EEC0CF0C5863EEC0CF0C9CF78
:1017C00003F03EEC0CF00250D8A402D0C58A01D040
:1017D000C59AC5880350120001500302F3CF05F0EB
:1017E000F4CF06F001500402F35006260250030223
:1017F000F350062605C001F006C002F01200026E8A
:101800000244E846FC0BC26EC28207D0340E016E61
:10181000F20EE82EFED7012EFCD7C2A21200F6D798
:10182000036E000E026E3A0E036005D02F0E0364A5
:1018300002D0010E026E02C001F00130120000EE73
:1018400029F0080EEE6AE806FDE1000EF86E0001D0
:1018500059EF09F081A206D081380F0B0F0B306EC3
:1018600081B2FED700F0120081A2FED781380F0BA3
:101870000F0B306E81B2FED700F01200C7B4FED756
:10188000C5CF01F01F0E0116D8B41200F7D7036EB2
:101890008C8403503DEC0BF01200036E8C940350CB
:1018A0003DEC0BF012003EEC0CF002C0C9FF120040
:1018B000BD98BD9A000EBE6E12003EEC0CF0C584C1
:0A18C00012003EEC0CF0C58012008F
:020000040020DA
:08000000FFFFFFFFFFFFFFFF00
:020000040030CA
:0E000000FF021F1EFF8381FF0FC00FE00F40A5
:00000001FF
