:04000000DAEF73F0D0
:10E73400BDEC73F0C5801200BDEC73F0C58412000B
:10E74400BD98BD9A000EBE6E1200BA98BA9A000E19
:10E75400BB6E1200BDEC73F002C0C9FF1200036E61
:10E764008C9403505DEC76F01200036E8C8403509D
:10E774005DEC76F01200C7B4FED7C5CF01F01F0ED2
:10E784000116D8B41200F7D781A2FED781380F0B37
:10E794000F0B596E81B2FED700F0120081A206D091
:10E7A40081380F0B0F0B596E81B2FED700F01200A7
:10E7B40000EE4CF00E0EEE6AE806FDE1000EF86E77
:10E7C4000001D2EF79F0036E000E026E3A0E036080
:10E7D40005D02F0E036402D0010E026E02C001F0B8
:10E7E40001301200574A582A58BE1200585004E10A
:10E7F400050E575CD8A01200000E586E010E576E1D
:10E804001200026E0244E846FC0BC26EC280C28251
:10E8140007D0340E016EF20EE82EFED7012EFCD77F
:10E82400C2A21200F6D701500302F3CF05F0F4CFD1
:10E8340006F001500402F350062602500302F3507E
:10E84400062605C001F006C002F01200026EBDECFF
:10E8540073F0C586BDEC73F0C9CF03F0BDEC73F063
:10E864000250D8A402D0C58A01D0C59AC5880350E5
:10E874001200036E03C001F0080E026E013401326F
:10E88400022EFCD70150AA6E03C0A9FFA69EA69C27
:10E89400A680A6B0FED7A85012001E0E3BEC74F062
:10E8A400046E280E6AEC74F0140E3BEC74F0046EE3
:10E8B4001E0E6AEC74F00A0E3BEC74F0046E140E37
:10E8C4006AEC74F012C004F00A0E6AEC74F01200E0
:10E8D400076E07C005F0080E066E05340532062ED5
:10E8E400FCD70550AA6E07C0A9FF04C0A8FFA69EC6
:10E8F400A69CA684550EA76EAA0EA76EA682A1A8F2
:10E90400FED7A198A6941200040E57185810D8A444
:10E9140002D08C8201D08C92030E57185810D8A4C0
:10E9240002D08A8601D08A96020E57185810D8A4AD
:10E9340002D08A8401D08A9457045810D8A402D0F3
:10E944008A8012008A90120057045810D8A402D06A
:10E954008C8201D08C92020E57185810D8A402D081
:10E964008A8601D08A96030E57185810D8A402D06C
:10E974008A8401D08A94040E57185810D8A402D05F
:10E984008A8012008A901200040E57185810D8A4D6
:10E9940002D08C8201D08C92020E57185810D8A441
:10E9A40002D08A8601D08A96030E57185810D8A42C
:10E9B40002D08A8401D08A9457045810D8A402D073
:10E9C4008A8012008A901200040E57185810D8A496
:10E9D40002D08D8401D08D94030E57185810D8A4FA
:10E9E40002D08D8201D08D92020E57185810D8A4EF
:10E9F40002D0898801D0899857045810D8A402D02D
:10EA04008C8012008C90120057045810D8A402D0A5
:10EA14008D8401D08D94020E57185810D8A402D0BA
:10EA24008D8201D08D92030E57185810D8A402D0AD
:10EA3400898801D08998040E57185810D8A402D098
:10EA44008C8012008C901200040E57185810D8A411
:10EA540002D08D8401D08D94020E57185810D8A47A
:10EA640002D08D8201D08D92030E57185810D8A46D
:10EA740002D0898801D0899857045810D8A402D0AC
:10EA84008C8012008C901200040E57185810D8A4D1
:10EA940002D08B8E01D08B9E030E57185810D8A429
:10EAA40002D08B8C01D08B9C020E57185810D8A41E
:10EAB40002D08B8001D08B9057045810D8A402D078
:10EAC4008B8A12008B9A120057045810D8A402D0D3
:10EAD4008B8E01D08B9E020E57185810D8A402D0EA
:10EAE4008B8C01D08B9C030E57185810D8A402D0DD
:10EAF4008B8001D08B90040E57185810D8A402D0E4
:10EB04008B8A12008B9A1200040E57185810D8A43E
:10EB140002D08B8E01D08B9E020E57185810D8A4A9
:10EB240002D08B8C01D08B9C030E57185810D8A49C
:10EB340002D08B8001D08B9057045810D8A402D0F7
:10EB44008B8A12008B9A12000A500B10D8B418D07A
:10EB5400010E0C6E04D0D8900A360B360C2A0BAE7C
:10EB6400FAD70A50085C0B500958D8A004D00A50B0
:10EB7400085E0B50095AD8900B320A320C2EF1D78A
:10EB840008C008F009C009F012009C0E046ED70EEC
:10EB9400E82EFED7042EFCD700F0330EB1EC73F050
:10EBA400320EB1EC73F0280EB1EC73F00F0EB1EC31
:10EBB40073F0060EB1EC73F0010EB1EC73F09C0E21
:10EBC400046ED70EE82EFED7042EFCD700F01200F8
:10EBD40001C003F0010E0316033ABD500318EF0BF6
:10EBE4000318BD6E02340230046E0130036E010E50
:10EBF4000316033A0346BD500318DF0B0318BD6E1A
:10EC040001C003F002C004F00434043203320434BB
:10EC1400043203320350BE6E120001C003F0010E31
:10EC24000316033ABA500318EF0B0318BA6E0234F2
:10EC34000230046E0130036E010E0316033A0346DC
:10EC4400BA500318DF0B0318BA6E01C003F002C0F8
:10EC540004F0043404320332043404320332035023
:10EC6400BB6E1200000E066E000E056E03500410FB
:10EC7400D8B41CD0010E076E04D0D89003360436E5
:10EC8400072A04AEFAD7D890053606360350015C3D
:10EC940004500258D8A005D00350015E0450025A13
:10ECA4000580D89004320332072EEDD705C001F059
:10ECB40006C002F01200026E0250F00B016E8C507E
:10ECC4000F0B8C6E01508C108C6E8C96420EE82EBD
:10ECD400FED700D08C86420EE82EFED700D0023834
:10ECE400F00B026E0250F00B016E8C500F0B8C6E09
:10ECF40001508C108C6E8C96420EE82EFED700D0FC
:10ED04008C86420EE82EFED700D01200000EC76E8D
:10ED1400280EC66E000EC56E000E016E480E026E01
:10ED2400E80E036E010E046E0EC012F00FC013F055
:10ED340010C014F011C015F0020ED890123613361C
:10ED440014361536E82EF9D712C005F013C006F0B4
:10ED540014C007F015C008F053EC77F00104C86E36
:10ED6400948694881200800EB1EC73F0AF0E126E8C
:10ED7400FE0E136E52C014F0156A51C016F0176AD5
:10ED840050C018F0196A4CEC78F0E60E126EFF0EC3
:10ED9400136E4CEC78F0C00EB1EC73F00E0E126EE4
:10EDA400FF0E136E4EC014F0156A4DC016F0176AAC
:10EDB4004CC018F0196A4CEC78F0DE0E126EFF0E9F
:10EDC400136E4CEC78F012009AEC73F0000E036EA4
:10EDD400D00E026EACEC73F0000E036E000E026EE9
:10EDE400ACEC73F09EEC73F09AEC73F0000E036ECF
:10EDF400D10E026EACEC73F0000E046E050E0464CA
:10EE040001D00ED00450010D4C0EF324D96E000E27
:10EE1400F420DA6E010E28EC74F0DF6E042AEED7CB
:10EE2400000E28EC74F0526E9EEC73F01200F20E99
:10EE3400D36E9B8CCF0E926EF20E936E180E946E60
:10EE4400000E956E010E966ECB680C0EBD6E000E14
:10EE5400BE6E0C0EBA6E000EBB6E050ECA6E000EB0
:10EE6400896E000E8A6E000E8B6E000E8C6E000E84
:10EE74008D6EC7EC75F0100E0E6E270E0F6E000E21
:10EE8400106E000E116E88EC76F0F19E010EC26ECB
:10EE9400090EC16E000EB56EB496C08ED80ED56E36
:10EEA4001200000E096E000E0A6E000E0B6E000EAC
:10EEB4000C6E0550061007100810D8B42AD0010EA5
:10EEC4000D6E06D0D89005360636073608360D2A5C
:10EED40008AEF8D7D89009360A360B360C360550EA
:10EEE400015C065002580750035808500458D8A033
:10EEF40009D00550015E0650025A0750035A0850C3
:10EF0400045A0980D89008320732063205320D2E91
:10EF1400E1D709C001F00AC002F00BC003F00CC035
:10EF240004F0120007C009F008C00AF0091E0A1E06
:10EF3400094A0A2A4EC00BF00F0E0B160B50016E35
:10EF4400026A0E0E046E100E036E15EC74F04CC0C3
:10EF54000CF00C3A0F0E0C160F0E0C160C500A0D7A
:10EF64004C500F0B0D6E0E6AF3500D26F4500E220A
:10EF74004DC00FF00F0E0F160F503C0DF3500D2621
:10EF8400F4500E224DC010F0103A0F0E10160F0E52
:10EF9400101610500A0DF3500D26F4500E22015095
:10EFA4000D2602500E224EC011F0113A0F0E11160A
:10EFB4000F0E111611500A0DF3500D26F4500E22A7
:10EFC40009500D24076E0A500E20086E1200010E1F
:10EFD400B1EC73F0680E286EE40EE82EFED7282EEE
:10EFE400FCD700D0CF0E126EFE0E136E4CEC78F0F0
:10EFF400C00EB1EC73F01D0E126EFF0E136E0A0EEE
:10F004003BEC74F0146E156A14BE15064CEC78F0E3
:10F01400C6EC73F0010EB1EC73F0680E286EE40ECA
:10F02400E82EFED7282EFCD700D0CF0E126EFE0E8F
:10F03400136E4CEC78F0C00EB1EC73F0BF0E126E90
:10F04400FE0E136E140E3BEC74F0146E156A14BEAF
:10F0540015064CEC78F0C6EC73F0010EB1EC73F0CD
:10F06400680E286EE40EE82EFED7282EFCD700D0BA
:10F07400CF0E126EFE0E136E4CEC78F0C00EB1EC97
:10F0840073F0FF0E126EFE0E136E4CEC78F0C6ECAD
:10F0940073F01200140E1F6E000E206E74D1250E34
:10F0A4002718D8B404D02750B7EC73F06CD1000EF5
:10F0B400266E000E256E000E246E03D02484124AA0
:10F0C400132A12C0F6FF13C0F7FF0800F550300AE8
:10F0D400D8B4F4D712C0F6FF13C0F7FF0800F550F8
:10F0E400E5EC73F0D8A035D0000E266E000E256E28
:10F0F40025C001F026C002F0000E046E0A0E036E55
:10F1040015EC74F001C025F002C026F0D00E1A6E82
:10F11400FF0E1B6E12C0F6FF13C0F7FF0800F55078
:10F124001C6E1D6A1A501C261B501D221C502526BD
:10F134001D502622124A132A12C0F6FF13C0F7FFED
:10F144000800F550E5EC73F0D8A003D0D1D7248E95
:10F1540017D012C0F6FF13C0F7FF124A132A080093
:10F16400F5CF27F02750000AD8B41200640AD8B4A7
:10F1740007D00D0AD8B404D0110AD8B4E8D703D103
:10F1840024BE15D01FC0D9FF20C0DAFFDECF22F085
:10F19400DDCF23F0020E1F26000E202223AE44D022
:10F1A400030E2412226C231ED8B0232A3DD01FC084
:10F1B400D9FF20C0DAFFDECF22F0DDCF23F0020E2C
:10F1C4001F26000E202230D0010E276E050E2718B0
:10F1D400D8B432D02750020D720EF324F66EFE0E10
:10F1E400F420F76E0900F550225C0900F55023580D
:10F1F400D8A022D0272AEAD7010E276E040E27189A
:10F20400D8B41AD02750020D7C0EF324F66EFE0EED
:10F21400F420F76E0900F550225C0900F5502358DC
:10F22400D8A00AD0272AEAD72450800B000AD8B4E1
:10F23400CBD7800AD8B4E0D725502610D8B409D04B
:10F2440024C01AF0030E1A16D8B403D02506D8A089
:10F254002606800E27BE7F0E1A6E2550275C265088
:10F26400800A1A58D8B007D02750255E000E27BE52
:10F27400FF0E265A04D0000E266E000E256E24A41E
:10F2840014D024C01AF0030E1A16D8B403D02D0ECD
:10F29400B7EC73F025502610D8B41ED0300EB7EC5E
:10F2A40073F02506D8A02606F5D725502610D8B425
:10F2B4000AD0200EB7EC73F02506D8A026062550F8
:10F2C4002610D8A4F6D724C01AF0030E1A16D8B400
:10F2D40003D02D0EB7EC73F027C021F050D021508D
:10F2E400020D720EF324F66EFE0EF420F76E090082
:10F2F400F5CF03F00A00F5CF04F022C001F023C0DB
:10F3040002F034EC76F001C008F002C009F0000EFF
:10F314000B6E0A0E0A6EA6EC75F00850300F276EBD
:10F324002BD022C001F023C002F02150020D7C0E2C
:10F33400F324F66EFE0EF420F76E0900F5CF03F009
:10F344000A00F5CF04F034EC76F001500F0B1E6E7A
:10F354001E50010D9E0EF324F66EFE0EF420F76E81
:10F364000800F5CF27F008D02450800B000AD8B449
:10F37400B6D7800AD8B4D5D72750B7EC73F0210696
:10F384002128D8A4F1D712C0F6FF13C0F7FF124A00
:10F39400132A0800F5CF27F02750D8B412007FD6DF
:10F3A40019EC77F0000E496E010E486E000E476EA0
:10F3B400000E466E000E396E000E386E000E316E71
:10F3C400000E306E000E3F6E010E3E6E000E416E5A
:10F3D400010E406E000E336E000E326E000E4B6E48
:10F3E400000E4A6E000E356E000E346E000E376E3F
:10F3F400000E366E000E456E000E446E000E476E13
:10F40400010E466E680E296EE40EE82EFED7292EF4
:10F41400FCD700D0E6EC76F0F4EC73F0020E03ECCB
:10F4240074F0C4CF3EF03F6A050E03EC74F0C4CF11
:10F4340040F0416A48044910D8A4DCD0000E596E4B
:10F44400B5EC76F0D0EC73F0020E5918D8A475D050
:10F45400000E496E000E486E010EB1EC73F0680E9A
:10F46400296EE40EE82EFED7292EFCD700D0DF0E3D
:10F47400126EFE0E136E4CEC78F0C00EB1EC73F00D
:10F48400EF0E126EFE0E136E4CEC78F0000E026E50
:10F49400640E016EEAEC75F0000E396E010E386EE2
:10F4A4004EC029F00F0E29162950016E026A0E0E65
:10F4B400046E100E036E15EC74F04CC02AF02A3A58
:10F4C4000F0E2A160F0E2A162A500A0D4C500F0B37
:10F4D4002B6E2C6AF3502B26F4502C224DC02DF0A9
:10F4E4000F0E2D162D503C0DF3502B26F4502C22CC
:10F4F4004DC02EF02E3A0F0E2E160F0E2E162E5035
:10F504000A0DF3502B26F4502C2201502B260250C6
:10F514002C224EC02FF02F3A0F0E2F160F0E2F163F
:10F524002F500A0DF3502B24426EF4502C20436EBE
:10F5340042C03CF043C03DF06DD75904D8A403D079
:10F54400E9EC77F067D75950D8B464D759C048F07C
:10F55400496A4EC029F00F0E29162950016E026A1D
:10F564000E0E046E100E036E15EC74F04CC02AF0EF
:10F574002A3A0F0E2A160F0E2A162A500A0D4C503C
:10F584000F0B2B6E2C6AF3502B26F4502C224DC0FB
:10F594002DF00F0E2D162D503C0DF3502B26F4504C
:10F5A4002C224DC02EF02E3A0F0E2E160F0E2E16B4
:10F5B4002E500A0DF3502B26F4502C2201502B26EA
:10F5C40002502C224EC02FF02F3A0F0E2F160F0E82
:10F5D4002F162F500A0DF3502B244A6EF4502C2072
:10F5E4004B6E000E456E000E446E000E476E010E0B
:10F5F400466E10D70F0E48184910D8A4F6D1010E44
:10F60400B1EC73F0680E296EE40EE82EFED7292EB5
:10F61400FCD700D0000E596E46044710D8A40FD072
:10F624009E0E126EFF0E136E4CEC78F006EC75F025
:10F63400A6EC74F066EC75F0D0EC73F0D0D1020E49
:10F6440046184710D8A40FD0860E126EFF0E136E04
:10F654004CEC78F086EC74F0E6EC74F046EC75F063
:10F66400D0EC73F0BCD1030E46184710D8A40FD0C9
:10F67400860E126EFF0E136E4CEC78F086EC75F06D
:10F6840026EC75F0C6EC74F0D0EC73F0A8D1010E42
:10F69400B1EC73F0680E296EE40EE82EFED7292E25
:10F6A400FCD700D0540E126EFF0E136E4CEC78F0A3
:10F6B400010E026EF40E016E0FEC76F0C6EC73F0E0
:10F6C400A7EC73F0010EB1EC73F0680E296EE40E32
:10F6D400E82EFED7292EFCD700D0470E126EFF0E5F
:10F6E400136E4CEC78F0010E026EF40E016EEAEC2F
:10F6F40075F0C6EC73F0A2EC73F0000E596E4EC0B8
:10F7040029F00F0E29162950016E026A0E0E046E9E
:10F71400100E036E15EC74F04CC02AF02A3A0F0E4A
:10F724002A160F0E2A162A500A0D4C500F0B2B6E58
:10F734002C6AF3502B26F4502C224DC02DF00F0EC2
:10F744002D162D503C0DF3502B26F4502C224DC079
:10F754002EF02E3A0F0E2E160F0E2E162E500A0DC8
:10F76400F3502B26F4502C2201502B2602502C222D
:10F774004EC02FF02F3A0F0E2F160F0E2F162F50AC
:10F784000A0DF3502B24426EF4502C20436E79D092
:10F79400E6EC76F0000E596E030E2A6E080E296E02
:10F7A400770EE82EFED7292EFCD72A2EFAD700F0A2
:10F7B400010EB1EC73F0680E296EE40EE82EFED74C
:10F7C400292EFCD700D04EC029F00F0E291629503F
:10F7D400016E026A0E0E046E100E036E15EC74F0C8
:10F7E4004CC02AF02A3A0F0E2A160F0E2A162A5057
:10F7F4000A0D4C500F0B2B6E2C6AF3502B26F45031
:10F804002C224DC02DF00F0E2D162D503C0DF35013
:10F814002B26F4502C224DC02EF02E3A0F0E2E160D
:10F824000F0E2E162E500A0DF3502B26F4502C22B8
:10F8340001502B2602502C224EC02FF02F3A0F0ECF
:10F844002F160F0E2F162F500A0DF3502B243A6E3D
:10F85400F4502C203B6EC00E126EFF0E136E3AC095
:10F8640014F03BC015F042C007F043C008F094EC1C
:10F8740077F007C016F008C017F04CEC78F0D0EC25
:10F8840073F05950D8B484D7000E596E31D0000E9D
:10F89400596E030E2A6E080E296E770EE82EFED7D7
:10F8A400292EFCD72A2EFAD700F0010EB1EC73F002
:10F8B400680E296EE40EE82EFED7292EFCD700D060
:10F8C4006E0E126EFF0E136E4CEC78F0010E03EC0C
:10F8D40074F0C00EB1EC73F0FB0E126EFF0E136EDB
:10F8E400C3CF14F0C4CF15F04CEC78F0D0EC73F027
:10F8F4005950D8B4CCD7000E596E31D0000E596E81
:10F90400030E2A6E080E296E770EE82EFED7292ED6
:10F91400FCD72A2EFAD700F0010EB1EC73F0680E72
:10F92400296EE40EE82EFED7292EFCD700D07A0EDD
:10F93400126EFF0E136E4CEC78F0000E03EC74F0B4
:10F94400C00EB1EC73F0FB0E126EFF0E136EC3CF3C
:10F9540014F0C4CF15F04CEC78F0D0EC73F059509F
:10F96400D8B4CCD7000E596E33D0000E596E030EA6
:10F974002A6E080E296E770EE82EFED7292EFCD7A4
:10F984002A2EFAD700F0010EB1EC73F0680E296E3E
:10F99400E40EE82EFED7292EFCD700D02B0E126ED3
:10F9A400FF0E136E4CEC78F0040E03EC74F0C00EF2
:10F9B400B1EC73F0F60E126EFF0E136EC4CF14F09A
:10F9C400156AC3CF16F0176A4CEC78F0D0EC73F0DC
:10F9D4005950D8B4CAD7000E496E010E486E59501A
:10F9E400D8B418D5464A472A15D50E0E48184910DA
:10F9F400D8A474D1010EB1EC73F0680E296EE40E34
:10FA0400E82EFED7292EFCD700D0390E126EFF0E39
:10FA1400136E4CEC78F04AC007F04BC008F094EC3D
:10FA240077F008BE06D0085038E1030E075CD8B062
:10FA340034D0C6EC74F0040E03EC74F0020EC36010
:10FA440004D0000E456E010E446EC00EB1EC73F08E
:10FA5400CB0E126EFF0E136EC3CF14F0156A4CEC6E
:10FA640078F0010EB1EC73F0680E296EE40EE82E06
:10FA7400FED7292EFCD700D0B50E126EFF0E136EE2
:10FA84004AC007F04BC008F094EC77F007C014F0BC
:10FA940008C015F04CEC78F0BDD444044510D8A44B
:10FAA40056D0010EB1EC73F0680E296EE40EE82E08
:10FAB400FED7292EFCD700D0D50E126EFF0E136E82
:10FAC4004CEC78F0C00EB1EC73F04AC007F04BC0B8
:10FAD40008F094EC77F008BE06D0085017E1080E41
:10FAE400075CD8B013D0A6EC74F0AA0E126EFF0E09
:10FAF400136E4AC007F04BC008F094EC77F007C0CF
:10FB040014F008C015F04CEC78F084D44AC007F027
:10FB14004BC008F094EC77F008BE06D0085071E1B1
:10FB24000D0E075CD8B06DD086EC74F0610E126EC9
:10FB3400FF0E136E4AC007F04BC008F094EC77F048
:10FB440007C014F008C015F04CEC78F063D44450AE
:10FB54004510D8A45AD0010EB1EC73F0680E296E8A
:10FB6400E40EE82EFED7292EFCD700D0330E126EF9
:10FB7400FF0E136E4CEC78F0C00EB1EC73F04AC07B
:10FB840007F04BC008F094EC77F008BE06D008509C
:10FB940017E1080E075CD8B013D086EC74F0AA0EF7
:10FBA400126EFF0E136E4AC007F04BC008F094ECBF
:10FBB40077F007C014F008C015F04CEC78F02AD4A4
:10FBC4004AC007F04BC008F094EC77F008BE06D0AA
:10FBD400085017E10D0E075CD8B013D0A6EC74F0F2
:10FBE400610E126EFF0E136E4AC007F04BC008F090
:10FBF40094EC77F007C014F008C015F04CEC78F0E2
:10FC040009D4000E456E640E66D0010EB1EC73F09B
:10FC1400680E296EE40EE82EFED7292EFCD700D0FC
:10FC2400920E126EFF0E136E4AC007F04BC008F01E
:10FC340094EC77F007C014F008C015F04CEC78F0A1
:10FC44004EC029F00F0E29162950016E026A0E0EBD
:10FC5400046E100E036E15EC74F04CC02AF02A3AB0
:10FC64000F0E2A160F0E2A162A500A0D4C500F0B8F
:10FC74002B6E2C6AF3502B26F4502C224DC02DF001
:10FC84000F0E2D162D503C0DF3502B26F4502C2224
:10FC94004DC02EF02E3A0F0E2E160F0E2E162E508D
:10FCA4000A0DF3502B26F4502C2201502B2602501F
:10FCB4002C224EC02FF02F3A0F0E2F160F0E2F1698
:10FCC4002F500A0DF3502B244A6EF4502C204B6E07
:10FCD400000E456E000E446E0CEF7AF0010EB1EC8E
:10FCE40073F0680E296EE40EE82EFED7292EFCD799
:10FCF40000D0EE0E126EFF0E136E4CEC78F0000E78
:10FD0400596ED0EC73F05950D8B404D0000E496E3B
:10FD1400010E486E3CC007F03DC008F094EC77F04B
:10FD240008BE66D0085004E10B0E075CD8A060D072
:10FD3400050E03EC74F0C4CF3EF03F6A020E03ECF0
:10FD440074F0C4CF40F0416A3E503F10D8A408D0AC
:10FD540040504110D8A404D0000E496E010E486EE4
:10FD64004EC029F00F0E29162950016E026A0E0E9C
:10FD7400046E100E036E15EC74F04CC02AF02A3A8F
:10FD84000F0E2A160F0E2A162A500A0D4C500F0B6E
:10FD94002B6E2C6AF3502B26F4502C224DC02DF0E0
:10FDA4000F0E2D162D503C0DF3502B26F4502C2203
:10FDB4004DC02EF02E3A0F0E2E160F0E2E162E506C
:10FDC4000A0DF3502B26F4502C2201502B260250FE
:10FDD4002C224EC02FF02F3A0F0E2F160F0E2F1677
:10FDE4002F500A0DF3502B243C6EF4502C203D6E02
:10FDF40048044910D8A40CEF7AF0010EB1EC73F06A
:10FE0400680E296EE40EE82EFED7292EFCD700D00A
:10FE14008B0E126EFE0E136E4CEC78F0150E2A6EDD
:10FE24004B0E296EBE0EE82EFED7292EFCD72A2EA5
:10FE3400FAD700D0A2EC73F0000E396E000E386EC3
:10FE440042C007F043C008F094EC77F007C012F00A
:10FE540008C013F04FEC74F00CEF7AF00031323339
:10FE64004134353642373839432A302344000100BF
:10FE74000A006400E80310270100100000010010CC
:10FE84003026130401031746696E6973686564209C
:10FE9400736F7274696E67212000303132333435E8
:10FEA4003637383961626364656600253032782FED
:10FEB400253032782F2530327820002320736F6468
:10FEC400612063616E733A2025640052756E23319C
:10FED40020202020413A4E65787400536F72746973
:10FEE4006E672063616E732E2E2E00416E79206B37
:10FEF400657920746F2073746F70002320736F759D
:10FF0400702063616E733A203400253032783A25CC
:10FF14003032783A253032780023206F66206361CE
:10FF24006E733A2025640074657374696E67206C7F
:10FF34006162656C00736F75702063616E20746517
:10FF440073740074657374696E672050574D310083
:10FF540074657374696E672050574D32007265740E
:10FF640075726E696E672025640074657374696EBA
:10FF740067204952310074657374696E6720495271
:10FF8400320074657374696E672053206200666979
:10FF94006E69736865642025640074657374696EA2
:10FFA400672053206600736F7274696E672025643E
:10FFB4000074657374696E672025640074696D65E7
:10FFC4002025782025780076616C75653A2025789F
:10FFD400006E6F206C6162656C0020323A4C6F6772
:10FFE4007300333A537461727400736F7274696E80
:0BFFF400670025782020202578000001
:020000040020DA
:08000000FFFFFFFFFFFFFFFF00
:020000040030CA
:0E000000FF021F1EFF8381FF0FC00FE00F40A5
:00000001FF
