:0400000007EF00F016
:100008005F826DED0DF07AEF15F0000E896E24EC2D
:1000180013F0000E0001AE6F010EAD6F000E00016F
:10002800986F000E976F000E0001946F010E936F8A
:10003800000E0001966F010E956F170ED56E850E96
:10004800D76EAE0ED66ED58E06EC16F0680E000191
:10005800916FE40EE82EFED7912FFCD700F0000137
:10006800AD050001AE11D8A4F2D0000E0001C26F98
:1000780006D0D4EC13F008EC14F0E7EC15F000010E
:10008800C251D8B4F6D7020E0001C219D8A4B1D013
:10009800000E0001AE6F000EAD6F000E0001BD6FC7
:1000A800000EBC6F000E0001BB6F000EBA6F000E91
:1000B8000001A66F000EA56F000E526E000E516E65
:1000C800000E0001A86F000EA76F000E566E000EFE
:1000D800556E000E546E000E536E000E00019E6F9A
:1000E800000E9D6F000E0001A06F000E9F6F000EA6
:1000F8000001A26F000EA16F000E0001A46F000E98
:10010800A36F000E0001AC6F000EAB6F000E000174
:10011800AA6F000EA96F010E1CEC16F0340E000138
:10012800916FF10EE82EFED7912FFCD700D0160E56
:100138002D6EFF0E2E6E3BEC07F0C00E1CEC16F079
:10014800560E2D6EFF0E2E6E3BEC07F004D0000EFF
:100158005A6E020E596E56BEFAD7565004E10E0E6C
:10016800555CD8A0F4D7000E5A6E040E596E86EC72
:1001780010F0020E0001C0190001C111D8B407D057
:10018800030E0001C0190001C111D8A404D0000E4B
:100198005C6E030E03D0000E5C6E050E5B6E020EE5
:1001A8000001BE190001BF11D8B407D0030E000129
:1001B800BE190001BF11D8A404D0000E586E030E5A
:1001C80003D0000E586E050E576E030E226E840E75
:1001D800216E000E246E010E236E60EC13F0010EEA
:1001E800226E900E216EE1EC14F0000E0001C26F39
:1001F80036D7030E0001C219D8A419D0000E3A6EE2
:10020800010E396EFFEC08F0000E3A6E020E396EE0
:10021800FFEC08F0000E3A6E030E396EFFEC08F0A2
:10022800000E3A6E040E396EFFEC08F018D70F0E68
:100238000001C219D8A413D7000E0001AE6F020E38
:10024800AD6F000E0001986F010E976F08D7020E70
:100258000001AD190001AE11D8A45BD2010E1CEC4F
:1002680016F0340E0001916FF10EE82EFED7912F93
:10027800FCD700D0260E2D6EFF0E2E6E3BEC07F03D
:10028800030E226E840E216E000E246E010E236E64
:1002980060EC13F0F2EC15F0010E1CEC16F0340EC5
:1002A8000001916FF10EE82EFED7912FFCD700D0F8
:1002B800C40E2D6EFE0E2E6E3BEC07F0030E226E62
:1002C800840E216E000E246E020E236E60EC13F075
:1002D800F2EC15F027EC16F0010E1CEC16F0340EBB
:1002E8000001916FF10EE82EFED7912FFCD700D0B8
:1002F800C70E2D6EFF0E2E6E3BEC07F0000E5C6EE7
:10030800010E5B6E000E5A6E010E596E000E586E8D
:10031800010E576EF2EC15F0010E1CEC16F0340EBF
:100328000001916FF10EE82EFED7912FFCD700D077
:10033800AF0E2D6EFF0E2E6E3BEC07F0000E5C6EBE
:10034800020E5B6E000E5A6E020E596E000E586E4B
:10035800020E576EF2EC15F0010E1CEC16F0340E7E
:100368000001916FF10EE82EFED7912FFCD700D037
:10037800360E2D6EFF0E2E6E3BEC07F0000E5C6EF7
:10038800030E5B6E000E5A6E030E596E000E586E09
:10039800030E576EF2EC15F0000E5C6E040E5B6EE9
:1003A800000E5A6E040E596E000E586E040E576EEB
:1003B800000E0001C26F010E1CEC16F0340E000195
:1003C800916FF10EE82EFED7912FFCD700D0660E64
:1003D8002D6EFF0E2E6E3BEC07F032D0E7EC15F0D9
:1003E800020E0001C219D8A402D08C8201D08C92CE
:1003F800060E0001C219D8A402D08A8601D08A96B6
:100408000A0E0001C219D8A402D08A8401D08A94A5
:100418000E0E0001C219D8A402D08A8001D08A9099
:10042800010EC6EC15F0C00E1CEC16F0FB0E2D6E7E
:10043800FF0E2E6EC3CF2FF0C4CF30F03BEC07F089
:10044800030E0001C219D8A4C9D7000E0001C26F5B
:10045800010E1CEC16F0340E0001916FF10EE82E1F
:10046800FED7912FFCD700D0760E2D6EFF0E2E6E84
:100478003BEC07F022D0E7EC15F0020E0001C219A0
:10048800D8A402D08B8E01D08B9E060E0001C21913
:10049800D8A402D08B8C01D08B9C0A0E0001C21903
:1004A800D8A402D08B8001D08B900E0E0001C21907
:1004B800D8A402D08B8A01D08B9A030E0001C219EE
:1004C800D8A4D9D7000E0001C26F010E1CEC16F09B
:1004D800340E0001916FF10EE82EFED7912FFCD754
:1004E80000D0860E2D6EFF0E2E6E3BEC07F032D03C
:1004F800E7EC15F0020E0001C219D8A402D08D84D1
:1005080001D08D94060E0001C219D8A402D08D82A4
:1005180001D08D920A0E0001C219D8A402D0898890
:1005280001D089980E0E0001C219D8A402D08C807F
:1005380001D08C90050EC6EC15F0C00E1CEC16F020
:10054800FB0E2D6EFF0E2E6EC3CF2FF0C4CF30F0F2
:100558003BEC07F0030E0001C219D8A4C9D7000E5E
:100568005C6E000E5B6E000E5A6E000E596E000E29
:10057800586E000E576E010E1CEC16F0340E00017A
:10058800916FF10EE82EFED7912FFCD700D0960E72
:100598002D6EFF0E2E6E3BEC07F0010E226E900EB4
:1005A800216EE1EC14F0F2EC15F02CEC16F0000ED4
:1005B8000001C26F5BD0000E0001C26F010E1CEC7F
:1005C80016F0340E0001916FF10EE82EFED7912F30
:1005D800FCD700D0D30E2D6EFF0E2E6E3BEC07F02D
:1005E800C00E1CEC16F0010EC6EC15F0F70E2D6EC1
:1005F800FF0E2E6EC3CF2FF0C4CF30F03BEC07F0C8
:10060800000EC6EC15F0F70E2D6EFF0E2E6EC3CF42
:100618002FF0C4CF30F03BEC07F0020EC6EC15F01B
:10062800F70E2D6EFF0E2E6EC3CF2FF0C4CF30F015
:100638003BEC07F0050EC6EC15F0F70E2D6EFF0E1D
:100648002E6EC3CF2FF0C4CF30F03BEC07F0E7ECB1
:1006580015F0050E0001926F0F0E0001916FF10E5B
:10066800E82EFED7912FFCD7922FFAD70001C2515E
:10067800D8B4A1D7000E0001C26F41D0000E00010E
:10068800C26F030E0001926F080E0001916F770E82
:10069800E82EFED7912FFCD7922FFAD7010E1CEC2B
:1006A80016F0340E0001916FF10EE82EFED7912F4F
:1006B800FCD700D0BB0E2D6EFF0E2E6E3BEC07F064
:1006C800C00E1CEC16F0040EC6EC15F0DE0E2D6EF6
:1006D800FF0E2E6EC3CF2FF0C4CF30F03BEC07F0E7
:1006E800030EC6EC15F0DE0E2D6EFF0E2E6EC3CF78
:1006F8002FF0C4CF30F03BEC07F0E7EC15F0000129
:10070800C251D8B4BBD7000E0001AE6F010EAD6F59
:10071800A6D4020EC6EC15F0310EC35C010EC45807
:10072800D8B026D0BCC099F0BDC09AF0000E000128
:10073800B96F010EB86F0001A5510001A611D8A428
:1007480017D0000E0001A66F010EA56F000E566EA1
:10075800000E556E070E0001926F170E0001916F83
:100768006A0EE82EFED7912FFCD7922FFAD700F009
:100778000001A5510001A611D8B4EED056BE06D08E
:10078800565011E1780E555CD8B00DD0040EC6EC69
:1007980015F0020EC45CD8B0DFD0000E0001BB6FAC
:1007A800010EBA6FD9D00001BA050001BB11D8A457
:1007B8003DD056BE06D0565008E1BE0E555CD8B0A6
:1007C80004D0000E5C6E010E42D056BE06D05650C4
:1007D8000CE1F50E555CD8B008D0000E5C6E020E28
:1007E8005B6E000E4E6E020E48D0000E5C6E040E5C
:1007F8005B6E4DC021F04EC022F0BDEC0AF0010E38
:10080800C6EC15F00001AB51C35C0001AC51C458F3
:10081800D8B059D0AB0EC35C030EC458D8A053D07F
:10082800000E0001BB6F650EBA6F4DD00001BA51C2
:100838000001BB11D8A44CD056BE06D056500EE1CC
:10084800BE0E555CD8B00AD0000E5C6E020E5B6E10
:10085800000E0001B96F000EB86F7ED056BE06D0EC
:10086800565011E1F80E555CD8B00DD0000E5C6EF4
:10087800010E5B6E000E4E6E010E4D6E000E4C6E3C
:10088800010E4B6E69D0000E5C6E040E5B6E4DC09F
:1008980021F04EC022F0BDEC0AF0010EC6EC15F0B6
:1008A8000001AB51C35C0001AC51C458D8B00BD0A7
:1008B800AB0EC35C030EC458D8A005D0000E0001CF
:1008C800BB6F640EB1D7C3CFABF0C4CFACF044D08C
:1008D800650E0001BA190001BB11D8A404D00001AB
:1008E8009F4BA02B0AD0640E0001BA190001BB115E
:1008F800D8A403D000019D4B9E2B000E566E000E0F
:10090800556E000E0001AC6F000EAB6F000E0001BB
:10091800BB6F000EBA6F0001B8510001B911D8A41D
:1009280005D0000E0001A66F000EA56F020E000193
:10093800C0190001C111D8B407D0030E0001C019B5
:100948000001C111D8A404D0000E5C6E030E03D0C0
:10095800000E5C6E050E5B6EC00E1CEC16F0000EF1
:10096800C6EC15F0310EC35C010EC458D8B026D0C1
:10097800BCC09BF0BDC09CF0000E0001B76F010E1B
:10098800B66F0001A7510001A811D8A417D0000E16
:100998000001A86F010EA76F000E546E000E536E73
:1009A800070E0001926F170E0001916F6A0EE82E74
:1009B800FED7912FFCD7922FFAD700F00001A7514C
:1009C8000001A811D8B43AD154BE06D0545008E159
:1009D800300E535CD8B004D0000E5A6E040E4AD0C4
:1009E80054BE06D0545008E15B0E535CD8B004D016
:1009F800000E586E010E21D154BE06D054500CE1A1
:100A0800650E535CD8B008D0000E586E040E576EB1
:100A1800000E5A6E010E2ED054BE06D054501BE163
:100A2800740E535CD8B017D0000E586E040E576E73
:100A3800000E5A6E000E596E030EC6EC15F0020E2B
:100A4800C46004D0000E526E010E516E000E5E6E30
:100A5800010E5D6EF3D054BE06D054500DE1880EE1
:100A6800535CD8B009D0000E586E040E576E000EB5
:100A78005A6E020E596EE2D051045210D8A444D0D6
:100A880054BE06D0545008E1A60E535CD8B004D02A
:100A9800000E586E010E47D054BE06D0545010E1D7
:100AA800DD0E535CD8B00CD0000E586E020E576E97
:100AB800000E5A6E040E596E000E506E020E51D082
:100AC800000E5A6E040E596E000E586E040E576EC4
:100AD8004FC021F050C022F092EC0EF0050EC6EC8B
:100AE80015F00001A951C35C0001AA51C458D8B03F
:100AF80061D0AB0EC35C030EC458D8A05BD0000E07
:100B0800526E650E516E56D051505210D8A457D01F
:100B180054BE06D0545012E1FE0E535CD8B00ED02D
:100B2800000E586E020E576E000E5A6E040E596E65
:100B3800000E0001B76F000EB66F80D054BE06D00D
:100B48003F0E535C010E5458D8B011D0000E586EA9
:100B5800010E576E000E5A6E040E596E000E506E3E
:100B6800010E4F6E000E4A6E010E496E67D0000EE0
:100B7800586E040E576E000E5A6E040E596E4FC012
:100B880021F050C022F092EC0EF0050EC6EC15F0E4
:100B98000001A951C35C0001AA51C458D8B00AD0B9
:100BA800AB0EC35C030EC458D8A004D0000E526E1E
:100BB800640EA8D7C3CFA9F0C4CFAAF03FD0650E62
:100BC80051185210D8A404D00001A14BA22B08D070
:100BD800640E51185210D8A403D00001A34BA42BC3
:100BE800000E546E000E536E000E526E000E516EC3
:100BF800000E0001AA6F000EA96F0001B651000196
:100C0800B711D8A405D0000E0001A86F000EA76F79
:100C1800020E0001BE190001BF11D8B407D0030E9F
:100C28000001BE190001BF11D8A404D0000E586EEF
:100C3800030E03D0000E586E050E576EBCC021F08F
:100C4800BDC022F0000E246E070E236E9CEC13F03C
:100C580021042210D8A412D00001BDBF08D0000181
:100C6800BD510CE1070E0001BC5DD8B007D0020EE3
:100C7800226EEE0E216EBAEC14F048D0BCC021F002
:100C8800BDC022F0000E246E070E236E9CEC13F0FC
:100C9800020E21182210D8A407D0020E226EEE0EE2
:100CA800216EBAEC14F032D0BCC021F0BDC022F0E5
:100CB800000E246E070E236E9CEC13F0050E21180F
:100CC8002210D8A40BD0030E226E840E216E000EC3
:100CD800246E020E236E60EC13F018D0BCC021F015
:100CE800BDC022F0000E246E070E236E9CEC13F09C
:100CF80021502210D8A40AD0030E226E840E216E31
:100D0800000E246E010E236E60EC13F0E7EC15F074
:100D18000001C251D8A443D099C091F09AC092F072
:100D28000001911F921F914B922B0001BC510001B1
:100D380091270001BD5100019223000192BF24D0E8
:100D48000001925105E10D0E0001915DD8A01CD063
:100D58009BC091F09CC092F00001911F921F914B93
:100D6800922B0001BC51000191270001BD510001E7
:100D78009223000192BF08D00001925110E10D0E9C
:100D88000001915DD8B00BD00001BDBFC2D40001F5
:100D9800BD5105E1B40E0001BC5DD8A0BAD4000E67
:100DA8000001AE6F010EAD6F27EC16F02CEC16F0BB
:100DB800000E5C6E000E5B6E000E5A6E000E596ED1
:100DC800000E586E000E576EBCC025F0BDC026F050
:100DD800B5C027F0286AB4C029F02A6AB3C02BF03E
:100DE8002C6AB1C02DF02E6AB0C02FF0306AAFC0A7
:100DF80031F0326AA1C033F0A2C034F0A3C035F09C
:100E0800A4C036F09DC037F09EC038F09FC039F0BE
:100E1800A0C03AF04AEC11F0010E1CEC16F0340EAA
:100E28000001916FF10EE82EFED7912FFCD700D06C
:100E3800460E2D6EFF0E2E6E3BEC07F0C00E1CEC1E
:100E480016F0D50E2D6EFE0E2E6E3BEC07F0F2EC72
:100E580015F0070E0001C219D8A433EF00F0000EF8
:100E68003A6E010E396EFFEC08F033EF00F02F0EEA
:100E78000001816F000E0001826FAFD1250E0001C5
:100E88008919D8B405D00001895116EC16F0A5D1FE
:100E9800000E0001886F000E876F000E0001866F3C
:100EA80004D0000186852D4A2E2A2DC0F6FF2EC0BB
:100EB800F7FF0800F550300AD8B4F3D72DC0F6FF75
:100EC8002EC0F7FF0800F550D8EC15F0D8A039D09F
:100ED800000E0001886F000E876F87C021F088C060
:100EE80022F0000E246E0A0E236EA0EC15F021C02D
:100EF80087F022C088F0D00E356EFF0E366E2DC0FA
:100F0800F6FF2EC0F7FF0800F550376E386A3550E7
:100F180037263650382237500001872738500001CD
:100F280088232D4A2E2A2DC0F6FF2EC0F7FF080071
:100F3800F550D8EC15F0D8A004D0CFD70001868F93
:100F480018D02DC0F6FF2EC0F7FF2D4A2E2A080014
:100F5800F5CF89F000018951000AD8B41200640A5B
:100F6800D8B407D00D0AD8B404D0110AD8B4E6D73B
:100F780034D1000186BF19D081C0D9FF82C0DAFF01
:100F8800DECF84F0DDCF85F0020E00018127000E50
:100F98008223000185AF53D0030E000186130001A0
:100FA800846D851FD8B0852B4AD081C0D9FF82C0F7
:100FB800DAFFDECF84F0DDCF85F0020E0001812755
:100FC800000E82233CD0010E0001896F050E00013E
:100FD8008919D8B43DD000018951020D3C0EF32483
:100FE800F66EFE0EF420F76E0900F5500001845DE0
:100FF8000900F55000018559D8A02AD00001892B95
:10100800E5D7010E0001896F040E00018919D8B4D3
:101018001FD000018951020D460EF324F66EFE0E14
:10102800F420F76E0900F5500001845D0900F550C1
:1010380000018559D8A00CD00001892BE5D7000103
:101048008651800B000AD8B4BED7800AD8B4D9D745
:101058000001875100018811D8B40AD086C035F044
:10106800030E3516D8B404D000018707D8A0880726
:10107800800E000189BF7F0E356E00018751000187
:10108800895D00018851800A3558D8B00BD000011D
:1010980089510001875F000E000189BFFF0E000122
:1010A800885B05D0000E0001886F000E876F000175
:1010B80086A517D086C035F0030E3516D8B403D0F0
:1010C8002D0E16EC16F00001875100018811D8B4D6
:1010D80024D0300E16EC16F000018707D8A0880738
:1010E800F2D70001875100018811D8B40DD0200E25
:1010F80016EC16F000018707D8A088070001875171
:1011080000018811D8A4F3D786C035F0030E351630
:10111800D8B403D02D0E16EC16F089C083F057D042
:1011280000018351020D3C0EF324F66EFE0EF420EE
:10113800F76E0900F5CF23F00A00F5CF24F084C03C
:1011480021F085C022F091EC14F021C028F022C0D3
:1011580029F0000E2B6E0A0E2A6E29EC15F0285085
:10116800300F0001896F2FD084C021F085C022F094
:1011780000018351020D460EF324F66EFE0EF42094
:10118800F76E0900F5CF23F00A00F5CF24F091ECB3
:1011980014F021500F0B0001806F00018051010DE8
:1011A800800EF324F66EFE0EF420F76E0800F5CFDD
:1011B80089F009D000018651800B000AD8B4B0D755
:1011C800800AD8B4D1D70001895116EC16F0000175
:1011D800830700018329D8A4EDD72DC0F6FF2EC0C0
:1011E800F7FF2D4A2E2A0800F5CF89F00001895112
:1011F800D8B4120043D6000E66EC15F000018F6FCC
:10120800906B8FBF9007000E00018E6F010E8D6FDF
:1012180016D000018F4B902B000190BF0DD000011C
:10122800905105E1050E00018F5DD8A005D0000E94
:101238000001906F010E8F6F00018D4B8E2B39507E
:1012480000018D5D00018E51800A00018A6F3A50BD
:10125800800A00018A59D8A0DCD7010E1CEC16F0D0
:10126800340E00018A6FF10EE82EFED78A2FFCD7C4
:1012780000D0B30E2D6EFE0E2E6E39C02FF03AC080
:1012880030F03BEC07F0C00E1CEC16F0A30E2D6EF0
:10129800FF0E2E6E8FC08AF000018A3BF00E8A176F
:1012A80000018A2966EC15F02F6E306A2FBE3006D1
:1012B8003BEC07F0F2EC15F0010E1CEC16F0340EC6
:1012C80000018A6FF10EE82EFED78A2FFCD700D0D6
:1012D800B30E2D6EFE0E2E6E39C02FF03AC030F0D0
:1012E8003BEC07F0C00E1CEC16F06B0E2D6EFE0EDC
:1012F8002E6E8FC08AF000018A3BF00E8A1700011B
:101308008A51020F66EC15F02F6E306A2FBE300638
:101318008FC08BF000018B3BF00E8B1700018B51B7
:10132800030F66EC15F0316E326A31BE32068FC09B
:101338008CF000018C3BF00E8C1700018C51040FCF
:1013480066EC15F0336E346A33BE34063BEC07F0B6
:10135800F2EC15F0010E1CEC16F0340E00018A6F49
:10136800F10EE82EFED78A2FFCD700D0B30E2D6ED3
:10137800FE0E2E6E39C02FF03AC030F03BEC07F06D
:10138800C00E1CEC16F0550E2D6EFE0E2E6E8FC084
:101398008AF000018A3BF00E8A1700018A51050F76
:1013A80066EC15F02F6E306A2FBE30068FC08BF0BA
:1013B80000018B3BF00E8B1700018B51060F66EC7A
:1013C80015F0316E326A31BE32068FC08CF00001E2
:1013D8008C3BF00E8C1700018C51070F66EC15F052
:1013E800336E346A33BE34063BEC07F0F2EC15F08A
:1013F800010E1CEC16F0340E00018A6FF10EE82E77
:10140800FED78A2FFCD700D0B30E2D6EFE0E2E6E9F
:1014180039C02FF03AC030F03BEC07F0C00E1CEC9E
:1014280016F0F60E2D6EFE0E2E6E8FC08AF000019D
:101438008A3BF00E8A1700018A51080F66EC15F0F6
:101448002F6E306A2FBE30063BEC07F0F2EC15F039
:10145800010E1CEC16F0340E00018A6FF10EE82E16
:10146800FED78A2FFCD700D0B30E2D6EFE0E2E6E3F
:1014780039C02FF03AC030F03BEC07F0C00E1CEC3E
:1014880016F0910E2D6EFE0E2E6E8FC08AF00001A2
:101498008A3BF00E8A1700018A51090F66EC15F095
:1014A8002F6E306A2FBE30063BEC07F0F2EC15F0D9
:1014B800010E1CEC16F0340E00018A6FF10EE82EB6
:1014C800FED78A2FFCD700D0B30E2D6EFE0E2E6EDF
:1014D80039C02FF03AC030F03BEC07F0C00E1CECDE
:1014E80016F0060E2D6EFF0E2E6E8FC08AF00001CC
:1014F8008A3BF00E8A1700018A510A0F66EC15F034
:101508002F6E306A2FBE30063BEC07F0F2EC15F078
:10151800010E1CEC16F0340E00018A6FF10EE82E55
:10152800FED78A2FFCD700D0B30E2D6EFE0E2E6E7E
:1015380039C02FF03AC030F03BEC07F0C00E1CEC7D
:1015480016F0A20E2D6EFE0E2E6E8FC08AF00001D0
:101558008A3BF00E8A1700018A510B0F66EC15F0D2
:101568002F6E306A2FBE30063BEC07F0F2EC15F018
:101578001200340E236EF20EE82EFED7232EFCD76F
:1015880021502210D8A405D08C928A968A948A90E9
:101598001200030E21182210D8A449D0454A462A21
:1015A80046BE0AD0465004E1090E455CD8A004D0D6
:1015B800000E466E010E456E340E236EF20EE82EB6
:1015C800FED7232EFCD745044610D8B405D0080E04
:1015D80045184610D8A402D08C8201D08C92020EF5
:1015E80045184610D8B405D0070E45184610D8A49B
:1015F80002D08A8601D08A96030E45184610D8B4C0
:1016080005D0060E45184610D8A402D08A8401D009
:101618008A94040E45184610D8B405D0050E45180E
:101628004610D8A402D08A8012008A901200050EB3
:1016380021182210D8A449D0454A462A46BE0AD0C5
:10164800465004E1090E455CD8A004D0000E466E51
:10165800010E456E340E236EF20EE82EFED7232EB1
:10166800FCD745044610D8B405D0080E45184610D6
:10167800D8A402D08A8401D08A94020E4518461054
:10168800D8B405D0070E45184610D8A402D08A80D1
:1016980001D08A90030E45184610D8B405D0060E1E
:1016A80045184610D8A402D08C8201D08C92040E22
:1016B80045184610D8B405D0050E45184610D8A4CC
:1016C80002D08A8612008A961200040E211822106F
:1016D800D8B41200680E236EE40EE82EFED7232E2F
:1016E800FCD700D021042210D8B405D0050E21184B
:1016F8002210D8A413D00001C04BC12B0001C1BFD8
:101708002AD00001C15105E1050E0001C05DD8A035
:1017180022D0000E0001C16F010E1CD0020E21184C
:101728002210D8B405D0060E21182210D8A413D040
:101738000001C007D8A0C1070001C1BF07D0000140
:10174800C15109E10001C005D8B005D0000E000163
:10175800C16F040EC06F21042210D8B405D0020E48
:1017680021182210D8A427D00001C0050001C111FA
:10177800D8A402D08C8201D08C92020E0001C0192C
:101788000001C111D8A402D08A8601D08A96030E1E
:101798000001C0190001C111D8A402D08A8401D067
:1017A8008A94040E0001C0190001C111D8A402D006
:1017B8008A8001D08A90050E21182210D8B405D04D
:1017C800060E21182210D8A412000001C00500013D
:1017D800C111D8A404D08C828A868A948A90020E79
:1017E8000001C0190001C111D8A404D08C928A86C6
:1017F8008A848A90030E0001C0190001C111D8A47F
:1018080004D08C928A968A848A80040E0001C019BA
:101818000001C111D8A412008C828A968A948A8009
:101828001200340E036EF20EE82EFED7032EFCD7FC
:1018380001500210D8A405D08C928A968A948A9076
:101848001200030E01180210D8A449D0454A462AAE
:1018580046BE0AD0465004E1090E455CD8A004D023
:10186800000E466E010E456E340E036EF20EE82E23
:10187800FED7032EFCD745044610D8B405D0080E71
:1018880045184610D8A402D08C8201D08C92020E42
:1018980045184610D8B405D0070E45184610D8A4E8
:1018A80002D08A8601D08A96030E45184610D8B40D
:1018B80005D0060E45184610D8A402D08A8401D057
:1018C8008A94040E45184610D8B405D0050E45185C
:1018D8004610D8A402D08A8012008A901200050E01
:1018E80001180210D8A449D0454A462A46BE0AD053
:1018F800465004E1090E455CD8A004D0000E466E9F
:10190800010E456E340E036EF20EE82EFED7032E3E
:10191800FCD745044610D8B405D0080E4518461023
:10192800D8A402D08A8401D08A94020E45184610A1
:10193800D8B405D0070E45184610D8A402D08A801E
:1019480001D08A90030E45184610D8B405D0060E6B
:1019580045184610D8A402D08C8201D08C92040E6F
:1019680045184610D8B405D0050E45184610D8A419
:1019780002D08A8612008A961200040E01180210FC
:10198800D8B41200680E036EE40EE82EFED7032EBC
:10199800FCD700D001040210D8B405D0050E0118F8
:1019A8000210D8A413D00001C04BC12B0001C1BF45
:1019B8002AD00001C15105E1050E0001C05DD8A083
:1019C80022D0000E0001C16F010E1CD0020E0118BA
:1019D8000210D8B405D0060E01180210D8A413D0EE
:1019E8000001C007D8A0C1070001C1BF07D000018E
:1019F800C15109E10001C005D8B005D0000E0001B1
:101A0800C16F040EC06F01040210D8B405D0020ED5
:101A180001180210D8A427D00001C0050001C11187
:101A2800D8A402D08C8201D08C92020E0001C01979
:101A38000001C111D8A402D08A8601D08A96030E6B
:101A48000001C0190001C111D8A402D08A8401D0B4
:101A58008A94040E0001C0190001C111D8A402D053
:101A68008A8001D08A90050E01180210D8B405D0DA
:101A7800060E01180210D8A412000001C0050001CA
:101A8800C111D8A404D08C828A868A948A90020EC6
:101A98000001C0190001C111D8A404D08C928A8613
:101AA8008A848A90030E0001C0190001C111D8A4CC
:101AB80004D08C928A968A848A80040E0001C01908
:101AC8000001C111D8A412008C828A968A948A8057
:101AD80012000600FACF11F0FBCF12F0E9CF13F095
:101AE800EACF14F0E1CF15F0E2CF16F0D9CF17F016
:101AF800DACF18F0F3CF19F0F4CF1AF0F6CF1BF0C5
:101B0800F7CF1CF0F8CF1DF0F5CF1EF0F29EF2A42F
:101B18000ED0F2940001BC4BBD2BD59E170ED56E8E
:101B2800850ED76EAE0ED66ED5508009D56E9EA0A6
:101B3800D7D09E905BC001F05CC002F015EC0CF0B1
:101B480059C001F05AC002F000EC12F057C001F081
:101B580058C002F08CEC0FF0554A562A534A542AC2
:101B680051505210D8A433D0000E0A6E020E096EDE
:101B7800020E4924016E000E4A20026E49C003F08D
:101B88004AC004F0B3EC15F001C007F002C008F039
:101B9800A1EC12F007C01FF008C020F0E00E0F6E95
:101BA800010E106E1FC001F020C002F0000E046E7E
:101BB800640E036EB3EC15F00F500126105002228C
:101BC8005350011804E154500218D8B437D05104C6
:101BD8005210D8A441D0000E0A6E020E096E010EF2
:101BE8004924016E000E4A20026E49C003F04AC023
:101BF80004F0B3EC15F001C007F002C008F0A1EC46
:101C080012F007C01FF008C020F0450E0F6E010E3D
:101C1800106E1FC001F020C002F0000E046E640EAA
:101C2800036EB3EC15F00F500126105002225350EA
:101C3800011812E154500218D8A40ED04F045010C5
:101C4800D8A404D0000E506E020E03D0000E506EC1
:101C5800010E4F6E494A4A2A000E0A6E020E096E9C
:101C6800010E4B24016E000E4C20026E4BC003F097
:101C78004CC004F0B3EC15F001C007F002C008F046
:101C8800A1EC12F007C01FF008C020F0A40E0F6EE0
:101C9800010E106E1FC001F020C002F0000E046E8D
:101CA800640E036EB3EC15F00F500126105002229B
:101CB8005550011812E156500218D8A40ED04D0400
:101CC8004E10D8A404D0000E4E6E020E03D0000EA3
:101CD8004E6E010E4D6E4B4A4C2ACD900EEC16F00E
:101CE8001EC0F5FF1DC0F8FF1CC0F7FF1BC0F6FFA4
:101CF8001AC0F4FF19C0F3FF18C0DAFF17C0D9FFE4
:101D080016C0E2FF15C0E1FF14C0EAFF13C0E9FFE7
:101D180012C0FBFF11C0FAFF5F921100340E236E50
:101D2800F20EE82EFED7232EFCD721502210D8A47D
:101D380005D08D948D9289988C901200040E2118EC
:101D48002210D8B41200030E21182210D8A442D0B1
:101D5800414A422A42BE0AD0425004E1090E415C7F
:101D6800D8A004D0000E426E010E416E410442100C
:101D7800D8B405D0080E41184210D8A402D08D84DA
:101D880001D08D94020E41184210D8B405D0070E28
:101D980041184210D8A402D08D8201D08D92030E32
:101DA80041184210D8B405D0060E41184210D8A4E4
:101DB80002D0898801D08998040E41184210D8B4FD
:101DC80005D0050E41184210D8A402D08C8012000C
:101DD8008C901200050E21182210D8A442D0414A36
:101DE800422A42BE0AD0425004E1090E415CD8A002
:101DF80004D0000E426E010E416E41044210D8B468
:101E080005D0080E41184210D8A402D0898801D004
:101E18008998020E41184210D8B405D0070E41180F
:101E28004210D8A402D08C8001D08C90030E4118A7
:101E38004210D8B405D0060E41184210D8A402D0DA
:101E48008D8401D08D94040E41184210D8B405D069
:101E5800050E41184210D8A402D08D8212008D922E
:101E6800120021042210D8A413D00001BE4BBF2BAE
:101E78000001BFBF25D00001BF5105E1050E0001DB
:101E8800BE5DD8A01DD0000E0001BF6F010E17D097
:101E9800020E21182210D8A413D00001BE07D8A022
:101EA800BF070001BFBF07D00001BF5109E1000112
:101EB800BE05D8B005D0000E0001BF6F040EBE6F7E
:101EC8000001BE050001BF11D8A402D08D8401D045
:101ED8008D94020E0001BE190001BF11D8A402D0D2
:101EE8008D8201D08D92030E0001BE190001BF1131
:101EF800D8A402D0898801D08998040E0001BE199F
:101F08000001BF11D8A402D08C8012008C9012005E
:101F1800340E036EF20EE82EFED7032EFCD70150C6
:101F28000210D8A405D08D948D9289988C901200B7
:101F3800040E01180210D8B41200030E0118021082
:101F4800D8A442D0414A422A42BE0AD0425004E1B3
:101F5800090E415CD8A004D0000E426E010E416EFD
:101F680041044210D8B405D0080E41184210D8A434
:101F780002D08D8401D08D94020E41184210D8B43D
:101F880005D0070E41184210D8A402D08D8201D086
:101F98008D92030E41184210D8B405D0060E411890
:101FA8004210D8A402D0898801D08998040E41181B
:101FB8004210D8B405D0050E41184210D8A402D05A
:101FC8008C8012008C901200050E01180210D8A403
:101FD80042D0414A422A42BE0AD0425004E1090E88
:101FE800415CD8A004D0000E426E010E416E41043F
:101FF8004210D8B405D0080E41184210D8A402D017
:10200800898801D08998020E41184210D8B405D0A9
:10201800070E41184210D8A402D08C8001D08C90B1
:10202800030E41184210D8B405D0060E41184210CC
:10203800D8A402D08D8401D08D94040E411842108A
:10204800D8B405D0050E41184210D8A402D08D820C
:1020580012008D92120001040210D8A413D00001BE
:10206800BE4BBF2B0001BFBF25D00001BF5105E10A
:10207800050E0001BE5DD8A01DD0000E0001BF6F87
:10208800010E17D0020E01180210D8A413D00001B7
:10209800BE07D8A0BF070001BFBF07D00001BF51CE
:1020A80009E10001BE05D8B005D0000E0001BF6FE0
:1020B800040EBE6F0001BE050001BF11D8A402D0F6
:1020C8008D8401D08D94020E0001BE190001BF114C
:1020D800D8A402D08D8201D08D92030E0001BE19C2
:1020E8000001BF11D8A402D0898801D08998040EB4
:1020F8000001BE190001BF11D8A402D08C801200C3
:102108008C901200CD90000E276E010E266E27BE11
:1021180006D027500BE1140E265CD8B007D0000E6D
:10212800226E010E216EBDEC0AF031D027BE06D01A
:1021380027500BE13C0E265CD8B007D0000E226E6B
:10214800020E216EBDEC0AF022D027BE06D0275021
:102158000BE18C0E265CD8B007D0000E226E010E63
:10216800216EBDEC0AF013D027BE06D027500BE134
:10217800F00E265CD8B007D0000E226E020E216E3B
:10218800BDEC0AF004D0000E276E010E266E264A1A
:10219800272A26042710D8A405D0000E256E000E85
:1021A800246E04D0C3CF24F0C4CF25F0010EC6ECB2
:1021B80015F0C350245CC4502558D8A0A8D7AA0E3F
:1021C800C35C030EC458D8A0A2D727BE06D0275098
:1021D8000BE1140E265CD8B007D0000E226E010E5B
:1021E800216E92EC0EF031D027BE06D027500BE1BD
:1021F8003C0E265CD8B007D0000E226E020E216E6F
:1022080092EC0EF022D027BE06D027500BE18C0EA0
:10221800265CD8B007D0000E226E010E216E92EC1B
:102228000EF013D027BE06D027500BE1F00E265C27
:10223800D8B007D0000E226E020E216E92EC0EF07E
:1022480004D0000E276E010E266E264A272A260481
:102258002710D8A405D0000E256E000E246E04D0D9
:10226800C3CF24F0C4CF25F0050EC6EC15F0C3503B
:10227800245CC4502558D8A0A8D7AA0EC35C030E66
:10228800C458D8A0A2D706EC16F01200FF0E000121
:10229800806FFF0E0001816F000E66EC15F00001E3
:1022A800826F00018051000182253B6E000E000103
:1022B80082BFFF0E000181213C6E3CBE05D03C5020
:1022C80007E13B04D8B004D0000E3C6E040E3B6E10
:1022D8003BC021F0000E4AEC15F025C021F03BC0B0
:1022E80080F00001803BF00E8017000180294AEC45
:1022F80015F027C021F03BC080F00001803BF00EB4
:10230800801700018051020F4AEC15F029C021F016
:102318003BC080F00001803BF00E80170001805127
:10232800030F4AEC15F02BC021F03BC080F00001F0
:10233800803BF00E801700018051040F4AEC15F025
:102348002DC021F03BC080F00001803BF00E8017CB
:1023580000018051050F4AEC15F02FC021F03BC059
:1023680080F00001803BF00E801700018051060FBD
:102378004AEC15F031C021F03BC080F00001803BF1
:10238800F00E801700018051070F4AEC15F033C09A
:1023980021F03BC080F00001803BF00E8017000167
:1023A8008051080F4AEC15F035C021F03BC080F091
:1023B8000001803BF00E801700018051090F4AECA4
:1023C80015F037C021F03BC080F00001803BF00ED3
:1023D8008017000180510A0F4AEC15F039C021F02E
:1023E8003BC080F00001803BF00E80170001805157
:1023F8000B0F4AEC15F01200340E036EF20EE82EA5
:10240800FED7032EFCD701500210D8A405D08B9E0E
:102418008B9C8B908B9A1200040E01180210D8B472
:102428001200030E01180210D8A442D0434A442ACD
:1024380044BE0AD0445004E1090E435CD8A004D03D
:10244800000E446E010E436E43044410D8B405D008
:10245800080E43184410D8A402D08B8E01D08B9E4E
:10246800020E43184410D8B405D0070E4318441080
:10247800D8A402D08B8C01D08B9C030E4318441037
:10248800D8B405D0060E43184410D8A402D08B80C7
:1024980001D08B90040E43184410D8B405D0050E13
:1024A80043184410D8A402D08B8A12008B9A1200C9
:1024B80001040210D8A40ED05D4A5E2A5EBE1DD06B
:1024C8005E5004E1050E5D5CD8A017D0000E5E6E6C
:1024D800010E12D0020E01180210D8A40ED05D060B
:1024E800D8A05E065EBE05D05E5007E15D04D8B098
:1024F80004D0000E5E6E040E5D6E5D045E10D8A4FE
:1025080002D08B8E01D08B9E020E5D185E10D8A46F
:1025180002D08B8C01D08B9C030E5D185E10D8A462
:1025280002D08B8001D08B90040E5D185E10D8A469
:1025380002D08B8A12008B9A1200000E0C6E0AAE23
:1025480006D0096C0A1ED8B00A2A010E0C6E08AE15
:1025580006D0076C081ED8B0082A010E0C1A000E07
:102568000E6E000E0D6E09500A10D8B41CD0010E64
:102578000B6E04D0D89009360A360B2A0AAEFAD761
:10258800D8900D360E360950075C0A500858D8A066
:1025980005D00950075E0A50085A0D80D8900A32B3
:1025A80009320B2EEDD70C50D8B404D00D6C0E1E8A
:1025B800D8B00E2A0DC007F00EC008F01200000EA9
:1025C800296E000E2A6E000E2B6E000E2C6E255002
:1025D800261027102810D8B42AD0010E2D6E06D048
:1025E800D89025362636273628362D2A28AEF8D70D
:1025F800D89029362A362B362C362550215C265081
:1026080022582750235828502458D8A009D025509C
:10261800215E2650225A2750235A2850245A2980AE
:10262800D89028322732263225322D2EE1D729C0DC
:1026380021F02AC022F02BC023F02CC024F0120075
:10264800F00ED36E9B8C2F0E926EF20E936E000ED0
:10265800946E000E956E010E966ECB680C0EBD6ED4
:10266800000EBE6E0C0EBA6E000EBB6E050ECA6E64
:10267800000E896E000E8A6E000E8B6E000E8C6E38
:10268800000E8D6E06EC15F0000E2E6E7D0E2F6E70
:10269800000E306E000E316E39EC14F0F19E090E0A
:1026A800C16E890EC06E000EB56EB496C08EF28AE9
:1026B8009D80F28CF28E120021C025F0010E2516A5
:1026C800253ABA502518EF0B2518BA6E2234223055
:1026D800266E2130256E010E2516253A2546BA505C
:1026E8002518DF0B2518BA6E21C025F022C026F068
:1026F8002634263225322634263225322550BB6E22
:10270800899C899E030E266E080E256E770EE82E8C
:10271800FED7252EFCD7262EFAD700F02304241046
:10272800D8A403D0898C899E1200899C898E1200B6
:10273800000E266E22AE06D0216C221ED8B0222AA8
:10274800010E266E24AE04D0236C241ED8B0242A91
:1027580023502410D8B418D0010E256E04D0D89078
:1027680023362436252A24AEFAD72350215C245058
:102778002258D8A004D02350215E2450225AD89041
:1027880024322332252EF1D72650D8B404D0216C18
:10279800221ED8B0222A21C021F022C022F0120025
:1027A80035EC16F0000E236ED00E226E22EC16F0D9
:1027B800000E236E000E226E22EC16F031EC16F09D
:1027C80035EC16F0000E236ED10E226E22EC16F0B8
:1027D800000E246E050E246401D00ED02450010D85
:1027E800AF0EF324D96E000EF420DA6E010E8DECD4
:1027F80015F0DF6E242AEED7000E8DEC15F00001DF
:10280800B56F31EC16F01200800E1CEC16F0E60ED7
:102818002D6EFE0E2E6EB5C02FF0306AB4C031F0AA
:10282800326AB3C033F0346A3BEC07F0EF0E2D6E1A
:10283800FF0E2E6E3BEC07F0C00E1CEC16F05C0E83
:102848002D6EFE0E2E6EB1C02FF0306AB0C031F082
:10285800326AAFC033F0346A3BEC07F0E70E2D6EF6
:10286800FF0E2E6E3BEC07F01200000EC76E280E0E
:10287800C66E000EC56E000E216E480E226EE80E62
:10288800236E010E246E2EC032F02FC033F030C0FC
:1028980034F031C035F0020ED89032363336343643
:1028A8003536E82EF9D732C025F033C026F034C0CB
:1028B80027F035C028F0E3EC12F02104C86E9486A6
:1028C80094881200226E2250F00B216E8C500F0B50
:1028D8008C6E21508C108C6E8C96420EE82EFED792
:1028E80000D08C86420EE82EFED700D02238F00B9E
:1028F800226E2250F00B216E8C500F0B8C6E2150E3
:102908008C108C6E8C96420EE82EFED700D08C86EA
:10291800420EE82EFED700D01200000E276E000EE1
:10292800266E23502410D8B41CD0010E256E04D076
:10293800D89023362436252A24AEFAD7D8902636BE
:1029480027362350215C24502258D8A005D0235084
:10295800215E2450225A2680D89024322332252EF4
:10296800EDD726C021F027C022F0120021C023F0A5
:10297800010E2316233ABA502318EF0B2318BA6E08
:1029880022342230246E2130236E010E2316233A7E
:102998002346BA502318DF0B2318BA6E21C023F040
:1029A80022C024F024342432233224342432233223
:1029B8002350BB6E898C899E120021C023F0010E22
:1029C8002316233ABD502318EF0B2318BD6E22346B
:1029D8002230246E2130236E010E2316233A23461B
:1029E800BD502318DF0B2318BD6E21C023F022C071
:1029F80024F0243424322332243424322332235042
:102A0800BE6E12009C0E246ED70EE82EFED7242E22
:102A1800FCD700F0330E1CEC16F0320E1CEC16F04E
:102A2800280E1CEC16F00F0E1CEC16F0060E1CEC13
:102A380016F0010E1CEC16F09C0E246ED70EE82E34
:102A4800FED7242EFCD700F012002A502B10D8B441
:102A580018D0010E2C6E04D0D8902A362B362C2A8A
:102A68002BAEFAD72A50285C2B502958D8A004D06E
:102A78002A50285E2B50295AD8902B322A322C2ED5
:102A8800F1D728C028F029C029F01200246E24C0EC
:102A980022F0080E236E22342232232EFCD7225035
:102AA800AA6E24C0A9FF21C0A8FFA69EA69CA68442
:102AB800550EA76EAA0EA76EA682A1A8FED7A1984A
:102AC800A6941200236E23C021F0080E226E213432
:102AD8002132222EFCD72150AA6E23C0A9FFA69E20
:102AE800A69CA680A6B0FED7A850120000EEAFF0B4
:102AF800140EEE6AE806FDE100EE3DF0220EEE6AE5
:102B0800E806FDE15F905F92000EF86E000109EFA4
:102B180000F0226EFDEC15F0C586FDEC15F0C9CF6E
:102B280023F0FDEC15F02250D8A402D0C58A01D0BC
:102B3800C59AC5882350120021502302F3CF25F0EF
:102B4800F4CF26F021502402F350262622502302E7
:102B5800F350262625C021F026C022F0120001508D
:102B68000302F3CF05F0F4CF06F001500402F3504E
:102B7800062602500302F350062605C001F006C0DF
:102B880002F01200226E2244E846FC0BC26EC2809C
:102B9800C28207D0340E216EF20EE82EFED7212E07
:102BA800FCD7C2A21200F6D7236E000E226E3A0E90
:102BB800236005D02F0E236402D0010E226E22C09E
:102BC80021F02130120081A207D081380F0B0F0BA2
:102BD8000001C26F81B2FED700F0120081A2FED7B9
:102BE80081380F0B0F0B0001C26F81B2FED700F0C6
:102BF8001200C7B4FED7C5CF21F01F0E2116D8B4D6
:102C08001200F7D7B00ECD6ED90ECF6E5B0ECE6E1A
:102C1800CD801200B00ECD6ED90ECF6E5B0ECE6E8B
:102C2800CD801200236E8C84235066EC14F01200C1
:102C3800236E8C94235066EC14F01200FDEC15F012
:102C480022C0C9FF1200BA98BA9A000EBB6E1200D1
:102C5800BD98BD9A000EBE6E1200FDEC15F0C5843D
:0A2C68001200FDEC15F0C58012000B
:10FE2A00003132334134353642373839432A3023A8
:10FE3A00440001000A006400E803102701001000D2
:10FE4A000001001030030104120417537461727424
:10FE5A003A20253032783A253032783A25303278CD
:10FE6A0000446174653A20253032782F2530327883
:10FE7A002F2530327800303132333435363738393D
:10FE8A0061626364656600536F646120772F6F2037
:10FE9A007461623A20256400536F757020772F6F62
:10FEAA00206C626C3A2025640052756E232564200A
:10FEBA00202020413A4E6578740074657374696E27
:10FECA00672050574D3220434357005669657720C3
:10FEDA004C6F67733F20423A596573002530327878
:10FEEA002F253032782F253032782000536F646105
:10FEFA0020772F207461623A20256400536F757051
:10FF0A0020772F206C626C3A20256400536F72743C
:10FF1A00696E672063616E732E2E2E00746573748A
:10FF2A00696E672050574D322043570074657374C9
:10FF3A00696E672053207368616B6500536F727432
:10FF4A0020646F6E652120413A4E6F00416E792020
:10FF5A006B657920746F2073746F700074657374A5
:10FF6A00696E672053312070696E7300746573740B
:10FF7A00696E672053322070696E730074657374FA
:10FF8A00696E672053332070696E730074657374E9
:10FF9A00696E672050574D310052756E74696D65F0
:10FFAA003A2025640074657374696E672053206271
:10FFBA00006C6162656C2020207461620074657354
:10FFCA0074696E67205320660074657374696E677E
:10FFDA002049520025782020202020200020413A64
:10FFEA004C6F677300333A5374617274002578203A
:05FFFA00002578000065
:020000040020DA
:08000000FFFFFFFFFFFFFFFF00
:020000040030CA
:0E000000FF081F1EFF8381FF0FC00FE00F409F
:00000001FF
