:0400000007EF00F016
:100008006182BFED0BF03DEF12F0000E896E25EC1A
:1000180010F0000E00019D6F010E9C6F000E000194
:10002800876F000E866F000E0001816F010E806FD2
:10003800000E0001836F010E826F170ED56E850EBC
:10004800D76EAE0ED66ED58EB4EC12F0010E00014E
:10005800856F000E846F680E406EE40EE82EFED7A2
:10006800402EFCD700D000019C0500019D11D8A4AA
:10007800BAD0000E606E06D099EC10F0CDEC10F0FE
:1000880097EC12F06050D8B4F7D7020E6018D8A4D5
:100098007ED0000E00019D6F000E9C6F000E5F6EFB
:1000A800000E5E6E000E536E000E526E000E0001C2
:1000B800956F000E946F000E556E000E546E000E74
:1000C8000001976F000E966F000E596E000E586E65
:1000D800000E576E000E566E000E0001896F000E5E
:1000E800886F000E00018B6F000E8A6F000E0001F2
:1000F8008D6F000E8C6F000E00018F6F000E8E6FDB
:10010800000E00019B6F000E9A6F000E0001996FA0
:10011800000E986F010ECAEC12F0340E406EF20E0B
:10012800E82EFED7402EFCD7BF0E216EFE0E226EA3
:1001380063EC08F0C00ECAEC12F0EF0E216EFE0E52
:10014800226E63EC08F005D0000E0001AC6F020EC1
:10015800AB6F59BEF9D7595004E1080E585CD8A0C6
:10016800F3D7000E0001AC6F040EAB6F95EC0CF0EA
:10017800020E166E580E156E7FEC11F0010E166EFB
:10018800900E156EA4EC11F0000E606E6CD7030E85
:100198006018D8A419D0000E386E010E376EB5EC71
:1001A80006F0000E386E020E376EB5EC06F0000E43
:1001B800386E030E376EB5EC06F0000E386E040E7E
:1001C800376EB5EC06F04FD70F0E6018D8A44BD792
:1001D800000E00019D6F020E9C6F000E0001876FDC
:1001E800010E866F40D7020E00019C1900019D1177
:1001F800D8A478D2000E606E000E606E010ECAECB4
:1002080012F0340E406EF20EE82EFED7402EFCD7C8
:100218003F0E216EFF0E226E63EC08F00ED097ECB5
:1002280012F0000E166E010E156EE9EC09F0000EC4
:10023800166E010E156E59EC0DF06050D8A4EFD76C
:10024800000E606E010ECAEC12F0340E406EF20E13
:10025800E82EFED7402EFCD72F0E216EFF0E226E01
:1002680063EC08F00ED097EC12F0000E166E020E3A
:10027800156EE9EC09F0000E166E020E156E59ECBB
:100288000DF06050D8A4EFD7010ECAEC12F0340E6E
:10029800406EF20EE82EFED7402EFCD7C10E216E1E
:1002A800FF0E226E63EC08F0000E5D6E010E5C6EB0
:1002B800000E0001AC6F010EAB6F000E5B6E010EFD
:1002C8005A6EA1EC12F0010ECAEC12F0340E406E18
:1002D800F20EE82EFED7402EFCD7910E216EFF0EAF
:1002E800226E63EC08F0000E5D6E020E5C6E000E6E
:1002F8000001AC6F020EAB6F000E5B6E020E5A6E01
:10030800A1EC12F0010ECAEC12F0340E406EF20E9F
:10031800E82EFED7402EFCD7CF0E216EFE0E226EA1
:1003280063EC08F0000E5D6E030E5C6E000E0001BB
:10033800AC6F030EAB6F000E5B6E030E5A6EA1EC32
:1003480012F0000E5D6E000E5C6E000E0001AC6FC8
:10035800000EAB6F000E5B6E000E5A6E000E606EE4
:10036800010ECAEC12F0340E406EF20EE82EFED7E3
:10037800402EFCD7FF0E216EFE0E226E63EC08F0B5
:100388002ED097EC12F0020E6018D8A402D08C82FE
:1003980001D08C92060E6018D8A402D08A8601D0AB
:1003A8008A960A0E6018D8A402D08A8401D08A944A
:1003B8000E0E6018D8A402D08A8001D08A90010E4F
:1003C80076EC12F0C00ECAEC12F0FC0E216EFF0E95
:1003D800226EC3CF23F0C4CF24F063EC08F0030EE1
:1003E8006018D8A4CED7000E606E010ECAEC12F0C9
:1003F800340E406EF20EE82EFED7402EFCD70F0EBC
:10040800216EFF0E226E63EC08F01ED097EC12F0FE
:10041800020E6018D8A402D08B8E01D08B9E060ED7
:100428006018D8A402D08B8C01D08B9C0A0E60185F
:10043800D8A402D08B8001D08B900E0E6018D8A45F
:1004480002D08B8A01D08B9A030E6018D8A4DED70D
:10045800000E606E010ECAEC12F0340E406EF20E01
:10046800E82EFED7402EFCD71F0E216EFF0E226EFF
:1004780063EC08F02ED097EC12F0020E6018D8A4A6
:1004880002D08D8401D08D94060E6018D8A402D0B5
:100498008D8201D08D920A0E6018D8A402D0898866
:1004A80001D089980E0E6018D8A402D08C8001D093
:1004B8008C90050E76EC12F0C00ECAEC12F0FC0E11
:1004C800216EFF0E226EC3CF23F0C4CF24F063EC5D
:1004D80008F0030E6018D8A4CED7010ECAEC12F0AB
:1004E800340E406EF20EE82EFED7402EFCD7780E62
:1004F800216EFF0E226E63EC08F0010E166E900E50
:10050800156E7FEC11F0A1EC12F0D5EC12F0010E93
:10051800CAEC12F0340E406EF20EE82EFED7402ED2
:10052800FCD76B0E216EFF0E226E63EC08F0010EF5
:10053800166E900E156EA4EC11F0A1EC12F0DAEC28
:1005480012F0000E606E000E5F6E000E5E6E21D01F
:10055800000E606E010ECAEC12F0340E406EF20E00
:10056800E82EFED7402EFCD75E0E216EFF0E226EBF
:1005780063EC08F0C00ECAEC12F09C0E216EFE0E61
:10058800226E5EC023F05FC024F063EC08F097ECA5
:1005980012F06050D8B4DCD7000E606E57D0000E51
:1005A800606E010ECAEC12F0340E406EF20EE82EA8
:1005B800FED7402EFCD7CD0E216EFF0E226E63ECC7
:1005C80008F0C00ECAEC12F0010E76EC12F0F70E2D
:1005D800216EFF0E226EC3CF23F0C4CF24F063EC4C
:1005E80008F0000E76EC12F0F70E216EFF0E226E68
:1005F800C3CF23F0C4CF24F063EC08F0020E76ECEE
:1006080012F0F70E216EFF0E226EC3CF23F0C4CF77
:1006180024F063EC08F0050E76EC12F0F70E216E6C
:10062800FF0E226EC3CF23F0C4CF24F063EC08F092
:1006380097EC12F0050E416E0F0E406EF10EE82E8B
:10064800FED7402EFCD7412EFAD700F06050D8B420
:10065800A6D7000E606E3DD0000E606E030E416E90
:10066800080E406E770EE82EFED7402EFCD7412E9E
:10067800FAD700F0010ECAEC12F0340E406EF20EFA
:10068800E82EFED7402EFCD79D0E216EFF0E226E5F
:1006980063EC08F0C00ECAEC12F0040E76EC12F00F
:1006A800D80E216EFF0E226EC3CF23F0C4CF24F0E4
:1006B80063EC08F0030E76EC12F0D80E216EFF0EF4
:1006C800226EC3CF23F0C4CF24F063EC08F097EC7C
:1006D80012F06050D8B4C0D7000E00019D6F010E13
:1006E8009C6FC1D4010ECAEC12F0340E406EF20EAB
:1006F800E82EFED7402EFCD7020E76EC12F0510EF3
:10070800C35C020EC458D8B01FD05EC090F05FC062
:1007180091F00001945100019511D8A415D0000E54
:100728000001956F010E946F000E596E000E586E01
:10073800070E416E170E406E6A0EE82EFED7402E49
:10074800FCD7412EFAD700D0B50E216EFF0E226ECF
:10075800C3CF23F0C4CF24F058C025F059C026F0E9
:1007680063EC08F00001945100019511D8B4FFD052
:1007780059BE06D059501EE1500E585CD8B01AD058
:10078800000E5D6E030E5C6E040E76EC12F0020E27
:10079800C45CD8B004D0000E536E010E526EFB0E2E
:1007A800216EFF0E226EC3CF23F0C4CF24F063EC7A
:1007B80008F0E1D052045310D8A450D059BE06D046
:1007C800595008E1960E585CD8B004D0000E5D6E02
:1007D800010E53D059BE06D059500CE1CD0E585CCD
:1007E800D8B008D0000E5D6E020E5C6E000E4F6E23
:1007F800020E59D0000E5D6E0A0E5C6E9B0E216EC5
:10080800FE0E226E4EC023F04FC024F063EC08F0B9
:100818004EC015F04FC016F0E9EC09F0010E76EC69
:1008280012F0FB0E216EFF0E226EC3CF23F0C4CF51
:1008380024F063EC08F000019A51C35C00019B515D
:10084800C458D8B065D0AB0EC35C030EC458D8A04A
:100858005FD0000E536E650E526E5AD05250531030
:10086800D8A45BD059BE06D059500EE1960E585CFC
:10087800D8B00AD0000E5D6E020E5C6E000E00014C
:10088800916F000E906F77D059BE06D059500DE188
:10089800D00E585CD8B009D0000E5D6E010E5C6EAB
:1008A800000E4F6E010E4E6E66D0000E5D6E0A0E83
:1008B8005C6E9B0E216EFE0E226E4EC023F04FC062
:1008C80024F063EC08F04EC015F04FC016F0E9ECC8
:1008D80009F0010E76EC12F0FB0E216EFF0E226E6F
:1008E800C3CF23F0C4CF24F063EC08F000019A5181
:1008F800C35C00019B51C458D8B00AD0AB0EC35C8E
:10090800030EC458D8A004D0000E536E640EA4D7AA
:10091800C3CF9AF0C4CF9BF02ED0650E5218531057
:10092800D8A404D000018A4B8B2B08D0640E52182F
:100938005310D8A403D00001884B892B000E596EA0
:10094800000E586E000E00019B6F000E9A6F000E8D
:10095800536E000E526E0001905100019111D8A4FF
:100968000AD0000E0001956F000E946F04D0000E9F
:100978005D6E030E5C6EC00ECAEC12F0000E76ECD3
:1009880012F0510EC35C020EC458D8B01FD05EC01E
:1009980092F05FC093F00001965100019711D8A41E
:1009A80015D0000E0001976F010E966F000E576E5E
:1009B800000E566E070E416E170E406E6A0EE82E38
:1009C800FED7402EFCD7412EFAD700D0A90E216EB3
:1009D800FF0E226EC3CF23F0C4CF24F056C025F0FB
:1009E80057C026F063EC08F00001965100019711FA
:1009F800D8A457BE40D1575004E1300E565CD8A059
:100A08003AD157BE06D0575008E15B0E565CD8B0B5
:100A180004D0000E5B6E010E31D157BE06D0575080
:100A28000DE1650E565CD8B009D0000E5B6E040E61
:100A38005A6E000E0001AC6F010E25D157BE06D0CC
:100A4800575021E1710E565CD8B01DD0000E000140
:100A5800AC6F040EAB6F000E5B6E040E5A6E030E85
:100A680076EC12F0020EC46004D0000E556E010E32
:100A7800546EFB0E216EFF0E226EC4CF23F0246A43
:100A880063EC08F001D157BE06D057500EE17B0E3B
:100A9800565CD8B00AD0000E0001AC6F020EAB6FE6
:100AA800000E5B6E040E5A6EEFD054045510D8A495
:100AB80054D057BE06D0575008E1990E565CD8B0AE
:100AC80004D0000E5B6E010E57D057BE06D05750AB
:100AD80011E1D20E565CD8B00DD0000E5B6E020E3E
:100AE8005A6E000E0001AC6F040EAB6F000E516E13
:100AF800020E62D0000E0001AC6F040EAB6F000E48
:100B08005B6E0A0E5A6E50C015F051C016F059ECC3
:100B18000DF0050E76EC12F000019851C35C00014F
:100B28009951C458D8B00AD0AB0EC35C030EC45850
:100B3800D8A004D0000E556E650E546EC3CF98F041
:100B4800C4CF99F0FB0E216EFF0E226EC3CF23F0A7
:100B5800C4CF24F063EC08F097D054505510D8A4B3
:100B680060D057BE06D0575013E1F20E565CD8B08D
:100B78000FD0000E5B6E020E5A6E000E0001AC6FB5
:100B8800040EAB6F000E0001936F000E926F7CD0C5
:100B980057BE06D0300E565C010E5758D8B00ED04E
:100BA800000E5B6E010E5A6E000E0001AC6F040E53
:100BB800AB6F000E516E010E506E66D0000E5B6E6C
:100BC8000A0E5A6E000E0001AC6F040EAB6F50C0D7
:100BD80015F051C016F059EC0DF0050E76EC12F038
:100BE80000019851C35C00019951C458D8B00AD08B
:100BF800AB0EC35C030EC458D8A004D0000E556ECB
:100C0800640E546EC3CF98F0C4CF99F0FB0E216EDA
:100C1800FF0E226EC3CF23F0C4CF24F063EC08F09C
:100C280033D0650E54185510D8A404D000018C4B4D
:100C38008D2B08D00A0E54185510D8A403D00001E3
:100C48008E4B8F2B000E576E000E566E000E556E93
:100C5800000E546E000E0001996F000E986F00018F
:100C6800925100019311D8A40FD0000E0001976F84
:100C7800000E966F09D0000E5B6E030E5A6E000EC2
:100C88000001AC6F040EAB6F97EC12F06050D8B453
:100C980029D5000E00019D6F010E9C6FD5EC12F056
:100CA800DAEC12F0000E5D6E000E5C6E000E0001B4
:100CB800AC6F000EAB6F000E5B6E000E5A6E99ECB7
:100CC80010F05EC019F05FC01AF0A4C01BF01C6AD7
:100CD800A3C01DF01E6AA2C01FF0206AA0C021F0A8
:100CE800226A9FC023F0246A9EC025F0266A8CC021
:100CF80027F08DC028F08EC029F08FC02AF088C058
:100D08002BF089C02CF08AC02DF08BC02EF04BEC54
:100D18000FF0010ECAEC12F0340E406EF20EE82EFF
:100D2800FED7402EFCD7DF0E216EFE0E226E63EC3E
:100D380008F0C00ECAEC12F06E0E216EFE0E226E86
:100D480063EC08F0A1EC12F0070E6018D8A437EF96
:100D580000F0000E386E010E376EB5EC06F037EF76
:100D680000F0000E29EC12F03E6E3F6A3EBE3F06D0
:100D7800000E3D6E010E3C6E10D03E4A3F2A3FBE2B
:100D88000AD03F5004E1050E3E5CD8A004D0000E06
:100D98003F6E010E3E6E3C4A3D2A37503C5C3D504A
:100DA800800A396E3850800A3958D8A0E6D7010E23
:100DB800CAEC12F0340E396EF20EE82EFED7392E38
:100DC800FCD7800ECAEC12F0F10E216EFF0E226ED7
:100DD800000E29EC12F0236E246A23BE24063EC0BE
:100DE80025F03FC026F063EC08F0A1EC12F0010EEC
:100DF800CAEC12F0340E396EF20EE82EFED7392EF8
:100E0800FCD75D0E216EFE0E226E37C023F038C06F
:100E180024F063EC08F0C00ECAEC12F0850E216EC7
:100E2800FF0E226E3EC039F0393AF00E39163928D5
:100E380029EC12F0236E246A23BE240663EC08F022
:100E4800A1EC12F0010ECAEC12F0340E396EF20E5B
:100E5800E82EFED7392EFCD75D0E216EFE0E226ECF
:100E680037C023F038C024F063EC08F0C00ECAEC99
:100E780012F0150E216EFE0E226E3EC039F0393A80
:100E8800F00E39163950020F29EC12F0236E246A3D
:100E980023BE24063EC03AF03A3AF00E3A163A50CB
:100EA800030F29EC12F0256E266A25BE26063EC0E1
:100EB8003BF03B3AF00E3B163B50040F29EC12F086
:100EC800276E286A27BE280663EC08F0A1EC12F00A
:100ED800010ECAEC12F0340E396EF20EE82EFED76F
:100EE800392EFCD75D0E216EFE0E226E37C023F020
:100EF80038C024F063EC08F0C00ECAEC12F0AF0E54
:100F0800216EFE0E226E3EC039F0393AF00E3916C7
:100F18003950050F29EC12F0236E246A23BE2406EB
:100F28003EC03AF03A3AF00E3A163A50060F29EC1B
:100F380012F0256E266A25BE26063EC03BF03B3AD7
:100F4800F00E3B163B50070F29EC12F0276E286A6B
:100F580027BE280663EC08F0A1EC12F0010ECAECDB
:100F680012F0340E396EF20EE82EFED7392EFCD769
:100F78005D0E216EFE0E226E37C023F038C024F0BD
:100F880063EC08F0C00ECAEC12F08F0E216EFE0E54
:100F9800226E3EC039F0393AF00E39163950080F32
:100FA80029EC12F0236E246A23BE240663EC08F0B1
:100FB800A1EC12F0010ECAEC12F0340E396EF20EEA
:100FC800E82EFED7392EFCD75D0E216EFE0E226E5E
:100FD80037C023F038C024F063EC08F0C00ECAEC28
:100FE80012F03B0E216EFE0E226E3EC039F0393AE9
:100FF800F00E39163950090F29EC12F0236E246AC5
:1010080023BE240663EC08F0A1EC12F0010ECAEC32
:1010180012F0340E396EF20EE82EFED7392EFCD7B8
:101028005D0E216EFE0E226E37C023F038C024F00C
:1010380063EC08F0C00ECAEC12F09F0E216EFE0E93
:10104800226E3EC039F0393AF00E391639500A0F7F
:1010580029EC12F0236E246A23BE240663EC08F000
:10106800A1EC12F0010ECAEC12F0340E396EF20E39
:10107800E82EFED7392EFCD75D0E216EFE0E226EAD
:1010880037C023F038C024F063EC08F0C00ECAEC77
:1010980012F04C0E216EFE0E226E3EC039F0393A27
:1010A800F00E391639500B0F29EC12F0236E246A12
:1010B80023BE240663EC08F0A1EC12F01200230E04
:1010C8002E6E000E2F6E74D1250E3618D8B404D0AB
:1010D8003650C4EC12F06CD1000E356E000E346E32
:1010E800000E336E03D03384214A222A21C0F6FF32
:1010F80022C0F7FF0800F550300AD8B4F4D721C051
:10110800F6FF22C0F7FF0800F55088EC12F0D8A0CF
:1011180035D0000E356E000E346E34C015F035C073
:1011280016F0000E186E0A0E176E63EC12F015C05A
:1011380034F016C035F0D00E296EFF0E2A6E21C08D
:10114800F6FF22C0F7FF0800F5502B6E2C6A2950D5
:101158002B262A502C222B5034262C503522214A5B
:10116800222A21C0F6FF22C0F7FF0800F55088ECBC
:1011780012F0D8A003D0D1D7338E17D021C0F6FFF4
:1011880022C0F7FF214A222A0800F5CF36F0365050
:10119800000AD8B41200640AD8B407D00D0AD8B42B
:1011A80004D0110AD8B4E8D703D133BE15D02EC065
:1011B800D9FF2FC0DAFFDECF31F0DDCF32F0020EDB
:1011C8002E26000E2F2232AE44D0030E3312316C7D
:1011D800321ED8B0322A3DD02EC0D9FF2FC0DAFF38
:1011E800DECF31F0DDCF32F0020E2E26000E2F2298
:1011F80030D0010E366E050E3618D8B432D03650BF
:10120800020DFC0EF324F66EFD0EF420F76E0900B5
:10121800F550315C0900F5503258D8A022D0362A52
:10122800EAD7010E366E040E3618D8B41AD03650E6
:10123800020D060EF324F66EFE0EF420F76E09007A
:10124800F550315C0900F5503258D8A00AD0362A3A
:10125800EAD73350800B000AD8B4CBD7800AD8B469
:10126800E0D734503510D8B409D033C029F0030E74
:101278002916D8B403D03406D8A03506800E36BE59
:101288007F0E296E3450365C3550800A2958D8B004
:1012980007D03650345E000E36BEFF0E355A04D0E5
:1012A800000E356E000E346E33A414D033C029F00E
:1012B800030E2916D8B403D02D0EC4EC12F0345006
:1012C8003510D8B41ED0300EC4EC12F03406D8A0B5
:1012D8003506F5D734503510D8B40AD0200EC4ECF2
:1012E80012F03406D8A0350634503510D8A4F6D7F5
:1012F80033C029F0030E2916D8B403D02D0EC4EC40
:1013080012F036C030F050D03050020DFC0EF324ED
:10131800F66EFD0EF420F76E0900F5CF17F00A00FF
:10132800F5CF18F031C015F032C016F056EC11F0B8
:1013380015C01CF016C01DF0000E1F6E0A0E1E6EA2
:10134800ECEC11F01C50300F366E2BD031C015F07C
:1013580032C016F03050020D060EF324F66EFE0E63
:10136800F420F76E0900F5CF17F00A00F5CF18F052
:1013780056EC11F015500F0B2D6E2D50010D2A0E45
:10138800F324F66EFE0EF420F76E0800F5CF36F063
:1013980008D03350800B000AD8B4B6D7800AD8B426
:1013A800D5D73650C4EC12F030063028D8A4F1D77F
:1013B80021C0F6FF22C0F7FF214A222A0800F5CFF4
:1013C80036F03650D8B412007FD6340E176EF20EAF
:1013D800E82EFED7172EFCD715501610D8A405D026
:1013E8008C928A968A948A901200030E1518161009
:1013F800D8A449D0464A472A47BE0AD0475004E1F4
:10140800090E465CD8A004D0000E476E010E466E49
:10141800340E176EF20EE82EFED7172EFCD74604B0
:101428004710D8B405D0080E46184710D8A402D0E3
:101438008C8201D08C92020E46184710D8B405D081
:10144800070E46184710D8A402D08A8601D08A967B
:10145800030E46184710D8B405D0060E4618471094
:10146800D8A402D08A8401D08A94040E4618471062
:10147800D8B405D0050E46184710D8A402D08A80E3
:1014880012008A901200680E176EE40EE82EFED73E
:10149800172EFCD700D015041610D8B405D0050EA9
:1014A80015181610D8A40ED04C4A4D2A4DBE22D07D
:1014B8004D5004E1050E4C5CD8A01CD0000E4D6EBA
:1014C800010E17D0020E15181610D8B405D0060E46
:1014D80015181610D8A40ED04C06D8A04D064DBE2F
:1014E80005D04D5007E14C04D8B004D0000E4D6E25
:1014F800040E4C6E15041610D8B405D0020E15183B
:101508001610D8A41FD04C044D10D8A402D08C8239
:1015180001D08C92020E4C184D10D8A402D08A86A5
:1015280001D08A96030E4C184D10D8A402D08A8494
:1015380001D08A94040E4C184D10D8A402D08A8089
:1015480001D08A90050E15181610D8B405D0060ECD
:1015580015181610D8A412004C044D10D8A404D0A5
:101568008C828A868A948A90020E4C184D10D8A4D0
:1015780004D08C928A868A848A90030E4C184D1067
:10158800D8A404D08C928A968A848A80040E4C1837
:101598004D10D8A412008C828A968A948A801200F0
:1015A800340E036EF20EE82EFED7032EFCD7015040
:1015B8000210D8A405D08C928A968A948A90120038
:1015C800030E01180210D8A449D0464A472A47BE3C
:1015D8000AD0475004E1090E465CD8A004D0000E9A
:1015E800476E010E466E340E036EF20EE82EFED7DD
:1015F800032EFCD746044710D8B405D0080E461869
:101608004710D8A402D08C8201D08C92020E4618C2
:101618004710D8B405D0070E46184710D8A402D0F2
:101628008A8601D08A96030E46184710D8B405D08A
:10163800060E46184710D8A402D08A8401D08A948E
:10164800040E46184710D8B405D0050E46184710A2
:10165800D8A402D08A8012008A901200680E036E05
:10166800E40EE82EFED7032EFCD700D001040210AA
:10167800D8B405D0050E01180210D8A40ED04C4AD3
:101688004D2A4DBE22D04D5004E1050E4C5CD8A029
:101698001CD0000E4D6E010E17D0020E011802105C
:1016A800D8B405D0060E01180210D8A40ED04C06E6
:1016B800D8A04D064DBE05D04D5007E14C04D8B01A
:1016C80004D0000E4D6E040E4C6E01040210D8B406
:1016D80005D0020E01180210D8A41FD04C044D10DA
:1016E800D8A402D08C8201D08C92020E4C184D10D6
:1016F800D8A402D08A8601D08A96030E4C184D10C1
:10170800D8A402D08A8401D08A94040E4C184D10B3
:10171800D8A402D08A8001D08A90050E0118021040
:10172800D8B405D0060E01180210D8A412004C0433
:101738004D10D8A404D08C828A868A948A90020E8E
:101748004C184D10D8A404D08C928A868A848A902A
:10175800030E4C184D10D8A404D08C928A968A8413
:101768008A80040E4C184D10D8A412008C828A96D8
:101778008A948A8012000600FACF07F0FBCF08F09F
:10178800E9CF09F0EACF0AF0E1CF0BF0E2CF0CF095
:10179800D9CF0DF0DACF0EF0F3CF0FF0F4CF10F071
:1017A800F6CF11F0F7CF12F0F8CF13F0F5CF14F011
:1017B800F29EF2A40DD0F2945E4A5F2AD59E170ECF
:1017C800D56E850ED76EAE0ED66ED5508009D56E05
:1017D8009EA089D09E90ABC001F0ACC002F0A5ECF1
:1017E8000EF00A0E5C185D10D8B406D05CC001F08B
:1017F8005DC002F0D4EC0AF00A0E5A185B10D8B497
:1018080006D05AC001F05BC002F0FFEC0DF0584A58
:10181800592A564A572A54505510D8A41FD057BE93
:101828003CD0580E565C020E5758D8A036D056C039
:1018380001F057C002F0010E046E900E036E61ECC9
:1018480010F0C80E01180210D8A427D05004511067
:10185800D8A41FD0000E516E020E1ED057BE1DD048
:10186800F40E565C010E5758D8A017D056C001F098
:1018780057C002F0010E046E900E036E61EC10F07A
:10188800640E01180210D8A408D050045110D8B41E
:10189800E1D7000E516E010E506E59BE21D0F40EE4
:1018A800585C010E5958D8A01BD058C001F059C037
:1018B80002F0010E046E900E036E61EC10F0640EDF
:1018C80001180210D8A40CD04E044F10D8A404D08C
:1018D800000E4F6E020E03D0000E4F6E010E4E6EBC
:1018E800CD90BCEC12F014C0F5FF13C0F8FF12C085
:1018F800F7FF11C0F6FF10C0F4FF0FC0F3FF0EC0D2
:10190800DAFF0DC0D9FF0CC0E2FF0BC0E1FF0AC02F
:10191800EAFF09C0E9FF08C0FBFF07C0FAFF6192B0
:101928001100CD90000E1B6E010E1A6E1BBE06D064
:101938001B500BE1140E1A5CD8B007D0000E166EBF
:10194800010E156EE9EC09F031D01BBE06D01B5014
:101958000BE13C0E1A5CD8B007D0000E166E020ED2
:10196800156EE9EC09F022D01BBE06D01B500BE126
:101978008C0E1A5CD8B007D0000E166E010E156ECC
:10198800E9EC09F013D01BBE06D01B500BE1F00E9A
:101998001A5CD8B007D0000E166E020E156EE9EC70
:1019A80009F004D0000E1B6E010E1A6E1A4A1B2A8B
:1019B8001A041B10D8A405D0000E196E000E186E5C
:1019C80004D0C3CF18F0C4CF19F0010E76EC12F092
:1019D800C350185CC4501958D8A0A8D7AA0EC35C25
:1019E800030EC458D8A0A2D71BBE06D01B500BE1CB
:1019F800140E1A5CD8B007D0000E166E010E156EC4
:101A080059EC0DF031D01BBE06D01B500BE13C0E3B
:101A18001A5CD8B007D0000E166E020E156E59EC7F
:101A28000DF022D01BBE06D01B500BE18C0E1A5CA9
:101A3800D8B007D0000E166E010E156E59EC0DF0D9
:101A480013D01BBE06D01B500BE1F00E1A5CD8B0A9
:101A580007D0000E166E020E156E59EC0DF004D06C
:101A6800000E1B6E010E1A6E1A4A1B2A1A041B104E
:101A7800D8A405D0000E196E000E186E04D0C3CF7E
:101A880018F0C4CF19F0050E76EC12F0C350185CAC
:101A9800C4501958D8A0A8D7AA0EC35C030EC458BE
:101AA800D8A0A2D7B4EC12F01200340E176EF20EC2
:101AB800E82EFED7172EFCD715501610D8A405D03F
:101AC8008D948D9289988C901200040E151816101A
:101AD800D8A405D08D848D9289988C901200030E1D
:101AE80015181610D8A442D0424A432A43BE0AD039
:101AF800435004E1090E425CD8A004D0000E436EA6
:101B0800010E426E42044310D8B405D0080E4218A4
:101B18004310D8A402D08D8401D08D94020E4218AF
:101B28004310D8B405D0070E42184310D8A402D0E9
:101B38008D8201D08D92030E42184310D8B405D07F
:101B4800060E42184310D8A402D0898801D089987B
:101B5800040E42184310D8B405D0050E421843109D
:101B6800D8A402D08C8012008C9012001504161094
:101B7800D8A40ED0484A492A49BE1DD0495004E18C
:101B8800050E485CD8A017D0000E496E010E12D081
:101B9800020E15181610D8A40ED04806D8A049066B
:101BA80049BE05D0495007E14804D8B004D0000E1A
:101BB800496E040E486E48044910D8A402D08D849A
:101BC80001D08D94020E48184910D8A402D08D82F5
:101BD80001D08D92030E48184910D8A402D08988E4
:101BE80001D08998040E48184910D8A402D08C80D6
:101BF80012008C901200340E036EF20EE82EFED7FF
:101C0800032EFCD701500210D8A405D08D948D92D4
:101C180089988C901200040E01180210D8A405D0DF
:101C28008D848D9289988C901200030E01180210F1
:101C3800D8A442D0424A432A43BE0AD0435004E1C2
:101C4800090E425CD8A004D0000E436E010E426E0D
:101C580042044310D8B405D0080E42184310D8A443
:101C680002D08D8401D08D94020E42184310D8B44E
:101C780005D0070E42184310D8A402D08D8201D097
:101C88008D92030E42184310D8B405D0060E4218A0
:101C98004310D8A402D0898801D08998040E42182C
:101CA8004310D8B405D0050E42184310D8A402D06A
:101CB8008C8012008C90120001040210D8A40ED05F
:101CC800484A492A49BE1DD0495004E1050E485CDE
:101CD800D8A017D0000E496E010E12D0020E0118BE
:101CE8000210D8A40ED04806D8A0490649BE05D08F
:101CF800495007E14804D8B004D0000E496E040EDC
:101D0800486E48044910D8A402D08D8401D08D941F
:101D1800020E48184910D8A402D08D8201D08D92A5
:101D2800030E48184910D8A402D0898801D0899890
:101D3800040E48184910D8A402D08C8012008C9048
:101D48001200340E036EF20EE82EFED7032EFCD7D7
:101D580001500210D8A405D08B9E8B9C8B908B9A37
:101D68001200040E01180210D8A405D08B8E8B9C8B
:101D78008B908B9A1200030E01180210D8A442D03F
:101D8800444A452A45BE0AD0455004E1090E445C40
:101D9800D8A004D0000E456E010E446E44044510D0
:101DA800D8B405D0080E44184510D8A402D08B8E9C
:101DB80001D08B9E020E44184510D8B405D0070EEA
:101DC80044184510D8A402D08B8C01D08B9C030EEC
:101DD80044184510D8B405D0060E44184510D8A4A8
:101DE80002D08B8001D08B90040E44184510D8B4D3
:101DF80005D0050E44184510D8A402D08B8A1200CD
:101E08008B9A120001040210D8A40ED04A4A4B2A19
:101E18004BBE1DD04B5004E1050E4A5CD8A017D02C
:101E2800000E4B6E010E12D0020E01180210D8A43B
:101E38000ED04A06D8A04B064BBE05D04B5007E142
:101E48004A04D8B004D0000E4B6E040E4A6E4A0401
:101E58004B10D8A402D08B8E01D08B9E020E4A184C
:101E68004B10D8A402D08B8C01D08B9C030E4A183F
:101E78004B10D8A402D08B8001D08B90040E4A1846
:101E88004B10D8A402D08B8A12008B9A1200FF0E36
:101E98002F6EFF0E306E000E29EC12F0316E2F50AF
:101EA8003124326E000E31BEFF0E3020336E33BE49
:101EB80005D0335007E13204D8B004D0000E336E99
:101EC800040E326E32C015F0000E0DEC12F019C07F
:101ED80015F032C02FF02F3AF00E2F162F280DECE8
:101EE80012F01BC015F032C02FF02F3AF00E2F164B
:101EF8002F50020F0DEC12F01DC015F032C02FF05C
:101F08002F3AF00E2F162F50030F0DEC12F01FC0B2
:101F180015F032C02FF02F3AF00E2F162F50040F65
:101F28000DEC12F021C015F032C02FF02F3AF00E50
:101F38002F162F50050F0DEC12F023C015F032C0EC
:101F48002FF02F3AF00E2F162F50060F0DEC12F02F
:101F580025C015F032C02FF02F3AF00E2F162F5053
:101F6800070F0DEC12F027C015F032C02FF02F3AF2
:101F7800F00E2F162F50080F0DEC12F029C015F097
:101F880032C02FF02F3AF00E2F162F50090F0DECFC
:101F980012F02BC015F032C02FF02F3AF00E2F168A
:101FA8002F500A0F0DEC12F02DC015F032C02FF093
:101FB8002F3AF00E2F162F500B0F0DEC12F01200C7
:101FC800000E1D6E000E1E6E000E1F6E000E206E9F
:101FD80019501A101B101C10D8B42AD0010E216EEB
:101FE80006D0D89019361A361B361C36212A1CAE54
:101FF800F8D7D8901D361E361F3620361950155C76
:102008001A5016581B5017581C501858D8A009D0E9
:102018001950155E1A50165A1B50175A1C50185A48
:102028001D80D8901C321B321A321932212EE1D76A
:102038001DC015F01EC016F01FC017F020C018F004
:102048001200F00ED36E9B8CEF0E926EF20E936E12
:10205800000E946E000E956E010E966ECB680C0EF7
:10206800BD6E000EBE6E0C0EBA6E000EBB6E050E77
:10207800CA6E000E896E000E8A6E000E8B6E000E00
:102088008C6E000E8D6EC9EC11F0000E226E7D0E66
:10209800236E000E246E000E256EFEEC10F0F19EED
:1020A800090EC16E890EC06E000EB56EB496C08E54
:1020B800F28A9D80F28CF28E1200000E066E02AE3D
:1020C80006D0016C021ED8B0022A010E066E04AEBC
:1020D80004D0036C041ED8B0042A03500410D8B4EA
:1020E80018D0010E056E04D0D89003360436052AA0
:1020F80004AEFAD70350015C04500258D8A004D0AB
:102108000350015E0450025AD89004320332052E5F
:10211800F1D70650D8B404D0016C021ED8B0022AF8
:1021280001C001F002C002F01200E3EC12F0000E50
:10213800176ED00E166ED0EC12F0000E176E000E51
:10214800166ED0EC12F0DFEC12F0E3EC12F0000E99
:10215800176ED10E166ED0EC12F0000E186E050E2A
:10216800186401D00ED01850010D9E0EF324D96EBC
:10217800000EF420DA6E010E50EC12F0DF6E182A11
:10218800EED7000E50EC12F00001A46FDFEC12F055
:102198001200800ECAEC12F07F0E216EFE0E226E27
:1021A800A4C023F0246AA3C025F0266AA2C027F0A1
:1021B800286A63EC08F0E90E216EFF0E226E63ECCC
:1021C80008F0C00ECAEC12F04F0E216EFF0E226E00
:1021D800A0C023F0246A9FC025F0266A9EC027F07D
:1021E800286A63EC08F0E10E216EFF0E226E63ECA4
:1021F80008F01200000EC76E280EC66E000EC56EDF
:10220800000E156E480E166EE80E176E010E186E4B
:1022180022C026F023C027F024C028F025C029F0CA
:10222800020ED8902636273628362936E82EF9D7D2
:1022380026C019F027C01AF028C01BF029C01CF0CE
:10224800E4EC0FF01504C86E948694881200166E9C
:102258001650F00B156E8C500F0B8C6E15508C10A1
:102268008C6E8C96420EE82EFED700D08C86420EDD
:10227800E82EFED700D01638F00B166E1650F00B6D
:10228800156E8C500F0B8C6E15508C108C6E8C96B6
:10229800420EE82EFED700D08C86420EE82EFED7DE
:1022A80000D01200000E1B6E000E1A6E1750181088
:1022B800D8B41CD0010E196E04D0D8901736183631
:1022C800192A18AEFAD7D8901A361B361750155C4B
:1022D80018501658D8A005D01750155E1850165A21
:1022E8001A80D89018321732192EEDD71AC015F067
:1022F8001BC016F0120015C017F0010E1716173A7A
:10230800BA501718EF0B1718BA6E16341630186E25
:102318001530176E010E1716173A1746BA501718C8
:10232800DF0B1718BA6E15C017F016C018F018345E
:10233800183217321834183217321750BB6E120081
:1023480015C017F0010E1716173ABD501718EF0BE6
:102358001718BD6E16341630186E1530176E010E2C
:102368001716173A1746BD501718DF0B1718BD6E0A
:1023780015C017F016C018F0183418321732183470
:10238800183217321750BE6E12009C0E186ED70EF8
:10239800E82EFED7182EFCD700F0330ECAEC12F048
:1023A800320ECAEC12F0280ECAEC12F00F0ECAEC6C
:1023B80012F0060ECAEC12F0010ECAEC12F09C0ED6
:1023C800186ED70EE82EFED7182EFCD700F0120094
:1023D8001E501F10D8B418D0010E206E04D0D8900B
:1023E8001E361F36202A1FAEFAD71E501C5C1F50FF
:1023F8001D58D8A004D01E501C5E1F501D5AD890DE
:102408001F321E32202EF1D71CC01CF01DC01DF03B
:102418001200186E18C016F0080E176E1634163211
:10242800172EFCD71650AA6E18C0A9FF15C0A8FF12
:10243800A69EA69CA684550EA76EAA0EA76EA68277
:10244800A1A8FED7A198A6941200176E17C015F080
:10245800080E166E15341532162EFCD71550AA6EB6
:1024680017C0A9FFA69EA69CA680A6B0FED7A85016
:10247800120000EE9EF00F0EEE6AE806FDE100EE97
:1024880042F01F0EEE6AE806FDE161906192000ECF
:10249800F86E000109EF00F0166EABEC12F0C5867D
:1024A800ABEC12F0C9CF17F0ABEC12F01650D8A471
:1024B80002D0C58A01D0C59AC58817501200155098
:1024C8001702F3CF19F0F4CF1AF015501802F35091
:1024D8001A2616501702F3501A2619C015F01AC0FA
:1024E80016F01200166E1644E846FC0BC26EC28047
:1024F800C28207D0340E156EF20EE82EFED7152EC6
:10250800FCD7C2A21200F6D7176E000E166E3A0E4E
:10251800176005D02F0E176402D0010E166E16C074
:1025280015F01530120081A206D081380F0B0F0B61
:10253800606E81B2FED700F0120081A2FED781380A
:102548000F0B0F0B606E81B2FED700F01200C7B4FC
:10255800FED7C5CF15F01F0E1516D8B41200F7D741
:10256800B00ECD6EE90ECF6E5B0ECE6ECD80120032
:10257800B00ECD6EE90ECF6E5B0ECE6ECD80120022
:10258800176E8C8417502BEC11F01200176E8C9478
:1025980017502BEC11F01200ABEC12F016C0C9FF6B
:1025A8001200BA98BA9A000EBB6E1200BD98BD9A76
:1025B800000EBE6E1200ABEC12F0C5841200ABEC3C
:0625C80012F0C5801200B4
:10FDEA00003132334134353642373839432A3023E9
:10FDFA00440001000A006400E80310270100100013
:10FE0A000001001030261304010317446174653A97
:10FE1A0020253032782F253032782F25303278005D
:10FE2A003031323334353637383961626364656666
:10FE3A0000536F646120772F6F207461623A202526
:10FE4A006400536F757020772F6F206C626C3A20B4
:10FE5A0025640052756E23256420202020413A4EE5
:10FE6A006578740056696577204C6F67733F204246
:10FE7A003A59657300253032782F253032782F258C
:10FE8A003032782000536F646120772F20746162CA
:10FE9A003A20256400536F757020772F206C626CAE
:10FEAA003A2025640053746172743A2025643A2515
:10FEBA00643A256400536F7274696E672063616ED9
:10FECA00732E2E2E0074657374696E672053207327
:10FEDA0068616B6500536F727420646F6E652120D0
:10FEEA00413A4E6F00416E79206B657920746F201C
:10FEFA0073746F700074657374696E672053312070
:10FF0A0070696E730074657374696E67205332206A
:10FF1A0070696E730074657374696E672053332059
:10FF2A0070696E730074657374696E67205362201A
:10FF3A00736C6F770074657374696E6720536620FB
:10FF4A00736C6F7700253032783A253032783A254B
:10FF5A003032780074657374696E6720544D52307C
:10FF6A000074657374696E672050574D310074656B
:10FF7A007374696E672050574D320052756E7469FA
:10FF8A006D653A2025640074657374696E67205341
:10FF9A002062006C6162656C2020207461620073CB
:10FFAA006F64613A20257820256400736F75703A72
:10FFBA002025782025640074657374696E67205360
:10FFCA0020660074657374696E672049520025784B
:10FFDA002020202020200020413A4C6F67730033F4
:10FFEA003A537461727400256420256400257820D0
:06FFFA0000202578000044
:020000040020DA
:08000000FFFFFFFFFFFFFFFF00
:020000040030CA
:0E000000FF081F1EFF8381FF0FC00FE00F409F
:00000001FF
