:04000000E3EF0BF02F
:10100000003132334134353642373839432A3023C0
:1010100044000100100000010010301120030702FD
:1010200017303132333435363738396162636465AD
:101030006600253032782F253032782F25303278EF
:101040002000536F7274696E672063616E732E2E79
:101050002E00416E79206B657920746F2073746F58
:10106000700052756E233120202020413A4E657861
:1010700074002320736F75702063616E733A20349F
:10108000002320736F64612063616E733A20360021
:10109000253032783A253032783A253032780023BC
:1010A000206F662063616E733A2031300020323A3F
:1010B0004C6F677300333A537461727400000A0E08
:1010C000146E000E156EE8D0250E1D18D8B404D08D
:1010D0001D500BEC0CF0E0D0000E1C6E000E1B6ED1
:1010E000000E176E03D01784084A092A08C0F6FFBD
:1010F00009C0F7FF0800F550300AD8B4F4D708C08B
:10110000F6FF09C0F7FF0800F550D4EC0BF0D8A0AB
:1011100032D0000E1C6E000E1B6E1BC001F01CC0F6
:1011200002F0000E046E0A0E036EAEEC0BF001C06E
:101130001BF002C01CF0D00E106EFF0E116E08C026
:10114000F6FF09C0F7FF0800F550126E136A105041
:1011500012261150132212501B2613501C22084A2B
:10116000092A08C0F6FF09C0F7FF0800F550D4ECC3
:101170000BF0D8B0D2D708C0F6FF09C0F7FF084A75
:10118000092A0800F5CF1DF01D50000AD8B412003E
:10119000780AD8A481D014C0D9FF15C0DAFFDECFF9
:1011A00018F0DDCF19F0020E1426000E1522010EE4
:1011B0001D6E040E1D18D8B412D01D50020D120E53
:1011C000F324F66E100EF420F76E0900F550185C4B
:1011D0000900F5501958D8A002D01D2AEAD7800E70
:1011E0001DBE7F0E106E1B501D5C1C50800A1058D7
:1011F000D8B007D01D501B5E000E1DBEFF0E1C5A3E
:1012000004D0000E1C6E000E1B6E17A40BD01B50DA
:101210001C10D8B415D0300E0BEC0CF01B06D8A067
:101220001C06F5D71B501C10D8B40AD0200E0BECAE
:101230000CF01B06D8A01C061B501C10D8A4F6D717
:101240001DC01AF025D018C001F019C002F01A50C4
:10125000020D120EF324F66E100EF420F76E090044
:10126000F5CF03F00A00F5CF04F03DEC0BF0015090
:101270000F0B166E1650010D210EF324F66E100E94
:10128000F420F76E0800F5CF1DF01D500BEC0CF0AC
:101290001A061A28D8A4D7D708C0F6FF09C0F7FF46
:1012A000084A092A0800F5CF1DF01D50D8B41200D5
:1012B0000BD779EC0AF0000E226E010E216E000EA3
:1012C000206E000E1F6E680E1E6EE40EE82EFED716
:1012D0001E2EFCD700D0000E896E25EC0CF0000EFF
:1012E000036ED00E026E1CEC0CF0000E036E000EAE
:1012F000026E1CEC0CF021EC0CF025EC0CF0000E56
:10130000036ED10E026E1CEC0CF0000E236E050E67
:10131000236401D00ED02350010D240EF324D96E86
:10132000000EF420DA6E010EC1EC0BF0DF6E232A02
:10133000EED7000EC1EC0BF02A6E21EC0CF0215020
:101340002210D8B487D0000E2B6EB4EC0AF0EEEC6D
:101350000BF0020E2B18D8A425D0000E226E000E22
:10136000216E010E11EC0CF0680E1E6EE40EE82EDC
:10137000FED71E2EFCD700D0420E086E100E096E4E
:101380005FEC08F0C00E11EC0CF0520E086E100E5F
:10139000096E5FEC08F0000E026E640E016E66ECE2
:1013A0000BF099D72B04D8A496D7010E11EC0CF0B2
:1013B000680E1E6EE40EE82EFED71E2EFCD700D05F
:1013C000620E086E100E096E5FEC08F0C00E11EC94
:1013D0000CF09F0E086E100E096E5FEC08F0F8EC32
:1013E0000BF0010E11EC0CF0680E1E6EE40EE82EF0
:1013F000FED71E2EFCD700D0620E086E100E096EAE
:101400005FEC08F0C00E11EC0CF0810E086E100EAF
:10141000096E5FEC08F0F8EC0BF0010E11EC0CF02B
:10142000680E1E6EE40EE82EFED71E2EFCD700D0EE
:10143000620E086E100E096E5FEC08F0C00E11EC23
:101440000CF0720E086E100E096E5FEC08F0F8ECEE
:101450000BF041D7000E2B6EEEEC0BF02B50D8B4F6
:101460003AD7000E226E010E216E17EC0CF033D726
:10147000000E096E000E0A6E000E0B6E000E0C6E52
:101480000550061007100810D8B42AD0010E0D6EB2
:1014900006D0D89005360636073608360D2A08AE2F
:1014A000F8D7D89009360A360B360C360550015C51
:1014B000065002580750035808500458D8A009D0C5
:1014C0000550015E0650025A0750035A0850045A4C
:1014D0000980D89008320732063205320D2EE1D746
:1014E00009C001F00AC002F00BC003F00CC004F008
:1014F0001200F20ED36E9B8C000E926EF20E936E63
:10150000000E946E000E956E000E966ECB680C0E5B
:10151000BD6E000EBE6E050ECA6E550E896E550E5E
:101520008A6E550E8B6E000E8C6E000E8D6E8C804A
:101530008C928D808D92000EC26EC1688BEC0BF088
:10154000100E0E6E270E0F6E000E106E000E116E36
:10155000E5EC0AF0F19E010EC26E0B0EC16E000E9C
:10156000B56EB496C08E1200800E11EC0CF0320EE7
:10157000086E100E096E2AC00AF00B6A29C00CF022
:101580000D6A28C00EF00F6A5FEC08F0B50E086E09
:10159000100E096E5FEC08F0C00E11EC0CF0900E0E
:1015A000086E100E096E26C00AF00B6A25C00CF0FA
:1015B0000D6A24C00EF00F6A5FEC08F0AD0E086EE5
:1015C000100E096E5FEC08F01200000EC76E280EB8
:1015D000C66E000EC56E000E016E480E026EE80E5D
:1015E000036E010E046E0EC012F00FC013F010C097
:1015F00014F011C015F0020ED890123613361436BE
:101600001536E82EF9D712C005F013C006F014C045
:1016100007F015C008F038EC0AF00104C86E948693
:1016200094881200026E0250F00B016E8C500F0B6A
:101630008C6E01508C108C6E8C96420EE82EFED76C
:1016400000D08C86420EE82EFED700D00238F00B78
:10165000026E0250F00B016E8C500F0B8C6E01501D
:101660008C108C6E8C96420EE82EFED700D08C86A5
:10167000420EE82EFED700D01200000E066E000EBD
:10168000056E03500410D8B41CD0010E076E04D0B0
:10169000D89003360436072A04AEFAD7D890053618
:1016A00006360350015C04500258D8A005D0035000
:1016B000015E0450025A0580D89004320332072E8E
:1016C000EDD705C001F006C002F0120001C003F022
:1016D000010E0316033ABD500318EF0B0318BD6E3D
:1016E00002340230046E0130036E010E0316033A19
:1016F0000346BD500318DF0B0318BD6E01C003F095
:1017000002C004F0043404320332043404320332DD
:101710000350BE6E12009C0E046ED70EE82EFED74C
:10172000042EFCD700F0330E11EC0CF0320E11EC4D
:101730000CF0280E11EC0CF00F0E11EC0CF0060E54
:1017400011EC0CF0010E11EC0CF09C0E046ED70E97
:10175000E82EFED7042EFCD700F012000150030241
:10176000F3CF05F0F4CF06F001500402F350062643
:1017700002500302F350062605C001F006C002F035
:101780001200026E02EC0CF0C58602EC0CF0C9CF20
:1017900003F002EC0CF00250D8A402D0C58A01D0AC
:1017A000C59AC58803501200036E000E026E3A0EF1
:1017B000036005D02F0E036402D0010E026E02C03A
:1017C00001F00130120000EE24F0080EEE6AE80687
:1017D000FDE1000EF86E000159EF09F081A206D07C
:1017E00081380F0B0F0B2B6E81B2FED700F0120069
:1017F00081A2FED781380F0B0F0B2B6E81B2FED763
:1018000000F01200C7B4FED7C5CF01F01F0E0116BD
:10181000D8B41200F7D7036E8C84035012EC0BF08F
:101820001200036E8C94035012EC0BF01200BD9862
:10183000BD9A000EBE6E120002EC0CF002C0C9FF91
:10184000120002EC0CF0C584120002EC0CF0C58012
:02185000120084
:020000040020DA
:08000000FFFFFFFFFFFFFFFF00
:020000040030CA
:0E000000FF021F1EFF8381FF0FC00FE00F40A5
:00000001FF
