:0400000029EF6BF089
:10D5B400FDEC6AF0C5801200FDEC6AF0C58412002F
:10D5C400BD98BD9A000EBE6E1200BA98BA9A000EAB
:10D5D400BB6E1200FDEC6AF002C0C9FF1200036EBC
:10D5E4008C940350F3EC6BF01200036E8C840350A4
:10D5F400F3EC6BF01200C7B4FED7C5CF01F01F0ED9
:10D604000116D8B41200F7D781A2FED781380F0BC8
:10D614000F0B7F6E81B2FED700F0120081A206D0FC
:10D6240081380F0B0F0B7F6E81B2FED700F0120012
:10D63400036E000E026E3A0E036005D02F0E0364D3
:10D6440002D0010E026E02C001F00130120000EEA1
:10D6540080F00A0EEE6AE806FDE100EE70F0100EAE
:10D66400EE6AE806FDE1000EF86E00017AEF72F052
:10D67400026E0244E846FC0BC26EC280C28207D02E
:10D68400340E016EF20EE82EFED7012EFCD7C2A294
:10D694001200F6D701500302F3CF05F0F4CF06F0E1
:10D6A40001500402F350062602500302F3500626EA
:10D6B40005C001F006C002F01200026EFDEC6AF033
:10D6C400C586FDEC6AF0C9CF03F0FDEC6AF00250A8
:10D6D400D8A402D0C58A01D0C59AC58803501200C7
:10D6E400036E03C001F0080E026E01340132022EF3
:10D6F400FCD70150AA6E03C0A9FFA69EA69CA680D3
:10D70400A6B0FED7A85012009C0E046ED70EE82EC9
:10D71400FED7042EFCD700F0330EF1EC6AF0320E83
:10D72400F1EC6AF0280EF1EC6AF00F0EF1EC6AF0FD
:10D73400060EF1EC6AF0010EF1EC6AF09C0E046E38
:10D74400D70EE82EFED7042EFCD700F0120001C03D
:10D7540003F0010E0316033ABD500318EF0B031830
:10D76400BD6E02340230046E0130036E010E0316E6
:10D77400033A0346BD500318DF0B0318BD6E01C006
:10D7840003F002C004F004340432033204340432DB
:10D7940003320350BE6E120001C003F0010E0316E3
:10D7A400033ABA500318EF0B0318BA6E023402306E
:10D7B400046E0130036E010E0316033A0346BA5099
:10D7C4000318DF0B0318BA6E01C003F002C004F0A3
:10D7D4000434043203320434043203320350BB6E83
:10D7E4001200026E0250F00B016E8C500F0B8C6E07
:10D7F40001508C108C6E8C96420EE82EFED700D011
:10D804008C86420EE82EFED700D00238F00B026E52
:10D814000250F00B016E8C500F0B8C6E01508C106B
:10D824008C6E8C96420EE82EFED700D08C86420E6B
:10D83400E82EFED700D01200000EC76E280EC66E6A
:10D84400000EC56E000E016E480E026EE80E036EE9
:10D85400010E046E0EC012F00FC013F010C014F0CD
:10D8640011C015F0020ED890123613361436153640
:10D87400E82EF9D712C005F013C006F014C007F063
:10D8840015C008F01EEC6DF00104C86E94869488EF
:10D894001200800EF1EC6AF0260E176EFE0E186E62
:10D8A40076C019F01A6A75C01BF01C6A74C01DF0AA
:10D8B4001E6A71EC70F0E80E176EFF0E186E71ECB4
:10D8C40070F0C00EF1EC6AF0C50E176EFE0E186E05
:10D8D40072C019F01A6A71C01BF01C6A70C01DF086
:10D8E4001E6A71EC70F0E00E176EFF0E186E71EC8C
:10D8F40070F012001250131014101510D8B424D064
:10D90400010E166E06D0D89012361336143615361C
:10D91400162A15AEF8D712500E5C13500F58145037
:10D92400105815501158D8A008D012500E5E13503C
:10D934000F5A1450105A1550115AD89015321432E7
:10D9440013321232162EE7D70EC00EF00FC00FF0AE
:10D9540010C010F011C011F01200DAEC6AF0000EE1
:10D96400036ED00E026EECEC6AF0000E036E000E35
:10D97400026EECEC6AF0DEEC6AF0DAEC6AF0000EAF
:10D98400036ED10E026EECEC6AF0000E046E050E0E
:10D99400046401D00ED00450010D700EF324D96E2E
:10D9A400000EF420DA6E010E5FEC6BF0DF6E042AD9
:10D9B400EED7000E5FEC6BF0766EDEEC6AF01200D0
:10D9C400F00ED36E9B8CEF0E926EF20E936E000EE1
:10D9D400946E000E956E010E966ECB680C0EBD6EA5
:10D9E400000EBE6E0C0EBA6E000EBB6E050ECA6E35
:10D9F400000E896E000E8A6E000E8B6E000E8C6E09
:10DA0400000E8D6E86EC6BF0100E0E6E270E0F6EF0
:10DA1400000E106E000E116E1EEC6CF0F19E010EE5
:10DA2400C26E090EC16E8A0EC06E000EB56EB4963B
:10DA3400C08ED80ED56E1200000E096E000E0A6E4E
:10DA4400000E0B6E000E0C6E055006100710081029
:10DA5400D8B42AD0010E0D6E06D0D89005360636FD
:10DA6400073608360D2A08AEF8D7D89009360A3694
:10DA74000B360C360550015C06500258075003580B
:10DA840008500458D8A009D00550015E0650025A27
:10DA94000750035A0850045A0980D89008320732B4
:10DAA400063205320D2EE1D709C001F00AC002F09A
:10DAB4000BC003F00CC004F0120007C009F008C04A
:10DAC4000AF0091E0A1E094A0A2A72C00BF00F0E38
:10DAD4000B160B50016E026A0E0E046E100E036ECE
:10DAE4004CEC6BF070C00CF00C3A0F0E0C160F0ED1
:10DAF4000C160C500A0D70500F0B0D6E0E6AF3507D
:10DB04000D26F4500E2271C00FF00F0E0F160F5099
:10DB14003C0DF3500D26F4500E2271C010F0103A53
:10DB24000F0E10160F0E101610500A0DF3500D267E
:10DB3400F4500E2201500D2602500E2272C011F034
:10DB4400113A0F0E11160F0E111611500A0DF35043
:10DB54000D26F4500E2209500D24076E0A500E2093
:10DB6400086E1200010EF1EC6AF0340E326EF20E01
:10DB7400E82EFED7322EFCD7460E176EFE0E186E18
:10DB840071EC70F0C00EF1EC6AF0D40E176EFE0E5C
:10DB9400186E0A0E72EC6BF0196E1A6A19BE1A0628
:10DBA40071EC70F006EC6BF0010EF1EC6AF0340EDF
:10DBB400326EF20EE82EFED7322EFCD7460E176ECA
:10DBC400FE0E186E71EC70F0C00EF1EC6AF0360EB9
:10DBD400176EFE0E186E140E72EC6BF0196E1A6A44
:10DBE40019BE1A0671EC70F006EC6BF0010EF1EC44
:10DBF4006AF0340E326EF20EE82EFED7322EFCD7C7
:10DC0400460E176EFE0E186E71EC70F0C00EF1EC3D
:10DC14006AF0B60E176EFE0E186E71EC70F006EC1C
:10DC24006BF01200340E036EF20EE82EFED7032EB4
:10DC3400FCD701500210D8A405D08D948D928998F8
:10DC44008C901200040E01180210D8A405D08D8403
:10DC54008D9289988C901200030E01180210D8A49A
:10DC640042D0774A782A78BE0AD0785004E1090E67
:10DC7400775CD8A004D0000E786E010E776E77041E
:10DC84007810D8B405D0080E77187810D8A402D02C
:10DC94008D8401D08D94020E77187810D8B405D0F5
:10DCA400070E77187810D8A402D08D8201D08D92F7
:10DCB400030E77187810D8B405D0060E77187810AC
:10DCC400D8A402D0898801D08998040E77187810D6
:10DCD400D8B405D0050E77187810D8A402D08C805B
:10DCE40012008C90120001040210D8A413D0000179
:10DCF400864B872B000187BF25D00001875105E1A2
:10DD0400050E0001865DD8A01DD0000E0001876FAE
:10DD1400010E17D0020E01180210D8A413D000016E
:10DD24008607D8A08707000187BF07D00001875165
:10DD340009E100018605D8B005D0000E0001876F07
:10DD4400040E866F0001860500018711D8A402D055
:10DD54008D8401D08D94020E000186190001871173
:10DD6400D8A402D08D8201D08D92030E00018619B1
:10DD740000018711D8A402D0898801D08998040EA3
:10DD84000001861900018711D8A402D08C801200EA
:10DD94008C901200340E036EF20EE82EFED7032E82
:10DDA400FCD701500210D8A405D08B9E8B9C8B907D
:10DDB4008B9A1200040E01180210D8A405D08B8E81
:10DDC4008B9C8B908B9A1200030E01180210D8A41E
:10DDD40042D07D4A7E2A7EBE0AD07E5004E1090EDE
:10DDE4007D5CD8A004D0000E7E6E010E7D6E7D0495
:10DDF4007E10D8B405D0080E7D187E10D8A402D0A9
:10DE04008B8E01D08B9E020E7D187E10D8B405D067
:10DE1400070E7D187E10D8A402D08B8C01D08B9C69
:10DE2400030E7D187E10D8B405D0060E7D187E1022
:10DE3400D8A402D08B8001D08B90040E7D187E1064
:10DE4400D8B405D0050E7D187E10D8A402D08B8AD4
:10DE540012008B9A120001040210D8A413D00001FE
:10DE6400844B852B000185BF25D00001855105E138
:10DE7400050E0001845DD8A01DD0000E0001856F41
:10DE8400010E17D0020E01180210D8A413D00001FD
:10DE94008407D8A08507000185BF07D000018551FC
:10DEA40009E100018405D8B005D0000E0001856F9A
:10DEB400040E846F0001840500018511D8A402D0EA
:10DEC4008B8E01D08B9E020E0001841900018511F6
:10DED400D8A402D08B8C01D08B9C030E0001841932
:10DEE40000018511D8A402D08B8001D08B90040E40
:10DEF4000001841900018511D8A402D08B8A120074
:10DF04008B9A1200340E346EF20EE82EFED7342EA5
:10DF1400FCD732503310D8A405D08C928A968A94B8
:10DF24008A901200030E32183310D8A461D0794AB3
:10DF34007A2A7ABE0AD07A5004E1090E795CD8A014
:10DF440004D0000E7A6E010E796E340E346EF20E29
:10DF5400E82EFED7342EFCD779047A10D8B405D035
:10DF6400080E79187A10D8A408D08C82250E176E62
:10DF7400FF0E186E71EC70F001D08C92020E7918BD
:10DF84007A10D8B405D0070E79187A10D8A408D01E
:10DF94008A86320E176EFF0E186E71EC70F001D087
:10DFA4008A96030E79187A10D8B405D0060E79181B
:10DFB4007A10D8A408D08A84630E176EFF0E186EE8
:10DFC40071EC70F001D08A94040E79187A10D8B4E8
:10DFD40005D0050E79187A10D8A408D08A80C30E0B
:10DFE400176EFE0E186E71EC70F012008A9012001B
:10DFF400680E346EE40EE82EFED7342EFCD700D023
:10E0040032043310D8A413D00001884B892B0001AB
:10E0140089BF25D00001895105E1050E0001885D05
:10E02400D8A01DD0000E0001896F010E17D0020E7A
:10E0340032183310D8A413D000018807D8A0890758
:10E04400000189BF07D00001895109E10001880559
:10E05400D8B005D0000E0001896F040E886F00014E
:10E06400880500018911D8A408D08C82250E176E6A
:10E07400FF0E186E71EC70F001D08C92020E00014C
:10E08400881900018911D8A408D08A86320E176E27
:10E09400FF0E186E71EC70F001D08A96030E000129
:10E0A400881900018911D8A408D08A84630E176ED8
:10E0B400FF0E186E71EC70F001D08A94040E00010A
:10E0C400881900018911D8A408D08A80C30E176E5C
:10E0D400FE0E186E71EC70F012008A901200190E88
:10E0E400286E000E296EF7D1250E3118D8B404D04D
:10E0F4003150F7EC6AF0EFD1000E2F6E000E2E6E49
:10E10400000E306E03D03084174A182A17C0F6FF69
:10E1140018C0F7FF0800F550300AD8B4F4D717C078
:10E12400F6FF18C0F7FF0800F5501AEC6BF0D8A002
:10E134003AD0000E2F6E000E2E6E2EC001F02FC0AE
:10E1440002F0000E046E0A0E036E4CEC6BF001C07C
:10E154002EF002C02FF0D00E216EFF0E226E17C0DB
:10E16400F6FF18C0F7FF0800F550236E246A21500B
:10E1740023262250242223502E2624502F22174AAD
:10E18400182A17C0F6FF18C0F7FF0800F5501AEC5C
:10E194006BF0D8A008D0D1D7308805D0308E20D0ED
:10E1A400C00E30121DD017C0F6FF18C0F7FF174A73
:10E1B400182A0800F5CF31F03150000AD8B4120003
:10E1C400640AD8B40DD00D0AD8B40AD0050AD8B45C
:10E1D400E3D7190AD8B4E4D70D0AD8B4DFD77BD172
:10E1E40030C021F0C00E2116D8A42ED030A80ED0F5
:10E1F40028C0D9FF29C0DAFFDECF2AF0DECF2BF00A
:10E20400DECF2CF0DECF2DF0040E0ED028C0D9FFC7
:10E2140029C0DAFFDECF2AF0DDCF2BF0000E2BBEB3
:10E22400FF0E2C6E2D6E020E2826000E29222DAE16
:10E234006AD0030E30122D1E2C1E2B1E2A6C000ECB
:10E244002B222C222D225FD030A80ED028C0D9FF3B
:10E2540029C0DAFFDECF2AF0DECF2BF0DECF2CF0A0
:10E26400DECF2DF0040E0FD028C0D9FF29C0DAFF6D
:10E27400DECF21F0DDCF22F021C02AF022C02BF026
:10E284002C6A2D6A020E2826000E29223CD0010E8B
:10E29400316E0A0E3118D8B441D03150040DB50E88
:10E2A400F324F66EFD0EF420F76E0900F5502A5C97
:10E2B4000900F5502B580900F5502C580900F55069
:10E2C4002D58D8A02BD0312AE4D7010E316E080E78
:10E2D4003118D8B423D03150040DDD0EF324F66E7A
:10E2E400FD0EF420F76E0900F5502A5C0900F55084
:10E2F4002B580900F5502C580900F5502D58D8A07A
:10E304000DD0312AE4D73050C00B000AD8B4BFD79F
:10E31400800AD8B4DAD7400AD8B4B9D72E502F100F
:10E32400D8B409D030C021F0030E2116D8B403D0DC
:10E334002E06D8A02F06800E31BE7F0E216E2E50E1
:10E34400315C2F50800A2158D8B007D031502E5E4E
:10E35400000E31BEFF0E2F5A04D0000E2F6E000E99
:10E364002E6E30A414D030C021F0030E2116D8B480
:10E3740003D02D0EF7EC6AF02E502F10D8B41ED017
:10E38400300EF7EC6AF02E06D8A02F06F5D72E50E3
:10E394002F10D8B40AD0200EF7EC6AF02E06D8A0BD
:10E3A4002F062E502F10D8A4F6D730C021F0030E1C
:10E3B4002116D8B403D02D0EF7EC6AF03150266E36
:10E3C400276A26BE27067FD026C021F027C022F068
:10E3D400D89021362236D89021362236B50E212403
:10E3E400F66EFD0E2220F76E0900F5CF05F0090048
:10E3F400F5CF06F00900F5CF07F00A00F5CF08F0D5
:10E404002AC001F02BC002F02CC003F02DC004F090
:10E414001EEC6DF001C00EF002C00FF003C010F04E
:10E4240004C011F00A0E126E000E136E000E146E6C
:10E43400000E156E7CEC6CF00E50300F316E40D037
:10E444002AC001F02BC002F02CC003F02DC004F050
:10E4540026C021F027C022F0D89021362236D89049
:10E4640021362236DD0E2124F66EFD0E2220F76EB3
:10E474000900F5CF05F00900F5CF06F00900F5CF46
:10E4840007F00A00F5CF08F01EEC6DF001500F0BF9
:10E49400256E2550010D150EF324F66EFE0EF420A4
:10E4A400F76E0800F5CF31F00BD03050C00B000AE6
:10E4B400D8B48AD7800AD8B4C3D7400AD8B484D78A
:10E4C4003150F7EC6AF02606D8A027062628EDE19D
:10E4D4002728D8A4EAD717C0F6FF18C0F7FF174AB1
:10E4E400182A0800F5CF31F03150D8B41200FCD509
:10E4F400E2EC6CF0000E5B6E010E5A6E000E656E5F
:10E50400000E646E000E476E000E466E000E3D6EE9
:10E51400000E3C6E000E556E010E546E000E3F6EE2
:10E52400010E3E6E000E496E000E486E000E436EE4
:10E53400000E426E000E456E000E446E000E5D6EBF
:10E54400000E5C6E000E5F6E000E5E6E000E6B6E53
:10E55400000E6A6E000E676E000E666E000E6F6E21
:10E56400000E6E6E000E506E000E516E000E526E56
:10E57400000E536E680E356EE40EE82EFED7352E6F
:10E58400FCD700D0AFEC6CF06AC032F06BC033F053
:10E5940084EC6FF066C001F067C002F014EC6EF01A
:10E5A4006EC001F06FC002F0CCEC6EF0020E3AECDB
:10E5B4006BF0D00EC35C030EC458D8A004D0000E78
:10E5C400556E010E03D0000E556E000E546E5A04A3
:10E5D4005B10D8A4DCD1000E7F6E4BEC6CF010EC19
:10E5E4006BF0020E7F18D8A4EBD0000E5B6E000E09
:10E5F4005A6E010EF1EC6AF0340E356EF20EE82E0E
:10E60400FED7352EFCD7560E176EFE0E186E71EC23
:10E6140070F0C00EF1EC6AF0760E176EFE0E186EF6
:10E6240071EC70F0000E476E010E466E72C035F04C
:10E634000F0E35163550016E026A0E0E046E100E62
:10E64400036E4CEC6BF070C036F0363A0F0E361693
:10E654000F0E361636500A0D70500F0B376E386A8F
:10E66400F3503726F450382271C039F00F0E3916A2
:10E6740039503C0DF3503726F450382271C03AF02B
:10E684003A3A0F0E3A160F0E3A163A500A0DF35054
:10E694003726F4503822015037260250382272C0EF
:10E6A4003BF03B3A0F0E3B160F0E3B163B500A0D48
:10E6B400F3503724586EF4503820596E58C040F047
:10E6C40059C041F0020E026E580E016ECEEC6BF092
:10E6D400000E5F6E000E5E6E000E616E000E606EC8
:10E6E40072C035F00F0E35163550016E026A0E0EEB
:10E6F400046E100E036E4CEC6BF070C036F0363ABC
:10E704000F0E36160F0E361636500A0D70500F0BBC
:10E71400376E386AF3503726F450382271C039F016
:10E724000F0E391639503C0DF3503726F450382269
:10E7340071C03AF03A3A0F0E3A160F0E3A163A50A2
:10E744000A0DF3503726F450382201503726025070
:10E75400382272C03BF03B3A0F0E3B160F0E3B16AD
:10E764003B500A0DF3503724486EF4503820496E5C
:10E77400000E5D6E000E5C6E000E636E000E626E27
:10E78400000E656E000E646E65BE08D0655005E12E
:10E79400280E645CD8B0F6D601D0F4D6000E676EAD
:10E7A400020E666E66C001F067C002F014EC6EF0F3
:10E7B400644A652A65BEF2D7655001E1E9D7E2D61D
:10E7C4007F04D8A403D0B4EC6DF0DCD60F0E7F1810
:10E7D400D8A409D0000E5B6E020E5A6E000E656E50
:10E7E400010E646ECFD60E0E7F18D8A410D0000E82
:10E7F4005B6E030E5A6E010E026EF40E016ECEECC9
:10E804006BF0000E5F6E000E5E6E0BEF7AF00A0E78
:10E814007F18D8A4B7D6000E5B6E040E5A6E72C071
:10E8240035F00F0E35163550016E026A0E0E046E69
:10E83400100E036E4CEC6BF070C036F0363A0F0ECF
:10E8440036160F0E361636500A0D70500F0B376EF3
:10E85400386AF3503726F450382271C039F00F0E5D
:10E86400391639503C0DF3503726F450382271C014
:10E874003AF03A3A0F0E3A160F0E3A163A500A0D7B
:10E88400F3503726F45038220150372602503822EC
:10E8940072C03BF03B3A0F0E3B160F0E3B163B503B
:10E8A4000A0DF3503724486EF4503820496E000E98
:10E8B4005D6E000E5C6E000E636E000E626E72C0C2
:10E8C40035F00F0E35163550016E026A0E0E046EC9
:10E8D400100E036E4CEC6BF070C036F0363A0F0E2F
:10E8E40036160F0E361636500A0D70500F0B376E53
:10E8F400386AF3503726F450382271C039F00F0EBD
:10E90400391639503C0DF3503726F450382271C073
:10E914003AF03A3A0F0E3A160F0E3A163A500A0DDA
:10E92400F3503726F450382201503726025038224B
:10E9340072C03BF03B3A0F0E3B160F0E3B163B509A
:10E944000A0DF3503724586EF4503820596E000ED7
:10E95400656E000E646E65BE08D0655005E1280E34
:10E96400645CD8B00FD601D00DD6000E676E020ECF
:10E97400666E66C001F067C002F014EC6EF0644A83
:10E98400652A65BEF2D7655001E1E9D7FBD5020ED1
:10E994005A185B10D8A497D3010EF1EC6AF0340E28
:10E9A400356EF20EE82EFED7352EFCD7000E7F6EA4
:10E9B40064046510D8A427D0890E176EFF0E186E54
:10E9C40071EC70F0000E6B6E010E6A6E6AC032F06C
:10E9D4006BC033F084EC6FF0000E676E010E666E50
:10E9E40066C001F067C002F014EC6EF0000E6F6EAA
:10E9F400010E6E6E6EC001F06FC002F0CCEC6EF0D2
:10EA040010EC6BF058D3020E64186510D8A427D00C
:10EA1400650E176EFF0E186E71EC70F0000E6B6EC3
:10EA2400020E6A6E6AC032F06BC033F084EC6FF091
:10EA3400000E676E020E666E66C001F067C002F0DB
:10EA440014EC6EF0000E6F6E020E6E6E6EC001F06E
:10EA54006FC002F0CCEC6EF010EC6BF02CD3030E14
:10EA640064186510D8A427D0660E176EFE0E186EB3
:10EA740071EC70F0000E6B6E030E6A6E6AC032F0B9
:10EA84006BC033F084EC6FF0000E676E030E666E9D
:10EA940066C001F067C002F014EC6EF0000E6F6EF9
:10EAA400030E6E6E6EC001F06FC002F0CCEC6EF01F
:10EAB40010EC6BF000D3000E7F6E010EF1EC6AF0E7
:10EAC400340E356EF20EE82EFED7352EFCD7860EA8
:10EAD400176EFE0E186E71EC70F01ED010EC6BF019
:10EAE400020E7F18D8A402D08C8201D08C92060E1C
:10EAF4007F18D8A402D08A8601D08A960A0E7F187D
:10EB0400D8A402D08A8401D08A940E0E7F18D8A487
:10EB140002D08A8001D08A90030E7F18D8A4DED751
:10EB2400000E7F6E010EF1EC6AF0340E356EF20EBB
:10EB3400E82EFED7352EFCD7960E176EFE0E186EF5
:10EB440071EC70F01ED010EC6BF0020E7F18D8A49C
:10EB540002D08D8401D08D94060E7F18D8A402D0E3
:10EB64008D8201D08D920A0E7F18D8A402D0898894
:10EB740001D089980E0E7F18D8A402D08C8001D0C1
:10EB84008C90030E7F18D8A4DED7000E7F6E010E82
:10EB9400F1EC6AF0340E356EF20EE82EFED7352E07
:10EBA400FCD7A60E176EFE0E186E71EC70F01ED018
:10EBB40010EC6BF0020E7F18D8A402D08B8E01D01B
:10EBC4008B9E060E7F18D8A402D08B8C01D08B9C10
:10EBD4000A0E7F18D8A402D08B8001D08B900E0E21
:10EBE4007F18D8A402D08B8A01D08B9A030E7F1889
:10EBF400D8A4DED7010EF1EC6AF0340E356EF20EB5
:10EC0400E82EFED7352EFCD7270E176EFF0E186E92
:10EC140071EC70F0010E026EF40E016ECEEC6BF02E
:10EC240006EC6BF0E7EC6AF0010EF1EC6AF0340EDE
:10EC3400356EF20EE82EFED7352EFCD71A0E176E5F
:10EC4400FF0E186E71EC70F0010E026EF40E016E80
:10EC5400A9EC6BF006EC6BF0E2EC6AF0000E7F6E50
:10EC640072C035F00F0E35163550016E026A0E0E65
:10EC7400046E100E036E4CEC6BF070C036F0363A36
:10EC84000F0E36160F0E361636500A0D70500F0B37
:10EC9400376E386AF3503726F450382271C039F091
:10ECA4000F0E391639503C0DF3503726F4503822E4
:10ECB40071C03AF03A3A0F0E3A160F0E3A163A501D
:10ECC4000A0DF3503726F4503822015037260250EB
:10ECD400382272C03BF03B3A0F0E3B160F0E3B1628
:10ECE4003B500A0DF3503724586EF4503820596EB7
:10ECF40078D0AFEC6CF0000E7F6E030E366E080E0B
:10ED0400356E770EE82EFED7352EFCD7362EFAD781
:10ED140000F0010EF1EC6AF0340E356EF20EE82EBE
:10ED2400FED7352EFCD772C035F00F0E3516355090
:10ED3400016E026A0E0E046E100E036E4CEC6BF044
:10ED440070C036F0363A0F0E36160F0E36163650A1
:10ED54000A0D70500F0B376E386AF3503726F45093
:10ED6400382271C039F00F0E391639503C0DF3506A
:10ED74003726F450382271C03AF03A3A0F0E3A1658
:10ED84000F0E3A163A500A0DF3503726F450382233
:10ED9400015037260250382272C03BF03B3A0F0E26
:10EDA4003B160F0E3B163B500A0DF35037244A6EA8
:10EDB400F45038204B6EC20E176EFF0E186E4AC008
:10EDC40019F04BC01AF058C007F059C008F05FECB6
:10EDD4006DF007C01BF008C01CF071EC70F010EC73
:10EDE4006BF07F50D8B485D7000E7F6E30D0000E04
:10EDF4007F6E030E366E080E356E770EE82EFED744
:10EE0400352EFCD7362EFAD700F0010EF1EC6AF05D
:10EE1400340E356EF20EE82EFED7352EFCD7410E99
:10EE2400176EFF0E186E71EC70F0010E3AEC6BF079
:10EE3400C00EF1EC6AF0F50E176EFF0E186EC3CF1C
:10EE440019F0C4CF1AF071EC70F010EC6BF07F5035
:10EE5400D8B4CDD7000E7F6E30D0000E7F6E030E77
:10EE6400366E080E356E770EE82EFED7352EFCD79B
:10EE7400362EFAD700F0010EF1EC6AF0340E356E3E
:10EE8400F20EE82EFED7352EFCD74D0E176EFF0E70
:10EE9400186E71EC70F0000E3AEC6BF0C00EF1ECF1
:10EEA4006AF0F50E176EFF0E186EC3CF19F0C4CFBB
:10EEB4001AF071EC70F010EC6BF07F50D8B4CDD731
:10EEC400000E7F6E30D0000E7F6E030E366E080E7D
:10EED400356E770EE82EFED7352EFCD7362EFAD7B0
:10EEE40000F0010EF1EC6AF0340E356EF20EE82EED
:10EEF400FED7352EFCD7590E176EFF0E186E71EC27
:10EF040070F0020E3AEC6BF0C00EF1EC6AF0F50E04
:10EF1400176EFF0E186EC3CF19F0C4CF1AF071EC40
:10EF240070F010EC6BF07F50D8B4CDD7000E7F6E2C
:10EF340032D0000E7F6E030E366E080E356E770EDD
:10EF4400E82EFED7352EFCD7362EFAD700F0010E68
:10EF5400F1EC6AF0340E356EF20EE82EFED7352E43
:10EF6400FCD7F00E176EFE0E186E71EC70F0040EE6
:10EF74003AEC6BF0C00EF1EC6AF0F00E176EFF0E77
:10EF8400186EC4CF19F01A6AC3CF1BF01C6A71EC57
:10EF940070F010EC6BF07F50D8B4CBD7000E7F6EBE
:10EFA40032D0000E7F6E030E366E080E356E770E6D
:10EFB400E82EFED7352EFCD7362EFAD700F0010EF8
:10EFC400F1EC6AF0340E356EF20EE82EFED7352ED3
:10EFD400FCD7710E176EFF0E186E71EC70F0030EF5
:10EFE4003AEC6BF0C00EF1EC6AF0F00E176EFF0E07
:10EFF400186EC4CF19F01A6AC3CF1BF01C6A71ECE7
:10F0040070F010EC6BF07F50D8B4CBD7000E506E7C
:10F01400000E516E000E526E000E536E000E7F6E87
:10F0240043D0000E7F6E010E5026000E5122522254
:10F03400532250C00EF051C00FF052C010F053C014
:10F0440011F0100E126E270E136E000E146E000EC9
:10F05400156E7CEC6CF00E500F1010101110D8A42B
:10F0640021D0010EF1EC6AF0340E356EF20EE82E6A
:10F07400FED7352EFCD7E20E176EFE0E186E71EC1D
:10F0840070F0C00EF1EC6AF0B70E176EFF0E186E3A
:10F0940050C019F051C01AF052C01BF053C01CF0FC
:10F0A40071EC70F010EC6BF07F50D8B4BAD7000E4E
:10F0B4005B6E010E5A6E7F50D8B4C4EF72F0644A8E
:10F0C400652AC4EF72F0030E5A185B10D8A4B3D1AA
:10F0D400010EF1EC6AF0340E356EF20EE82EFED716
:10F0E400352EFCD70C0E176EFF0E186E71EC70F0F7
:10F0F400C00EF1EC6AF0F80E176EFF0E186E6AC0BF
:10F1040019F06BC01AF060C01BF061C01CF071EC08
:10F1140070F054505510D8B460D072C035F00F0E52
:10F1240035163550016E026A0E0E046E100E036E13
:10F134004CEC6BF070C036F0363A0F0E36160F0EEC
:10F14400361636500A0D70500F0B376E386AF3506E
:10F154003726F450382271C039F00F0E3916395061
:10F164003C0DF3503726F450382271C03AF03A3A45
:10F174000F0E3A160F0E3A163A500A0DF350372670
:10F18400F4503822015037260250382272C03BF026
:10F194003B3A0F0E3B160F0E3B163B500A0DF35035
:10F1A40037244E6EF45038204F6E60506110D8A44E
:10F1B40014D0000E616E010E606E000E6D6E000EB6
:10F1C4006C6E070E366E170E356E6A0EE82EFED77D
:10F1D400352EFCD7362EFAD700D060506110D8B443
:10F1E4001ED16C4A6D2A6DBE06D06D503AE1140EE4
:10F1F4006C5CD8B036D0000E6B6E030E6A6E6AC0BB
:10F2040032F06BC033F084EC6FF0040E3AEC6BF028
:10F21400020EC36004D0000E5F6E010E5E6E010E1E
:10F22400F1EC6AF0340E356EF20EE82EFED7352E70
:10F23400FCD7CD0E176EFF0E186EC3CF19F01A6AE5
:10F2440071EC70F0C00EF1EC6AF0AC0E176EFF0EAC
:10F25400186E6CC019F06DC01AF071EC70F0C4EF48
:10F2640072F05E045F10D8A44FD0010EF1EC6AF086
:10F27400340E356EF20EE82EFED7352EFCD7D70E9F
:10F28400176EFF0E186E71EC70F0C00EF1EC6AF0A0
:10F294006DBE06D06D501AE1320E6C5CD8B016D03B
:10F2A400000E6B6E010E6A6E6AC032F06BC033F0F2
:10F2B40084EC6FF0A10E176EFF0E186E6CC019F07F
:10F2C4006DC01AF071EC70F0C4EF72F06DBE06D030
:10F2D4006D506DE14F0E6C5CD8B069D0000E6B6E52
:10F2E400020E6A6E6AC032F06BC033F084EC6FF0C9
:10F2F400340E176EFF0E186E6CC019F06DC01AF044
:10F3040071EC70F0C4EF72F05E505F10D8A455D069
:10F31400010EF1EC6AF0340E356EF20EE82EFED7D3
:10F32400352EFCD7F80E176EFE0E186E71EC70F0C9
:10F33400C00EF1EC6AF06DBE06D06D501AE12E0ECF
:10F344006C5CD8B016D0000E6B6E020E6A6E6AC08A
:10F3540032F06BC033F084EC6FF0A10E176EFF0E29
:10F36400186E6CC019F06DC01AF071EC70F0C4EF37
:10F3740072F06DBE06D06D501AE1480E6C5CD8B0C8
:10F3840016D0000E6B6E010E6A6E6AC032F06BC04E
:10F3940033F084EC6FF0340E176EFF0E186E6CC0F1
:10F3A40019F06DC01AF071EC70F0C4EF72F0000E39
:10F3B4005F6E640E5E6EC4EF72F0010EF1EC6AF0E3
:10F3C400340E356EF20EE82EFED7352EFCD77D0EA8
:10F3D400176EFF0E186E6CC019F06DC01AF071EC48
:10F3E40070F0000E6D6E000E6C6E000E5F6E000EFF
:10F3F4005E6E4EC007F04FC008F05FEC6DF008BEC3
:10F40400C4EF72F0085005E1030E075CD8A0C4EF06
:10F4140072F0000E616E000E606EC4EF72F0000EAA
:10F424006B6E030E6A6E6AC032F06BC033F084EC0C
:10F434006FF0C4EF72F0040E5A185B10D8A487D191
:10F44400010EF1EC6AF0340E356EF20EE82EFED7A2
:10F45400352EFCD7FE0E176EFE0E186E71EC70F092
:10F46400000E3AEC6BF0B00EC35C030EC458D8A087
:10F474006ED072C035F00F0E35163550016E026A2B
:10F484000E0E046E100E036E4CEC6BF070C036F072
:10F49400363A0F0E36160F0E361636500A0D7050C9
:10F4A4000F0B376E386AF3503726F450382271C088
:10F4B40039F00F0E391639503C0DF3503726F450FD
:10F4C400382271C03AF03A3A0F0E3A160F0E3A1635
:10F4D4003A500A0DF3503726F4503822015037269B
:10F4E4000250382272C03BF03B3A0F0E3B160F0E0F
:10F4F4003B163B500A0DF3503724566EF450382017
:10F50400576E62506310D8A411D07D047E10D8B415
:10F5140005D0080E7D187E10D8A408D0000E636EA6
:10F52400010E626E000E696E000E686E58C007F020
:10F5340059C008F05FEC6DF008BE05D0085007E133
:10F544000704D8B004D0000E636E000E626EC00EC5
:10F55400F1EC6AF0950E176EFF0E186E62C019F08A
:10F5640063C01AF0C3CF1BF0C4CF1CF056C01DF00B
:10F5740057C01EF04CC01FF04DC020F071EC70F06D
:10F5840062506310D8B4D8D0684A692A69BE06D0DC
:10F5940069500FE1180E685CD8B00BD0000E6F6E86
:10F5A400030E6E6E6EC001F06FC002F0CCEC6EF014
:10F5B400F9D369BE06D069500FE12E0E685CD8B04D
:10F5C4000BD0000E6F6E010E6E6E6EC001F06FC038
:10F5D40002F0CCEC6EF0E6D369BE06D0695014E1BB
:10F5E400360E685CD8B010D0000E6F6E040E6E6ECE
:10F5F400000E676E010E666E66C001F067C002F011
:10F6040014EC6EF0C4EF72F069BE06D0695010E1DC
:10F61400390E685CD8B00CD0000E676E040E666EAE
:10F62400000E6F6E040E6E6E030E3AEC6BF01ED37A
:10F6340069BE06D069500FE1410E685CD8B00BD0AA
:10F64400000E676E020E666E66C001F067C002F0BF
:10F6540014EC6EF025D35C045D10D8A429D069BEE7
:10F6640006D069500FE14A0E685CD8B00BD0000E8A
:10F674006F6E010E6E6E6EC001F06FC002F0CCECC6
:10F684006EF090D369BE06D069503CE1670E685CA9
:10F69400D8B060D3000E6F6E020E6E6E6EC001F0B5
:10F6A4006FC002F0CCEC6EF07DD35C6EC4EF72F0F0
:10F6B4005C505D10D8A427D069BE06D069500FE114
:10F6C400740E685CD8B00BD0000E6F6E020E6E6EB6
:10F6D4006EC001F06FC002F0CCEC6EF063D369BE73
:10F6E40006D069500FE1900E685CD8B033D3000E99
:10F6F4006F6E010E6E6E6EC001F06FC002F0CCEC46
:10F704006EF050D327D3000E696E000E686E000EA3
:10F714005D6E000E5C6E56C007F057C008F05FECDB
:10F724006DF008BEC4EF72F0085005E1030E075CEB
:10F73400D8A0C4EF72F026D3000E6F6E030E6E6E67
:10F744006EC001F06FC002F0CCEC6EF02BD3010E52
:10F75400F1EC6AF0340E356EF20EE82EFED7352E3B
:10F76400FCD70C0E176EFF0E186E71EC70F0C00E05
:10F77400F1EC6AF0F80E176EFF0E186E6AC019F0FD
:10F784006BC01AF060C01BF061C01CF071EC70F02B
:10F7940054505510D8B460D072C035F00F0E3516E1
:10F7A4003550016E026A0E0E046E100E036E4CECA0
:10F7B4006BF070C036F0363A0F0E36160F0E361652
:10F7C40036500A0D70500F0B376E386AF3503726D7
:10F7D400F450382271C039F00F0E391639503C0DEF
:10F7E400F3503726F450382271C03AF03A3A0F0EEB
:10F7F4003A160F0E3A163A500A0DF3503726F450C3
:10F804003822015037260250382272C03BF03B3A6E
:10F814000F0E3B160F0E3B163B500A0DF3503724C8
:10F824004E6EF45038204F6E60506110D8A414D03E
:10F83400000E616E010E606E000E6D6E000E6C6E39
:10F84400070E366E170E356E6A0EE82EFED7352E6D
:10F85400FCD7362EFAD700D060506110D8B415D139
:10F864006C4A6D2A6DBE06D06D5039E1140E6C5C85
:10F87400D8B035D0000E6B6E030E6A6E6AC032F0DB
:10F884006BC033F084EC6FF0040E3AEC6BF0020EB4
:10F89400C36004D0000E5F6E010E5E6E010EF1ECCB
:10F8A4006AF0340E356EF20EE82EFED7352EFCD7F4
:10F8B400CD0E176EFF0E186EC3CF19F01A6A71ECD5
:10F8C40070F0C00EF1EC6AF0AC0E176EFF0E186EFD
:10F8D4006CC019F06DC01AF071EC70F0E0D05E04E9
:10F8E4005F10D8A44DD0010EF1EC6AF0340E356EE1
:10F8F400F20EE82EFED7352EFCD7D70E176EFF0E6C
:10F90400186E71EC70F0C00EF1EC6AF06DBE06D0AA
:10F914006D5019E1320E6C5CD8B015D0000E6B6ED0
:10F92400010E6A6E6AC032F06BC033F084EC6FF083
:10F93400A10E176EFF0E186E6CC019F06DC01AF090
:10F9440071EC70F0ACD06DBE06D06D506AE14F0E14
:10F954006C5CD8B066D0000E6B6E020E6A6E6AC024
:10F9640032F06BC033F084EC6FF0340E176EFF0E80
:10F97400186E6CC019F06DC01AF071EC70F08FD075
:10F984005E505F10D8A452D0010EF1EC6AF0340E30
:10F99400356EF20EE82EFED7352EFCD7F80E176E14
:10F9A400FE0E186E71EC70F0C00EF1EC6AF06DBED4
:10F9B40006D06D5019E12E0E6C5CD8B015D0000E37
:10F9C4006B6E020E6A6E6AC032F06BC033F084EC68
:10F9D4006FF0A10E176EFF0E186E6CC019F06DC09B
:10F9E4001AF071EC70F05BD06DBE06D06D5019E169
:10F9F400480E6C5CD8B015D0000E6B6E010E6A6EAA
:10FA04006AC032F06BC033F084EC6FF0340E176EC2
:10FA1400FF0E186E6CC019F06DC01AF071EC70F026
:10FA24003ED0000E5F6E640E5E6E39D0010EF1ECB6
:10FA34006AF0340E356EF20EE82EFED7352EFCD762
:10FA44007D0E176EFF0E186E6CC019F06DC01AF0A3
:10FA540071EC70F0000E6D6E000E6C6E000E5F6E39
:10FA6400000E5E6E4EC007F04FC008F05FEC6DF004
:10FA740008BE15D0085004E1030E075CD8A00FD0CF
:10FA8400000E616E000E606E0AD0000E6B6E030EE7
:10FA94006A6E6AC032F06BC033F084EC6FF0000E13
:10FAA4003AEC6BF0B50EC35C030EC458D8A06ED00C
:10FAB40072C035F00F0E35163550016E026A0E0E07
:10FAC400046E100E036E4CEC6BF070C036F0363AD8
:10FAD4000F0E36160F0E361636500A0D70500F0BD9
:10FAE400376E386AF3503726F450382271C039F033
:10FAF4000F0E391639503C0DF3503726F450382286
:10FB040071C03AF03A3A0F0E3A160F0E3A163A50BE
:10FB14000A0DF3503726F45038220150372602508C
:10FB2400382272C03BF03B3A0F0E3B160F0E3B16C9
:10FB34003B500A0DF3503724566EF4503820576E5C
:10FB440062506310D8A411D07D047E10D8B405D0BF
:10FB5400080E7D187E10D8A408D0000E636E010E26
:10FB6400626E000E696E000E686E58C007F059C0D0
:10FB740008F05FEC6DF008BE05D0085007E10704FB
:10FB8400D8B004D0000E636E000E626EC00EF1ECAD
:10FB94006AF0950E176EFF0E186E62C019F063C0FE
:10FBA4001AF0C3CF1BF0C4CF1CF056C01DF057C0D1
:10FBB4001EF04CC01FF04DC020F071EC70F062508C
:10FBC4006310D8B4E5D0684A692A69BE06D0695082
:10FBD4000FE1180E685CD8B00BD0000E6F6E030EE8
:10FBE4006E6E6EC001F06FC002F0CCEC6EF0DAD035
:10FBF40069BE06D069500FE12C0E685CD8B00BD0FA
:10FC0400000E6F6E010E6E6E6EC001F06FC002F0DA
:10FC1400CCEC6EF0C7D069BE06D0695014E1340E46
:10FC2400685CD8B010D0000E6F6E040E6E6E000EBD
:10FC3400676E010E666E66C001F067C002F014ECD8
:10FC44006EF0C4EF72F069BE06D0695017E13A0E47
:10FC5400685CD8B013D0000E676E040E666E000E9A
:10FC64006F6E040E6E6E030E3AEC6BF0C450D8A4A3
:10FC7400C4EF72F0000E5D6E010E17D569BE06D09A
:10FC8400695014E1420E685CD8B010D0000E676E63
:10FC9400020E666E66C001F067C002F014EC6EF0EE
:10FCA400000E6F6E040E6E6EC4EF72F05C045D1095
:10FCB400D8A426D069BE06D069500FE14B0E685C0B
:10FCC400D8B00BD0000E6F6E010E6E6E6EC001F0D8
:10FCD4006FC002F0CCEC6EF065D069BE06D06950FE
:10FCE40039E1660E685CD8B035D0000E6F6E020E36
:10FCF4006E6E6EC001F06FC002F0CCEC6EF052D0AC
:10FD04005C505D10D8A42AD069BE06D069500FE1BA
:10FD1400750E685CD8B00BD0000E6F6E020E6E6E5E
:10FD24006EC001F06FC002F0CCEC6EF03BD069BE47
:10FD340006D069500FE1920E685CD8B00BD0000E6B
:10FD44006F6E010E6E6E6EC001F06FC002F0CCECEF
:10FD54006EF028D0000E5D6E640EA7D4000E696E9E
:10FD6400000E686E000E5D6E000E5C6E56C007F0ED
:10FD740057C008F05FEC6DF008BEC4EF72F0085095
:10FD840001E1D4D4000E636E000E626EC4EF72F013
:10FD9400000E6F6E030E6E6E6EC001F06FC002F047
:10FDA400CCEC6EF0000E676E040E666EC4EF72F05B
:10FDB40000010000000A00000064000000E80300E5
:10FDC4000010270000A086010040420F0080969892
:10FDD4000000E1F50500CA9A3B0100000010000094
:10FDE40000000100000010000000000100000010ED
:10FDF4000000000001000000103132334134353678
:10FE040042373839432A302344003026130401038F
:10FE140017303132333435363738396162636465CB
:10FE24006600253032782F253032782F253032780D
:10FE340020002320736F64612063616E733A202570
:10FE4400640052756E233120202020413A4E65789B
:10FE54007400536F7274696E672063616E732E2E23
:10FE64002E0074657374696E672053207368616B28
:10FE74006500416E79206B657920746F2073746F0F
:10FE8400700074657374696E672053312070696EF5
:10FE9400730074657374696E672053322070696EE1
:10FEA400730074657374696E672053332070696ED0
:10FEB40073002320736F75702063616E733A20346E
:10FEC40000253032783A253032783A2530327800BD
:10FED40023206F662063616E733A2025640070727C
:10FEE4006F6772616D207370656564007465737407
:10FEF400696E67206C6162656C00736F6461206376
:10FF0400616E207465737400736F75702063616E25
:10FF140020746573740074657374696E6720505738
:10FF24004D310074657374696E672050574D32000B
:10FF340072657475726E696E6720256400746573EA
:10FF440074696E67204952310074657374696E6711
:10FF5400204952320074657374696E6720495233C4
:10FF64000074657374696E6720532062007465734E
:10FF740074696E67207461620066696E697368658E
:10FF8400642025640074657374696E672053206669
:10FF940000256420257820256420257800736F725D
:10FFA40074696E672025640074657374696E6720D4
:10FFB4002564006C6F6F70733A20256C750074694A
:10FFC4006D652025782025780076616C75653A206A
:10FFD4002578006E6F206C6162656C0020323A4CAB
:10FFE4006F677300333A537461727400257820206C
:0CFFF400202578002564202025640000F2
:020000040020DA
:08000000FFFFFFFFFFFFFFFF00
:020000040030CA
:0E000000FF081F1EFF8381FF0FC00FE00F409F
:00000001FF
