:0400000007EF00F016
:100008006B82B3ED10F02CEF13F0000E896E63ECE9
:1000180011F0000E0001A16F010EA06F000E00018B
:10002800856F000E846F000E0001816F010E806FD6
:10003800000E0001836F010E826F000E0001A36F96
:10004800000EA26F000E0001A56F000EA46F170E20
:10005800D56E850ED76EAE0ED66ED58EB00ECD6E21
:10006800FD0ECF6E5B0ECE6ECD80010E00018B6F44
:10007800000E8A6F680E4C6EE40EE82EFED74C2EEA
:10008800FCD700D00001A0050001A111D8A4D1D14E
:10009800000E0001B76F06D09FEC11F006EC12F0CD
:1000A80086EC13F00001B751D8B4F6D7020E000160
:1000B800B719D8A490D1000E0001A16F000EA06F4F
:1000C800ACC04CF00F0E4C164C50126E136A0E0E4C
:1000D800156E100E146E52EC13F0AAC04DF04D3A86
:1000E8000F0E4D160F0E4D164D500A0D0001AA5158
:1000F8000F0B4E6E4F6AF3504E26F4504F22ABC092
:1001080050F00F0E501650503C0DF3504E26F45040
:100118004F22ABC051F0513A0F0E51160F0E511627
:1001280051500A0DF3504E26F4504F2212504E26CD
:1001380013504F22ACC052F0523A0F0E52160F0E07
:10014800521652500A0DF3504E26F4504F224EC00C
:1001580086F04FC087F00001000E87BFFF0E886F42
:10016800896F000E0001B66F000EB56F000E00011A
:10017800A56F000EA46F000E00019B6F000E9A6F12
:10018800000E0001A36F000EA26F000E00019D6F0C
:10019800000E9C6F000E0001B46F000EB36F000ECE
:1001A8000001B26F000EB16F000E00018F6F000EDC
:1001B8008E6F000E0001916F000E906F000E00010F
:1001C800936F000E926F000E0001956F000E946FF2
:1001D800000E00019F6F000E9E6F000E0001A76FBA
:1001E800000EA66F000E0001B76F010EABEC13F006
:1001F800340E4C6EF20EE82EFED74C2EFCD7DF0ED6
:10020800286EFE0E296E9BEC08F0C00EABEC13F0C6
:100218000F0E286EFF0E296E9BEC08F004D0000E1E
:10022800686E020E676E0001B4BFF9D70001B451C1
:1002380005E1040E0001B35DD8A0F1D7000E686E89
:10024800040E676E000E0001A96F000EA86F000172
:10025800A9BF08D00001A95124E1460E0001A85DFC
:10026800D8B01FD0000E136E010E126E52EC0CF0B7
:10027800010E65EC13F00001A651C35C0001A75103
:10028800C458D8B006D0AB0EC35C030EC458D8B05F
:1002980008D0C3CFA6F0C4CFA7F00001A84BA92B64
:1002A800D6D7000E0001A96F000EA86F0001A9BFE4
:1002B80008D00001A95124E1640E0001A85DD8B05E
:1002C8001FD0000E136E020E126E52EC0CF0010ECF
:1002D80065EC13F00001A651C35C0001A751C45896
:1002E800D8B006D0AB0EC35C030EC458D8B008D043
:1002F800C3CFA6F0C4CFA7F00001A84BA92BD6D72F
:10030800000E0001A96F000EA86F0001A9BF08D058
:100318000001A95124E1460E0001A85DD8B01FD004
:10032800000E136E010E126E28EC0EF0050E65EC31
:1003380013F00001A651C35C0001A751C458D8B0FE
:1003480006D0AB0EC35C030EC458D8B008D0C3CFD8
:10035800A6F0C4CFA7F00001A84BA92BD6D7000E52
:100368000001A96F000EA86F0001A9BF08D0000105
:10037800A95124E1640E0001A85DD8B01FD0000E79
:10038800136E020E126E28EC0EF0050E65EC13F0DB
:100398000001A651C35C0001A751C458D8B006D0CB
:1003A800AB0EC35C030EC458D8B008D0C3CFA6F0B8
:1003B800C4CFA7F00001A84BA92BD6D7010E136E06
:1003C800900E126E8FEC12F0010E136E900E126EDC
:1003D800B4EC12F057D6030E0001B719D8A419D0FF
:1003E800000E446E010E436EA4EC0AF0000E446E3B
:1003F800020E436EA4EC0AF0000E446E030E436E28
:10040800A4EC0AF0000E446E040E436EA4EC0AF04D
:1004180039D60F0E0001B719D8A434D6000E000142
:10042800A16F020EA06F000E0001856F010E846F90
:1004380029D6020E0001A0190001A111D8A4EDD2FD
:10044800000E0001B76F010EABEC13F0340E4C6ECA
:10045800F20EE82EFED74C2EFCD7D30E286EFF0ED8
:10046800296EACC04CF04C3A0F0E4C160F0E4C16C1
:100478004C500A0DACC04DF00F0E4D164D50F324E4
:100488002A6E000EF4202B6EABC04EF04E3A0F0EC3
:100498004E160F0E4E164E500A0DABC04FF00F0EF3
:1004A8004F164F50F3242C6E000EF4202D6EAAC068
:1004B80050F0503A0F0E50160F0E501650500A0DAD
:1004C800AAC051F00F0E51165150F3242E6E000E93
:1004D800F4202F6E9BEC08F0C00EABEC13F0ACC010
:1004E8004CF00F0E4C164C50126E136A0E0E156E11
:1004F800100E146E52EC13F0AAC04DF04D3A0F0EC8
:100508004D160F0E4D164D500A0D0001AA510F0B36
:100518004E6E4F6AF3504E26F4504F22ABC050F047
:100528000F0E501650503C0DF3504E26F4504F22EB
:10053800ABC051F0513A0F0E51160F0E51165150D3
:100548000A0DF3504E26F4504F2212504E261350E7
:100558004F22ACC052F0523A0F0E52160F0E5216DE
:1005680052500A0DF3504E2400018C6FF4504F2066
:1005780000018D6FF60E286EFF0E296E8CC02AF0D2
:100588008DC02BF09BEC08F091EC13F0010EABEC56
:1005980013F0340E4C6EF20EE82EFED74C2EFCD71C
:1005A800A90E286EFF0E296E9BEC08F0000E6A6EED
:1005B800010E696E000E686E010E676E000E666EA3
:1005C800010E656E91EC13F0010EABEC13F0340ED6
:1005D8004C6EF20EE82EFED74C2EFCD7910E286EEC
:1005E800FF0E296E9BEC08F0000E6A6E020E696E13
:1005F800000E686E020E676E000E666E020E656E65
:1006080091EC13F0010EABEC13F0340E4C6EF20EBD
:10061800E82EFED74C2EFCD7EF0E286EFE0E296E64
:100628009BEC08F0000E6A6E030E696E000E686E91
:10063800030E676E000E666E030E656E91EC13F086
:10064800000E6A6E000E696E000E686E000E676E10
:10065800000E666E000E656E000E0001B76F010E8B
:10066800ABEC13F0340E4C6EF20EE82EFED74C2E87
:10067800FCD71F0E286EFF0E296E9BEC08F032D0B7
:1006880086EC13F0020E0001B719D8A402D08C82B0
:1006980001D08C92060E0001B719D8A402D08A8620
:1006A80001D08A960A0E0001B719D8A402D08A840C
:1006B80001D08A940E0E0001B719D8A402D08A80FE
:1006C80001D08A90010E65EC13F0C00EABEC13F06C
:1006D800FB0E286EFF0E296EC3CF2AF0C4CF2BF075
:1006E8009BEC08F0030E0001B719D8A4C9D7000E77
:1006F8000001B76F010EABEC13F0340E4C6EF20E26
:10070800E82EFED74C2EFCD72F0E286EFF0E296E32
:100718009BEC08F022D086EC13F0020E0001B7190A
:10072800D8A402D08B8E01D08B9E060E0001B7197B
:10073800D8A402D08B8C01D08B9C0A0E0001B7196B
:10074800D8A402D08B8001D08B900E0E0001B7196F
:10075800D8A402D08B8A01D08B9A030E0001B71956
:10076800D8A4D9D7000E0001B76F010EABEC13F077
:10077800340E4C6EF20EE82EFED74C2EFCD73F0EF0
:10078800286EFF0E296E9BEC08F032D086EC13F031
:10079800020E0001B719D8A402D08D8401D08D941F
:1007A800060E0001B719D8A402D08D8201D08D920F
:1007B8000A0E0001B719D8A402D0898801D08998F7
:1007C8000E0E0001B719D8A402D08C8001D08C90ED
:1007D800050E65EC13F0C00EABEC13F0FB0E286EA3
:1007E800FF0E296EC3CF2AF0C4CF2BF09BEC08F084
:1007F800030E0001B719D8A4C9D7010EABEC13F04A
:10080800340E4C6EF20EE82EFED74C2EFCD7780E26
:10081800286EFF0E296E9BEC08F0010E136E900EE9
:10082800126E8FEC12F091EC13F0B6EC13F0010E8F
:10083800ABEC13F0340E4C6EF20EE82EFED74C2EB5
:10084800FCD76B0E286EFF0E296E9BEC08F0010E8C
:10085800136E900E126EB4EC12F091EC13F0BBEC28
:1008680013F0000E0001B76F000E0001B66F000E06
:10087800B56F22D0000E0001B76F010EABEC13F07C
:10088800340E4C6EF20EE82EFED74C2EFCD75E0EC0
:10089800286EFF0E296E9BEC08F0C00EABEC13F02F
:1008A800BC0E286EFE0E296EB5C02AF0B6C02BF01D
:1008B8009BEC08F086EC13F00001B751D8B4DAD7F6
:1008C800000E0001B76F58D0000E0001B76F010E7F
:1008D800ABEC13F0340E4C6EF20EE82EFED74C2E15
:1008E800FCD7B50E286EFF0E296E9BEC08F0C00EE3
:1008F800ABEC13F0010E65EC13F0F20E286EFF0E50
:10090800296EC3CF2AF0C4CF2BF09BEC08F0000E61
:1009180065EC13F0F20E286EFF0E296EC3CF2AF095
:10092800C4CF2BF09BEC08F0020E65EC13F0F20E2E
:10093800286EFF0E296EC3CF2AF0C4CF2BF09BEC94
:1009480008F0050E65EC13F0F20E286EFF0E296E06
:10095800C3CF2AF0C4CF2BF09BEC08F086EC13F041
:10096800050E4D6E0F0E4C6EF10EE82EFED74C2E76
:10097800FCD74D2EFAD700F00001B751D8B4A4D750
:10098800000E0001B76F3ED0000E0001B76F030ED6
:100998004D6E080E4C6E770EE82EFED74C2EFCD707
:1009A8004D2EFAD700F0010EABEC13F0340E4C6E5E
:1009B800F20EE82EFED74C2EFCD79D0E286EFF0EA9
:1009C800296E9BEC08F0C00EABEC13F0040E65EC3E
:1009D80013F0CA0E286EFF0E296EC3CF2AF0C4CFBB
:1009E8002BF09BEC08F0030E65EC13F0CA0E286E92
:1009F800FF0E296EC3CF2AF0C4CF2BF09BEC08F072
:100A080086EC13F00001B751D8B4BED7000E000130
:100A1800A16F010EA06F46EF00F0010EABEC13F0D2
:100A2800340E4C6EF20EE82EFED74C2EFCD7020E7A
:100A380065EC13F0510EC35C020EC458D8B020D038
:100A4800B5C096F0B6C097F000019A5100019B110D
:100A5800D8A416D0000E00019B6F010E9A6F000EED
:100A68000001B46F000EB36F070E4D6E170E4C6E7B
:100A78006A0EE82EFED74C2EFCD74D2EFAD700D0A2
:100A8800EC0E286EFF0E296EC3CF2AF0C4CF2BF0D0
:100A9800B3C02CF0B4C02DF09BEC08F000019A51C3
:100AA80000019B11D8B4FED00001B4BF08D00001EA
:100AB800B45120E1500E0001B35DD8B01BD0000E38
:100AC8006A6E030E696E040E65EC13F0020EC45CC8
:100AD800D8B005D0000E0001A56F010EA46FFA0E64
:100AE800286EFF0E296EC3CF2AF0C4CF2BF09BECE3
:100AF80008F0DCD00001A4050001A511D8A449D054
:100B08000001B4BF08D00001B45109E1960E0001FC
:100B1800B35DD8B004D0000E6A6E010E4ED000014D
:100B2800B4BF08D00001B45109E1D20E0001B35D91
:100B3800D8B004D0000E6A6E020EB7D0000E6A6EEE
:100B4800000E696E000E136E020E126E52EC0CF05F
:100B5800010E65EC13F0FA0E286EFF0E296EC3CF56
:100B68002AF0C4CF2BF09BEC08F000019E51C35C27
:100B780000019F51C458D8B060D0AB0EC35C030EBF
:100B8800C458D8A05AD0000E0001A56F650EA46FF6
:100B980054D00001A4510001A511D8A453D00001DC
:100BA800B4BF08D00001B4510FE1960E0001B35D47
:100BB800D8B00AD0000E6A6E020E696E000E0001EF
:100BC800976F000E966F72D00001B4BF08D0000175
:100BD800B45109E1D20E0001B35DD8B004D0000EC3
:100BE8006A6E010E62D0000E6A6E000E696E000E0B
:100BF800136E010E126E52EC0CF0010E65EC13F040
:100C0800FA0E286EFF0E296EC3CF2AF0C4CF2BF040
:100C18009BEC08F000019E51C35C00019F51C45831
:100C2800D8B00BD0AB0EC35C030EC458D8A005D007
:100C3800000E0001A56F640EAAD7C3CF9EF0C4CFE3
:100C48009FF034D0650E0001A4190001A511D8A4A5
:100C580004D00001904B912B0AD0640E0001A41916
:100C68000001A511D8A403D000018E4B8F2B000ED4
:100C78000001B46F000EB36F000E00019F6F000EED
:100C88009E6F000E0001A56F000EA46F0001965123
:100C980000019711D8A40AD0000E00019B6F000E26
:100CA8009A6F04D0000E6A6E030E696EC00EABEC2C
:100CB80013F0000E65EC13F0510EC35C020EC4581D
:100CC800D8B020D0B5C098F0B6C099F000019C51BA
:100CD80000019D11D8A416D0000E00019D6F010ED1
:100CE8009C6F000E0001B26F000EB16F070E4D6EC3
:100CF800170E4C6E6A0EE82EFED74C2EFCD74D2EE2
:100D0800FAD700D0EC0E286EFF0E296EC3CF2AF05A
:100D1800C4CF2BF0B1C02CF0B2C02DF09BEC08F082
:100D280000019C5100019D11D8B455D10001B2BFFA
:100D380052D10001B25105E1300E0001B15DD8A0D9
:100D48004AD10001B2BF08D00001B25109E15C0EDE
:100D58000001B15DD8B004D0000E666E010ED3D08C
:100D68000001B2BF08D00001B2510DE16C0E0001C4
:100D7800B15DD8B008D0000E666E040E656E000E28
:100D8800686E010E60D00001B2BF08D00001B251F8
:100D980022E1780E0001B15DD8B01DD0000E686E5A
:100DA800040E676E000E666E040E656E030E65EC2B
:100DB80013F0020EC46005D0000E0001A36F010EEF
:100DC800A26FFB0E286EFF0E296EC4CF2AF02B6A85
:100DD8009BEC08F004D10001B2BF08D00001B25169
:100DE8000EE1880E0001B15DD8B009D0000E686E22
:100DF800020E676E000E666E040E656EF0D000017E
:100E0800A2050001A311D8A453D00001B2BF08D095
:100E18000001B25109E1A60E0001B15DD8B004D0BD
:100E2800000E666E010E58D00001B2BF08D0000156
:100E3800B2510BE1DF0E0001B15DD8B006D0000E53
:100E4800666E020E60D0676ECAD0000E686E040E21
:100E5800676E000E666E000E656E000E136E020E53
:100E6800126E28EC0EF0050E65EC13F00001A65189
:100E7800C35C0001A751C458D8B00BD0AB0EC35CFB
:100E8800030EC458D8A005D0000E0001A36F650E4C
:100E9800A26FC3CFA6F0C4CFA7F0FA0E286EFF0E3C
:100EA800296EC3CF2AF0C4CF2BF09BEC08F097D063
:100EB8000001A2510001A311D8A45DD00001B2BF66
:100EC80008D00E0E0001B15D010E0001B259D8B074
:100ED8000ED0000E666E020E656E000E686E040E71
:100EE800676E000E0001996F000E986F78D00001B0
:100EF800B2BF32D7450E0001B15D010E0001B259F3
:100F0800D8B006D029D7656E000E686E040E9BD740
:100F1800000E666E000E656E000E686E040E676E3B
:100F2800000E136E010E126E28EC0EF0050E65EC25
:100F380013F00001A651C35C0001A751C458D8B0F2
:100F48000BD0AB0EC35C030EC458D8A005D0000E5E
:100F58000001A36F640EA26FC3CFA6F0C4CFA7F0A1
:100F6800FA0E286EFF0E296EC3CF2AF0C4CF2BF0DD
:100F78009BEC08F034D0650E0001A2190001A31102
:100F8800D8A404D00001924B932B0AD00A0E00017A
:100F9800A2190001A311D8A403D00001944B952BEA
:100FA800000E0001B26F000EB16F000E0001A36FBA
:100FB800000EA26F000E0001A76F000EA66F0001C1
:100FC800985100019911D8A40AD0000E00019D6F14
:100FD800000E9C6F04D0000E666E030E94D786EC4C
:100FE80013F00001B751D8B446EF00F0000E00012D
:100FF800A16F010EA06FB6EC13F0BBEC13F0000E5E
:101008006A6E000E696E000E686E000E676E000E46
:10101800666E000E656E010EABEC13F0340E4C6E6E
:10102800F20EE82EFED74C2EFCD7FB0E286EFF0ED4
:10103800296E8AC02AF08BC02BF09BEC08F091EC4B
:1010480013F0B5C016F0B6C017F0B0C018F0196AA2
:10105800AFC01AF01B6AAEC01CF01D6AACC01EF00F
:101068001F6AABC020F0216AAAC022F0236A92C08E
:1010780024F093C025F094C026F095C027F08EC0C8
:1010880028F08FC029F090C02AF091C02BF01AECFC
:1010980010F0010EABEC13F0340E4C6EF20EE82E8D
:1010A800FED74C2EFCD7FF0E286EFE0E296E9BEC49
:1010B80008F0C00EABEC13F08E0E286EFE0E296EF3
:1010C8009BEC08F091EC13F0070E0001B719D8A4B7
:1010D80046EF00F0010EABEC13F0340E4C6EF20E3E
:1010E800E82EFED74C2EFCD7C00E286EFF0E296EB8
:1010F80086C02AF087C02BF088C02CF089C02DF05C
:10110800B5C02EF0B6C02FF0000E18EC13F0306EFC
:10111800316A30BE31069BEC08F091EC13F0000EFA
:10112800446E010E436EA4EC0AF046EF00F02A0E5E
:10113800396E000E3A6EF7D1250E4218D8B404D095
:101148004250A5EC13F0EFD1000E406E000E3F6E3A
:10115800000E416E03D04184284A292A28C0F6FF90
:1011680029C0F7FF0800F550300AD8B4F4D728C0D2
:10117800F6FF29C0F7FF0800F55077EC13F0D8A068
:101188003AD0000E406E000E3F6E3FC012F040C0D5
:1011980013F0000E156E0A0E146E52EC13F012C006
:1011A8003FF013C040F0D00E326EFF0E336E28C0F1
:1011B800F6FF29C0F7FF0800F550346E356A325043
:1011C80034263350352234503F2635504022284AA1
:1011D800292A28C0F6FF29C0F7FF0800F55077EC48
:1011E80013F0D8A008D0D1D7418805D0418E20D09F
:1011F800C00E41121DD028C0F6FF29C0F7FF284AAB
:10120800292A0800F5CF42F04250000AD8B412004B
:10121800640AD8B40DD00D0AD8B40AD0050AD8B4D7
:10122800E3D7190AD8B4E4D70D0AD8B4DFD77BD1ED
:1012380041C032F0C00E3216D8A42ED041A80ED02C
:1012480039C0D9FF3AC0DAFFDECF3BF0DECF3CF041
:10125800DECF3DF0DECF3EF0040E0ED039C0D9FF10
:101268003AC0DAFFDECF3BF0DDCF3CF0000E3CBEEB
:10127800FF0E3D6E3E6E020E3926000E3A223EAE3D
:101288006AD0030E41123E1E3D1E3C1E3B6C000EF2
:101298003C223D223E225FD041A80ED039C0D9FF62
:1012A8003AC0DAFFDECF3BF0DECF3CF0DECF3DF0D8
:1012B800DECF3EF0040E0FD039C0D9FF3AC0DAFFB6
:1012C800DECF32F0DDCF33F032C03BF033C03CF03C
:1012D8003D6A3E6A020E3926000E3A223CD0010EC3
:1012E800426E0A0E4218D8B441D04250040DD50EB1
:1012F800F324F66EFD0EF420F76E0900F5503B5C02
:101308000900F5503C580900F5503D580900F550C2
:101318003E58D8A02BD0422AE4D7010E426E080EC0
:101328004218D8B423D04250040DFD0EF324F66EB3
:10133800FD0EF420F76E0900F5503B5C0900F550EE
:101348003C580900F5503D580900F5503E58D8A0C2
:101358000DD0422AE4D74150C00B000AD8B4BFD7F9
:10136800800AD8B4DAD7400AD8B4B9D73F50401069
:10137800D8B409D041C032F0030E3216D8B403D025
:101388003F06D8A04006800E42BE7F0E326E3F5008
:10139800425C4050800A3258D8B007D042503F5E75
:1013A800000E42BEFF0E405A04D0000E406E000EE2
:1013B8003F6E41A414D041C032F0030E3216D8B4A7
:1013C80003D02D0EA5EC13F03F504010D8B41ED01A
:1013D800300EA5EC13F03F06D8A04006F5D73F50D5
:1013E8004010D8B40AD0200EA5EC13F03F06D8A0C0
:1013F80040063F504010D8A4F6D741C032F0030E43
:101408003216D8B403D02D0EA5EC13F04250376E27
:10141800386A37BE38067FD037C032F038C033F06C
:10142800D89032363336D89032363336D50E322409
:10143800F66EFD0E3320F76E0900F5CF16F00900A1
:10144800F5CF17F00900F5CF18F00A00F5CF19F01D
:101458003BC012F03CC013F03DC014F03EC015F084
:1014680022EC11F012C01FF013C020F014C021F0BC
:1014780015C022F00A0E236E000E246E000E256E93
:10148800000E266ED3EC11F01F50300F426E40D084
:101498003BC012F03CC013F03DC014F03EC015F044
:1014A80037C032F038C033F0D89032363336D8905F
:1014B80032363336FD0E3224F66EFD0E3320F76ECB
:1014C8000900F5CF16F00900F5CF17F00900F5CFA0
:1014D80018F00A00F5CF19F022EC11F012500F0B9A
:1014E800366E3650010D4A0EF324F66EFE0EF420C9
:1014F800F76E0800F5CF42F00BD04150C00B000A40
:10150800D8B48AD7800AD8B4C3D7400AD8B484D705
:101518004250A5EC13F03706D8A038063728EDE17D
:101528003828D8A4EAD728C0F6FF29C0F7FF284AE8
:10153800292A0800F5CF42F04250D8B41200FCD551
:10154800000E18EC13F04A6E4B6A4ABE4B06000EAA
:10155800496E010E486E10D04A4A4B2A4BBE0AD03B
:101568004B5004E1050E4A5CD8A004D0000E4B6E27
:10157800010E4A6E484A492A4350485C4950800A3D
:10158800456E4450800A4558D8A0E6D7010EABEC0A
:1015980013F0340E456EF20EE82EFED7452EFCD71A
:1015A800800EABEC13F0D60E286EFF0E296E000EDF
:1015B80018EC13F02A6E2B6A2ABE2B064AC02CF0B0
:1015C8004BC02DF09BEC08F091EC13F0010EABEC46
:1015D80013F0340E456EF20EE82EFED7452EFCD7DA
:1015E8007D0E286EFE0E296E43C02AF044C02BF0F3
:1015F8009BEC08F0C00EABEC13F0850E286EFF0EC6
:10160800296E4AC045F0453AF00E4516452818ECB3
:1016180013F02A6E2B6A2ABE2B069BEC08F091EC7D
:1016280013F0010EABEC13F0340E456EF20EE82EFB
:10163800FED7452EFCD77D0E286EFE0E296E43C0C0
:101648002AF044C02BF09BEC08F0C00EABEC13F072
:10165800350E286EFE0E296E4AC045F0453AF00E4A
:1016680045164550020F18EC13F02A6E2B6A2ABE55
:101678002B064AC046F0463AF00E46164650030F6F
:1016880018EC13F02C6E2D6A2CBE2D064AC047F0BC
:10169800473AF00E47164750040F18EC13F02E6E19
:1016A8002F6A2EBE2F069BEC08F091EC13F0010E6A
:1016B800ABEC13F0340E456EF20EE82EFED7452E35
:1016C800FCD77D0E286EFE0E296E43C02AF044C05A
:1016D8002BF09BEC08F0C00EABEC13F0CF0E286E8D
:1016E800FE0E296E4AC045F0453AF00E45164550A3
:1016F800050F18EC13F02A6E2B6A2ABE2B064AC077
:1017080046F0463AF00E46164650060F18EC13F00F
:101718002C6E2D6A2CBE2D064AC047F0473AF00EB3
:1017280047164750070F18EC13F02E6E2F6A2EBE7F
:101738002F069BEC08F091EC13F0010EABEC13F0C4
:10174800340E456EF20EE82EFED7452EFCD77D0EE0
:10175800286EFE0E296E43C02AF044C02BF09BEC85
:1017680008F0C00EABEC13F0AF0E286EFE0E296E1B
:101778004AC045F0453AF00E45164550080F18EC9A
:1017880013F02A6E2B6A2ABE2B069BEC08F091EC0C
:1017980013F0010EABEC13F0340E456EF20EE82E8A
:1017A800FED7452EFCD77D0E286EFE0E296E43C04F
:1017B8002AF044C02BF09BEC08F0C00EABEC13F001
:1017C8005B0E286EFE0E296E4AC045F0453AF00EB3
:1017D80045164550090F18EC13F02A6E2B6A2ABEDD
:1017E8002B069BEC08F091EC13F0010EABEC13F018
:1017F800340E456EF20EE82EFED7452EFCD77D0E30
:10180800286EFE0E296E43C02AF044C02BF09BECD4
:1018180008F0C00EABEC13F0BF0E286EFE0E296E5A
:101828004AC045F0453AF00E451645500A0F18ECE7
:1018380013F02A6E2B6A2ABE2B069BEC08F091EC5B
:1018480013F0010EABEC13F0340E456EF20EE82ED9
:10185800FED7452EFCD77D0E286EFE0E296E43C09E
:101868002AF044C02BF09BEC08F0C00EABEC13F050
:101878006C0E286EFE0E296E4AC045F0453AF00EF1
:10188800451645500B0F18EC13F02A6E2B6A2ABE2A
:101898002B069BEC08F091EC13F01200340E146E3A
:1018A800F20EE82EFED7142EFCD712501310D8A42F
:1018B80005D08C928A968A948A901200030E121888
:1018C8001310D8A449D05B4A5C2A5CBE0AD05C508D
:1018D80004E1090E5B5CD8A004D0000E5C6E010E1A
:1018E8005B6E340E146EF20EE82EFED7142EFCD763
:1018F8005B045C10D8B405D0080E5B185C10D8A443
:1019080002D08C8201D08C92020E5B185C10D8B485
:1019180005D0070E5B185C10D8A402D08A8601D0C7
:101928008A96030E5B185C10D8B405D0060E5B18B7
:101938005C10D8A402D08A8401D08A94040E5B1863
:101948005C10D8B405D0050E5B185C10D8A402D082
:101958008A8012008A901200680E146EE40EE82E37
:10196800FED7142EFCD700D012041310D8B405D01B
:10197800050E12181310D8A40ED0634A642A64BE48
:1019880022D0645004E1050E635CD8A01CD0000E80
:10199800646E010E17D0020E12181310D8B405D0B9
:1019A800060E12181310D8A40ED06306D8A0640629
:1019B80064BE05D0645007E16304D8B004D0000EBB
:1019C800646E040E636E12041310D8B405D0020EB0
:1019D80012181310D8A41FD063046410D8A402D01E
:1019E8008C8201D08C92020E63186410D8A402D0A5
:1019F8008A8601D08A96030E63186410D8A402D090
:101A08008A8401D08A94040E63186410D8A402D082
:101A18008A8001D08A90050E12181310D8B405D008
:101A2800060E12181310D8A4120063046410D8A468
:101A380004D08C828A868A948A90020E6318641075
:101A4800D8A404D08C928A868A848A90030E63185C
:101A58006410D8A404D08C928A968A848A80040E52
:101A680063186410D8A412008C828A968A948A809B
:101A78001200340E036EF20EE82EFED7032EFCD7AA
:101A880001500210D8A405D08C928A968A948A9024
:101A98001200030E01180210D8A449D05B4A5C2A30
:101AA8005CBE0AD05C5004E1090E5B5CD8A004D08F
:101AB800000E5C6E010E5B6E340E036EF20EE82EA5
:101AC800FED7032EFCD75B045C10D8B405D0080EF3
:101AD8005B185C10D8A402D08C8201D08C92020EC4
:101AE8005B185C10D8B405D0070E5B185C10D8A43E
:101AF80002D08A8601D08A96030E5B185C10D8B48F
:101B080005D0060E5B185C10D8A402D08A8401D0D8
:101B18008A94040E5B185C10D8B405D0050E5B18C7
:101B28005C10D8A402D08A8012008A901200680E35
:101B3800036EE40EE82EFED7032EFCD700D0010476
:101B48000210D8B405D0050E01180210D8A40ED082
:101B5800634A642A64BE22D0645004E1050E635CC3
:101B6800D8A01CD0000E646E010E17D0020E01180A
:101B78000210D8B405D0060E01180210D8A40ED051
:101B88006306D8A0640664BE05D0645007E1630408
:101B9800D8B004D0000E646E040E636E0104021007
:101BA800D8B405D0020E01180210D8A41FD06304BF
:101BB8006410D8A402D08C8201D08C92020E6318D3
:101BC8006410D8A402D08A8601D08A96030E6318BE
:101BD8006410D8A402D08A8401D08A94040E6318B1
:101BE8006410D8A402D08A8001D08A90050E01180A
:101BF8000210D8B405D0060E01180210D8A412009D
:101C080063046410D8A404D08C828A868A948A904B
:101C1800020E63186410D8A404D08C928A868A8431
:101C28008A90030E63186410D8A404D08C928A9604
:101C38008A848A80040E63186410D8A412008C82E7
:101C48008A968A948A801200340E146EF20EE82E58
:101C5800FED7142EFCD712501310D8A405D08D949B
:101C68008D9289988C901200040E12181310D8A423
:101C780005D08D848D9289988C901200030E1218CD
:101C88001310D8A442D0574A582A58BE0AD05850E0
:101C980004E1090E575CD8A004D0000E586E010E5E
:101CA800576E57045810D8B405D0080E5718581056
:101CB800D8A402D08D8401D08D94020E57185810E4
:101CC800D8B405D0070E57185810D8A402D08D8262
:101CD80001D08D92030E57185810D8B405D0060EAF
:101CE80057185810D8A402D0898801D08998040EB2
:101CF80057185810D8B405D0050E57185810D8A43E
:101D080002D08C8012008C90120012041310D8A4F8
:101D18000ED05F4A602A60BE1DD0605004E1050EF7
:101D28005F5CD8A017D0000E606E010E12D0020EB4
:101D380012181310D8A40ED05F06D8A0600660BE93
:101D480005D0605007E15F04D8B004D0000E606E83
:101D5800040E5F6E5F046010D8A402D08D8401D099
:101D68008D94020E5F186010D8A402D08D8201D025
:101D78008D92030E5F186010D8A402D0898801D014
:101D88008998040E5F186010D8A402D08C801200C5
:101D98008C901200340E036EF20EE82EFED7032E3E
:101DA800FCD701500210D8A405D08D948D92899843
:101DB8008C901200040E01180210D8A405D08D844E
:101DC8008D9289988C901200030E01180210D8A4E5
:101DD80042D0574A582A58BE0AD0585004E1090E32
:101DE800575CD8A004D0000E586E010E576E5704E9
:101DF8005810D8B405D0080E57185810D8A402D0D7
:101E08008D8401D08D94020E57185810D8B405D07F
:101E1800070E57185810D8A402D08D8201D08D9281
:101E2800030E57185810D8B405D0060E5718581076
:101E3800D8A402D0898801D08998040E5718581060
:101E4800D8B405D0050E57185810D8A402D08C80E5
:101E580012008C90120001040210D8A40ED05F4A20
:101E6800602A60BE1DD0605004E1050E5F5CD8A0FA
:101E780017D0000E606E010E12D0020E011802106B
:101E8800D8A40ED05F06D8A0600660BE05D060500A
:101E980007E15F04D8B004D0000E606E040E5F6ED8
:101EA8005F046010D8A402D08D8401D08D94020EF6
:101EB8005F186010D8A402D08D8201D08D92030ED5
:101EC8005F186010D8A402D0898801D08998040EC0
:101ED8005F186010D8A402D08C8012008C90120079
:101EE800340E036EF20EE82EFED7032EFCD70150F7
:101EF8000210D8A405D08B9E8B9C8B908B9A1200D5
:101F0800040E01180210D8A405D08B8E8B9C8B90E0
:101F18008B9A1200030E01180210D8A442D0594A15
:101F28005A2A5ABE0AD05A5004E1090E595CD8A060
:101F380004D0000E5A6E010E596E59045A10D8B4C6
:101F480005D0080E59185A10D8A402D08B8E01D08B
:101F58008B9E020E59185A10D8B405D0070E59187E
:101F68005A10D8A402D08B8C01D08B9C030E591820
:101F78005A10D8B405D0060E59185A10D8A402D051
:101F88008B8001D08B90040E59185A10D8B405D004
:101F9800050E59185A10D8A402D08B8A12008B9AB1
:101FA800120001040210D8A40ED0614A622A62BE4F
:101FB8001DD0625004E1050E615CD8A017D0000E58
:101FC800626E010E12D0020E01180210D8A40ED0B3
:101FD8006106D8A0620662BE05D0625007E16104BE
:101FE800D8B004D0000E626E040E616E61046210F7
:101FF800D8A402D08B8E01D08B9E020E611862107D
:10200800D8A402D08B8C01D08B9C030E611862106F
:10201800D8A402D08B8001D08B90040E6118621076
:10202800D8A402D08B8A12008B9A1200FF0E2C6E55
:10203800FF0E2D6E000E18EC13F02E6E2C502E2471
:102048002F6E000E2EBEFF0E2D20306E30BE05D036
:10205800305007E12F04D8B004D0000E306E040EC3
:102068002F6E2FC012F0000EFCEC12F016C012F00A
:102078002FC02CF02C3AF00E2C162C28FCEC12F069
:1020880018C012F02FC02CF02C3AF00E2C162C5041
:10209800020FFCEC12F01AC012F02FC02CF02C3AF0
:1020A800F00E2C162C50030FFCEC12F01CC012F092
:1020B8002FC02CF02C3AF00E2C162C50040FFCECF0
:1020C80012F01EC012F02FC02CF02C3AF00E2C1675
:1020D8002C50050FFCEC12F020C012F02FC02CF091
:1020E8002C3AF00E2C162C50060FFCEC12F022C0E5
:1020F80012F02FC02CF02C3AF00E2C162C50070F93
:10210800FCEC12F024C012F02FC02CF02C3AF00E88
:102118002C162C50080FFCEC12F026C012F02FC021
:102128002CF02C3AF00E2C162C50090FFCEC12F067
:1021380028C012F02FC02CF02C3AF00E2C162C5080
:102148000A0FFCEC12F02AC012F02FC02CF02C3A27
:10215800F00E2C162C500B0FFCEC12F0120006009F
:10216800FACF04F0FBCF05F0E9CF06F0EACF07F08D
:10217800E1CF08F0E2CF09F0D9CF0AF0DACF0BF0BF
:10218800F3CF0CF0F4CF0DF0F6CF0EF0F7CF0FF041
:10219800F8CF10F0F5CF11F0F29EF2A40ED0F29421
:1021A8000001B54BB62BD59E170ED56E850ED76E92
:1021B800AE0ED66ED5508009D56E9EA021D09E90C9
:1021C80069C001F06AC002F03DEC0DF067C001F093
:1021D80068C002F074EC0FF065C001F066C002F050
:1021E800CEEC0EF00001B34BB42B0001B14BB22B77
:1021F800CD90B00ECD6EE90ECF6E5B0ECE6ECD805B
:1022080011C0F5FF10C0F8FF0FC0F7FF0EC0F6FFB2
:102218000DC0F4FF0CC0F3FF0BC0DAFF0AC0D9FFF2
:1022280009C0E2FF08C0E1FF07C0EAFF06C0E9FFF6
:1022380005C0FBFF04C0FAFF6B921100000E1A6E76
:10224800000E1B6E000E1C6E000E1D6E1650171031
:1022580018101910D8B42AD0010E1E6E06D0D890C6
:1022680016361736183619361E2A19AEF8D7D890EA
:102278001A361B361C361D361650125C175013586A
:102288001850145819501558D8A009D01650125E75
:102298001750135A1850145A1950155A1A80D890B2
:1022A80019321832173216321E2EE1D71AC012F020
:1022B8001BC013F01CC014F01DC015F01200F00E66
:1022C800D36E9B8CEF0E926EF20E936E000E946E90
:1022D800000E956E010E966ECB680C0EBD6E000E4C
:1022E800BE6E0C0EBA6E000EBB6E050ECA6E000EE8
:1022F800896E000E8A6E000E8B6E000E8C6E000EBC
:102308008D6ED9EC12F0000E1F6E7D0E206E000E41
:10231800216E000E226E37EC12F0F19E090EC16E8E
:10232800890EC06E000EB56EB496C08EF28A9D807E
:10233800F28CF28E1200C4EC13F0000E146ED00E64
:10234800136EB1EC13F0000E146E000E136EB1ECA8
:1023580013F0C0EC13F0C4EC13F0000E146ED10EA1
:10236800136EB1EC13F0000E156E050E156401D056
:102378000ED01550010DAA0EF324D96E000EF420CC
:10238800DA6E010E3FEC13F0DF6E152AEED7000E61
:102398003FEC13F00001B06FC0EC13F012002350B3
:1023A800241025102610D8B424D0010E276E06D08C
:1023B800D8902336243625362636272A26AEF8D74F
:1023C80023501F5C2450205825502158265022584D
:1023D800D8A008D023501F5E2450205A2550215AD7
:1023E8002650225AD8902632253224322332272EDC
:1023F800E7D71FC01FF020C020F021C021F022C065
:1024080022F01200800EABEC13F09F0E286EFE0E29
:10241800296EB0C02AF02B6AAFC02CF02D6AAEC06E
:102428002EF02F6A9BEC08F0E40E286EFF0E296E42
:102438009BEC08F0C00EABEC13F04F0E286EFF0EAD
:10244800296EACC02AF02B6AABC02CF02D6AAAC04A
:102458002EF02F6A9BEC08F0DC0E286EFF0E296E1A
:102468009BEC08F01200000EC76E280EC66E000E18
:10247800C56E000E126E480E136EE80E146E010E35
:10248800156E1FC023F020C024F021C025F022C003
:1024980026F0020ED8902336243625362636E82E26
:1024A800F9D723C016F024C017F025C018F026C0AD
:1024B80019F022EC11F01204C86E94869488120068
:1024C800136E1350F00B126E8C500F0B8C6E125053
:1024D8008C108C6E8C96420EE82EFED700D08C861F
:1024E800420EE82EFED700D01338F00B136E1350AF
:1024F800F00B126E8C500F0B8C6E12508C108C6E71
:102508008C96420EE82EFED700D08C86420EE82E1E
:10251800FED700D0120012C014F0010E1416143A9F
:10252800BA501418EF0B1418BA6E13341330156E12
:102538001230146E010E1416143A1446BA501418B8
:10254800DF0B1418BA6E12C014F013C015F015344E
:10255800153214321534153214321450BB6E120071
:1025680012C014F0010E1416143ABD501418EF0BD3
:102578001418BD6E13341330156E1230146E010E1C
:102588001416143A1446BD501418DF0B1418BD6EF7
:1025980012C014F013C015F0153415321432153466
:1025A800153214321450BE6E12009C0E156ED70EE2
:1025B800E82EFED7152EFCD700F0330EABEC13F047
:1025C800320EABEC13F0280EABEC13F00F0EABECA5
:1025D80013F0060EABEC13F0010EABEC13F09C0EEF
:1025E800156ED70EE82EFED7152EFCD700F0120078
:1025F800156E15C013F0080E146E13341332142E12
:10260800FCD71350AA6E15C0A9FF12C0A8FFA69E3A
:10261800A69CA684550EA76EAA0EA76EA682A1A890
:10262800FED7A198A6941200146E14C012F0080EDA
:10263800136E12341232132EFCD71250AA6E14C025
:10264800A9FFA69EA69CA680A6B0FED7A8501200F9
:1026580000EEAAF00E0EEE6AE806FDE100EE53F079
:10266800180EEE6AE806FDE16B906B92000EF86EAC
:10267800000109EF00F0136E9CEC13F0C5869CEC8A
:1026880013F0C9CF14F09CEC13F01350D8A402D067
:10269800C58A01D0C59AC588145012001250140278
:1026A800F3CF16F0F4CF17F012501502F350172697
:1026B80013501402F350172616C012F017C013F067
:1026C8001200136E1344E846FC0BC26EC280C2822D
:1026D80007D0340E126EF20EE82EFED7122EFCD75B
:1026E800C2A21200F6D7146E000E136E3A0E1460D2
:1026F80005D02F0E146402D0010E136E13C012F011
:102708001230120081A207D081380F0B0F0B000185
:10271800B76F81B2FED700F0120081A2FED78138D0
:102728000F0B0F0B0001B76F81B2FED700F012003C
:10273800C7B4FED7C5CF12F01F0E1216D8B41200B8
:10274800F7D7146E8C84145064EC12F01200146ED7
:102758008C94145064EC12F012009CEC13F013C02B
:10276800C9FF1200BA98BA9A000EBB6E1200BD9843
:10277800BD9A000EBE6E12009CEC13F0C5841200C8
:082788009CEC13F0C580120067
:10FDD40000010000000A00000064000000E80300C5
:10FDE4000010270000A086010040420F0080969872
:10FDF4000000E1F50500CA9A3B0100000010000074
:10FE040000000100000010000000000100000010CC
:10FE14000000000001000000103132334134353657
:10FE240042373839432A302344003026130401036F
:10FE340017446174653A20253032782F25303278A2
:10FE44002F25303278003031323334353637383973
:10FE540061626364656600536F646120772F6F206D
:10FE64007461623A20256400536F757020772F6F98
:10FE7400206C626C3A2025640052756E2325642040
:10FE8400202020413A4E6578740056696577204CED
:10FE94006F67733F20423A59657300253032782FDB
:10FEA400253032782F253032782000536F6461205A
:10FEB400772F207461623A20256400536F75702097
:10FEC400772F206C626C3A2025640053746172743D
:10FED4003A2025643A25643A256400536F727469A4
:10FEE4006E672063616E732E2E2E007465737469C1
:10FEF4006E672053207368616B6500536F727420C2
:10FF0400646F6E652120413A4E6F00416E79206B1B
:10FF1400657920746F2073746F70007465737469ED
:10FF24006E672053312070696E7300746573746951
:10FF34006E672053322070696E7300746573746940
:10FF44006E672053332070696E7300253032783A1F
:10FF5400253032783A253032780074657374696ECE
:10FF64006720544D52300074657374696E67205075
:10FF7400574D310074657374696E672050574D3264
:10FF84000052756E74696D653A202564007465735A
:10FF940074696E6720532062006C6162656C202076
:10FFA400207461620074657374696E6720532066FF
:10FFB4000074657374696E6720495200256C64206F
:10FFC4002564202564002578202020202020002579
:10FFD400642025642025640020413A4C6F67730037
:10FFE400333A5374617274002578202564002578AF
:0BFFF4002000256C750020257800001F
:020000040020DA
:08000000FFFFFFFFFFFFFFFF00
:020000040030CA
:0E000000FF081F1EFF8381FF0FC00FE00F409F
:00000001FF
