:0400000032EF6FF07C
:10DDE40015EC6FF0C580120015EC6FF0C5841200BD
:10DDF400BD98BD9A000EBE6E1200BA98BA9A000E73
:10DE0400BB6E120015EC6FF002C0C9FF1200036E66
:10DE14008C9403503CEC71F01200036E8C8403501C
:10DE24003CEC71F01200C7B4FED7C5CF01F01F0E51
:10DE34000116D8B41200F7D781A2FED781380F0B90
:10DE44000F0B706E81B2FED700F0120081A206D0D3
:10DE540081380F0B0F0B706E81B2FED700F01200E9
:10DE640000EE5FF0120EEE6AE806FDE1000EF86EB9
:10DE740000011FEF76F0036E000E026E3A0E03608F
:10DE840005D02F0E036402D0010E026E02C001F011
:10DE940001301200026E0244E846FC0BC26EC280DE
:10DEA400C28207D0340E016EF20EE82EFED7012E88
:10DEB400FCD7C2A21200F6D701500302F3CF05F03B
:10DEC400F4CF06F001500402F35006260250030278
:10DED400F350062605C001F006C002F01200026EDF
:10DEE40015EC6FF0C58615EC6FF0C9CF03F015EC97
:10DEF4006FF00250D8A402D0C58A01D0C59AC58853
:10DF040003501200036E03C001F0080E026E0134C8
:10DF14000132022EFCD70150AA6E03C0A9FFA69EAF
:10DF2400A69CA680A6B0FED7A85012001E0E84ECB4
:10DF34006FF0046E280EB3EC6FF0140E84EC6FF0E7
:10DF4400046E1E0EB3EC6FF00A0E84EC6FF0046ED8
:10DF5400140EB3EC6FF012C004F00A0EB3EC6FF0C1
:10DF64001200076E07C005F0080E066E0534053270
:10DF7400062EFCD70550AA6E07C0A9FF04C0A8FF4F
:10DF8400A69EA69CA684550EA76EAA0EA76EA68270
:10DF9400A1A8FED7A198A6941200040E6C186D10C7
:10DFA400D8A402D08C8201D08C92030E6C186D1010
:10DFB400D8A402D08A8601D08A96020E6C186D10FD
:10DFC400D8A402D08A8401D08A946C046D10D8A499
:10DFD40002D08A8012008A9012006C046D10D8A4BA
:10DFE40002D08C8201D08C92020E6C186D10D8A4D1
:10DFF40002D08A8601D08A96030E6C186D10D8A4BC
:10E0040002D08A8401D08A94040E6C186D10D8A4AE
:10E0140002D08A8012008A901200040E6C186D10CF
:10E02400D8A402D08C8201D08C92020E6C186D1090
:10E03400D8A402D08A8601D08A96030E6C186D107B
:10E04400D8A402D08A8401D08A946C046D10D8A418
:10E0540002D08A8012008A901200040E6C186D108F
:10E06400D8A402D08D8401D08D94030E6C186D1049
:10E07400D8A402D08D8201D08D92020E6C186D103E
:10E08400D8A402D0898801D089986C046D10D8A4D2
:10E0940002D08C8012008C9012006C046D10D8A4F5
:10E0A40002D08D8401D08D94020E6C186D10D8A40A
:10E0B40002D08D8201D08D92030E6C186D10D8A4FD
:10E0C40002D0898801D08998040E6C186D10D8A4E8
:10E0D40002D08C8012008C901200040E6C186D100B
:10E0E400D8A402D08D8401D08D94020E6C186D10CA
:10E0F400D8A402D08D8201D08D92030E6C186D10BD
:10E10400D8A402D0898801D089986C046D10D8A451
:10E1140002D08C8012008C901200040E6C186D10CA
:10E12400D8A402D08B8E01D08B9E030E6C186D1078
:10E13400D8A402D08B8C01D08B9C020E6C186D106D
:10E14400D8A402D08B8001D08B906C046D10D8A41D
:10E1540002D08B8A12008B9A12006C046D10D8A422
:10E1640002D08B8E01D08B9E020E6C186D10D8A439
:10E1740002D08B8C01D08B9C030E6C186D10D8A42C
:10E1840002D08B8001D08B90040E6C186D10D8A433
:10E1940002D08B8A12008B9A12009C0E046ED70E4A
:10E1A400E82EFED7042EFCD700F0330E09EC6FF0F6
:10E1B400320E09EC6FF0280E09EC6FF00F0E09EC2B
:10E1C4006FF0060E09EC6FF0010E09EC6FF09C0E77
:10E1D400046ED70EE82EFED7042EFCD700F01200F2
:10E1E40001C003F0010E0316033ABD500318EF0BF0
:10E1F4000318BD6E02340230046E0130036E010E4A
:10E204000316033A0346BD500318DF0B0318BD6E13
:10E2140001C003F002C004F00434043203320434B5
:10E22400043203320350BE6E120001C003F0010E2B
:10E234000316033ABA500318EF0B0318BA6E0234EC
:10E244000230046E0130036E010E0316033A0346D6
:10E25400BA500318DF0B0318BA6E01C003F002C0F2
:10E2640004F004340432033204340432033203501D
:10E27400BB6E1200026E0250F00B016E8C500F0B3D
:10E284008C6E01508C108C6E8C96420EE82EFED74C
:10E2940000D08C86420EE82EFED700D00238F00B58
:10E2A400026E0250F00B016E8C500F0B8C6E0150FD
:10E2B4008C108C6E8C96420EE82EFED700D08C8685
:10E2C400420EE82EFED700D01200000EC76E280EB4
:10E2D400C66E000EC56E000E016E480E026EE80E8C
:10E2E400036E010E046E0EC012F00FC013F010C0C6
:10E2F40014F011C015F0020ED890123613361436ED
:10E304001536E82EF9D712C005F013C006F014C074
:10E3140007F015C008F065EC72F00104C86E94862D
:10E3240094881200800E09EC6FF0740E176EFE0EC6
:10E33400186E65C019F01A6A64C01BF01C6A63C0C9
:10E344001DF01E6A16EC74F0E00E176EFF0E186EC8
:10E3540016EC74F0C00E09EC6FF0E30E176EFE0EAF
:10E36400186E61C019F01A6A60C01BF01C6A5FC0A5
:10E374001DF01E6A16EC74F0D80E176EFF0E186EA0
:10E3840016EC74F012001250131014101510D8B4B7
:10E3940024D0010E166E06D0D890123613361436D9
:10E3A4001536162A15AEF8D712500E5C13500F58B6
:10E3B4001450105815501158D8A008D012500E5EA1
:10E3C40013500F5A1450105A1550115AD890153230
:10E3D400143213321232162EE7D70EC00EF00FC0CD
:10E3E4000FF010C010F011C011F01200F2EC6EF03A
:10E3F400000E036ED00E026E04EC6FF0000E036E7E
:10E40400000E026E04EC6FF0F6EC6EF0F2EC6EF0BF
:10E41400000E036ED10E026E04EC6FF0000E046E5B
:10E42400050E046401D00ED00450010D5F0EF324D8
:10E43400D96E000EF420DA6E010E71EC6FF0DF6E0F
:10E44400042AEED7000E71EC6FF0656EF6EC6EF0F8
:10E454001200700ED36E9B8CCF0E926EF20E936EE2
:10E46400180E946E000E956E010E966ECB680C0E0F
:10E47400BD6E000EBE6E0C0EBA6E000EBB6E050EA7
:10E48400CA6E000E896E000E8A6E000E8B6E000E30
:10E494008C6E000E8D6ECFEC70F0100E0E6E270E8B
:10E4A4000F6E000E106E000E116E67EC71F0F19E8F
:10E4B400010EC26E090EC16E000EB56EB496C08E0A
:10E4C400D80ED56E1200000E096E000E0A6E000EF4
:10E4D4000B6E000E0C6E0550061007100810D8B411
:10E4E4002AD0010E0D6E06D0D890053606360736B2
:10E4F40008360D2A08AEF8D7D89009360A360B36F6
:10E504000C360550015C0650025807500358085059
:10E514000458D8A009D00550015E0650025A07508D
:10E52400035A0850045A0980D89008320732063238
:10E5340005320D2EE1D709C001F00AC002F00BC06C
:10E5440003F00CC004F0120007C009F008C00AF080
:10E55400091E0A1E094A0A2A61C00BF00F0E0B1687
:10E564000B50016E026A0E0E046E100E036E5EEC0A
:10E574006FF05FC00CF00C3A0F0E0C160F0E0C1659
:10E584000C500A0D5F500F0B0D6E0E6AF3500D26E2
:10E59400F4500E2260C00FF00F0E0F160F503C0DFA
:10E5A400F3500D26F4500E2260C010F0103A0F0EF6
:10E5B40010160F0E101610500A0DF3500D26F450BD
:10E5C4000E2201500D2602500E2261C011F0113AA4
:10E5D4000F0E11160F0E111611500A0DF3500D26C1
:10E5E400F4500E2209500D24076E0A500E20086EB6
:10E5F4001200010E09EC6FF0680E306EE40EE82E86
:10E60400FED7302EFCD700D0940E176EFE0E186E77
:10E6140016EC74F0C00E09EC6FF0F20E176EFE0EDD
:10E62400186E0A0E84EC6FF0196E1A6A19BE1A0677
:10E6340016EC74F01EEC6FF0010E09EC6FF0680E2E
:10E64400306EE40EE82EFED7302EFCD700D0940EA8
:10E65400176EFE0E186E16EC74F0C00E09EC6FF017
:10E66400840E176EFE0E186E140E84EC6FF0196E85
:10E674001A6A19BE1A0616EC74F01EEC6FF0010E3D
:10E6840009EC6FF0680E306EE40EE82EFED7302EE3
:10E69400FCD700D0940E176EFE0E186E16EC74F0B4
:10E6A400C00E09EC6FF0D40E176EFE0E186E16EC49
:10E6B40074F01EEC6FF01200C00E09EC6FF0F80E4F
:10E6C400176EFF0E186E30C019F031C01AF06CC00E
:10E6D4001BF06DC01CF016EC74F030503110D8A44F
:10E6E40005D08C928A968A948A9012006E4A6F2A78
:10E6F4006FBE0AD06F5004E1050E6E5CD8A004D042
:10E70400000E6F6E010E6E6E6A4A6B2A6BBE0AD0E3
:10E714006B5004E1070E6A5CD8A004D0000E6B6E47
:10E72400010E6A6E30043110D8A420D06E046F102C
:10E73400D8A402D08C8201D08C92020E6E186F1075
:10E74400D8A402D08A8601D08A96030E6E186F1060
:10E75400D8A402D08A8401D08A94040E6E186F1053
:10E76400D8A402D08A8012008A901200020E3018B7
:10E774003110D8A420D0040E6E186F10D8A402D083
:10E784008C8201D08C92030E6E186F10D8A402D024
:10E794008A8601D08A96020E6E186F10D8A402D011
:10E7A4008A8401D08A946E046F10D8A402D08A801F
:10E7B40012008A901200030E30183110D8A41200EF
:10E7C4006A046B10D8B405D0080E6A186B10D8A46C
:10E7D40002D08C8201D08C92020E6A186B10D8B4CD
:10E7E40005D0070E6A186B10D8A402D08A8601D00F
:10E7F4008A96030E6A186B10D8B405D0060E6A18F0
:10E804006B10D8A402D08A8401D08A94040E6A18AA
:10E814006B10D8B405D0050E6A186B10D8A402D0BA
:10E824008A8012008A901200190E266E000E276E3E
:10E83400F7D1250E2F18D8B404D02F500FEC6FF059
:10E84400EFD1000E2D6E000E2C6E000E2E6E03D036
:10E854002E84174A182A17C0F6FF18C0F7FF0800BD
:10E86400F550300AD8B4F4D717C0F6FF18C0F7FF34
:10E874000800F5503DEC6FF0D8A03AD0000E2D6E94
:10E88400000E2C6E2CC001F02DC002F0000E046EA0
:10E894000A0E036E5EEC6FF001C02CF002C02DF086
:10E8A400D00E1F6EFF0E206E17C0F6FF18C0F7FFC4
:10E8B4000800F550216E226A1F5021262050222282
:10E8C40021502C2622502D22174A182A17C0F6FF51
:10E8D40018C0F7FF0800F5503DEC6FF0D8A008D041
:10E8E400D1D72E8805D02E8E20D0C00E2E121DD04A
:10E8F40017C0F6FF18C0F7FF174A182A0800F5CF0B
:10E904002FF02F50000AD8B41200640AD8B40DD0E6
:10E914000D0AD8B40AD0050AD8B4E3D7190AD8B472
:10E92400E4D70D0AD8B4DFD77BD12EC01FF0C00EB8
:10E934001F16D8A42ED02EA80ED026C0D9FF27C0CB
:10E94400DAFFDECF28F0DECF29F0DECF2AF0DECFEB
:10E954002BF0040E0ED026C0D9FF27C0DAFFDECF7D
:10E9640028F0DDCF29F0000E29BEFF0E2A6E2B6E93
:10E97400020E2626000E27222BAE6AD0030E2E127C
:10E984002B1E2A1E291E286C000E29222A222B2225
:10E994005FD02EA80ED026C0D9FF27C0DAFFDECF65
:10E9A40028F0DECF29F0DECF2AF0DECF2BF0040EE4
:10E9B4000FD026C0D9FF27C0DAFFDECF1FF0DDCF8E
:10E9C40020F01FC028F020C029F02A6A2B6A020E0A
:10E9D4002626000E27223CD0010E2F6E0A0E2F1879
:10E9E400D8B441D02F50040DDF0EF324F66EFD0E83
:10E9F400F420F76E0900F550285C0900F5502958F9
:10EA04000900F5502A580900F5502B58D8A02BD0EE
:10EA14002F2AE4D7010E2F6E080E2F18D8B423D056
:10EA24002F50040D070EF324F66EFE0EF420F76E3D
:10EA34000900F550285C0900F55029580900F550E3
:10EA44002A580900F5502B58D8A00DD02F2AE4D706
:10EA54002E50C00B000AD8B4BFD7800AD8B4DAD776
:10EA6400400AD8B4B9D72C502D10D8B409D02EC030
:10EA74001FF0030E1F16D8B403D02C06D8A02D0601
:10EA8400800E2FBE7F0E1F6E2C502F5C2D50800ADF
:10EA94001F58D8B007D02F502C5E000E2FBEFF0E8B
:10EAA4002D5A04D0000E2D6E000E2C6E2EA414D000
:10EAB4002EC01FF0030E1F16D8B403D02D0E0FEC7A
:10EAC4006FF02C502D10D8B41ED0300E0FEC6FF018
:10EAD4002C06D8A02D06F5D72C502D10D8B40AD06A
:10EAE400200E0FEC6FF02C06D8A02D062C502D1004
:10EAF400D8A4F6D72EC01FF0030E1F16D8B403D027
:10EB04002D0E0FEC6FF02F50246E256A24BE2506BF
:10EB14007FD024C01FF025C020F0D8901F362036A7
:10EB2400D8901F362036DF0E1F24F66EFD0E2020EF
:10EB3400F76E0900F5CF05F00900F5CF06F00900DE
:10EB4400F5CF07F00A00F5CF08F028C001F029C07E
:10EB540002F02AC003F02BC004F065EC72F001C08F
:10EB64000EF002C00FF003C010F004C011F00A0E42
:10EB7400126E000E136E000E146E000E156EC5ECB0
:10EB840071F00E50300F2F6E40D028C001F029C014
:10EB940002F02AC003F02BC004F024C01FF025C0EB
:10EBA40020F0D8901F362036D8901F362036070E16
:10EBB4001F24F66EFE0E2020F76E0900F5CF05F037
:10EBC4000900F5CF06F00900F5CF07F00A00F5CFEC
:10EBD40008F065EC72F001500F0B236E2350010D09
:10EBE400520EF324F66EFE0EF420F76E0800F5CFF5
:10EBF4002FF00BD02E50C00B000AD8B48AD7800A4D
:10EC0400D8B4C3D7400AD8B484D72F500FEC6FF0D0
:10EC14002406D8A025062428EDE12528D8A4EAD77F
:10EC240017C0F6FF18C0F7FF174A182A0800F5CFD7
:10EC34002FF02F50D8B41200FCD52BEC72F0000E3C
:10EC4400566E010E556E000E526E000E516E000E81
:10EC54003C6E000E3B6E000E3A6E000E396E000ED6
:10EC64004C6E010E4B6E000E466E010E456E000E8C
:10EC7400546E000E536E000E5C6E000E5B6E000E42
:10EC8400446E000E436E000E486E000E476E000E7A
:10EC9400506E000E4F6E000E526E010E516E000E3D
:10ECA4005E6E000E5D6E000E576E000E586E000E06
:10ECB400596E000E5A6E680E326EE40EE82EFED7C0
:10ECC400322EFCD700D0F8EC71F05DC030F05EC09D
:10ECD40031F05EEC73F0020E4CEC6FF0D00EC35CBE
:10ECE400030EC458D8A004D0000E4C6E010E03D0FD
:10ECF400000E4C6E000E4B6E050E4CEC6FF0C4CF44
:10ED040045F0466A55045610D8A403D1000E706E1F
:10ED140094EC71F028EC6FF0020E7018D8A475D042
:10ED2400000E566E000E556E010E09EC6FF0680E63
:10ED3400326EE40EE82EFED7322EFCD700D0A40E9D
:10ED4400176EFE0E186E16EC74F0C00E09EC6FF020
:10ED5400C40E176EFE0E186E16EC74F0000E026EE2
:10ED6400640E016EF2EC70F0000E3C6E010E3B6E10
:10ED740061C032F00F0E32163250016E026A0E0E6E
:10ED8400046E100E036E5EEC6FF05FC033F0333A26
:10ED94000F0E33160F0E331633500A0D5F500F0B40
:10EDA400346E356AF3503426F450352260C036F0A0
:10EDB4000F0E361636503C0DF3503426F4503522DF
:10EDC40060C037F0373A0F0E37160F0E371637502C
:10EDD4000A0DF3503426F4503522015034260250E3
:10EDE400352261C038F0383A0F0E38160F0E381637
:10EDF40038500A0DF35034244D6EF45035204E6EC5
:10EE04004DC041F04EC042F05ED77004D8A403D088
:10EE1400FBEC72F058D70F0E7018D8A405D0000E72
:10EE2400566E020E556E70D00E0E7018D8A414D003
:10EE3400000E566E030E556E010E026EF40E016E38
:10EE440017EC71F0000E506E000E4F6E000E526EF5
:10EE5400010E516EF1EF7CF00D0E7018D8A433D76B
:10EE6400000E566E040E556E000E446E000E436E78
:10EE740061C032F00F0E32163250016E026A0E0E6D
:10EE8400046E100E036E5EEC6FF05FC033F0333A25
:10EE94000F0E33160F0E331633500A0D5F500F0B3F
:10EEA400346E356AF3503426F450352260C036F09F
:10EEB4000F0E361636503C0DF3503426F4503522DE
:10EEC40060C037F0373A0F0E37160F0E371637502B
:10EED4000A0DF3503426F4503522015034260250E2
:10EEE400352261C038F0383A0F0E38160F0E381636
:10EEF40038500A0DF3503424536EF4503520546EB8
:10EF0400000E486E000E476E000E526E010E516EDA
:10EF1400DAD6020E55185610D8A4F4D2010E09EC14
:10EF24006FF0680E326EE40EE82EFED7322EFCD758
:10EF340000D0000E706E51045210D8A417D08D0E5C
:10EF4400176EFF0E186E16EC74F0000E5E6E010E56
:10EF54005D6E5DC030F05EC031F05EEC73F04FEC7E
:10EF640070F0AFEC70F028EC6FF0C4D2020E5118C0
:10EF74005210D8A417D0750E176EFF0E186E16EC2B
:10EF840074F0000E5E6E020E5D6E5DC030F05EC009
:10EF940031F05EEC73F02FEC70F08FEC70F028EC35
:10EFA4006FF0A8D2030E51185210D8A413D0B40E87
:10EFB400176EFE0E186E16EC74F0000E5E6E030EE5
:10EFC4005D6E5DC030F05EC031F05EEC73F028EC35
:10EFD4006FF090D2010E09EC6FF0680E326EE40E01
:10EFE400E82EFED7322EFCD700D0370E176EFF0E58
:10EFF400186E16EC74F0010E026EF40E016E17EC2E
:10F0040071F01EEC6FF0FFEC6EF0010E09EC6FF086
:10F01400680E326EE40EE82EFED7322EFCD700D0F6
:10F024002A0E176EFF0E186E16EC74F0010E026EA7
:10F03400F40E016EF2EC70F01EEC6FF0FAEC6EF070
:10F04400000E706E61C032F00F0E32163250016E37
:10F05400026A0E0E046E100E036E5EEC6FF05FC05B
:10F0640033F0333A0F0E33160F0E331633500A0DA6
:10F074005F500F0B346E356AF3503426F45035224A
:10F0840060C036F00F0E361636503C0DF350342661
:10F09400F450352260C037F0373A0F0E37160F0E92
:10F0A400371637500A0DF3503426F45035220150E8
:10F0B40034260250352261C038F0383A0F0E381623
:10F0C4000F0E381638500A0DF35034244D6EF45098
:10F0D40035204E6E79D0F8EC71F0000E706E030E90
:10F0E400336E080E326E770EE82EFED7322EFCD722
:10F0F400332EFAD700F0010E09EC6FF0680E326E71
:10F10400E40EE82EFED7322EFCD700D061C032F0D8
:10F114000F0E32163250016E026A0E0E046E100E7D
:10F12400036E5EEC6FF05FC033F0333A0F0E3316AC
:10F134000F0E331633500A0D5F500F0B346E356AC1
:10F14400F3503426F450352260C036F00F0E3616D4
:10F1540036503C0DF3503426F450352260C037F05D
:10F16400373A0F0E37160F0E371637500A0DF35075
:10F174003426F4503522015034260250352261C021
:10F1840038F0383A0F0E38160F0E381638500A0D6C
:10F19400F35034243F6EF4503520406EBA0E176E8F
:10F1A400FF0E186E3FC019F040C01AF04DC007F0B2
:10F1B4004EC008F0A6EC72F007C01BF008C01CF0AB
:10F1C40016EC74F028EC6FF07050D8B484D7000EAD
:10F1D400706E31D0000E706E030E336E080E326EF8
:10F1E400770EE82EFED7322EFCD7332EFAD700F056
:10F1F400010E09EC6FF0680E326EE40EE82EFED7B5
:10F20400322EFCD700D0510E176EFF0E186E16EC7E
:10F2140074F0010E4CEC6FF0C00E09EC6FF0F50EBB
:10F22400176EFF0E186EC3CF19F0C4CF1AF016EC88
:10F2340074F028EC6FF07050D8B4CCD7000E706E18
:10F2440031D0000E706E030E336E080E326E770EE0
:10F25400E82EFED7322EFCD7332EFAD700F0010E5B
:10F2640009EC6FF0680E326EE40EE82EFED7322EF3
:10F27400FCD700D05D0E176EFF0E186E16EC74F0FE
:10F28400000E4CEC6FF0C00E09EC6FF0F50E176E2B
:10F29400FF0E186EC3CF19F0C4CF1AF016EC74F039
:10F2A40028EC6FF07050D8B4CCD7000E706E31D00B
:10F2B400000E706E030E336E080E326E770EE82E5B
:10F2C400FED7322EFCD7332EFAD700F0010E09EC0C
:10F2D4006FF0680E326EE40EE82EFED7322EFCD7A5
:10F2E40000D0690E176EFF0E186E16EC74F0020E45
:10F2F4004CEC6FF0C00E09EC6FF0F50E176EFF0EBC
:10F30400186EC3CF19F0C4CF1AF016EC74F028ECC1
:10F314006FF07050D8B4CCD7000E706E33D0000E9E
:10F32400706E030E336E080E326E770EE82EFED723
:10F33400322EFCD7332EFAD700F0010E09EC6FF011
:10F34400680E326EE40EE82EFED7322EFCD700D0C3
:10F354000E0E176EFF0E186E16EC74F0040E4CECC5
:10F364006FF0C00E09EC6FF0F00E176EFF0E186E02
:10F37400C4CF19F01A6AC3CF1BF01C6A16EC74F0E0
:10F3840028EC6FF07050D8B4CAD7000E706E59D004
:10F39400000E706E010E09EC6FF0680E326EE40E12
:10F3A400E82EFED7322EFCD700D0630E176EFE0E69
:10F3B400186E16EC74F05704581059105A10D8A44B
:10F3C40002D08C8201D08C92020E5718581059101A
:10F3D4005A10D8A402D08A8601D08A96030E5718F0
:10F3E400581059105A10D8A402D08A8401D08A9493
:10F3F400040E5718581059105A10D8A402D08A80F5
:10F4040001D08A90010E5726000E582259225A2202
:10F414005A505910581004E1050E575CD8A004D076
:10F42400000E526E010E516E0B0E336E260E326EAE
:10F434005E0EE82EFED7322EFCD7332EFAD728ECF8
:10F444006FF07050D8B4A4D7000E576E000E586EEB
:10F45400000E596E000E5A6E000E706E44D0000EEF
:10F46400706E010E5726000E582259225A2257C098
:10F474000EF058C00FF059C010F05AC011F0100E21
:10F48400126E270E136E000E146E000E156EC5EC70
:10F4940071F00E500F1010101110D8A422D0010ECC
:10F4A40009EC6FF0680E326EE40EE82EFED7322EB1
:10F4B400FCD700D0000E176EFF0E186E16EC74F019
:10F4C400C00E09EC6FF0AF0E176EFF0E186E57C02A
:10F4D40019F058C01AF059C01BF05AC01CF016ECB1
:10F4E40074F028EC6FF07050D8B4B9D7000E566E93
:10F4F400010E556E7050D8B465EF76F0514A522A19
:10F5040065EF76F0030E55185610D8A47AD2010E82
:10F5140009EC6FF0680E326EE40EE82EFED7322E40
:10F52400FCD700D01C0E176EFF0E186E16EC74F08C
:10F534004B504C10D8B4A3D061C032F00F0E321629
:10F544003250016E026A0E0E046E100E036E5EECF3
:10F554006FF05FC033F0333A0F0E33160F0E3316CD
:10F5640033500A0D5F500F0B346E356AF350342656
:10F57400F450352260C036F00F0E361636503C0D6E
:10F58400F3503426F450352260C037F0373A0F0E6A
:10F5940037160F0E371637500A0DF3503426F45031
:10F5A4003522015034260250352261C038F0383AF1
:10F5B4000F0E38160F0E381638500A0DF350342437
:10F5C4003D6EF45035203E6E49504A10D8A457D0B1
:10F5D400000E4A6E010E496E61C032F00F0E3216F3
:10F5E4003250016E026A0E0E046E100E036E5EEC53
:10F5F4006FF05FC033F0333A0F0E33160F0E33162D
:10F6040033500A0D5F500F0B346E356AF3503426B5
:10F61400F450352260C036F00F0E361636503C0DCD
:10F62400F3503426F450352260C037F0373A0F0EC9
:10F6340037160F0E371637500A0DF3503426F45090
:10F644003522015034260250352261C038F0383A50
:10F654000F0E38160F0E381638500A0DF350342496
:10F664005B6EF45035205C6E0B0E336E260E326EDC
:10F674005E0EE82EFED7322EFCD7332EFAD7495031
:10F684004A10D8B4B2D15BC007F05CC008F0A6EC55
:10F6940072F008BE06D0085041E1050E075CD8B0F0
:10F6A4003DD0000E5E6E030E5D6E5DC030F05EC038
:10F6B40031F05EEC73F0040E4CEC6FF0020EC3609C
:10F6C40004D0000E506E010E4F6E010E09EC6FF067
:10F6D400680E326EE40EE82EFED7322EFCD700D030
:10F6E400C50E176EFF0E186EC3CF19F01A6A16EC0A
:10F6F40074F0C00E09EC6FF0A40E176EFF0E186EB6
:10F704005BC007F05CC008F0A6EC72F007C019F00B
:10F7140008C01AF016EC74F065EF76F04F04501040
:10F72400D8A474D0000E706E28EC6FF07050D8B46A
:10F7340004D0000E566E010E556E010E09EC6FF0EA
:10F74400680E326EE40EE82EFED7322EFCD700D0BF
:10F75400CF0E176EFF0E186E16EC74F0C00E09EC87
:10F764006FF05BC007F05CC008F0A6EC72F008BE56
:10F7740006D0085020E10D0E075CD8B01CD0000E56
:10F784005E6E010E5D6E5DC030F05EC031F05EEC09
:10F7940073F0990E176EFF0E186E5BC007F05CC015
:10F7A40008F0A6EC72F007C019F008C01AF016ECC5
:10F7B40074F065EF76F05BC007F05CC008F0A6EC6F
:10F7C40072F008BE06D0085020E1150E075CD8B0D0
:10F7D40089D0000E5E6E020E5D6E5DC030F05EC0BC
:10F7E40031F05EEC73F0440E176EFF0E186E5BC0C2
:10F7F40007F05CC008F0A6EC72F007C019F008C06E
:10F804001AF016EC74F065EF76F06CD04F5050108F
:10F81400D8A46ED0010E09EC6FF0680E326EE40EBF
:10F82400E82EFED7322EFCD700D0160E176EFF0E30
:10F83400186E16EC74F0C00E09EC6FF05BC007F0A4
:10F844005CC008F0A6EC72F008BE06D0085020E1B7
:10F854000C0E075CD8B01CD0000E5E6E020E5D6EFE
:10F864005DC030F05EC031F05EEC73F0990E176E3F
:10F87400FF0E186E5BC007F05CC008F0A6EC72F0D7
:10F8840007C019F008C01AF016EC74F065EF76F0B2
:10F894005BC007F05CC008F0A6EC72F008BE06D0AE
:10F8A400085020E1130E075CD8B01CD0000E5E6E29
:10F8B400010E5D6E5DC030F05EC031F05EEC73F041
:10F8C400440E176EFF0E186E5BC007F05CC008F0A4
:10F8D400A6EC72F007C019F008C01AF016EC74F028
:10F8E40065EF76F0000E506E640E4F6E65EF76F0A5
:10F8F400010E09EC6FF0680E326EE40EE82EFED7AE
:10F90400322EFCD700D0810E176EFF0E186E5BC02E
:10F9140007F05CC008F0A6EC72F007C019F008C04C
:10F924001AF016EC74F061C032F00F0E3216325039
:10F93400016E026A0E0E046E100E036E5EEC6FF022
:10F944005FC033F0333A0F0E33160F0E33163350B5
:10F954000A0D5F500F0B346E356AF3503426F450A1
:10F96400352260C036F00F0E361636503C0DF3507B
:10F974003426F450352260C037F0373A0F0E37166C
:10F984000F0E371637500A0DF3503426F450352233
:10F99400015034260250352261C038F0383A0F0E37
:10F9A40038160F0E381638500A0DF35034245B6E97
:10F9B400F45035205C6E000E506E000E4F6E3DC04C
:10F9C40007F03EC008F0A6EC72F008BE65EF76F0D2
:10F9D400085005E10A0E075CD8A065EF76F0000E2A
:10F9E4004A6E000E496E65EF76F0000E5E6E030EF1
:10F9F4005D6E5DC030F05EC031F05EEC73F065EFBB
:10FA040076F0040E55185610D8B414D126D10FEC44
:10FA140070F06FEC70F045504610D8B44AD061C015
:10FA240032F00F0E32163250016E026A0E0E046E60
:10FA3400100E036E5EEC6FF05FC033F0333A0F0EBE
:10FA440033160F0E331633500A0D5F500F0B346EFE
:10FA5400356AF3503426F450352260C036F00F0E68
:10FA6400361636503C0DF3503426F450352260C01F
:10FA740037F0373A0F0E37160F0E371637500A0D78
:10FA8400F3503426F45035220150342602503522E6
:10FA940061C038F0383A0F0E38160F0E3816385049
:10FAA4000A0DF3503424536EF4503520546E434AF7
:10FAB400442A6FEC70F053C007F054C008F0A6EC71
:10FAC40072F008BE06D0085007E1030E075CD8B0F8
:10FAD40003D0CFEC6FF072D053C007F054C008F0DD
:10FAE400A6EC72F008BE06D008500DE1040E075CC7
:10FAF400D8B009D00FEC70F0030E4CEC6FF0C4CF0B
:10FB040047F0486A5BD053C007F054C008F0A6EC35
:10FB140072F008BE06D0085007E1070E075CD8B0A3
:10FB240003D0EFEC6FF04AD061C032F00F0E321602
:10FB34003250016E026A0E0E046E100E036E5EECFD
:10FB44006FF05FC033F0333A0F0E33160F0E3316D7
:10FB540033500A0D5F500F0B346E356AF350342660
:10FB6400F450352260C036F00F0E361636503C0D78
:10FB7400F3503426F450352260C037F0373A0F0E74
:10FB840037160F0E371637500A0DF3503426F4503B
:10FB94003522015034260250352261C038F0383AFB
:10FBA4000F0E38160F0E381638500A0DF350342441
:10FBB400536EF4503520546E434A442A0FEC70F0CF
:10FBC40053C007F054C008F0A6EC72F008BE06D08B
:10FBD40008500EE1030E075CD8B00AD04750481015
:10FBE400D8B403D04FEC70F01FD02FEC70F01CD0C1
:10FBF40053C007F054C008F0A6EC72F008BE06D05B
:10FC040008500EE1060E075CD8B00AD047504810E1
:10FC1400D8B403D02FEC70F007D04FEC70F004D0C0
:10FC2400000E446E000E436E000E446E000E436ED2
:10FC340065EF76F043C032F044C033F03350000A2D
:10FC4400D8A4F2D73250000AD8B4E1D6010AD8B405
:10FC540030D7030AD8B4B2D7E7D7010E09EC6FF056
:10FC6400680E326EE40EE82EFED7322EFCD700D09A
:10FC7400E80E176EFF0E186E16EC74F0000E706E20
:10FC840028EC6FF07050D8B404D0000E566E010EFC
:10FC9400556E41C007F042C008F0A6EC72F008BEF1
:10FCA40066D0085004E10B0E075CD8A060D0050EA6
:10FCB4004CEC6FF0C4CF4BF04C6A020E4CEC6FF07E
:10FCC400C4CF45F0466A4B504C10D8A408D04550D8
:10FCD4004610D8A404D0000E566E010E556E61C0B5
:10FCE40032F00F0E32163250016E026A0E0E046E9E
:10FCF400100E036E5EEC6FF05FC033F0333A0F0EFC
:10FD040033160F0E331633500A0D5F500F0B346E3B
:10FD1400356AF3503426F450352260C036F00F0EA5
:10FD2400361636503C0DF3503426F450352260C05C
:10FD340037F0373A0F0E37160F0E371637500A0DB5
:10FD4400F3503426F4503522015034260250352223
:10FD540061C038F0383A0F0E38160F0E3816385086
:10FD64000A0DF3503424416EF4503520426E55048C
:10FD74005610D8A465EF76F0010E09EC6FF0680E0A
:10FD8400326EE40EE82EFED7322EFCD700D03F0EA2
:10FD9400176EFE0E186E16EC74F0150E336E4B0EC5
:10FDA400326EBE0EE82EFED7322EFCD7332EFAD793
:10FDB40000D0FAEC6EF0000E3C6E000E3B6E4DC0AF
:10FDC40007F04EC008F0A6EC72F007C012F008C0AD
:10FDD40013F098EC6FF065EF76F000010000000A74
:10FDE40000000064000000E803000010270000A0E9
:10FDF40086010040420F008096980000E1F505005E
:10FE0400CA9A3B010000001000000000010000003D
:10FE140010000000000100000010000000000100BC
:10FE24000000103132334134353642373839432AF1
:10FE3400302344003026130401031746696E6973A6
:10FE440068656420736F7274696E672120003031B5
:10FE54003233343536373839616263646566007429
:10FE6400657374696E67206661737473746570007A
:10FE7400253032782F253032782F25303278200003
:10FE84002320736F64612063616E733A20256400DC
:10FE940052756E233120202020413A4E657874003B
:10FEA400536F7274696E672063616E732E2E2E0019
:10FEB40074657374696E672053317368616B650090
:10FEC400416E79206B657920746F2073746F7000B4
:10FED4002320736F75702063616E733A203400259C
:10FEE4003032783A253032783A253032780023207F
:10FEF4006F662063616E733A2025640070726F67C9
:10FF040072616D2073706565640074657374696EE5
:10FF140067206C6162656C00736F75702063616E3D
:10FF240020746573740074657374696E6720505728
:10FF34004D310074657374696E672050574D3200FB
:10FF440072657475726E696E6720256400746573DA
:10FF540074696E67204952310074657374696E6701
:10FF6400204952320074657374696E6720495233B4
:10FF74000074657374696E67205320620066696E4D
:10FF840069736865642025640074657374696E67B9
:10FF94002053206600736F7274696E6720256400B5
:10FFA40074657374696E67202564006C6F6F707379
:10FFB4003A20256C750074696D65202578202578B4
:10FFC4000076616C75653A202578006E6F206C614F
:10FFD40062656C0020323A4C6F677300333A537495
:10FFE40061727400736F7274696E670025782020E3
:0CFFF400202578002564202025640000F2
:020000040020DA
:08000000FFFFFFFFFFFFFFFF00
:020000040030CA
:0E000000FF021F1EFF8381FF0FC00FE00F40A5
:00000001FF
