:0400000007EF00F016
:100008005F8236ED0DF026EF15F0000E896ED0EC0C
:1000180012F0000E0001A66F010EA56F000E000180
:10002800906F000E8F6F000E00018C6F010E8B6FAA
:10003800000E00018E6F010E8D6F170ED56E850EA6
:10004800D76EAE0ED66ED58EB2EC15F0680E0001E6
:10005800896FE40EE82EFED7892FFCD700F0000147
:10006800A5050001A611D8A4F6D0000E0001BA6FAC
:1000780006D080EC13F0B4EC13F093EC15F000010B
:10008800BA51D8B4F6D7020E0001BA19D8A4B1D023
:10009800000E0001A66F000EA56F000E0001B56FDF
:1000A800000EB46F000E0001B36F000EB26F000EA9
:1000B80000019E6F000E9D6F000E526E000E516E75
:1000C800000E0001A06F000E9F6F000E566E000E0E
:1000D800556E000E546E000E536E000E0001966FA2
:1000E800000E956F000E0001986F000E976F000EBE
:1000F80000019A6F000E996F000E00019C6F000EB0
:100108009B6F000E0001A46F000EA36F000E00018C
:10011800A26F000EA16F010EC8EC15F0340E00019D
:10012800896FF10EE82EFED7892FFCD700D0160E66
:100138002D6EFF0E2E6E00EC09F0C00EC8EC15F007
:10014800560E2D6EFF0E2E6E00EC09F004D0000E38
:100158005A6E020E596E56BEFAD7565004E10E0E6C
:10016800555CD8A0F4D7000E5A6E040E596E4FECA9
:1001780010F0020E0001B8190001B911D8B407D067
:10018800030E0001B8190001B911D8A404D0000E5B
:100198005C6E030E03D0000E5C6E050E5B6E020EE5
:1001A8000001B6190001B711D8B407D0030E000139
:1001B800B6190001B711D8A404D0000E586E030E6A
:1001C80003D0000E586E050E576E030E226E840E75
:1001D800216E000E246E010E236E0CEC13F0010E3E
:1001E800226E900E216E8DEC14F0000E0001BA6F95
:1001F80036D7030E0001BA19D8A41DD0000E00018D
:10020800816F010E806F40EC07F0000E0001816FD6
:10021800020E806F40EC07F0000E0001816F030EA4
:10022800806F40EC07F0000E0001816F040E806FB4
:1002380040EC07F014D70F0E0001BA19D8A40FD755
:10024800000E0001A66F020EA56F000E0001906F50
:10025800010E8F6F04D7020E0001A5190001A61127
:10026800D8A45BD2010EC8EC15F0340E0001896FDA
:10027800F10EE82EFED7892FFCD700D0260E2D6E62
:10028800FF0E2E6E00EC09F0030E226E840E216E16
:10029800000E246E010E236E0CEC13F09EEC15F08C
:1002A800010EC8EC15F0340E0001896FF10EE82E2E
:1002B800FED7892FFCD700D0C40E2D6EFE0E2E6EF1
:1002C80000EC09F0030E226E840E216E000E246EDF
:1002D800020E236E0CEC13F09EEC15F0D3EC15F027
:1002E800010EC8EC15F0340E0001896FF10EE82EEE
:1002F800FED7892FFCD700D0C70E2D6EFF0E2E6EAD
:1003080000EC09F0000E5C6E010E5B6E000E5A6E7A
:10031800010E596E000E586E010E576E9EEC15F0C8
:10032800010EC8EC15F0340E0001896FF10EE82EAD
:10033800FED7892FFCD700D0AF0E2D6EFF0E2E6E84
:1003480000EC09F0000E5C6E020E5B6E000E5A6E39
:10035800020E596E000E586E020E576E9EEC15F086
:10036800010EC8EC15F0340E0001896FF10EE82E6D
:10037800FED7892FFCD700D0360E2D6EFF0E2E6EBD
:1003880000EC09F0000E5C6E030E5B6E000E5A6EF8
:10039800030E596E000E586E030E576E9EEC15F044
:1003A800000E5C6E040E5B6E000E5A6E040E596EE3
:1003B800000E586E040E576E000E0001BA6F010E43
:1003C800C8EC15F0340E0001896FF10EE82EFED747
:1003D800892FFCD700D0660E2D6EFF0E2E6E00EC16
:1003E80009F032D093EC15F0020E0001BA19D8A426
:1003F80002D08C8201D08C92060E0001BA19D8A4C2
:1004080002D08A8601D08A960A0E0001BA19D8A4A9
:1004180002D08A8401D08A940E0E0001BA19D8A499
:1004280002D08A8001D08A90010E72EC15F0C00EBD
:10043800C8EC15F0FB0E2D6EFF0E2E6EC3CF2FF0FD
:10044800C4CF30F000EC09F0030E0001BA19D8A4AB
:10045800C9D7000E0001BA6F010EC8EC15F0340EB2
:100468000001896FF10EE82EFED7892FFCD700D046
:10047800760E2D6EFF0E2E6E00EC09F022D093EC56
:1004880015F0020E0001BA19D8A402D08B8E01D043
:100498008B9E060E0001BA19D8A402D08B8C01D00D
:1004A8008B9C0A0E0001BA19D8A402D08B8001D007
:1004B8008B900E0E0001BA19D8A402D08B8A01D0F5
:1004C8008B9A030E0001BA19D8A4D9D7000E0001DF
:1004D800BA6F010EC8EC15F0340E0001896FF10EE9
:1004E800E82EFED7892FFCD700D0860E2D6EFF0E82
:1004F8002E6E00EC09F032D093EC15F0020E0001DC
:10050800BA19D8A402D08D8401D08D94060E0001AA
:10051800BA19D8A402D08D8201D08D920A0E00019A
:10052800BA19D8A402D0898801D089980E0E000182
:10053800BA19D8A402D08C8001D08C90050E72EC28
:1005480015F0C00EC8EC15F0FB0E2D6EFF0E2E6ECA
:10055800C3CF2FF0C4CF30F000EC09F0030E000138
:10056800BA19D8A4C9D7000E5C6E000E5B6E000ED7
:100578005A6E000E596E000E586E000E576E010E20
:10058800C8EC15F0340E0001896FF10EE82EFED785
:10059800892FFCD700D0960E2D6EFF0E2E6E00EC24
:1005A80009F0010E226E900E216E8DEC14F09EEC77
:1005B80015F0D8EC15F0000E0001BA6F5BD0000EF4
:1005C8000001BA6F010EC8EC15F0340E0001896FF6
:1005D800F10EE82EFED7892FFCD700D0D30E2D6E52
:1005E800FF0E2E6E00EC09F0C00EC8EC15F0010EDF
:1005F80072EC15F0F70E2D6EFF0E2E6EC3CF2FF096
:10060800C4CF30F000EC09F0000E72EC15F0F70ED4
:100618002D6EFF0E2E6EC3CF2FF0C4CF30F000EC3E
:1006280009F0020E72EC15F0F70E2D6EFF0E2E6E0D
:10063800C3CF2FF0C4CF30F000EC09F0050E72ECF8
:1006480015F0F70E2D6EFF0E2E6EC3CF2FF0C4CF10
:1006580030F000EC09F093EC15F0050E00018A6FFC
:100668000F0E0001896FF10EE82EFED7892FFCD7F7
:100678008A2FFAD70001BA51D8B4A1D7000E0001C9
:10068800BA6F41D0000E0001BA6F030E00018A6FE5
:10069800080E0001896F770EE82EFED7892FFCD748
:1006A8008A2FFAD7010EC8EC15F0340E0001896FB5
:1006B800F10EE82EFED7892FFCD700D0BB0E2D6E89
:1006C800FF0E2E6E00EC09F0C00EC8EC15F0040EFB
:1006D80072EC15F0DE0E2D6EFF0E2E6EC3CF2FF0CE
:1006E800C4CF30F000EC09F0030E72EC15F0DE0E0A
:1006F8002D6EFF0E2E6EC3CF2FF0C4CF30F000EC5E
:1007080009F093EC15F00001BA51D8B4BBD7000E2C
:100718000001A66F010EA56FA2D4020E72EC15F0AF
:10072800310EC35C010EC458D8B026D0B4C091F0C5
:10073800B5C092F0000E0001B16F010EB06F00015C
:100748009D5100019E11D8A417D0000E00019E6F84
:10075800010E9D6F000E566E000E556E070E0001BD
:100768008A6F170E0001896F6A0EE82EFED7892F4F
:10077800FCD78A2FFAD700F000019D5100019E1185
:10078800D8B4EED056BE06D0565011E1780E555C5E
:10079800D8B00DD0040E72EC15F0020EC45CD8B0BF
:1007A800DFD0000E0001B36F010EB26FD9D0000187
:1007B800B2050001B311D8A43DD056BE06D056509C
:1007C80008E1BE0E555CD8B004D0000E5C6E010E78
:1007D80042D056BE06D056500CE1F50E555CD8B046
:1007E80008D0000E5C6E020E5B6E000E4E6E020E9E
:1007F80048D0000E5C6E040E5B6E4DC021F04EC0FA
:1008080022F086EC0AF0010E72EC15F00001A351FB
:10081800C35C0001A451C458D8B059D0AB0EC35C16
:10082800030EC458D8A053D0000E0001B36F650E54
:10083800B26F4DD00001B2510001B311D8A44CD011
:1008480056BE06D056500EE1BE0E555CD8B00AD042
:10085800000E5C6E020E5B6E000E0001B16F000EA2
:10086800B06F7ED056BE06D0565011E1F80E555CDA
:10087800D8B00DD0000E5C6E010E5B6E000E4E6E91
:10088800010E4D6E000E4C6E010E4B6E69D0000EBF
:100898005C6E040E5B6E4DC021F04EC022F086ECFB
:1008A8000AF0010E72EC15F00001A351C35C0001BF
:1008B800A451C458D8B00BD0AB0EC35C030EC458B7
:1008C800D8A005D0000E0001B36F640EB1D7C3CF16
:1008D800A3F0C4CFA4F044D0650E0001B219000102
:1008E800B311D8A404D00001974B982B0AD0640EFA
:1008F8000001B2190001B311D8A403D00001954B2F
:10090800962B000E566E000E556E000E0001A46F59
:10091800000EA36F000E0001B36F000EB26F00014E
:10092800B0510001B111D8A405D0000E00019E6F8E
:10093800000E9D6F020E0001B8190001B911D8B45C
:1009480007D0030E0001B8190001B911D8A404D0CA
:10095800000E5C6E030E03D0000E5C6E050E5B6E1F
:10096800C00EC8EC15F0000E72EC15F0310EC35C29
:10097800010EC458D8B026D0B4C093F0B5C094F0D6
:10098800000E0001AF6F010EAE6F00019F51000114
:10099800A011D8A417D0000E0001A06F010E9F6F00
:1009A800000E546E000E536E070E00018A6F170E6C
:1009B8000001896F6A0EE82EFED7892FFCD78A2F8F
:1009C800FAD700F000019F510001A011D8B43AD124
:1009D80054BE06D0545008E1300E535CD8B004D051
:1009E800000E5A6E040E4AD054BE06D0545008E188
:1009F8005B0E535CD8B004D0000E586E010E21D1A6
:100A080054BE06D054500CE1650E535CD8B008D0E3
:100A1800000E586E040E576E000E5A6E010E2ED040
:100A280054BE06D054501BE1740E535CD8B017D096
:100A3800000E586E040E576E000E5A6E000E596E58
:100A4800030E72EC15F0020EC46004D0000E526E54
:100A5800010E516E000E5E6E010E5D6EF3D054BE37
:100A680006D054500DE1880E535CD8B009D0000E62
:100A7800586E040E576E000E5A6E020E596EE2D072
:100A880051045210D8A444D054BE06D0545008E1A2
:100A9800A60E535CD8B004D0000E586E010E47D095
:100AA80054BE06D0545010E1DD0E535CD8B00CD0C3
:100AB800000E586E020E576E000E5A6E040E596ED6
:100AC800000E506E020E51D0000E5A6E040E596E72
:100AD800000E586E040E576E4FC021F050C022F021
:100AE8005BEC0EF0050E72EC15F00001A151C35C31
:100AF8000001A251C458D8B061D0AB0EC35C030E3C
:100B0800C458D8A05BD0000E526E650E516E56D0F8
:100B180051505210D8A457D054BE06D0545012E1A8
:100B2800FE0E535CD8B00ED0000E586E020E576EF3
:100B3800000E5A6E040E596E000E0001AF6F000EC3
:100B4800AE6F80D054BE06D03F0E535C010E545891
:100B5800D8B011D0000E586E010E576E000E5A6EA6
:100B6800040E596E000E506E010E4F6E000E4A6E46
:100B7800010E496E67D0000E586E040E576E000EB7
:100B88005A6E040E596E4FC021F050C022F05BEC33
:100B98000EF0050E72EC15F00001A151C35C0001C6
:100BA800A251C458D8B00AD0AB0EC35C030EC458C7
:100BB800D8A004D0000E526E640EA8D7C3CFA1F0FF
:100BC800C4CFA2F03FD0650E51185210D8A404D05B
:100BD8000001994B9A2B08D0640E51185210D8A4D2
:100BE80003D000019B4B9C2B000E546E000E536EDD
:100BF800000E526E000E516E000E0001A26F000E24
:100C0800A16F0001AE510001AF11D8A405D0000EAC
:100C18000001A06F000E9F6F020E0001B6190001BF
:100C2800B711D8B407D0030E0001B6190001B711E7
:100C3800D8A404D0000E586E030E03D0000E586ED0
:100C4800050E576EB4C021F0B5C022F0000E246E18
:100C5800070E236E48EC13F021042210D8A412D0FA
:100C68000001B5BF08D00001B5510CE1070E000125
:100C7800B45DD8B007D0020E226EEE0E216E66EC7F
:100C880014F048D0B4C021F0B5C022F0000E246E94
:100C9800070E236E48EC13F0020E21182210D8A478
:100CA80007D0020E226EEE0E216E66EC14F032D0E2
:100CB800B4C021F0B5C022F0000E246E070E236EDA
:100CC80048EC13F0050E21182210D8A40BD0030EFF
:100CD800226E840E216E000E246E020E236E0CEC22
:100CE80013F018D0B4C021F0B5C022F0000E246E65
:100CF800070E236E48EC13F021502210D8A40AD016
:100D0800030E226E840E216E000E246E010E236ED9
:100D18000CEC13F093EC15F00001BA51D8A443D0B1
:100D280091C089F092C08AF00001891F8A1F894BFF
:100D38008A2B0001B451000189270001B551000137
:100D48008A2300018ABF24D000018A5105E10D0ED3
:100D58000001895DD8A01CD093C089F094C08AF0A6
:100D68000001891F8A1F894B8A2B0001B451000199
:100D780089270001B55100018A2300018ABF08D0E4
:100D880000018A5110E10D0E0001895DD8B00BD029
:100D98000001B5BFC2D40001B55105E1B40E000190
:100DA800B45DD8A0BAD4000E0001A66F010EA56FDD
:100DB800D3EC15F0D8EC15F0000E5C6E000E5B6EEF
:100DC800000E5A6E000E596E000E586E000E576EC9
:100DD800B4C025F0B5C026F0ADC027F0286AACC075
:100DE80029F02A6AABC02BF02C6AA9C02DF02E6A14
:100DF800A8C02FF0306AA7C031F0326A99C033F02A
:100E08009AC034F09BC035F09CC036F095C037F0DE
:100E180096C038F097C039F098C03AF0B4EC11F0A9
:100E2800010EC8EC15F0340E0001896FF10EE82EA2
:100E3800FED7892FFCD700D0460E2D6EFF0E2E6EE2
:100E480000EC09F0C00EC8EC15F0D50E2D6EFE0EA4
:100E58002E6E00EC09F09EEC15F0070E0001BA1991
:100E6800D8A433EF00F0000E0001816F010E806FEF
:100E780040EC07F033EF00F0000E12EC15F0000123
:100E8800876F886B87BF8807000E0001866F010E89
:100E9800856F16D00001874B882B000188BF0DD0C5
:100EA8000001885105E1050E0001875DD8A005D035
:100EB800000E0001886F010E876F0001854B862B9D
:100EC800000180510001855D00018651800A000102
:100ED800826F00018151800A00018259D8A0DAD7B7
:100EE800010EC8EC15F0340E0001826FF10EE82EE9
:100EF800FED7822FFCD700D0B30E2D6EFE0E2E6EBD
:100F080080C02FF081C030F000EC09F0C00EC8ECB2
:100F180015F0A30E2D6EFF0E2E6E87C082F0000115
:100F2800823BF00E82170001822912EC15F02F6E19
:100F3800306A2FBE300600EC09F09EEC15F0010E69
:100F4800C8EC15F0340E0001826FF10EE82EFED7C2
:100F5800822FFCD700D0B30E2D6EFE0E2E6E80C0F1
:100F68002FF081C030F000EC09F0C00EC8EC15F08D
:100F78006B0E2D6EFE0E2E6E87C082F00001823B36
:100F8800F00E821700018251020F12EC15F02F6E3D
:100F9800306A2FBE300687C083F00001833BF00E15
:100FA800831700018351030F12EC15F0316E326A7A
:100FB80031BE320687C084F00001843BF00E8417EE
:100FC80000018451040F12EC15F0336E346A33BEFD
:100FD800340600EC09F09EEC15F0010EC8EC15F093
:100FE800340E0001826FF10EE82EFED7822FFCD757
:100FF80000D0B30E2D6EFE0E2E6E80C02FF081C075
:1010080030F000EC09F0C00EC8EC15F0550E2D6E4E
:10101800FE0E2E6E87C082F00001823BF00E821712
:1010280000018251050F12EC15F02F6E306A2FBEA9
:10103800300687C083F00001833BF00E8317000160
:101048008351060F12EC15F0316E326A31BE32064A
:1010580087C084F00001843BF00E8417000184519E
:10106800070F12EC15F0336E346A33BE340600EC09
:1010780009F09EEC15F0010EC8EC15F0340E0001D5
:10108800826FF10EE82EFED7822FFCD700D0B30E68
:101098002D6EFE0E2E6E80C02FF081C030F000EC59
:1010A80009F0C00EC8EC15F0F60E2D6EFE0E2E6E71
:1010B80087C082F00001823BF00E82170001825146
:1010C800080F12EC15F02F6E306A2FBE300600ECB8
:1010D80009F09EEC15F0010EC8EC15F0340E000175
:1010E800826FF10EE82EFED7822FFCD700D0B30E08
:1010F8002D6EFE0E2E6E80C02FF081C030F000ECF9
:1011080009F0C00EC8EC15F0910E2D6EFE0E2E6E75
:1011180087C082F00001823BF00E821700018251E5
:10112800090F12EC15F02F6E306A2FBE300600EC56
:1011380009F09EEC15F0010EC8EC15F0340E000114
:10114800826FF10EE82EFED7822FFCD700D0B30EA7
:101158002D6EFE0E2E6E80C02FF081C030F000EC98
:1011680009F0C00EC8EC15F0060E2D6EFF0E2E6E9F
:1011780087C082F00001823BF00E82170001825185
:101188000A0F12EC15F02F6E306A2FBE300600ECF5
:1011980009F09EEC15F0010EC8EC15F0340E0001B4
:1011A800826FF10EE82EFED7822FFCD700D0B30E47
:1011B8002D6EFE0E2E6E80C02FF081C030F000EC38
:1011C80009F0C00EC8EC15F0A20E2D6EFE0E2E6EA4
:1011D80087C082F00001823BF00E82170001825125
:1011E8000B0F12EC15F02F6E306A2FBE300600EC94
:1011F80009F09EEC15F012002F0E3A6E000E3B6EB1
:1012080074D1250E4218D8B404D04250C2EC15F05F
:101218006CD1000E416E000E406E000E3F6E03D082
:101228003F842D4A2E2A2DC0F6FF2EC0F7FF080056
:10123800F550300AD8B4F4D72DC0F6FF2EC0F7FF0A
:101248000800F55084EC15F0D8A035D0000E416E9A
:10125800000E406E40C021F041C022F0000E246E06
:101268000A0E236E4CEC15F021C040F022C041F06C
:10127800D00E356EFF0E366E2DC0F6FF2EC0F7FF6E
:101288000800F550376E386A355037263650382200
:1012980037504026385041222D4A2E2A2DC0F6FFBD
:1012A8002EC0F7FF0800F55084EC15F0D8A003D045
:1012B800D1D73F8E17D02DC0F6FF2EC0F7FF2D4A8D
:1012C8002E2A0800F5CF42F04250000AD8B4120086
:1012D800640AD8B407D00D0AD8B404D0110AD8B417
:1012E800E8D703D13FBE15D03AC0D9FF3BC0DAFFDB
:1012F800DECF3DF0DDCF3EF0020E3A26000E3B2257
:101308003EAE44D0030E3F123D6C3E1ED8B03E2A7E
:101318003DD03AC0D9FF3BC0DAFFDECF3DF0DDCF8C
:101328003EF0020E3A26000E3B2230D0010E426EED
:10133800050E4218D8B432D04250020D3C0EF324A8
:10134800F66EFE0EF420F76E0900F5503D5C0900BC
:10135800F5503E58D8A022D0422AEAD7010E426E54
:10136800040E4218D8B41AD04250020D460EF32487
:10137800F66EFE0EF420F76E0900F5503D5C09008C
:10138800F5503E58D8A00AD0422AEAD73F50800BE1
:10139800000AD8B4CBD7800AD8B4E0D7405041105F
:1013A800D8B409D03FC035F0030E3516D8B403D0F1
:1013B8004006D8A04106800E42BE7F0E356E4050D2
:1013C800425C4150800A3558D8B007D04250405E40
:1013D800000E42BEFF0E415A04D0000E416E000EB0
:1013E800406E3FA414D03FC035F0030E3516D8B474
:1013F80003D02D0EC2EC15F040504110D8B41ED0C9
:10140800300EC2EC15F04006D8A04106F5D7405082
:101418004110D8B40AD0200EC2EC15F04006D8A06E
:10142800410640504110D8A4F6D73FC035F0030E0E
:101438003516D8B403D02D0EC2EC15F042C03CF0DE
:1014480050D03C50020D3C0EF324F66EFE0EF420F4
:10145800F76E0900F5CF23F00A00F5CF24F03DC060
:1014680021F03EC022F03DEC14F021C028F022C04B
:1014780029F0000E2B6E0A0E2A6ED5EC14F02850B7
:10148800300F426E2BD03DC021F03EC022F03C50C0
:10149800020D460EF324F66EFE0EF420F76E0900D8
:1014A800F5CF23F00A00F5CF24F03DEC14F02150DD
:1014B8000F0B396E3950010D800EF324F66EFE0EB7
:1014C800F420F76E0800F5CF42F008D03F50800BAB
:1014D800000AD8B4B6D7800AD8B4D5D74250C2ECDF
:1014E80015F03C063C28D8A4F1D72DC0F6FF2EC035
:1014F800F7FF2D4A2E2A0800F5CF42F04250D8B403
:1015080012007FD6340E236EF20EE82EFED7232E5D
:10151800FCD721502210D8A405D08C928A968A94A0
:101528008A901200030E21182210D8A449D0474AE5
:10153800482A48BE0AD0485004E1090E475CD8A0A2
:1015480004D0000E486E010E476E340E236EF20E64
:10155800E82EFED7232EFCD747044810D8B405D070
:10156800080E47184810D8A402D08C8201D08C925B
:10157800020E47184810D8B405D0070E471848106F
:10158800D8A402D08A8601D08A96030E471848103C
:10159800D8B405D0060E47184810D8A402D08A84BB
:1015A80001D08A94040E47184810D8B405D0050E07
:1015B80047184810D8A402D08A8012008A901200D6
:1015C800050E21182210D8A449D0474A482A48BEF7
:1015D8000AD0485004E1090E475CD8A004D0000E98
:1015E800486E010E476E340E236EF20EE82EFED7BB
:1015F800232EFCD747044810D8B405D0080E471846
:101608004810D8A402D08A8401D08A94020E4718C0
:101618004810D8B405D0070E47184810D8A402D0EF
:101628008A8001D08A90030E47184810D8B405D094
:10163800060E47184810D8A402D08C8201D08C928C
:10164800040E47184810D8B405D0050E471848109E
:10165800D8A402D08A8612008A961200040E211895
:101668002210D8B41200680E236EE40EE82EFED7BE
:10167800232EFCD700D021042210D8B405D0050EA3
:1016880021182210D8A413D00001B84BB92B00019F
:10169800B9BF2AD00001B95105E1050E0001B85DB6
:1016A800D8A022D0000E0001B96F010E1CD0020E86
:1016B80021182210D8B405D0060E21182210D8A45B
:1016C80013D00001B807D8A0B9070001B9BF07D0E7
:1016D8000001B95109E10001B805D8B005D0000EE4
:1016E8000001B96F040EB86F21042210D8B405D0D8
:1016F800020E21182210D8A427D00001B805000135
:10170800B911D8A402D08C8201D08C92020E0001AB
:10171800B8190001B911D8A402D08A8601D08A96D6
:10172800030E0001B8190001B911D8A402D08A84A7
:1017380001D08A94040E0001B8190001B911D8A487
:1017480002D08A8001D08A90050E21182210D8B4C0
:1017580005D0060E21182210D8A412000001B805E1
:101768000001B911D8A404D08C828A868A948A9000
:10177800020E0001B8190001B911D8A404D08C9246
:101788008A868A848A90030E0001B8190001B9116B
:10179800D8A404D08C928A968A848A80040E000188
:1017A800B8190001B911D8A412008C828A968A94BB
:1017B8008A801200340E036EF20EE82EFED7032E36
:1017C800FCD701500210D8A405D08C928A968A942E
:1017D8008A901200030E01180210D8A449D0474A73
:1017E800482A48BE0AD0485004E1090E475CD8A0F0
:1017F80004D0000E486E010E476E340E036EF20ED2
:10180800E82EFED7032EFCD747044810D8B405D0DD
:10181800080E47184810D8A402D08C8201D08C92A8
:10182800020E47184810D8B405D0070E47184810BC
:10183800D8A402D08A8601D08A96030E4718481089
:10184800D8B405D0060E47184810D8A402D08A8408
:1018580001D08A94040E47184810D8B405D0050E54
:1018680047184810D8A402D08A8012008A90120023
:10187800050E01180210D8A449D0474A482A48BE84
:101888000AD0485004E1090E475CD8A004D0000EE5
:10189800486E010E476E340E036EF20EE82EFED728
:1018A800032EFCD747044810D8B405D0080E4718B3
:1018B8004810D8A402D08A8401D08A94020E47180E
:1018C8004810D8B405D0070E47184810D8A402D03D
:1018D8008A8001D08A90030E47184810D8B405D0E2
:1018E800060E47184810D8A402D08C8201D08C92DA
:1018F800040E47184810D8B405D0050E47184810EC
:10190800D8A402D08A8612008A961200040E011802
:101918000210D8B41200680E036EE40EE82EFED74B
:10192800032EFCD700D001040210D8B405D0050E50
:1019380001180210D8A413D00001B84BB92B00012C
:10194800B9BF2AD00001B95105E1050E0001B85D03
:10195800D8A022D0000E0001B96F010E1CD0020ED3
:1019680001180210D8B405D0060E01180210D8A428
:1019780013D00001B807D8A0B9070001B9BF07D034
:101988000001B95109E10001B805D8B005D0000E31
:101998000001B96F040EB86F01040210D8B405D065
:1019A800020E01180210D8A427D00001B8050001C2
:1019B800B911D8A402D08C8201D08C92020E0001F9
:1019C800B8190001B911D8A402D08A8601D08A9624
:1019D800030E0001B8190001B911D8A402D08A84F5
:1019E80001D08A94040E0001B8190001B911D8A4D5
:1019F80002D08A8001D08A90050E01180210D8B44E
:101A080005D0060E01180210D8A412000001B8056E
:101A18000001B911D8A404D08C828A868A948A904D
:101A2800020E0001B8190001B911D8A404D08C9293
:101A38008A868A848A90030E0001B8190001B911B8
:101A4800D8A404D08C928A968A848A80040E0001D5
:101A5800B8190001B911D8A412008C828A968A9408
:101A68008A8012000600FACF11F0FBCF12F0E9CFFE
:101A780013F0EACF14F0E1CF15F0E2CF16F0D9CF8A
:101A880017F0DACF18F0F3CF19F0F4CF1AF0F6CF39
:101A98001BF0F7CF1CF0F8CF1DF0F5CF1EF0F29E2B
:101AA800F2A40ED0F2940001B44BB52BD59E170EBC
:101AB800D56E850ED76EAE0ED66ED5508009D56E12
:101AC8009EA0D7D09E905BC001F05CC002F0DEEC17
:101AD8000BF059C001F05AC002F013EC11F057C0D6
:101AE80001F058C002F055EC0FF0554A562A534AF7
:101AF800542A51505210D8A433D0000E0A6E020E48
:101B0800096E020E4924016E000E4A20026E49C079
:101B180003F04AC004F05FEC15F001C007F002C002
:101B280008F04DEC12F007C01FF008C020F0E00EDE
:101B38000F6E010E106E1FC001F020C002F0000EE3
:101B4800046E640E036E5FEC15F00F500126105002
:101B580002225350011804E154500218D8B437D067
:101B680051045210D8A441D0000E0A6E020E096E1C
:101B7800010E4924016E000E4A20026E49C003F08E
:101B88004AC004F05FEC15F001C007F002C008F08D
:101B98004DEC12F007C01FF008C020F0450E0F6E84
:101BA800010E106E1FC001F020C002F0000E046E7E
:101BB800640E036E5FEC15F00F50012610500222E0
:101BC8005350011812E154500218D8A40ED04F04F3
:101BD8005010D8A404D0000E506E020E03D0000E90
:101BE800506E010E4F6E494A4A2A000E0A6E020EC6
:101BF800096E010E4B24016E000E4C20026E4BC084
:101C080003F04CC004F05FEC15F001C007F002C00F
:101C180008F04DEC12F007C01FF008C020F0A40E29
:101C28000F6E010E106E1FC001F020C002F0000EF2
:101C3800046E640E036E5FEC15F00F500126105011
:101C480002225550011812E156500218D8A40ED09D
:101C58004D044E10D8A404D0000E4E6E020E03D0D0
:101C6800000E4E6E010E4D6E4B4A4C2ACD90BAECCA
:101C780015F01EC0F5FF1DC0F8FF1CC0F7FF1BC004
:101C8800F6FF1AC0F4FF19C0F3FF18C0DAFF17C037
:101C9800D9FF16C0E2FF15C0E1FF14C0EAFF13C068
:101CA800E9FF12C0FBFF11C0FAFF5F921100340E6A
:101CB800236EF20EE82EFED7232EFCD721502210D9
:101CC800D8A405D08D948D9289988C901200040E1A
:101CD80021182210D8B41200030E21182210D8A4FB
:101CE80042D0434A442A44BE0AD0445004E1090E73
:101CF800435CD8A004D0000E446E010E436E43042A
:101D08004410D8B405D0080E43184410D8A402D003
:101D18008D8401D08D94020E43184410D8B405D098
:101D2800070E43184410D8A402D08D8201D08D929A
:101D3800030E43184410D8B405D0060E43184410B7
:101D4800D8A402D0898801D08998040E4318441079
:101D5800D8B405D0050E43184410D8A402D08C80FE
:101D680012008C901200050E21182210D8A442D01F
:101D7800434A442A44BE0AD0445004E1090E435C55
:101D8800D8A004D0000E446E010E436E43044410E4
:101D9800D8B405D0080E43184410D8A402D08988B6
:101DA80001D08998020E43184410D8B405D0070E04
:101DB80043184410D8A402D08C8001D08C90030E14
:101DC80043184410D8B405D0060E43184410D8A4BC
:101DD80002D08D8401D08D94040E43184410D8B4D9
:101DE80005D0050E43184410D8A402D08D821200E5
:101DF8008D92120021042210D8A413D00001B64BF2
:101E0800B72B0001B7BF25D00001B75105E1050E7A
:101E18000001B65DD8A01DD0000E0001B76F010EFD
:101E280017D0020E21182210D8A413D00001B6072B
:101E3800D8A0B7070001B7BF07D00001B75109E123
:101E48000001B605D8B005D0000E0001B76F040E2A
:101E5800B66F0001B6050001B711D8A402D08D8471
:101E680001D08D94020E0001B6190001B711D8A453
:101E780002D08D8201D08D92030E0001B6190001A7
:101E8800B711D8A402D0898801D08998040E00011E
:101E9800B6190001B711D8A402D08C8012008C901A
:101EA8001200340E036EF20EE82EFED7032EFCD776
:101EB80001500210D8A405D08D948D9289988C90E9
:101EC8001200040E01180210D8B41200030E0118F3
:101ED8000210D8A442D0434A442A44BE0AD04450EF
:101EE80004E1090E435CD8A004D0000E446E010E34
:101EF800436E43044410D8B405D0080E4318441068
:101F0800D8A402D08D8401D08D94020E43184410B9
:101F1800D8B405D0070E43184410D8A402D08D8237
:101F280001D08D92030E43184410D8B405D0060E84
:101F380043184410D8A402D0898801D08998040E87
:101F480043184410D8B405D0050E43184410D8A43B
:101F580002D08C8012008C901200050E011802101D
:101F6800D8A442D0434A442A44BE0AD0445004E18B
:101F7800090E435CD8A004D0000E446E010E436ED7
:101F880043044410D8B405D0080E43184410D8A40C
:101F980002D0898801D08998020E43184410D8B419
:101FA80005D0070E43184410D8A402D08C8001D065
:101FB8008C90030E43184410D8B405D0060E43186D
:101FC8004410D8A402D08D8401D08D94040E4318F7
:101FD8004410D8B405D0050E43184410D8A402D034
:101FE8008D8212008D92120001040210D8A413D021
:101FF8000001B64BB72B0001B7BF25D00001B75180
:1020080005E1050E0001B65DD8A01DD0000E000147
:10201800B76F010E17D0020E01180210D8A413D002
:102028000001B607D8A0B7070001B7BF07D0000165
:10203800B75109E10001B605D8B005D0000E00017E
:10204800B76F040EB66F0001B6050001B711D8A42A
:1020580002D08D8401D08D94020E0001B6190001C2
:10206800B711D8A402D08D8201D08D92030E000141
:10207800B6190001B711D8A402D0898801D089986F
:10208800040E0001B6190001B711D8A402D08C8043
:1020980012008C901200CD90000E276E010E266E55
:1020A80027BE06D027500BE1140E265CD8B007D007
:1020B800000E226E010E216E86EC0AF031D027BE8A
:1020C80006D027500BE13C0E265CD8B007D0000E96
:1020D800226E020E216E86EC0AF022D027BE06D0B0
:1020E80027500BE18C0E265CD8B007D0000E226E6C
:1020F800010E216E86EC0AF013D027BE06D02750B9
:102108000BE1F00E265CD8B007D0000E226E020E4E
:10211800216E86EC0AF004D0000E276E010E266EA2
:10212800264A272A26042710D8A405D0000E256E93
:10213800000E246E04D0C3CF24F0C4CF25F0010EC6
:1021480072EC15F0C350245CC4502558D8A0A8D709
:10215800AA0EC35C030EC458D8A0A2D727BE06D0C7
:1021680027500BE1140E265CD8B007D0000E226E63
:10217800010E216E5BEC0EF031D027BE06D0275041
:102188000BE13C0E265CD8B007D0000E226E020E82
:10219800216E5BEC0EF022D027BE06D027500BE153
:1021A8008C0E265CD8B007D0000E226E010E216E70
:1021B8005BEC0EF013D027BE06D027500BE1F00ED3
:1021C800265CD8B007D0000E226E020E216E5BECA2
:1021D8000EF004D0000E276E010E266E264A272A1E
:1021E80026042710D8A405D0000E256E000E246EF4
:1021F80004D0C3CF24F0C4CF25F0050E72EC15F03F
:10220800C350245CC4502558D8A0A8D7AA0EC35CD4
:10221800030EC458D8A0A2D7B2EC15F01200340EA1
:10222800036EF20EE82EFED7032EFCD701500210E3
:10223800D8A405D08B9E8B9C8B908B9A1200040E91
:1022480001180210D8B41200030E01180210D8A405
:1022580042D0454A462A46BE0AD0465004E1090EF5
:10226800455CD8A004D0000E466E010E456E4504AC
:102278004610D8B405D0080E45184610D8A402D088
:102288008B8E01D08B9E020E45184610D8B405D00F
:10229800070E45184610D8A402D08B8C01D08B9C11
:1022A800030E45184610D8B405D0060E451846103A
:1022B800D8A402D08B8001D08B90040E451846100C
:1022C800D8B405D0050E45184610D8A402D08B8A7C
:1022D80012008B9A120001040210D8A40ED05D4A95
:1022E8005E2A5EBE1DD05E5004E1050E5D5CD8A07E
:1022F80017D0000E5E6E010E12D0020E01180210E9
:10230800D8A40ED05D06D8A05E065EBE05D05E508D
:1023180007E15D04D8B004D0000E5E6E040E5D6E59
:102328005D045E10D8A402D08B8E01D08B9E020E65
:102338005D185E10D8A402D08B8C01D08B9C030E44
:102348005D185E10D8A402D08B8001D08B90040E4B
:102358005D185E10D8A402D08B8A12008B9A1200E6
:10236800FF0E3B6EFF0E3C6E000E12EC15F03D6E3C
:102378003B503D243E6E000E3DBEFF0E3C203F6E9E
:102388003FBE05D03F5007E13E04D8B004D0000E50
:102398003F6E040E3E6E3EC021F0000EF6EC14F0C7
:1023A80025C021F03EC03BF03B3AF00E3B163B28DF
:1023B800F6EC14F027C021F03EC03BF03B3AF00E9B
:1023C8003B163B50020FF6EC14F029C021F03EC03A
:1023D8003BF03B3AF00E3B163B50030FF6EC14F083
:1023E8002BC021F03EC03BF03B3AF00E3B163B5071
:1023F800040FF6EC14F02DC021F03EC03BF03B3A40
:10240800F00E3B163B50050FF6EC14F02FC021F0F0
:102418003EC03BF03B3AF00E3B163B50060FF6EC45
:1024280014F031C021F03EC03BF03B3AF00E3B16B1
:102438003B50070FF6EC14F033C021F03EC03BF0E0
:102448003B3AF00E3B163B50080FF6EC14F035C043
:1024580021F03EC03BF03B3AF00E3B163B50090FD3
:10246800F6EC14F037C021F03EC03BF03B3AF00EDA
:102478003B163B500A0FF6EC14F039C021F03EC071
:102488003BF03B3AF00E3B163B500B0FF6EC14F0CA
:102498001200000E0C6E0AAE06D0096C0A1ED8B0E7
:1024A8000A2A010E0C6E08AE06D0076C081ED8B0BA
:1024B800082A010E0C1A000E0E6E000E0D6E095041
:1024C8000A10D8B41CD0010E0B6E04D0D89009366F
:1024D8000A360B2A0AAEFAD7D8900D360E360950AE
:1024E800075C0A500858D8A005D00950075E0A5062
:1024F800085A0D80D8900A3209320B2EEDD70C50AD
:10250800D8B404D00D6C0E1ED8B00E2A0DC007F03A
:102518000EC008F01200000E296E000E2A6E000E82
:102528002B6E000E2C6E2550261027102810D8B4BC
:102538002AD0010E2D6E06D0D8902536263627369D
:1025480028362D2A28AEF8D7D89029362A362B36A1
:102558002C362550215C26502258275023582850C5
:102568002458D8A009D02550215E2650225A275039
:10257800235A2850245A2980D890283227322632C4
:1025880025322D2EE1D729C021F02AC022F02BC0F8
:1025980023F02CC024F01200F00ED36E9B8C2F0E6B
:1025A800926EF20E936E000E946E000E956E010EF2
:1025B800966ECB680C0EBD6E000EBE6E0C0EBA6E1B
:1025C800000EBB6E050ECA6E000E896E000E8A6E76
:1025D800000E8B6E000E8C6E000E8D6EB2EC14F039
:1025E800000E2E6E7D0E2F6E000E306E000E316EB8
:1025F800E5EC13F0F19E090EC16E890EC06E000E57
:10260800B56EB496C08EF28A9D80F28CF28E12005E
:1026180021C025F0010E2516253ABA502518EF0BD2
:102628002518BA6E22342230266E2130256E010E0E
:102638002516253A2546BA502518DF0B2518BA6EF7
:1026480021C025F022C026F0263426322532263431
:10265800263225322550BB6E899C899E030E266E34
:10266800080E256E770EE82EFED7252EFCD7262ECF
:10267800FAD700F023042410D8A403D0898C899EAB
:102688001200899C898E1200000E266E22AE06D09A
:10269800216C221ED8B0222A010E266E24AE04D048
:1026A800236C241ED8B0242A23502410D8B418D060
:1026B800010E256E04D0D89023362436252A24AE60
:1026C800FAD72350215C24502258D8A004D0235094
:1026D800215E2450225AD89024322332252EF1D755
:1026E8002650D8B404D0216C221ED8B0222A21C08A
:1026F80021F022C022F01200E1EC15F0000E236E4A
:10270800D00E226ECEEC15F0000E236E000E226E57
:10271800CEEC15F0DDEC15F0E1EC15F0000E236EB3
:10272800D10E226ECEEC15F0000E246E050E246438
:1027380001D00ED02450010DA70EF324D96E000E3F
:10274800F420DA6E010E39EC15F0DF6E242AEED78C
:10275800000E39EC15F00001AD6FDDEC15F012003C
:10276800800EC8EC15F0E60E2D6EFE0E2E6EADC076
:102778002FF0306AACC031F0326AABC033F0346A43
:1027880000EC09F0EF0E2D6EFF0E2E6E00EC09F036
:10279800C00EC8EC15F05C0E2D6EFE0E2E6EA9C094
:1027A8002FF0306AA8C031F0326AA7C033F0346A1B
:1027B80000EC09F0E70E2D6EFF0E2E6E00EC09F00E
:1027C8001200000EC76E280EC66E000EC56E000EF3
:1027D800216E480E226EE80E236E010E246E2EC066
:1027E80032F02FC033F030C034F031C035F0020E73
:1027F800D8903236333634363536E82EF9D732C0EB
:1028080025F033C026F034C027F035C028F08FEC0F
:1028180012F02104C86E948694881200226E225009
:10282800F00B216E8C500F0B8C6E21508C108C6E1F
:102838008C96420EE82EFED700D08C86420EE82EEB
:10284800FED700D02238F00B226E2250F00B216EFA
:102858008C500F0B8C6E21508C108C6E8C96420E07
:10286800E82EFED700D08C86420EE82EFED700D088
:102878001200000E276E000E266E23502410D8B4C6
:102888001CD0010E256E04D0D89023362436252A74
:1028980024AEFAD7D890263627362350215C245008
:1028A8002258D8A005D02350215E2450225A2680D1
:1028B800D89024322332252EEDD726C021F027C008
:1028C80022F0120021C023F0010E2316233ABA5039
:1028D8002318EF0B2318BA6E22342230246E2130CD
:1028E800236E010E2316233A2346BA502318DF0B12
:1028F8002318BA6E21C023F022C024F024342432D5
:1029080023322434243223322350BB6E898C899E8F
:10291800120021C023F0010E2316233ABD502318BC
:10292800EF0B2318BD6E22342230246E2130236E23
:10293800010E2316233A2346BD502318DF0B231814
:10294800BD6E21C023F022C024F024342432233267
:102958002434243223322350BE6E12009C0E246E7F
:10296800D70EE82EFED7242EFCD700F0330EC8EC85
:1029780015F0320EC8EC15F0280EC8EC15F00F0E45
:10298800C8EC15F0060EC8EC15F0010EC8EC15F0F1
:102998009C0E246ED70EE82EFED7242EFCD700F00E
:1029A80012002A502B10D8B418D0010E2C6E04D067
:1029B800D8902A362B362C2A2BAEFAD72A50285CE8
:1029C8002B502958D8A004D02A50285E2B50295AB9
:1029D800D8902B322A322C2EF1D728C028F029C0C3
:1029E80029F01200246E24C022F0080E236E22342F
:1029F8002232232EFCD72250AA6E24C0A9FF21C060
:102A0800A8FFA69EA69CA684550EA76EAA0EA76E22
:102A1800A682A1A8FED7A198A6941200236E23C06F
:102A280021F0080E226E21342132222EFCD72150AB
:102A3800AA6E23C0A9FFA69EA69CA680A6B0FED714
:102A4800A850120000EEA7F0140EEE6AE806FDE1A9
:102A580000EE43F01C0EEE6AE806FDE15F905F921F
:102A6800000EF86E000109EF00F0226EA9EC15F0D7
:102A7800C586A9EC15F0C9CF23F0A9EC15F02250B2
:102A8800D8A402D0C58A01D0C59AC588235012009F
:102A980021502302F3CF25F0F4CF26F02150240251
:102AA800F350262622502302F350262625C021F073
:102AB80026C022F0120001500302F3CF05F0F4CF34
:102AC80006F001500402F350062602500302F350A8
:102AD800062605C001F006C002F01200226E22444C
:102AE800E846FC0BC26EC280C28207D0340E216E4B
:102AF800F20EE82EFED7212EFCD7C2A21200F6D77E
:102B0800236E000E226E3A0E236005D02F0E23642A
:102B180002D0010E226E22C021F02130120081A2C3
:102B280007D081380F0B0F0B0001BA6F81B2FED7A7
:102B380000F0120081A2FED781380F0B0F0B0001A5
:102B4800BA6F81B2FED700F01200C7B4FED7C5CF66
:102B580021F01F0E2116D8B41200F7D7B00ECD6E93
:102B6800D90ECF6E5B0ECE6ECD801200B00ECD6E3C
:102B7800D90ECF6E5B0ECE6ECD801200236E8C8484
:102B8800235012EC14F01200236E8C94235012EC94
:102B980014F01200A9EC15F022C0C9FF1200BA986F
:102BA800BA9A000EBB6E1200BD98BD9A000EBE6E9A
:102BB8001200A9EC15F0C5841200A9EC15F0C58027
:022BC8001200F9
:10FE2A00003132334134353642373839432A3023A8
:10FE3A00440001000A006400E803102701001000D2
:10FE4A000001001030030104120417537461727424
:10FE5A003A20253032783A253032783A25303278CD
:10FE6A0000446174653A20253032782F2530327883
:10FE7A002F2530327800303132333435363738393D
:10FE8A0061626364656600536F646120772F6F2037
:10FE9A007461623A20256400536F757020772F6F62
:10FEAA00206C626C3A2025640052756E232564200A
:10FEBA00202020413A4E6578740074657374696E27
:10FECA00672050574D3220434357005669657720C3
:10FEDA004C6F67733F20423A596573002530327878
:10FEEA002F253032782F253032782000536F646105
:10FEFA0020772F207461623A20256400536F757051
:10FF0A0020772F206C626C3A20256400536F72743C
:10FF1A00696E672063616E732E2E2E00746573748A
:10FF2A00696E672050574D322043570074657374C9
:10FF3A00696E672053207368616B6500536F727432
:10FF4A0020646F6E652120413A4E6F00416E792020
:10FF5A006B657920746F2073746F700074657374A5
:10FF6A00696E672053312070696E7300746573740B
:10FF7A00696E672053322070696E730074657374FA
:10FF8A00696E672053332070696E730074657374E9
:10FF9A00696E672050574D310052756E74696D65F0
:10FFAA003A2025640074657374696E672053206271
:10FFBA00006C6162656C2020207461620074657354
:10FFCA0074696E67205320660074657374696E677E
:10FFDA002049520025782020202020200020413A64
:10FFEA004C6F677300333A5374617274002578203A
:05FFFA00002578000065
:020000040020DA
:08000000FFFFFFFFFFFFFFFF00
:020000040030CA
:0E000000FF081F1EFF8381FF0FC00FE00F409F
:00000001FF
