:04000000A8EF0EF067
:10100000003132334134353642373839432A3023C0
:10101000440001000A006400E803102701001000EA
:10102000000100103026130401031746696E69732E
:1010300068656420736F7274696E672120003031B7
:10104000323334353637383961626364656600257A
:101050003032782F253032782F2530327820002317
:1010600020736F64612063616E733A2025640052BF
:10107000756E233120202020413A4E65787400534C
:101080006F7274696E672063616E732E2E2E00413D
:101090006E79206B657920746F2073746F700023F4
:1010A00020736F75702063616E733A2034002530B1
:1010B00032783A253032783A253032780023206F62
:1010C000662063616E733A2025640020323A4C6FCB
:1010D000677300333A537461727400000F0E1A6E16
:1010E000000E1B6E74D1250E2218D8B404D02250E5
:1010F000D0EC0EF06CD1000E216E000E206E000EB2
:101100001F6E03D01F840D4A0E2A0DC0F6FF0EC0BD
:10111000F7FF0800F550300AD8B4F4D70DC0F6FF39
:101120000EC0F7FF0800F55099EC0EF0D8A035D0AE
:10113000000E216E000E206E20C001F021C002F0D2
:10114000000E046E0A0E036E74EC0EF001C020F067
:1011500002C021F0D00E156EFF0E166E0DC0F6FF08
:101160000EC0F7FF0800F550176E186A15501726C5
:101170001650182217502026185021220D4A0E2AE8
:101180000DC0F6FF0EC0F7FF0800F55099EC0EF009
:10119000D8A003D0D1D71F8E17D00DC0F6FF0EC038
:1011A000F7FF0D4A0E2A0800F5CF22F02250000A60
:1011B000D8B41200640AD8B407D00D0AD8B404D049
:1011C000110AD8B4E8D703D11FBE15D01AC0D9FF71
:1011D0001BC0DAFFDECF1DF0DDCF1EF0020E1A2697
:1011E000000E1B221EAE44D0030E1F121D6C1E1ECD
:1011F000D8B01E2A3DD01AC0D9FF1BC0DAFFDECFFF
:101200001DF0DDCF1EF0020E1A26000E1B2230D07C
:10121000010E226E050E2218D8B432D02250020DD3
:10122000120EF324F66E100EF420F76E0900F5503E
:101230001D5C0900F5501E58D8A022D0222AEAD7FA
:10124000010E226E040E2218D8B41AD02250020DBC
:101250001C0EF324F66E100EF420F76E0900F55004
:101260001D5C0900F5501E58D8A00AD0222AEAD7E2
:101270001F50800B000AD8B4CBD7800AD8B4E0D76F
:1012800020502110D8B409D01FC015F0030E151638
:10129000D8B403D02006D8A02106800E22BE7F0E2F
:1012A000156E2050225C2150800A1558D8B007D006
:1012B0002250205E000E22BEFF0E215A04D0000EE6
:1012C000216E000E206E1FA414D01FC015F0030E57
:1012D0001516D8B403D02D0ED0EC0EF020502110EE
:1012E000D8B41ED0300ED0EC0EF02006D8A02106C7
:1012F000F5D720502110D8B40AD0200ED0EC0EF033
:101300002006D8A0210620502110D8A4F6D71FC04F
:1013100015F0030E1516D8B403D02D0ED0EC0EF038
:1013200022C01CF050D01C50020D120EF324F66E99
:10133000100EF420F76E0900F5CF03F00A00F5CF88
:1013400004F01DC001F01EC002F05FEC0DF001C002
:1013500008F002C009F0000E0B6E0A0E0A6EF5ECE2
:101360000DF00850300F226E2BD01DC001F01EC0B2
:1013700002F01C50020D1C0EF324F66E100EF42029
:10138000F76E0900F5CF03F00A00F5CF04F05FEC2B
:101390000DF001500F0B196E1950010D3E0EF32484
:1013A000F66E100EF420F76E0800F5CF22F008D08C
:1013B0001F50800B000AD8B4B6D7800AD8B4D5D74E
:1013C0002250D0EC0EF01C061C28D8A4F1D70DC07A
:1013D000F6FF0EC0F7FF0D4A0E2A0800F5CF22F0E7
:1013E0002250D8B412007FD62AEC0CF0000E336ED7
:1013F000010E326E000E276E000E266E000E356E48
:10140000000E346E000E316E000E306E000E296E2E
:10141000010E286E000E2B6E010E2A6E680E246ED1
:10142000E40EE82EFED7242EFCD700D0A3EC0CF05F
:101430009BEC0BF032503310D8B455D0000E436EF5
:10144000D6EC0CF0B3EC0EF0020E4318D8A445D045
:10145000000E336E000E326E010ED6EC0EF0680EEA
:10146000246EE40EE82EFED7242EFCD700D07F0E8B
:101470000D6E100E0E6E6EEC08F0C00ED6EC0EF077
:101480008F0E0D6E100E0E6E6EEC08F0000E026EDA
:10149000640E016EADEC0DF0000E356E010E346E73
:1014A00038C001F0026A0E0E046E100E036E74EC6A
:1014B0000EF037503C0D3650246E256AF35024262A
:1014C000F4502522015024242E6E025025202F6E28
:1014D0002EC02CF02FC02DF0A9D74304D8A4A6D736
:1014E00038EC0BF0A3D7000E436EB3EC0EF0435074
:1014F000D8B404D0000E336E010E326E020E87ECAB
:101500000EF030C007F031C008F034C009F035C02B
:101510000AF067EC0CF03450071A3550081A0750DF
:101520000810D8B433D030C007F031C008F034C050
:1015300009F035C00AF067EC0CF007C034F008C0C1
:1015400035F034503510D8B407D0010E026EF40EC9
:10155000016EADEC0DF01AD0E1EC0EF038C001F0E8
:10156000026A0E0E046E100E036E74EC0EF037500D
:101570003C0D3650246E256AF3502426F450252263
:1015800001502424306E02502520316E2CC007F00B
:101590002DC008F088EC0DF008BE36D0085004E1EC
:1015A0000B0E075CD8A030D0030E87EC0EF0C4CF32
:1015B00028F0296A040E87EC0EF0C4CF2AF02B6ABB
:1015C00028502910D8A408D02A502B10D8A404D011
:1015D000000E336E010E326E38C001F0026A0E0E3C
:1015E000046E100E036E74EC0EF037503C0D365046
:1015F000246E256AF3502426F45025220150242419
:101600002C6E025025202D6E32503310D8B40ED7D8
:10161000010ED6EC0EF0680E246EE40EE82EFED716
:10162000242EFCD700D02B0E0D6E100E0E6E6EEC1D
:1016300008F0150E256E4B0E246EBE0EE82EFED75A
:10164000242EFCD7252EFAD700D0E1EC0EF0000EA8
:10165000356E000E346E2EC007F02FC008F088ECF7
:101660000DF007C00DF008C00EF032EC0EF0DED623
:10167000010ED6EC0EF0680E236EE40EE82EFED7B7
:10168000232EFCD700D06F0E0D6E100E0E6E6EEC7A
:1016900008F0C00ED6EC0EF0BD0E0D6E100E0E6EE4
:1016A0000A0E4DEC0EF00F6E106A0FBE10066EECB7
:1016B00008F0BDEC0EF0010ED6EC0EF0680E236EB5
:1016C000E40EE82EFED7232EFCD700D06F0E0D6E51
:1016D000100E0E6E6EEC08F0C00ED6EC0EF05F0E23
:1016E0000D6E100E0E6E140E4DEC0EF00F6E106A95
:1016F0000FBE10066EEC08F0BDEC0EF0010ED6EC3D
:101700000EF0680E236EE40EE82EFED7232EFCD7D3
:1017100000D06F0E0D6E100E0E6E6EEC08F0C00E47
:10172000D6EC0EF09F0E0D6E100E0E6E6EEC08F0E5
:10173000BDEC0EF01200D650016E026A01503F5C03
:101740004050800A036E0250800A0358D8B00ED071
:101750003FC001F040C002F0011E021E014A022AF1
:10176000D65001243D6E000E022014D03FC001F07F
:1017700040C002F0011E021E014A022AD650036E2A
:10178000046A0150032602500422FF0E03243D6E1A
:10179000000E04203E6E3EBE0FD03E5004E1330EDC
:1017A0003D5CD8A009D0414A422A000E3E6E000E90
:1017B0003D6ED6CF3FF0406A42BE1200425004E177
:1017C000050E415CD8A01200000E426E010E416E63
:1017D0001200000E096E000E0A6E000E0B6E000E57
:1017E0000C6E0550061007100810D8B42AD0010E50
:1017F0000D6E06D0D89005360636073608360D2A07
:1018000008AEF8D7D89009360A360B360C36055094
:10181000015C065002580750035808500458D8A0DD
:1018200009D00550015E0650025A0750035A08506D
:10183000045A0980D89008320732063205320D2E3C
:10184000E1D709C001F00AC002F00BC003F00CC0E0
:1018500004F01200F20ED36E9B8CCF0E926EF20E3D
:10186000936E1C0E946E000E956E000E966ECB68F5
:101870000C0EBD6E000EBE6E050ECA6E550E896E44
:10188000550E8A6E550E8B6E000E8C6E000E8D6E90
:101890008C808C928D808D92000EC26EC168D2ECCD
:1018A0000DF0100E0E6E270E0F6E000E106E000E55
:1018B000116E07EC0DF0F19E010EC26E090EC16EA5
:1018C000000EB56EB496C08EDA0ED56E1200C450FE
:1018D000D8A405D0000E086E010E076E120007C0D6
:1018E0000BF008C00CF00B1E0C1E0B4A0C2A38C063
:1018F00001F0026A0E0E046E100E036E74EC0EF010
:1019000037503C0D36500D6E0E6AF3500D26F450D4
:101910000E2201500D2602500E220B500D260C50A7
:101920000E220EBE0BD00E5004E1040E0D5CD8A0AA
:1019300005D0000E086E010E076E1200000E086E34
:10194000000E076E1200EAEC0EF0000E036ED00ED1
:10195000026EDCEC0EF0000E036E000E026EDCEC8C
:101960000EF0E6EC0EF0EAEC0EF0000E036ED10E77
:10197000026EDCEC0EF0000E046E050E046401D065
:101980000ED00450010D360EF324D96E000EF42053
:10199000DA6E010E61EC0EF0DF6E042AEED7000E57
:1019A00061EC0EF03C6EE6EC0EF01200800ED6EC10
:1019B0000EF04F0E0D6E100E0E6E3CC00FF0106A42
:1019C0003BC011F0126A3AC013F0146A6EEC08F0D2
:1019D000D30E0D6E100E0E6E6EEC08F0C00ED6EC2F
:1019E0000EF0AE0E0D6E100E0E6E38C00FF0106AB7
:1019F00037C011F0126A36C013F0146A6EEC08F0AA
:101A0000CB0E0D6E100E0E6E6EEC08F01200000E76
:101A1000C76E280EC66E000EC56E000E016E480E13
:101A2000026EE80E036E010E046E0EC012F00FC0BF
:101A300013F010C014F011C015F0020ED890123639
:101A4000133614361536E82EF9D712C005F013C038
:101A500006F014C007F015C008F0E9EC0BF0010423
:101A6000C86E948694881200026E0250F00B016ECC
:101A70008C500F0B8C6E01508C108C6E8C96420E1D
:101A8000E82EFED700D08C86420EE82EFED700D07E
:101A90000238F00B026E0250F00B016E8C500F0BEF
:101AA0008C6E01508C108C6E8C96420EE82EFED7F8
:101AB00000D08C86420EE82EFED700D01200000E19
:101AC000066E000E056E03500410D8B41CD0010E33
:101AD000076E04D0D89003360436072A04AEFAD72E
:101AE000D890053606360350015C04500258D8A041
:101AF00005D00350015E0450025A0580D89004328C
:101B00000332072EEDD705C001F006C002F0120027
:101B100007C009F008C00AF0091E0A1E094A0A2A6D
:101B200038C001F0026A0E0E046E100E036E74ECE3
:101B30000EF037503C0D36500B6E0C6AF3500B26EE
:101B4000F4500C2201500B2602500C2209500B2499
:101B5000076E0A500C20086E120001C003F0010E3F
:101B60000316033ABD500318EF0B0318BD6E023481
:101B70000230046E0130036E010E0316033A034671
:101B8000BD500318DF0B0318BD6E01C003F002C087
:101B900004F00434043203320434043203320350B8
:101BA000BE6E12009C0E046ED70EE82EFED7042ED9
:101BB000FCD700F0330ED6EC0EF0320ED6EC0EF061
:101BC000280ED6EC0EF00F0ED6EC0EF0060ED6EC6C
:101BD0000EF0010ED6EC0EF09C0E046ED70EE82E21
:101BE000FED7042EFCD700F012000A500B10D8B418
:101BF00018D0010E0C6E04D0D8900A360B360C2A81
:101C00000BAEFAD70A50085C0B500958D8A004D084
:101C10000A50085E0B50095AD8900B320A320C2E2B
:101C2000F1D708C008F009C009F01200076E07C01C
:101C300005F0080E066E05340532062EFCD7055059
:101C4000AA6E07C0A9FF04C0A8FFA69EA69CA684F2
:101C5000550EA76EAA0EA76EA682A1A8FED7A198C0
:101C6000A69412001E0E4DEC0EF0046E280E16EC1B
:101C70000EF0140E4DEC0EF0046E1E0E16EC0EF06F
:101C80000A0E4DEC0EF0046E140E16EC0EF00DC0A4
:101C900004F00A0E16EC0EF01200036E03C001F001
:101CA000080E026E01340132022EFCD70150AA6EDA
:101CB00003C0A9FFA69EA69CA680A6B0FED7A850EA
:101CC0001200026EC7EC0EF0C586C7EC0EF0C9CF4D
:101CD00003F0C7EC0EF00250D8A402D0C58A01D0A0
:101CE000C59AC5880350120001500302F3CF05F0D6
:101CF000F4CF06F001500402F3500626025003020E
:101D0000F350062605C001F006C002F01200026E74
:101D10000244E846FC0BC26EC280C28207D0340E79
:101D2000016EF20EE82EFED7012EFCD7C2A21200E1
:101D3000F6D7036E000E026E3A0E036005D02F0E2A
:101D4000036402D0010E026E02C001F001301200E5
:101D500000EE36F00E0EEE6AE806FDE1000EF86EBB
:101D60000001F4EF09F081A206D081380F0B0F0BB0
:101D7000436E81B2FED700F0120081A2FED78138F7
:101D80000F0B0F0B436E81B2FED700F01200C7B4E9
:101D9000FED7C5CF01F01F0E0116D8B41200F7D739
:101DA000036E8C84035034EC0DF01200036E8C949F
:101DB000035034EC0DF01200C7EC0EF002C0C9FF66
:101DC0001200BD98BD9A000EBE6E1200C7EC0EF058
:0C1DD000C5841200C7EC0EF0C5801200A4
:020000040020DA
:08000000FFFFFFFFFFFFFFFF00
:020000040030CA
:0E000000FF021F1EFF8381FF0FC00FE00F40A5
:00000001FF
