:040000005EEF0EF0B1
:10100000003132334134353642373839432A3023C0
:10101000440001000A006400E803102701001000EA
:10102000000100103026130401031746696E69732E
:1010300068656420736F7274696E672120003031B7
:10104000323334353637383961626364656600257A
:101050003032782F253032782F2530327820002317
:1010600020736F64612063616E733A2025640052BF
:10107000756E233120202020413A4E65787400534C
:101080006F7274696E672063616E732E2E2E00413D
:101090006E79206B657920746F2073746F700023F4
:1010A00020736F75702063616E733A2034002530B1
:1010B00032783A253032783A253032780023206F62
:1010C000662063616E733A2025640020323A4C6FCB
:1010D000677300333A53746172740061736466001D
:0110E000000F
:1010E2000F0E1A6E000E1B6E74D1250E2218D8B484
:1010F20004D0225086EC0EF06CD1000E216E000E50
:10110200206E000E1F6E03D01F840D4A0E2A0DC0E2
:10111200F6FF0EC0F7FF0800F550300AD8B4F4D736
:101122000DC0F6FF0EC0F7FF0800F5504FEC0EF0B1
:10113200D8A035D0000E216E000E206E20C001F026
:1011420021C002F0000E046E0A0E036E2BEC0EF0AC
:1011520001C020F002C021F0D00E156EFF0E166EF7
:101162000DC0F6FF0EC0F7FF0800F550176E186AA3
:1011720015501726165018221750202618502122D3
:101182000D4A0E2A0DC0F6FF0EC0F7FF0800F550FB
:101192004FEC0EF0D8A003D0D1D71F8E17D00DC0C0
:1011A200F6FF0EC0F7FF0D4A0E2A0800F5CF22F017
:1011B2002250000AD8B41200640AD8B407D00D0A2B
:1011C200D8B404D0110AD8B4E8D703D11FBE15D0C1
:1011D2001AC0D9FF1BC0DAFFDECF1DF0DDCF1EF033
:1011E200020E1A26000E1B221EAE44D0030E1F1240
:1011F2001D6C1E1ED8B01E2A3DD01AC0D9FF1BC0BE
:10120200DAFFDECF1DF0DDCF1EF0020E1A26000E31
:101212001B2230D0010E226E050E2218D8B432D015
:101222002250020D120EF324F66E100EF420F76E09
:101232000900F5501D5C0900F5501E58D8A022D0B7
:10124200222AEAD7010E226E040E2218D8B41AD02E
:101252002250020D1C0EF324F66E100EF420F76ECF
:101262000900F5501D5C0900F5501E58D8A00AD09F
:10127200222AEAD71F50800B000AD8B4CBD7800AA3
:10128200D8B4E0D720502110D8B409D01FC015F02F
:10129200030E1516D8B403D02006D8A02106800E5E
:1012A20022BE7F0E156E2050225C2150800A1558F6
:1012B200D8B007D02250205E000E22BEFF0E215A67
:1012C20004D0000E216E000E206E1FA414D01FC089
:1012D20015F0030E1516D8B403D02D0E86EC0EF0C1
:1012E20020502110D8B41ED0300E86EC0EF020060D
:1012F200D8A02106F5D720502110D8B40AD0200E4C
:1013020086EC0EF02006D8A0210620502110D8A489
:10131200F6D71FC015F0030E1516D8B403D02D0E44
:1013220086EC0EF022C01CF050D01C50020D120EA2
:10133200F324F66E100EF420F76E0900F5CF03F0D9
:101342000A00F5CF04F01DC001F01EC002F016EC39
:101352000DF001C008F002C009F0000E0B6E0A0E7B
:101362000A6EACEC0DF00850300F226E2BD01DC06F
:1013720001F01EC002F01C50020D1C0EF324F66E8A
:10138200100EF420F76E0900F5CF03F00A00F5CF36
:1013920004F016EC0DF001500F0B196E1950010DEF
:1013A2003E0EF324F66E100EF420F76E0800F5CF11
:1013B20022F008D01F50800B000AD8B4B6D7800A9A
:1013C200D8B4D5D7225086EC0EF01C061C28D8A41F
:1013D200F1D70DC0F6FF0EC0F7FF0D4A0E2A080026
:1013E200F5CF22F02250D8B412007FD61FEC0CF0B9
:1013F200000E336E010E326E000E276E000E266E48
:10140200000E356E000E346E000E316E000E306E20
:10141200000E296E010E286E000E2B6E010E2A6E32
:10142200680E246EE40EE82EFED7242EFCD700D0E0
:101432005AEC0CF032503310D8B45BD0000E3D6E33
:101442008DEC0CF069EC0EF0020E3D18D8A445D0DC
:10145200000E336E000E326E010E8CEC0EF0680E32
:10146200246EE40EE82EFED7242EFCD700D07F0E89
:101472000D6E100E0E6E71EC08F0C00E8CEC0EF0BC
:101482008F0E0D6E100E0E6E71EC08F0000E026ED5
:10149200640E016E64EC0DF0000E356E010E346EBA
:1014A20038C001F0026A0E0E046E100E036E2BECB1
:1014B2000EF037503C0D3650246E256AF350242628
:1014C200F4502522015024242E6E025025202F6E26
:1014D2002EC02CF02FC02DF0ABD73D04D8A4A8D736
:1014E200DB0E0D6E100E0E6E71EC08F03FEC0BF081
:1014F2009FD7000E3D6E69EC0EF03D50D8B404D07B
:10150200000E336E010E326E020E3EEC0EF030C053
:1015120007F031C008F034C009F035C00AF0E3EC3E
:101522000BF03450071A3550081A07500810D8B477
:1015320033D030C007F031C008F034C009F035C0F4
:101542000AF0E3EC0BF007C034F008C035F0345079
:101552003510D8B407D0010E026EF40E016E64ECA1
:101562000DF01AD097EC0EF038C001F0026A0E0EA0
:10157200046E100E036E2BEC0EF037503C0D3650FD
:10158200246E256AF3502426F45025220150242487
:10159200306E02502520316E2CC007F02DC008F0AD
:1015A2003FEC0DF008BE36D0085004E10B0E075C8C
:1015B200D8A030D0030E3EEC0EF0C4CF28F0296A3A
:1015C200040E3EEC0EF0C4CF2AF02B6A28502910EC
:1015D200D8A408D02A502B10D8A404D0000E336E01
:1015E200010E326E38C001F0026A0E0E046E100E49
:1015F200036E2BEC0EF037503C0D3650246E256AEC
:10160200F3502426F4502522015024242C6E02503B
:1016120025202D6E32503310D8B40AD7010E8CEC2F
:101622000EF0680E246EE40EE82EFED7242EFCD7B0
:1016320000D02B0E0D6E100E0E6E71EC08F0150E12
:10164200256E4B0E246EBE0EE82EFED7242EFCD73E
:10165200252EFAD700D097EC0EF0000E356E000E54
:10166200346E2EC007F02FC008F03FEC0DF007C01B
:101672000DF008C00EF0E9EC0DF0DAD6010E8CEC9C
:101682000EF0680E236EE40EE82EFED7232EFCD752
:1016920000D06F0E0D6E100E0E6E71EC08F0C00EC3
:1016A2008CEC0EF0BD0E0D6E100E0E6E0A0E04ECDA
:1016B2000EF00F6E106A0FBE100671EC08F073EC9C
:1016C2000EF0010E8CEC0EF0680E236EE40EE82E86
:1016D200FED7232EFCD700D06F0E0D6E100E0E6EAD
:1016E20071EC08F0C00E8CEC0EF05F0E0D6E100E59
:1016F2000E6E140E04EC0EF00F6E106A0FBE100682
:1017020071EC08F073EC0EF0010E8CEC0EF0680E2A
:10171200236EE40EE82EFED7232EFCD700D06F0EE8
:101722000D6E100E0E6E71EC08F0C00E8CEC0EF009
:101732009F0E0D6E100E0E6E71EC08F073EC0EF033
:101742001200000E096E000E0A6E000E0B6E000EE5
:101752000C6E0550061007100810D8B42AD0010EDE
:101762000D6E06D0D89005360636073608360D2A95
:1017720008AEF8D7D89009360A360B360C36055023
:10178200015C065002580750035808500458D8A06C
:1017920009D00550015E0650025A0750035A0850FC
:1017A200045A0980D89008320732063205320D2ECB
:1017B200E1D709C001F00AC002F00BC003F00CC06F
:1017C20004F01200C450D8A405D0000E086E010E19
:1017D200076E120007C00BF008C00CF00B1E0C1EA7
:1017E2000B4A0C2A38C001F0026A0E0E046E100E6B
:1017F200036E2BEC0EF037503C0D36500D6E0E6A18
:10180200F3500D26F4500E2201500D2602500E22E6
:101812000B500D260C500E220EBE0BD00E5004E1C2
:10182200040E0D5CD8A005D0000E086E010E076EE6
:101832001200000E086E000E076E1200F20ED36E3A
:101842009B8C000E926EF20E936E000E946E000E42
:10185200956E000E966ECB680C0EBD6E000EBE6EBF
:10186200050ECA6E550E896E550E8A6E550E8B6E1A
:10187200000E8C6E000E8D6E8C808C928D808D92FF
:10188200000EC26EC16889EC0DF0100E0E6E270EAE
:101892000F6E000E106E000E116EBEEC0CF0F19E7B
:1018A200010EC26E0B0EC16E000EB56EB496C08EE6
:1018B2001200A0EC0EF0000E036ED00E026E92EC3F
:1018C2000EF0000E036E000E026E92EC0EF09CEC17
:1018D2000EF0A0EC0EF0000E036ED10E026E92EC32
:1018E2000EF0000E046E050E046401D00ED00450FA
:1018F200010D360EF324D96E000EF420DA6E010EBD
:1019020018EC0EF0DF6E042AEED7000E18EC0EF083
:101912003C6E9CEC0EF01200800E8CEC0EF04F0E22
:101922000D6E100E0E6E3CC00FF0106A3BC011F02F
:10193200126A3AC013F0146A71EC08F0D30E0D6EFD
:10194200100E0E6E71EC08F0C00E8CEC0EF0AE0EA6
:101952000D6E100E0E6E38C00FF0106A37C011F007
:10196200126A36C013F0146A71EC08F0CB0E0D6ED9
:10197200100E0E6E71EC08F01200000EC76E280EEB
:10198200C66E000EC56E000E016E480E026EE80EA7
:10199200036E010E046E0EC012F00FC013F010C0E1
:1019A20014F011C015F0020ED89012361336143608
:1019B2001536E82EF9D712C005F013C006F014C090
:1019C20007F015C008F0A2EC0BF00104C86E948673
:1019D20094881200026E0250F00B016E8C500F0BB5
:1019E2008C6E01508C108C6E8C96420EE82EFED7B7
:1019F20000D08C86420EE82EFED700D00238F00BC3
:101A0200026E0250F00B016E8C500F0B8C6E015067
:101A12008C108C6E8C96420EE82EFED700D08C86EF
:101A2200420EE82EFED700D01200000E066E000E07
:101A3200056E03500410D8B41CD0010E076E04D0FA
:101A4200D89003360436072A04AEFAD7D890053662
:101A520006360350015C04500258D8A005D003504A
:101A6200015E0450025A0580D89004320332072ED8
:101A7200EDD705C001F006C002F0120007C009F060
:101A820008C00AF0091E0A1E094A0A2A38C001F0D3
:101A9200026A0E0E046E100E036E2BEC0EF037501F
:101AA2003C0D36500B6E0C6AF3500B26F4500C2290
:101AB20001500B2602500C2209500B24076E0A50CB
:101AC2000C20086E120001C003F0010E0316033A47
:101AD200BD500318EF0B0318BD6E02340230046EC2
:101AE2000130036E010E0316033A0346BD5003187C
:101AF200DF0B0318BD6E01C003F002C004F0043412
:101B0200043203320434043203320350BE6E120034
:101B12009C0E046ED70EE82EFED7042EFCD700F0E2
:101B2200330E8CEC0EF0320E8CEC0EF0280E8CEC98
:101B32000EF00F0E8CEC0EF0060E8CEC0EF0010E79
:101B42008CEC0EF09C0E046ED70EE82EFED7042EFF
:101B5200FCD700F012000A500B10D8B418D0010EB6
:101B62000C6E04D0D8900A360B360C2A0BAEFAD77C
:101B72000A50085C0B500958D8A004D00A50085EDD
:101B82000B50095AD8900B320A320C2EF1D708C0EA
:101B920008F009C009F01200076E07C005F0080E30
:101BA200066E05340532062EFCD70550AA6E07C014
:101BB200A9FF04C0A8FFA69EA69CA684550EA76EE8
:101BC200AA0EA76EA682A1A8FED7A198A69412007B
:101BD2001E0E04EC0EF0046E280ECDEC0DF0140E69
:101BE20004EC0EF0046E1E0ECDEC0DF00A0E04ECA9
:101BF2000EF0046E140ECDEC0DF00DC004F00A0EC2
:101C0200CDEC0DF01200036E03C001F0080E026E5F
:101C120001340132022EFCD70150AA6E03C0A9FF83
:101C2200A69EA69CA680A6B0FED7A8501200026E61
:101C32007DEC0EF0C5867DEC0EF0C9CF03F07DEC95
:101C42000EF00250D8A402D0C58A01D0C59AC58828
:101C52000350120001500302F3CF05F0F4CF06F057
:101C620001500402F350062602500302F3500626E6
:101C720005C001F006C002F01200026E0244E846FE
:101C8200FC0BC26EC28207D0340E016EF20EE82E39
:101C9200FED7012EFCD7C2A21200F6D7036E000EA9
:101CA200026E3A0E036005D02F0E036402D0010EBD
:101CB200026E02C001F00130120000EE36F0080E92
:101CC200EE6AE806FDE1000EF86E0001F7EF09F09A
:101CD20081A206D081380F0B0F0B3D6E81B2FED769
:101CE20000F0120081A2FED781380F0B0F0B3D6E60
:101CF20081B2FED700F01200C7B4FED7C5CF01F003
:101D02001F0E0116D8B41200F7D7036E8C8403504D
:101D1200EBEC0CF01200036E8C940350EBEC0CF025
:101D220012007DEC0EF002C0C9FF1200BD98BD9AF0
:101D3200000EBE6E12007DEC0EF0C58412007DEC2A
:061D42000EF0C580120046
:020000040020DA
:08000000FFFFFFFFFFFFFFFF00
:020000040030CA
:0E000000FF021F1EFF8381FF0FC00FE00F40A5
:00000001FF
