:0400000076EF78F02F
:10F06C0059EC78F0C580120059EC78F0C584120088
:10F07C00BD98BD9A000EBE6E1200BA98BA9A000ED8
:10F08C00BB6E120059EC78F002C0C9FF1200036E7F
:10F09C008C9403504FEC7AF01200036E8C84035066
:10F0AC004FEC7AF01200C7B4FED7C5CF01F01F0E9B
:10F0BC000116D8B41200F7D781A2FED781380F0BF6
:10F0CC000F0B436E81B2FED700F0120081A206D066
:10F0DC0081380F0B0F0B436E81B2FED700F012007C
:10F0EC0000EE36F00E0EEE6AE806FDE1000EF86E4C
:10F0FC000001BDEF7DF0036E000E026E3A0E036050
:10F10C0005D02F0E036402D0010E026E02C001F076
:10F11C0001301200026E0244E846FC0BC26EC28043
:10F12C00C28207D0340E016EF20EE82EFED7012EED
:10F13C00FCD7C2A21200F6D701500302F3CF05F0A0
:10F14C00F4CF06F001500402F350062602500302DD
:10F15C00F350062605C001F006C002F01200026E44
:10F16C0059EC78F0C58659EC78F0C9CF03F059EC1E
:10F17C0078F00250D8A402D0C58A01D0C59AC588AF
:10F18C0003501200036E03C001F0080E026E01342E
:10F19C000132022EFCD70150AA6E03C0A9FFA69E15
:10F1AC00A69CA680A6B0FED7A85012001E0EC8ECD6
:10F1BC0078F0046E280EF7EC78F0140EC8EC78F0AA
:10F1CC00046E1E0EF7EC78F00A0EC8EC78F0046EA4
:10F1DC00140EF7EC78F00DC004F00A0EF7EC78F092
:10F1EC001200076E07C005F0080E066E05340532D6
:10F1FC00062EFCD70550AA6E07C0A9FF04C0A8FFB5
:10F20C00A69EA69CA684550EA76EAA0EA76EA682D5
:10F21C00A1A8FED7A198A6941200040E4118421082
:10F22C00D8A402D08C8201D08C92030E41184210CB
:10F23C00D8A402D08A8601D08A96020E41184210B8
:10F24C00D8A402D08A8401D08A9441044210D8A454
:10F25C0002D08A8012008A90120041044210D8A475
:10F26C0002D08C8201D08C92020E41184210D8A48C
:10F27C0002D08A8601D08A96030E41184210D8A477
:10F28C0002D08A8401D08A94040E41184210D8A46A
:10F29C0002D08A8012008A901200040E411842108B
:10F2AC00D8A402D08C8201D08C92020E411842104C
:10F2BC00D8A402D08A8601D08A96030E4118421037
:10F2CC00D8A402D08A8401D08A9441044210D8A4D4
:10F2DC0002D08A8012008A9012000A500B10D8B407
:10F2EC0018D0010E0C6E04D0D8900A360B360C2AAE
:10F2FC000BAEFAD70A50085C0B500958D8A004D0B2
:10F30C000A50085E0B50095AD8900B320A320C2E58
:10F31C00F1D708C008F009C009F012009C0E046E69
:10F32C00D70EE82EFED7042EFCD700F0330E4DEC92
:10F33C0078F0320E4DEC78F0280E4DEC78F00F0E84
:10F34C004DEC78F0060E4DEC78F0010E4DEC78F0AB
:10F35C009C0E046ED70EE82EFED7042EFCD700F0C0
:10F36C00120001C003F0010E0316033ABD5003183E
:10F37C00EF0B0318BD6E02340230046E0130036EC5
:10F38C00010E0316033A0346BD500318DF0B031896
:10F39C00BD6E01C003F002C004F004340432033229
:10F3AC000434043203320350BE6E120001C003F069
:10F3BC00010E0316033ABA500318EF0B0318BA6E7A
:10F3CC0002340230046E0130036E010E0316033A50
:10F3DC000346BA500318DF0B0318BA6E01C003F0D2
:10F3EC0002C004F004340432033204340432033215
:10F3FC000350BB6E120007C009F008C00AF0091ECA
:10F40C000A1E094A0A2A38C001F0026A0E0E046E5E
:10F41C00100E036EA2EC78F037503C0D36500B6E8C
:10F42C000C6AF3500B26F4500C2201500B260250A0
:10F43C000C2209500B24076E0A500C20086E120087
:10F44C00000E066E000E056E03500410D8B41CD0CE
:10F45C00010E076E04D0D89003360436072A04AE8A
:10F46C00FAD7D890053606360350015C0450025882
:10F47C00D8A005D00350015E0450025A0580D890E4
:10F48C0004320332072EEDD705C001F006C002F09E
:10F49C001200026E0250F00B016E8C500F0B8C6E32
:10F4AC0001508C108C6E8C96420EE82EFED700D03C
:10F4BC008C86420EE82EFED700D00238F00B026E7E
:10F4CC000250F00B016E8C500F0B8C6E01508C1097
:10F4DC008C6E8C96420EE82EFED700D08C86420E97
:10F4EC00E82EFED700D01200000EC76E280EC66E96
:10F4FC00000EC56E000E016E480E026EE80E036E15
:10F50C00010E046E0EC012F00FC013F010C014F0F8
:10F51C0011C015F0020ED89012361336143615366B
:10F52C00E82EF9D712C005F013C006F014C007F08E
:10F53C0015C008F045EC7BF00104C86E94869488E5
:10F54C001200800E4DEC78F02F0E0D6EFF0E0E6E2D
:10F55C003CC00FF0106A3BC011F0126A3AC013F0B5
:10F56C00146A37EC7CF0F30E0D6EFF0E0E6E37EC5A
:10F57C007CF0C00E4DEC78F08E0E0D6EFF0E0E6E04
:10F58C0038C00FF0106A37C011F0126A36C013F091
:10F59C00146A37EC7CF0EB0E0D6EFF0E0E6E37EC32
:10F5AC007CF0120036EC78F0000E036ED00E026E7A
:10F5BC0048EC78F0000E036E000E026E48EC78F00A
:10F5CC003AEC78F036EC78F0000E036ED10E026E49
:10F5DC0048EC78F0000E046E050E046401D00ED0D9
:10F5EC000450010D360EF324D96E000EF420DA6EA1
:10F5FC00010EB5EC78F0DF6E042AEED7000EB5ECF8
:10F60C0078F03C6E3AEC78F01200F20ED36E9B8CD4
:10F61C00CF0E926EF20E936E180E946E000E956EC7
:10F62C00010E966ECB680C0EBD6E000EBE6E0C0EEF
:10F63C00BA6E000EBB6E050ECA6E000E896E000E01
:10F64C008A6E000E8B6E000E8C6E000E8D6E94EC1E
:10F65C0079F0100E0E6E270E0F6E000E106E000E4F
:10F66C00116E7AEC7AF0F19E010EC26E090EC16E2B
:10F67C00000EB56EB496C08EDA0ED56E1200000E6A
:10F68C00096E000E0A6E000E0B6E000E0C6E05500D
:10F69C00061007100810D8B42AD0010E0D6E06D033
:10F6AC00D89005360636073608360D2A08AEF8D738
:10F6BC00D89009360A360B360C360550015C0650CC
:10F6CC0002580750035808500458D8A009D00550C8
:10F6DC00015E0650025A0750035A0850045A09801A
:10F6EC00D89008320732063205320D2EE1D709C008
:10F6FC0001F00AC002F00BC003F00CC004F01200C1
:10F70C00D650016E026A01503F5C4050800A036E75
:10F71C000250800A0358D8B00ED03FC001F040C050
:10F72C0002F0011E021E014A022AD65001243D6E2F
:10F73C00000E022014D03FC001F040C002F0011EA8
:10F74C00021E014A022AD650036E046A0150032697
:10F75C0002500422FF0E03243D6E000E04203E6E68
:10F76C003EBE0FD03E5004E1330E3D5CD8A009D014
:10F77C00414A422A000E3E6E000E3D6ED6CF3FF03F
:10F78C00406A42BE1200425004E1050E415CD8A012
:10F79C001200000E426E010E416E1200010E4DEC75
:10F7AC0078F0680E236EE40EE82EFED7232EFCD7DD
:10F7BC0000D04F0E0D6EFF0E0E6E37EC7CF0C00EAF
:10F7CC004DEC78F09D0E0D6EFF0E0E6E0A0EC8EC11
:10F7DC0078F00F6E106A0FBE100637EC7CF062ECFE
:10F7EC0078F0010E4DEC78F0680E236EE40EE82EE6
:10F7FC00FED7232EFCD700D04F0E0D6EFF0E0E6ED3
:10F80C0037EC7CF0C00E4DEC78F03F0E0D6EFF0E19
:10F81C000E6E140EC8EC78F00F6E106A0FBE100648
:10F82C0037EC7CF062EC78F0010E4DEC78F0680E61
:10F83C00236EE40EE82EFED7232EFCD700D04F0EFD
:10F84C000D6EFF0E0E6E37EC7CF0C00E4DEC78F0AA
:10F85C007F0E0D6EFF0E0E6E37EC7CF062EC78F0C6
:10F86C0012000F0E1A6E000E1B6E74D1250E22188C
:10F87C00D8B404D0225053EC78F06CD1000E216E29
:10F88C00000E206E000E1F6E03D01F840D4A0E2A30
:10F89C000DC0F6FF0EC0F7FF0800F550300AD8B4C3
:10F8AC00F4D70DC0F6FF0EC0F7FF0800F55081EC41
:10F8BC0078F0D8A035D0000E216E000E206E20C03E
:10F8CC0001F021C002F0000E046E0A0E036EA2ECD1
:10F8DC0078F001C020F002C021F0D00E156EFF0EA2
:10F8EC00166E0DC0F6FF0EC0F7FF0800F550176E30
:10F8FC00186A155017261650182217502026185023
:10F90C0021220D4A0E2A0DC0F6FF0EC0F7FF08008B
:10F91C00F55081EC78F0D8A003D0D1D71F8E17D03A
:10F92C000DC0F6FF0EC0F7FF0D4A0E2A0800F5CFEA
:10F93C0022F02250000AD8B41200640AD8B407D0BE
:10F94C000D0AD8B404D0110AD8B4E8D703D11FBE1D
:10F95C0015D01AC0D9FF1BC0DAFFDECF1DF0DDCFEA
:10F96C001EF0020E1A26000E1B221EAE44D0030EF1
:10F97C001F121D6C1E1ED8B01E2A3DD01AC0D9FFF6
:10F98C001BC0DAFFDECF1DF0DDCF1EF0020E1A26F3
:10F99C00000E1B2230D0010E226E050E2218D8B498
:10F9AC0032D02250020DF20EF324F66EFE0EF4202D
:10F9BC00F76E0900F5501D5C0900F5501E58D8A0D3
:10F9CC0022D0222AEAD7010E226E040E2218D8B4B5
:10F9DC001AD02250020DFC0EF324F66EFE0EF4200B
:10F9EC00F76E0900F5501D5C0900F5501E58D8A0A3
:10F9FC000AD0222AEAD71F50800B000AD8B4CBD7E2
:10FA0C00800AD8B4E0D720502110D8B409D01FC038
:10FA1C0015F0030E1516D8B403D02006D8A0210675
:10FA2C00800E22BE7F0E156E2050225C2150800A63
:10FA3C001558D8B007D02250205E000E22BEFF0E03
:10FA4C00215A04D0000E216E000E206E1FA414D07B
:10FA5C001FC015F0030E1516D8B403D02D0E53ECA1
:10FA6C0078F020502110D8B41ED0300E53EC78F022
:10FA7C002006D8A02106F5D720502110D8B40AD0E2
:10FA8C00200E53EC78F02006D8A02106205021102F
:10FA9C00D8A4F6D71FC015F0030E1516D8B403D092
:10FAAC002D0E53EC78F022C01CF050D01C50020DDF
:10FABC00F20EF324F66EFE0EF420F76E0900F5CF6D
:10FACC0003F00A00F5CF04F01DC001F01EC002F0D7
:10FADC0026EC7AF001C008F002C009F0000E0B6EA3
:10FAEC000A0E0A6E73EC79F00850300F226E2BD090
:10FAFC001DC001F01EC002F01C50020DFC0EF324C0
:10FB0C00F66EFE0EF420F76E0900F5CF03F00A0036
:10FB1C00F5CF04F026EC7AF001500F0B196E19504A
:10FB2C00010D1E0EF324F66EFF0EF420F76E080086
:10FB3C00F5CF22F008D01F50800B000AD8B4B6D7EE
:10FB4C00800AD8B4D5D7225053EC78F01C061C2868
:10FB5C00D8A4F1D70DC0F6FF0EC0F7FF0D4A0E2A40
:10FB6C000800F5CF22F02250D8B412007FD60BEC4F
:10FB7C007BF0000E356E010E346E000E336E000EEF
:10FB8C00326E000E296E000E286E000E276E000ECF
:10FB9C00266E000E2B6E010E2A6E000E2D6E010EBF
:10FBAC002C6E680E246EE40EE82EFED7242EFCD7A5
:10FBBC0000D0D8EC7AF086EC7BF034043510D8A465
:10FBCC0062D0000E436EA7EC7AF06CEC78F0020E6B
:10FBDC004318D8A445D0000E356E000E346E010EBD
:10FBEC004DEC78F0680E246EE40EE82EFED7242E31
:10FBFC00FCD700D05F0E0D6EFF0E0E6E37EC7CF056
:10FC0C00C00E4DEC78F06F0E0D6EFF0E0E6E37ECD5
:10FC1C007CF0000E026E640E016EB7EC79F0000EF3
:10FC2C00296E010E286E38C001F0026A0E0E046EA9
:10FC3C00100E036EA2EC78F037503C0D3650246E4B
:10FC4C00256AF3502426F450252201502424306ECA
:10FC5C0002502520316E30C02EF031C02FF0A9D7C4
:10FC6C004304D8A403D0D4EC7BF0A3D70F0E4318D5
:10FC7C00D8A49FD7000E356E640E346E000E336E12
:10FC8C00010E326E96D7640E34183510D8A4A5D058
:10FC9C00010E4DEC78F0680E246EE40EE82EFED7C3
:10FCAC00242EFCD700D0000E436E32043310D8A49F
:10FCBC000BD0D20E0D6EFF0E0E6E37EC7CF033ECCB
:10FCCC0079F06CEC78F083D0020E32183310D8A493
:10FCDC000BD0C50E0D6EFF0E0E6E37EC7CF013ECD8
:10FCEC0079F06CEC78F073D053EC79F0010E4DECAC
:10FCFC0078F0680E246EE40EE82EFED7242EFCD786
:10FD0C0000D0B80E0D6EFF0E0E6E37EC7CF0010EAF
:10FD1C00026EF40E016EDCEC79F062EC78F043ECE0
:10FD2C0078F0010E4DEC78F0680E246EE40EE82E9F
:10FD3C00FED7242EFCD700D0AB0E0D6EFF0E0E6E30
:10FD4C0037EC7CF0010E026EF40E016EB7EC79F01C
:10FD5C0062EC78F03EEC78F0000E436E31D0000E81
:10FD6C00436E030E256E080E246E770EE82EFED71A
:10FD7C00242EFCD7252EFAD700F0010E4DEC78F08E
:10FD8C00680E246EE40EE82EFED7242EFCD700D08D
:10FD9C00DF0E0D6EFF0E0E6E37EC7CF0000E90EC4D
:10FDAC0078F0C00E4DEC78F0FB0E0D6EFF0E0E6E63
:10FDBC00C3CF0FF0C4CF10F037EC7CF06CEC78F0C4
:10FDCC004350D8B4CCD7000E356E010E346E435070
:10FDDC00D8B4EFD6324A332AECD6000E436E6CEC14
:10FDEC0078F04350D8B404D0000E356E010E346E4A
:10FDFC002EC007F02FC008F001EC7AF008BE36D008
:10FE0C00085004E10B0E075CD8A030D0020E90EC29
:10FE1C0078F0C4CF2AF02B6A050E90EC78F0C4CFA2
:10FE2C002CF02D6A2A502B10D8A408D02C502D1051
:10FE3C00D8A404D0000E356E010E346E38C001F01B
:10FE4C00026A0E0E046E100E036EA2EC78F03750A0
:10FE5C003C0D3650246E256AF3502426F45025228E
:10FE6C00015024242E6E025025202F6E3450351054
:10FE7C00D8B49FD6010E4DEC78F0680E246EE40ECB
:10FE8C00E82EFED7242EFCD700D00B0E0D6EFF0EE5
:10FE9C000E6E37EC7CF0150E256E4B0E246EBE0EDE
:10FEAC00E82EFED7242EFCD7252EFAD700D03EEC18
:10FEBC0078F0000E296E000E286E30C007F031C0AD
:10FECC0008F001EC7AF007C00DF008C00EF0DCEC85
:10FEDC0078F06FD600313233413435364237383909
:10FEEC00432A3023440001000A006400E803102771
:10FEFC000100100000010010302613040103174606
:10FF0C00696E697368656420736F7274696E6721BA
:10FF1C00200030313233343536373839616263641E
:10FF2C00656600253032782F253032782F25303217
:10FF3C007820002320736F64612063616E733A2014
:10FF4C0025640052756E233120202020413A4E65E5
:10FF5C00787400536F7274696E672063616E732ED0
:10FF6C002E2E00416E79206B657920746F2073748E
:10FF7C006F70002320736F75702063616E733A206D
:10FF8C003400253032783A253032783A25303278C0
:10FF9C000023206F662063616E733A202564007421
:10FFAC00657374696E672050574D310074657374B6
:10FFBC00696E672050574D320074657374696E67B3
:10FFCC0020533120620074657374696E672053315D
:10FFDC0020660074657374696E6720495231002085
:10FFEC00323A4C6F677300333A5374617274002564
:03FFFC007800008A
:020000040020DA
:08000000FFFFFFFFFFFFFFFF00
:020000040030CA
:0E000000FF021F1EFF8381FF0FC00FE00F40A5
:00000001FF
