:0400000007EF00F016
:100008005F82AEED0DF094EF15F0000E896E65EC91
:1000180013F0000E0001AE6F010EAD6F000E00016F
:10002800986F000E976F000E0001946F010E936F8A
:10003800000E0001966F010E956F170ED56E850E96
:10004800D76EAE0ED66ED58E20EC16F0680E000177
:10005800916FE40EE82EFED7912FFCD700F0000137
:10006800AD050001AE11D8A4F2D0000E0001C26F98
:1000780006D015EC14F049EC14F001EC16F0000170
:10008800C251D8B4F6D7020E0001C219D8A4B1D013
:10009800000E0001AE6F000EAD6F000E0001BD6FC7
:1000A800000EBC6F000E0001BB6F000EBA6F000E91
:1000B8000001A66F000EA56F000E546E000E536E61
:1000C800000E0001A86F000EA76F000E586E000EFC
:1000D800576E000E566E000E556E000E00019E6F94
:1000E800000E9D6F000E0001A06F000E9F6F000EA6
:1000F8000001A26F000EA16F000E0001A46F000E98
:10010800A36F000E0001AC6F000EAB6F000E000174
:10011800AA6F000EA96F010E36EC16F0340E00011E
:10012800916FF10EE82EFED7912FFCD700D0FE0E6E
:100138002D6EFE0E2E6E7CEC07F0C00E36EC16F01F
:100148003E0E2D6EFF0E2E6E7CEC07F004D0000ED6
:100158005C6E020E5B6E58BEFAD7585004E10C0E66
:10016800575CD8A0F4D7000E5C6E040E5B6EC7EC2B
:1001780010F0020E0001C0190001C111D8B407D057
:10018800030E0001C0190001C111D8A404D0000E4B
:100198005E6E030E03D0000E5E6E050E5D6E020EDF
:1001A8000001BE190001BF11D8B407D0030E000129
:1001B800BE190001BF11D8A404D0000E5A6E030E58
:1001C80003D0000E5A6E050E596E030E226E200ED5
:1001D800216E000E246E010E236EA1EC13F0010EA9
:1001E800226E900E216EFBEC14F0000E0001C26F1F
:1001F80036D7030E0001C219D8A419D0000E3A6EE2
:10020800010E396E40EC09F0000E3A6E020E396E9E
:1002180040EC09F0000E3A6E030E396E40EC09F01E
:10022800000E3A6E040E396E40EC09F018D70F0E26
:100238000001C219D8A413D7000E0001AE6F020E38
:10024800AD6F000E0001986F010E976F08D7020E70
:100258000001AD190001AE11D8A45BD2010E36EC35
:1002680016F0340E0001916FF10EE82EFED7912F93
:10027800FCD700D00E0E2D6EFF0E2E6E7CEC07F014
:10028800030E226E200E216E000E246E010E236EC8
:10029800A1EC13F00CEC16F0010E36EC16F0340E4F
:1002A8000001916FF10EE82EFED7912FFCD700D0F8
:1002B800AC0E2D6EFE0E2E6E7CEC07F0030E226E39
:1002C800200E216E000E246E020E236EA1EC13F098
:1002D8000CEC16F041EC16F0010E36EC16F0340E6C
:1002E8000001916FF10EE82EFED7912FFCD700D0B8
:1002F800C70E2D6EFF0E2E6E7CEC07F0000E5E6EA4
:10030800010E5D6E000E5C6E010E5B6E000E5A6E85
:10031800010E596E0CEC16F0010E36EC16F0340E88
:100328000001916FF10EE82EFED7912FFCD700D077
:10033800970E2D6EFF0E2E6E7CEC07F0000E5E6E93
:10034800020E5D6E000E5C6E020E5B6E000E5A6E43
:10035800020E596E0CEC16F0010E36EC16F0340E47
:100368000001916FF10EE82EFED7912FFCD700D037
:100378001E0E2D6EFF0E2E6E7CEC07F0000E5E6ECC
:10038800030E5D6E000E5C6E030E5B6E000E5A6E01
:10039800030E596E0CEC16F0000E5E6E040E5D6EC8
:1003A800000E5C6E040E5B6E000E5A6E040E596EE3
:1003B800000E0001C26F010E36EC16F0340E00017B
:1003C800916FF10EE82EFED7912FFCD700D04E0E7C
:1003D8002D6EFF0E2E6E7CEC07F032D001EC16F07D
:1003E800020E0001C219D8A402D08C8201D08C92CE
:1003F800060E0001C219D8A402D08A8601D08A96B6
:100408000A0E0001C219D8A402D08A8401D08A94A5
:100418000E0E0001C219D8A402D08A8001D08A9099
:10042800010EE0EC15F0C00E36EC16F0FC0E2D6E49
:10043800FF0E2E6EC3CF2FF0C4CF30F07CEC07F048
:10044800030E0001C219D8A4C9D7000E0001C26F5B
:10045800010E36EC16F0340E0001916FF10EE82E05
:10046800FED7912FFCD700D05E0E2D6EFF0E2E6E9C
:100478007CEC07F022D001EC16F0020E0001C21944
:10048800D8A402D08B8E01D08B9E060E0001C21913
:10049800D8A402D08B8C01D08B9C0A0E0001C21903
:1004A800D8A402D08B8001D08B900E0E0001C21907
:1004B800D8A402D08B8A01D08B9A030E0001C219EE
:1004C800D8A4D9D7000E0001C26F010E36EC16F081
:1004D800340E0001916FF10EE82EFED7912FFCD754
:1004E80000D06E0E2D6EFF0E2E6E7CEC07F032D013
:1004F80001EC16F0020E0001C219D8A402D08D84B6
:1005080001D08D94060E0001C219D8A402D08D82A4
:1005180001D08D920A0E0001C219D8A402D0898890
:1005280001D089980E0E0001C219D8A402D08C807F
:1005380001D08C90050EE0EC15F0C00E36EC16F0EC
:10054800FC0E2D6EFF0E2E6EC3CF2FF0C4CF30F0F1
:100558007CEC07F0030E0001C219D8A4C9D7000E1D
:100568005E6E000E5D6E000E5C6E000E5B6E000E21
:100578005A6E000E596E010E36EC16F0340E00015C
:10058800916FF10EE82EFED7912FFCD700D07E0E8A
:100598002D6EFF0E2E6E7CEC07F0010E226E900E73
:1005A800216EFBEC14F00CEC16F046EC16F0000E85
:1005B8000001C26F5BD0000E0001C26F010E36EC65
:1005C80016F0340E0001916FF10EE82EFED7912F30
:1005D800FCD700D0D30E2D6EFF0E2E6E7CEC07F0EC
:1005E800C00E36EC16F0010EE0EC15F0F70E2D6E8D
:1005F800FF0E2E6EC3CF2FF0C4CF30F07CEC07F087
:10060800000EE0EC15F0F70E2D6EFF0E2E6EC3CF28
:100618002FF0C4CF30F07CEC07F0020EE0EC15F0C0
:10062800F70E2D6EFF0E2E6EC3CF2FF0C4CF30F015
:100638007CEC07F0050EE0EC15F0F70E2D6EFF0EC2
:100648002E6EC3CF2FF0C4CF30F07CEC07F001EC56
:1006580016F0050E0001926F0F0E0001916FF10E5A
:10066800E82EFED7912FFCD7922FFAD70001C2515E
:10067800D8B4A1D7000E0001C26F41D0000E00010E
:10068800C26F030E0001926F080E0001916F770E82
:10069800E82EFED7912FFCD7922FFAD7010E36EC11
:1006A80016F0340E0001916FF10EE82EFED7912F4F
:1006B800FCD700D0A30E2D6EFF0E2E6E7CEC07F03B
:1006C800C00E36EC16F0040EE0EC15F0DE0E2D6EC2
:1006D800FF0E2E6EC3CF2FF0C4CF30F07CEC07F0A6
:1006E800030EE0EC15F0DE0E2D6EFF0E2E6EC3CF5E
:1006F8002FF0C4CF30F07CEC07F001EC16F00001CD
:10070800C251D8B4BBD7000E0001AE6F010EAD6F59
:10071800A6D4010E36EC16F0340E0001916FF10EDE
:10072800E82EFED7912FFCD700D0020EE0EC15F092
:10073800310EC35C010EC458D8B026D0BCC099F0A5
:10074800BDC09AF0000E0001B96F010EB86F00012C
:10075800A5510001A611D8A417D0000E0001A66F5C
:10076800010EA56F000E586E000E576E070E0001A1
:10077800926F170E0001916F6A0EE82EFED7912F27
:10078800FCD7922FFAD700F0BB0E2D6EFF0E2E6EFF
:10079800C3CF2FF0C4CF30F057C031F058C032F07B
:1007A8007CEC07F00001A5510001A611D8B420D1B6
:1007B80058BE06D058501BE1500E575CD8B017D021
:1007C800040EE0EC15F0020EC45CD8B005D0000EA3
:1007D8000001BB6F010EBA6FFB0E2D6EFF0E2E6E61
:1007E800C3CF2FF0C4CF30F07CEC07F001D100016B
:1007F800BA050001BB11D8A451D058BE06D0585034
:1008080008E1960E575CD8B004D0000E5E6E010E5B
:1008180056D058BE06D058500CE1CD0E575CD8B013
:1008280008D0000E5E6E020E5D6E000E506E020E57
:100838005CD0000E5E6E040E5D6EEA0E2D6EFE0E2E
:100848002E6E4FC02FF050C030F07CEC07F04FC038
:1008580021F050C022F0FEEC0AF0010EE0EC15F099
:10086800FB0E2D6EFF0E2E6EC3CF2FF0C4CF30F0CF
:100878007CEC07F00001AB51C35C0001AC51C458DB
:10088800D8B06DD0AB0EC35C030EC458D8A067D0E7
:10089800000E0001BB6F650EBA6F61D00001BA513E
:1008A8000001BB11D8A460D058BE06D058500EE144
:1008B800960E575CD8B00AD0000E5E6E020E5D6EC2
:1008C800000E0001B96F000EB86F92D058BE06D066
:1008D800585011E1D00E575CD8B00DD0000E5E6EA6
:1008E800010E5D6E000E506E010E4F6E000E4E6EC4
:1008F800010E4D6E7DD0000E5E6E040E5D6EEA0E2A
:100908002D6EFE0E2E6E4FC02FF050C030F07CECD6
:1009180007F04FC021F050C022F0FEEC0AF0010EA3
:10092800E0EC15F0FB0E2D6EFF0E2E6EC3CF2FF0F0
:10093800C4CF30F07CEC07F00001AB51C35C000180
:10094800AC51C458D8B00BD0AB0EC35C030EC4581E
:10095800D8A005D0000E0001BB6F640E9DD7C3CF91
:10096800ABF0C4CFACF044D0650E0001BA19000159
:10097800BB11D8A404D000019F4BA02B0AD0640E51
:100988000001BA190001BB11D8A403D000019D4B86
:100998009E2B000E586E000E576E000E0001AC6FB5
:1009A800000EAB6F000E0001BB6F000EBA6F0001A6
:1009B800B8510001B911D8A405D0000E0001A66FE6
:1009C800000EA56F020E0001C0190001C111D8B4B4
:1009D80007D0030E0001C0190001C111D8A404D02A
:1009E800000E5E6E030E03D0000E5E6E050E5D6E89
:1009F800C00E36EC16F0000EE0EC15F0310EC35CBC
:100A0800010EC458D8B026D0BCC09BF0BDC09CF025
:100A1800000E0001B76F010EB66F0001A75100016B
:100A2800A811D8A417D0000E0001A86F010EA76F57
:100A3800000E566E000E556E070E0001926F170ECF
:100A48000001916F6A0EE82EFED7912FFCD7922FE6
:100A5800FAD700F0AF0E2D6EFF0E2E6EC3CF2FF01B
:100A6800C4CF30F055C031F056C032F07CEC07F0FE
:100A78000001A7510001A811D8B457D156BE06D01D
:100A8800565008E1300E555CD8B004D0000E5C6EAC
:100A9800040E4FD056BE06D0565008E15B0E555C8A
:100AA800D8B004D0000E5A6E010E3ED156BE06D004
:100AB80056500CE1650E555CD8B008D0000E5A6E41
:100AC800040E596E000E5C6E010E33D056BE06D071
:100AD800565020E1740E555CD8B01CD0000E5A6EEA
:100AE800040E596E000E5C6E000E5B6E030EE0EC99
:100AF80015F0020EC46004D0000E546E010E536E41
:100B0800FB0E2D6EFF0E2E6EC4CF2FF0306A7CECDC
:100B180007F00BD156BE06D056500DE1820E555C3B
:100B2800D8B009D0000E5A6E040E596E000E5C6ED5
:100B3800020E5B6EFAD053045410D8A452D056BE9D
:100B480006D0565008E1A00E555CD8B004D0000E6F
:100B58005A6E010E55D056BE06D0565010E1D20E30
:100B6800555CD8B00CD0000E5A6E020E596E000EAD
:100B78005C6E040E5B6E000E526E020E5FD0000EAD
:100B88005C6E040E5B6E000E5A6E040E596E51C0F8
:100B980021F052C022F0D3EC0EF0050EE0EC15F077
:100BA8000001A951C35C0001AA51C458D8B00AD0A9
:100BB800AB0EC35C030EC458D8A004D0000E546E0C
:100BC800650E536EC3CFA9F0C4CFAAF0FB0E2D6EED
:100BD800FF0E2E6EC3CF2FF0C4CF30F07CEC07F0A1
:100BE800A4D053505410D8A461D056BE06D0565045
:100BF80012E1F80E555CD8B00ED0000E5A6E020EF7
:100C0800596E000E5C6E040E5B6E000E0001B76F2D
:100C1800000EB66F8AD056BE06D0390E555C010E4E
:100C28005658D8B011D0000E5A6E010E596E000EEB
:100C38005C6E040E5B6E000E526E010E516E000E5D
:100C48004C6E010E4B6E71D0000E5A6E040E596E2A
:100C5800000E5C6E040E5B6E51C021F052C022F093
:100C6800D3EC0EF0050EE0EC15F00001A951C35CC1
:100C78000001AA51C458D8B00AD0AB0EC35C030E09
:100C8800C458D8A004D0000E546E640E536EC3CF5F
:100C9800A9F0C4CFAAF0FB0E2D6EFF0E2E6EC3CFA7
:100CA8002FF0C4CF30F07CEC07F03FD0650E53181E
:100CB8005410D8A404D00001A14BA22B08D0640E74
:100CC80053185410D8A403D00001A34BA42B000E32
:100CD800566E000E556E000E546E000E536E000ECA
:100CE8000001AA6F000EA96F0001B6510001B711EB
:100CF800D8A405D0000E0001A86F000EA76F020E41
:100D08000001BE190001BF11D8B407D0030E0001BD
:100D1800BE190001BF11D8A404D0000E5A6E030EEC
:100D280003D0000E5A6E050E596EBCC021F0BDC02E
:100D380022F0000E246E060E236EDDEC13F0040E76
:100D480021182210D8A40BD0030E226E200E216E7B
:100D5800000E246E020E236EA1EC13F018D0BCC056
:100D680021F0BDC022F0000E246E060E236EDDECCD
:100D780013F021502210D8A40AD0030E226E200EA0
:100D8800216E000E246E010E236EA1EC13F001EC0F
:100D980016F00001C251D8A443D099C091F09AC06E
:100DA80092F00001911F921F914B922B0001BC51B0
:100DB800000191270001BD5100019223000192BF5B
:100DC80024D00001925105E10A0E0001915DD8A0DE
:100DD8001CD09BC091F09CC092F00001911F921F03
:100DE800914B922B0001BC51000191270001BD518C
:100DF80000019223000192BF08D00001925110E136
:100E08000A0E0001915DD8B00BD00001BDBF81D49E
:100E18000001BD5105E1B40E0001BC5DD8A079D434
:100E2800000E0001AE6F010EAD6F41EC16F046ECFE
:100E380016F0000E5E6E000E5D6E000E5C6E000E0B
:100E48005B6E000E5A6E000E596EBCC025F0BDC018
:100E580026F0B5C027F0286AB4C029F02A6AB3C0C2
:100E68002BF02C6AB1C02DF02E6AB0C02FF0306A7A
:100E7800AFC031F0326AA1C033F0A2C034F0A3C0D1
:100E880035F0A4C036F09DC037F09EC038F09FC042
:100E980039F0A0C03AF08BEC11F0010E36EC16F0E8
:100EA800340E0001916FF10EE82EFED7912FFCD77A
:100EB80000D02E0E2D6EFF0E2E6E7CEC07F0C00EAD
:100EC80036EC16F0BD0E2D6EFE0E2E6E7CEC07F085
:100ED8000CEC16F0070E0001C219D8A433EF00F08D
:100EE800000E3A6E010E396E40EC09F033EF00F057
:100EF8002F0E0001816F000E0001826FAFD1250E09
:100F080000018919D8B405D00001895130EC16F0D8
:100F1800A5D1000E0001886F000E876F000E00013A
:100F2800866F04D0000186852D4A2E2A2DC0F6FF33
:100F38002EC0F7FF0800F550300AD8B4F3D72DC0FB
:100F4800F6FF2EC0F7FF0800F550F2EC15F0D8A018
:100F580039D0000E0001886F000E876F87C021F01E
:100F680088C022F0000E246E0A0E236EBAEC15F02B
:100F780021C087F022C088F0D00E356EFF0E366E85
:100F88002DC0F6FF2EC0F7FF0800F550376E386AFF
:100F980035503726365038223750000187273850C9
:100FA800000188232D4A2E2A2DC0F6FF2EC0F7FFF8
:100FB8000800F550F2EC15F0D8A004D0CFD7000106
:100FC800868F18D02DC0F6FF2EC0F7FF2D4A2E2A87
:100FD8000800F5CF89F000018951000AD8B4120041
:100FE800640AD8B407D00D0AD8B404D0110AD8B40A
:100FF800E6D734D1000186BF19D081C0D9FF82C09D
:10100800DAFFDECF84F0DDCF85F0020E0001812704
:10101800000E8223000185AF53D0030E0001861312
:101028000001846D851FD8B0852B4AD081C0D9FFB7
:1010380082C0DAFFDECF84F0DDCF85F0020E00013A
:101048008127000E82233CD0010E0001896F050E16
:1010580000018919D8B43DD000018951020D240E30
:10106800F324F66EFE0EF420F76E0900F550000129
:10107800845D0900F55000018559D8A02AD00001E7
:10108800892BE5D7010E0001896F040E000189192B
:10109800D8B41FD000018951020D2E0EF324F66E2C
:1010A800FE0EF420F76E0900F5500001845D09007A
:1010B800F55000018559D8A00CD00001892BE5D73F
:1010C80000018651800B000AD8B4BED7800AD8B474
:1010D800D9D70001875100018811D8B40AD086C039
:1010E80035F0030E3516D8B404D000018707D8A010
:1010F8008807800E000189BF7F0E356E0001875179
:101108000001895D00018851800A3558D8B00BD09C
:10111800000189510001875F000E000189BFFF0EA1
:101128000001885B05D0000E0001886F000E876FF4
:10113800000186A517D086C035F0030E3516D8B441
:1011480003D02D0E30EC16F00001875100018811F4
:10115800D8B424D0300E30EC16F000018707D8A0A0
:101168008807F2D70001875100018811D8B40DD043
:10117800200E30EC16F000018707D8A08807000180
:10118800875100018811D8A4F3D786C035F0030E23
:101198003516D8B403D02D0E30EC16F089C083F084
:1011A80057D000018351020D240EF324F66EFE0E73
:1011B800F420F76E0900F5CF23F00A00F5CF24F0EC
:1011C80084C021F085C022F0D2EC14F021C028F0B0
:1011D80022C029F0000E2B6E0A0E2A6E43EC15F081
:1011E8002850300F0001896F2FD084C021F085C0AE
:1011F80022F000018351020D2E0EF324F66EFE0E2E
:10120800F420F76E0900F5CF23F00A00F5CF24F09B
:10121800D2EC14F021500F0B0001806F00018051B7
:10122800010D680EF324F66EFE0EF420F76E08002A
:10123800F5CF89F009D000018651800B000AD8B497
:10124800B0D7800AD8B4D1D70001895130EC16F054
:101258000001830700018329D8A4EDD72DC0F6FF2C
:101268002EC0F7FF2D4A2E2A0800F5CF89F000017D
:101278008951D8B4120043D6000E80EC15F0000155
:101288008F6F906B8FBF9007000E00018E6F010E5D
:101298008D6F16D000018F4B902B000190BF0DD0A1
:1012A8000001905105E1050E00018F5DD8A005D021
:1012B800000E0001906F010E8F6F00018D4B8E2B79
:1012C800395000018D5D00018E51800A00018A6F3E
:1012D8003A50800A00018A59D8A0DCD7010E36ECB2
:1012E80016F0340E00018A6FF10EE82EFED78A2F11
:1012F800FCD700D09B0E2D6EFE0E2E6E39C02FF03F
:101308003AC030F07CEC07F0C00E36EC16F08B0ECD
:101318002D6EFF0E2E6E8FC08AF000018A3BF00EF4
:101328008A1700018A2980EC15F02F6E306A2FBECB
:1013380030067CEC07F00CEC16F0010E36EC16F0DB
:10134800340E00018A6FF10EE82EFED78A2FFCD7E3
:1013580000D09B0E2D6EFE0E2E6E39C02FF03AC0B7
:1013680030F07CEC07F0C00E36EC16F0530E2D6E04
:10137800FE0E2E6E8FC08AF000018A3BF00E8A178F
:1013880000018A51020F80EC15F02F6E306A2FBED3
:1013980030068FC08BF000018B3BF00E8B170001DD
:1013A8008B51030F80EC15F0316E326A31BE320674
:1013B8008FC08CF000018C3BF00E8C1700018C5113
:1013C800040F80EC15F0336E346A33BE34067CECBF
:1013D80007F00CEC16F0010E36EC16F0340E000196
:1013E8008A6FF10EE82EFED78A2FFCD700D09B0E0D
:1013F8002D6EFE0E2E6E39C02FF03AC030F07CEC08
:1014080007F0C00E36EC16F03D0E2D6EFE0E2E6E59
:101418008FC08AF000018A3BF00E8A1700018A51BA
:10142800050F80EC15F02F6E306A2FBE30068FC086
:101438008BF000018B3BF00E8B1700018B51060FD0
:1014480080EC15F0316E326A31BE32068FC08CF0F6
:1014580000018C3BF00E8C1700018C51070F80ECBB
:1014680015F0336E346A33BE34067CEC07F00CECAE
:1014780016F0010E36EC16F0340E00018A6FF10EEC
:10148800E82EFED78A2FFCD700D09B0E2D6EFE0EBD
:101498002E6E39C02FF03AC030F07CEC07F0C00E49
:1014A80036EC16F0DE0E2D6EFE0E2E6E8FC08AF014
:1014B80000018A3BF00E8A1700018A51080F80EC60
:1014C80015F02F6E306A2FBE30067CEC07F00CEC5E
:1014D80016F0010E36EC16F0340E00018A6FF10E8C
:1014E800E82EFED78A2FFCD700D09B0E2D6EFE0E5D
:1014F8002E6E39C02FF03AC030F07CEC07F0C00EE9
:1015080036EC16F0790E2D6EFE0E2E6E8FC08AF018
:1015180000018A3BF00E8A1700018A51090F80ECFE
:1015280015F02F6E306A2FBE30067CEC07F00CECFD
:1015380016F0010E36EC16F0340E00018A6FF10E2B
:10154800E82EFED78A2FFCD700D09B0E2D6EFE0EFC
:101558002E6E39C02FF03AC030F07CEC07F0C00E88
:1015680036EC16F0EE0E2D6EFE0E2E6E8FC08AF043
:1015780000018A3BF00E8A1700018A510A0F80EC9D
:1015880015F02F6E306A2FBE30067CEC07F00CEC9D
:1015980016F0010E36EC16F0340E00018A6FF10ECB
:1015A800E82EFED78A2FFCD700D09B0E2D6EFE0E9C
:1015B8002E6E39C02FF03AC030F07CEC07F0C00E28
:1015C80036EC16F08A0E2D6EFE0E2E6E8FC08AF047
:1015D80000018A3BF00E8A1700018A510B0F80EC3C
:1015E80015F02F6E306A2FBE30067CEC07F00CEC3D
:1015F80016F01200340E236EF20EE82EFED7232EBC
:10160800FCD721502210D8A405D08C928A968A94AF
:101618008A901200030E21182210D8A449D0454AF6
:10162800462A46BE0AD0465004E1090E455CD8A0B9
:1016380004D0000E466E010E456E340E236EF20E77
:10164800E82EFED7232EFCD745044610D8B405D083
:10165800080E45184610D8A402D08C8201D08C926E
:10166800020E45184610D8B405D0070E4518461086
:10167800D8A402D08A8601D08A96030E451846104F
:10168800D8B405D0060E45184610D8A402D08A84CE
:1016980001D08A94040E45184610D8B405D0050E1A
:1016A80045184610D8A402D08A8012008A901200E9
:1016B800050E21182210D8A449D0454A462A46BE0C
:1016C8000AD0465004E1090E455CD8A004D0000EAB
:1016D800466E010E456E340E236EF20EE82EFED7CE
:1016E800232EFCD745044610D8B405D0080E45185B
:1016F8004610D8A402D08A8401D08A94020E4518D4
:101708004610D8B405D0070E45184610D8A402D004
:101718008A8001D08A90030E45184610D8B405D0A7
:10172800060E45184610D8A402D08C8201D08C929F
:10173800040E45184610D8B405D0050E45184610B5
:10174800D8A402D08A8612008A961200040E2118A4
:101758002210D8B41200680E236EE40EE82EFED7CD
:10176800232EFCD700D021042210D8B405D0050EB2
:1017780021182210D8A413D00001C04BC12B00019E
:10178800C1BF2AD00001C15105E1050E0001C05DAD
:10179800D8A022D0000E0001C16F010E1CD0020E8D
:1017A80021182210D8B405D0060E21182210D8A46A
:1017B80013D00001C007D8A0C1070001C1BF07D0DE
:1017C8000001C15109E10001C005D8B005D0000EE3
:1017D8000001C16F040EC06F21042210D8B405D0D7
:1017E800020E21182210D8A427D00001C00500013C
:1017F800C111D8A402D08C8201D08C92020E0001B3
:10180800C0190001C111D8A402D08A8601D08A96D5
:10181800030E0001C0190001C111D8A402D08A84A6
:1018280001D08A94040E0001C0190001C111D8A486
:1018380002D08A8001D08A90050E21182210D8B4CF
:1018480005D0060E21182210D8A412000001C005E8
:101858000001C111D8A404D08C828A868A948A9007
:10186800020E0001C0190001C111D8A404D08C9245
:101878008A868A848A90030E0001C0190001C1116A
:10188800D8A404D08C928A968A848A80040E000197
:10189800C0190001C111D8A412008C828A968A94BA
:1018A8008A801200340E036EF20EE82EFED7032E45
:1018B800FCD701500210D8A405D08C928A968A943D
:1018C8008A901200030E01180210D8A449D0454A84
:1018D800462A46BE0AD0465004E1090E455CD8A007
:1018E80004D0000E466E010E456E340E036EF20EE5
:1018F800E82EFED7032EFCD745044610D8B405D0F1
:10190800080E45184610D8A402D08C8201D08C92BB
:10191800020E45184610D8B405D0070E45184610D3
:10192800D8A402D08A8601D08A96030E451846109C
:10193800D8B405D0060E45184610D8A402D08A841B
:1019480001D08A94040E45184610D8B405D0050E67
:1019580045184610D8A402D08A8012008A90120036
:10196800050E01180210D8A449D0454A462A46BE99
:101978000AD0465004E1090E455CD8A004D0000EF8
:10198800466E010E456E340E036EF20EE82EFED73B
:10199800032EFCD745044610D8B405D0080E4518C8
:1019A8004610D8A402D08A8401D08A94020E451821
:1019B8004610D8B405D0070E45184610D8A402D052
:1019C8008A8001D08A90030E45184610D8B405D0F5
:1019D800060E45184610D8A402D08C8201D08C92ED
:1019E800040E45184610D8B405D0050E4518461003
:1019F800D8A402D08A8612008A961200040E011812
:101A08000210D8B41200680E036EE40EE82EFED75A
:101A1800032EFCD700D001040210D8B405D0050E5F
:101A280001180210D8A413D00001C04BC12B00012B
:101A3800C1BF2AD00001C15105E1050E0001C05DFA
:101A4800D8A022D0000E0001C16F010E1CD0020EDA
:101A580001180210D8B405D0060E01180210D8A437
:101A680013D00001C007D8A0C1070001C1BF07D02B
:101A78000001C15109E10001C005D8B005D0000E30
:101A88000001C16F040EC06F01040210D8B405D064
:101A9800020E01180210D8A427D00001C0050001C9
:101AA800C111D8A402D08C8201D08C92020E000100
:101AB800C0190001C111D8A402D08A8601D08A9623
:101AC800030E0001C0190001C111D8A402D08A84F4
:101AD80001D08A94040E0001C0190001C111D8A4D4
:101AE80002D08A8001D08A90050E01180210D8B45D
:101AF80005D0060E01180210D8A412000001C00576
:101B08000001C111D8A404D08C828A868A948A9054
:101B1800020E0001C0190001C111D8A404D08C9292
:101B28008A868A848A90030E0001C0190001C111B7
:101B3800D8A404D08C928A968A848A80040E0001E4
:101B4800C0190001C111D8A412008C828A968A9407
:101B58008A8012000600FACF11F0FBCF12F0E9CF0D
:101B680013F0EACF14F0E1CF15F0E2CF16F0D9CF99
:101B780017F0DACF18F0F3CF19F0F4CF1AF0F6CF48
:101B88001BF0F7CF1CF0F8CF1DF0F5CF1EF0F29E3A
:101B9800F2A40ED0F2940001BC4BBD2BD59E170EBB
:101BA800D56E850ED76EAE0ED66ED5508009D56E21
:101BB8009EA0D7D09E905DC001F05EC002F056ECAA
:101BC8000CF05BC001F05CC002F041EC12F059C0AF
:101BD80001F05AC002F0CDEC0FF0574A582A554A86
:101BE800562A53505410D8A433D0000E0A6E020E51
:101BF800096E020E4B24016E000E4C20026E4BC083
:101C080003F04CC004F0CDEC15F001C007F002C0A1
:101C180008F0E2EC12F007C01FF008C020F0F40E44
:101C28000F6E010E106E1FC001F020C002F0000EF2
:101C3800046E640E036ECDEC15F00F5001261050A3
:101C480002225550011804E156500218D8B437D072
:101C580053045410D8A441D0000E0A6E020E096E27
:101C6800010E4B24016E000E4C20026E4BC003F097
:101C78004CC004F0CDEC15F001C007F002C008F02C
:101C8800E2EC12F007C01FF008C020F02C0E0F6E17
:101C9800010E106E1FC001F020C002F0000E046E8D
:101CA800640E036ECDEC15F00F5001261050022281
:101CB8005550011812E156500218D8A40ED05104FC
:101CC8005210D8A404D0000E526E020E03D0000E9B
:101CD800526E010E516E4B4A4C2A000E0A6E020ECD
:101CE800096E010E4D24016E000E4E20026E4DC08D
:101CF80003F04EC004F0CDEC15F001C007F002C0AF
:101D080008F0E2EC12F007C01FF008C020F0900EB7
:101D18000F6E010E106E1FC001F020C002F0000E01
:101D2800046E640E036ECDEC15F00F5001261050B2
:101D380002225750011812E158500218D8A40ED0A8
:101D48004F045010D8A404D0000E506E020E03D0D9
:101D5800000E506E010E4F6E4D4A4E2ACD9028EC63
:101D680016F01EC0F5FF1DC0F8FF1CC0F7FF1BC012
:101D7800F6FF1AC0F4FF19C0F3FF18C0DAFF17C046
:101D8800D9FF16C0E2FF15C0E1FF14C0EAFF13C077
:101D9800E9FF12C0FBFF11C0FAFF5F921100340E79
:101DA800236EF20EE82EFED7232EFCD721502210E8
:101DB800D8A405D08D948D9289988C901200040E29
:101DC80021182210D8B41200030E21182210D8A40A
:101DD80042D0414A422A42BE0AD0425004E1090E8A
:101DE800415CD8A004D0000E426E010E416E410441
:101DF8004210D8B405D0080E41184210D8A402D019
:101E08008D8401D08D94020E41184210D8B405D0AB
:101E1800070E41184210D8A402D08D8201D08D92AD
:101E2800030E41184210D8B405D0060E41184210CE
:101E3800D8A402D0898801D08998040E411842108C
:101E4800D8B405D0050E41184210D8A402D08C8011
:101E580012008C901200050E21182210D8A442D02E
:101E6800414A422A42BE0AD0425004E1090E415C6E
:101E7800D8A004D0000E426E010E416E41044210FB
:101E8800D8B405D0080E41184210D8A402D08988C9
:101E980001D08998020E41184210D8B405D0070E17
:101EA80041184210D8A402D08C8001D08C90030E27
:101EB80041184210D8B405D0060E41184210D8A4D3
:101EC80002D08D8401D08D94040E41184210D8B4EC
:101ED80005D0050E41184210D8A402D08D821200F8
:101EE8008D92120021042210D8A413D00001BE4BF9
:101EF800BF2B0001BFBF25D00001BF5105E1050E72
:101F08000001BE5DD8A01DD0000E0001BF6F010EFC
:101F180017D0020E21182210D8A413D00001BE0732
:101F2800D8A0BF070001BFBF07D00001BF5109E11A
:101F38000001BE05D8B005D0000E0001BF6F040E29
:101F4800BE6F0001BE050001BF11D8A402D08D8468
:101F580001D08D94020E0001BE190001BF11D8A452
:101F680002D08D8201D08D92030E0001BE190001AE
:101F7800BF11D8A402D0898801D08998040E000125
:101F8800BE190001BF11D8A402D08C8012008C9019
:101F98001200340E036EF20EE82EFED7032EFCD785
:101FA80001500210D8A405D08D948D9289988C90F8
:101FB8001200040E01180210D8B41200030E011802
:101FC8000210D8A442D0414A422A42BE0AD0425006
:101FD80004E1090E415CD8A004D0000E426E010E47
:101FE800416E41044210D8B405D0080E4118421081
:101FF800D8A402D08D8401D08D94020E41184210CD
:10200800D8B405D0070E41184210D8A402D08D824A
:1020180001D08D92030E41184210D8B405D0060E97
:1020280041184210D8A402D0898801D08998040E9A
:1020380041184210D8B405D0050E41184210D8A452
:1020480002D08C8012008C901200050E011802102C
:10205800D8A442D0414A422A42BE0AD0425004E1A2
:10206800090E415CD8A004D0000E426E010E416EEC
:1020780041044210D8B405D0080E41184210D8A423
:1020880002D0898801D08998020E41184210D8B42C
:1020980005D0070E41184210D8A402D08C8001D078
:1020A8008C90030E41184210D8B405D0060E411882
:1020B8004210D8A402D08D8401D08D94040E41180A
:1020C8004210D8B405D0050E41184210D8A402D049
:1020D8008D8212008D92120001040210D8A413D030
:1020E8000001BE4BBF2B0001BFBF25D00001BF516F
:1020F80005E1050E0001BE5DD8A01DD0000E00014F
:10210800BF6F010E17D0020E01180210D8A413D009
:102118000001BE07D8A0BF070001BFBF07D000015C
:10212800BF5109E10001BE05D8B005D0000E00017D
:10213800BF6F040EBE6F0001BE050001BF11D8A419
:1021480002D08D8401D08D94020E0001BE190001C9
:10215800BF11D8A402D08D8201D08D92030E000148
:10216800BE190001BF11D8A402D0898801D089986E
:10217800040E0001BE190001BF11D8A402D08C8042
:1021880012008C901200CD90000E276E010E266E64
:1021980027BE06D027500BE1140E265CD8B007D016
:1021A800000E226E010E216EFEEC0AF031D027BE21
:1021B80006D027500BE13C0E265CD8B007D0000EA5
:1021C800226E020E216EFEEC0AF022D027BE06D047
:1021D80027500BE18C0E265CD8B007D0000E226E7B
:1021E800010E216EFEEC0AF013D027BE06D0275050
:1021F8000BE1F00E265CD8B007D0000E226E020E5E
:10220800216EFEEC0AF004D0000E276E010E266E39
:10221800264A272A26042710D8A405D0000E256EA2
:10222800000E246E04D0C3CF24F0C4CF25F0010ED5
:10223800E0EC15F0C350245CC4502558D8A0A8D7AA
:10224800AA0EC35C030EC458D8A0A2D727BE06D0D6
:1022580027500BE1140E265CD8B007D0000E226E72
:10226800010E216ED3EC0EF031D027BE06D02750D8
:102278000BE13C0E265CD8B007D0000E226E020E91
:10228800216ED3EC0EF022D027BE06D027500BE1EA
:102298008C0E265CD8B007D0000E226E010E216E7F
:1022A800D3EC0EF013D027BE06D027500BE1F00E6A
:1022B800265CD8B007D0000E226E020E216ED3EC39
:1022C8000EF004D0000E276E010E266E264A272A2D
:1022D80026042710D8A405D0000E256E000E246E03
:1022E80004D0C3CF24F0C4CF25F0050EE0EC15F0E0
:1022F800C350245CC4502558D8A0A8D7AA0EC35CE4
:10230800030EC458D8A0A2D720EC16F01200FF0E76
:102318000001806FFF0E0001816F000E80EC15F048
:102328000001826F00018051000182253B6E000E82
:10233800000182BFFF0E000181213C6E3CBE05D02A
:102348003C5007E13B04D8B004D0000E3C6E040EAC
:102358003B6E3BC021F0000E64EC15F025C021F067
:102368003BC080F00001803BF00E801700018029FF
:1023780064EC15F027C021F03BC080F00001803BE1
:10238800F00E801700018051020F64EC15F029C08F
:1023980021F03BC080F00001803BF00E8017000167
:1023A8008051030F64EC15F02BC021F03BC080F086
:1023B8000001803BF00E801700018051040F64EC8F
:1023C80015F02DC021F03BC080F00001803BF00EDD
:1023D800801700018051050F64EC15F02FC021F023
:1023E8003BC080F00001803BF00E80170001805157
:1023F800060F64EC15F031C021F03BC080F00001FD
:10240800803BF00E801700018051070F64EC15F037
:1024180033C021F03BC080F00001803BF00E8017F4
:1024280000018051080F64EC15F035C021F03BC065
:1024380080F00001803BF00E801700018051090FE9
:1024480064EC15F037C021F03BC080F00001803B00
:10245800F00E8017000180510A0F64EC15F039C0A6
:1024680021F03BC080F00001803BF00E8017000196
:1024780080510B0F64EC15F01200340E036EF20E4F
:10248800E82EFED7032EFCD701500210D8A405D0A1
:102498008B9E8B9C8B908B9A1200040E0118021055
:1024A800D8B41200030E01180210D8A442D0434A2F
:1024B800442A44BE0AD0445004E1090E435CD8A023
:1024C80004D0000E446E010E436E43044410D8B489
:1024D80005D0080E43184410D8A402D08B8E01D022
:1024E8008B9E020E43184410D8B405D0070E43182B
:1024F8004410D8A402D08B8C01D08B9C030E4318B7
:102508004410D8B405D0060E43184410D8A402D0FD
:102518008B8001D08B90040E43184410D8B405D09A
:10252800050E43184410D8A402D08B8A12008B9A47
:10253800120001040210D8A40ED0494A4A2A4ABE01
:102548001DD04A5004E1050E495CD8A017D0000EF2
:102558004A6E010E12D0020E01180210D8A40ED035
:102568004906D8A04A064ABE05D04A5007E14904A0
:10257800D8B004D0000E4A6E040E496E49044A10C1
:10258800D8A402D08B8E01D08B9E020E49184A1017
:10259800D8A402D08B8C01D08B9C030E49184A100A
:1025A800D8A402D08B8001D08B90040E49184A1011
:1025B800D8A402D08B8A12008B9A1200000E0C6EDF
:1025C8000AAE06D0096C0A1ED8B00A2A010E0C6E93
:1025D80008AE06D0076C081ED8B0082A010E0C1ADF
:1025E800000E0E6E000E0D6E09500A10D8B41CD0E5
:1025F800010E0B6E04D0D89009360A360B2A0AAEA3
:10260800FAD7D8900D360E360950075C0A5008588C
:10261800D8A005D00950075E0A50085A0D80D890F6
:102628000A3209320B2EEDD70C50D8B404D00D6CF9
:102638000E1ED8B00E2A0DC007F00EC008F012000A
:10264800000E296E000E2A6E000E2B6E000E2C6EE8
:102658002550261027102810D8B42AD0010E2D6E28
:1026680006D0D89025362636273628362D2A28AE85
:10267800F8D7D89029362A362B362C362550215CA7
:10268800265022582750235828502458D8A009D01B
:102698002550215E2650225A2750235A2850245A62
:1026A8002980D89028322732263225322D2EE1D79C
:1026B80029C021F02AC022F02BC023F02CC024F01E
:1026C8001200F00ED36E9B8C2F0E926EF20E936E4C
:1026D800000E946E000E956E010E966ECB680C0E71
:1026E800BD6E000EBE6E0C0EBA6E000EBB6E050EF1
:1026F800CA6E000E896E000E8A6E000E8B6E000E7A
:102708008C6E000E8D6E20EC15F0000E2E6E7D0E78
:102718002F6E000E306E000E316E7AEC14F0F19EC2
:10272800090EC16E890EC06E000EB56EB496C08ECD
:10273800F28A9D80F28CF28E120021C025F0010EE3
:102748002516253ABA502518EF0B2518BA6E2234EB
:102758002230266E2130256E010E2516253A254693
:10276800BA502518DF0B2518BA6E21C025F022C0F3
:1027780026F02634263225322634263225322550B4
:10278800BB6E899C899E030E266E080E256E770EF9
:10279800E82EFED7252EFCD7262EFAD700F02304E4
:1027A8002410D8A403D0898C899E1200899C898E14
:1027B8001200000E266E22AE06D0216C221ED8B062
:1027C800222A010E266E24AE04D0236C241ED8B013
:1027D800242A23502410D8B418D0010E256E04D012
:1027E800D89023362436252A24AEFAD72350215CE4
:1027F80024502258D8A004D02350215E2450225AB5
:10280800D89024322332252EF1D72650D8B404D0BC
:10281800216C221ED8B0222A21C021F022C022F029
:1028280012004FEC16F0000E236ED00E226E3CEC18
:1028380016F0000E236E000E226E3CEC16F04BECE8
:1028480016F04FEC16F0000E236ED10E226E3CEC03
:1028580016F0000E246E050E246401D00ED024500C
:10286800010DAF0EF324D96E000EF420DA6E010EBE
:10287800A7EC15F0DF6E242AEED7000EA7EC15F0B2
:102888000001B56F4BEC16F01200800E36EC16F016
:10289800CE0E2D6EFE0E2E6EB5C02FF0306AB4C06F
:1028A80031F0326AB3C033F0346A7CEC07F0EF0ED3
:1028B8002D6EFF0E2E6E7CEC07F0C00E36EC16F077
:1028C800440E2D6EFE0E2E6EB1C02FF0306AB0C0D1
:1028D80031F0326AAFC033F0346A7CEC07F0E70EAF
:1028E8002D6EFF0E2E6E7CEC07F01200000EC76EE8
:1028F800280EC66E000EC56E000E216E480E226EA2
:10290800E80E236E010E246E2EC032F02FC033F075
:1029180030C034F031C035F0020ED890323633363C
:1029280034363536E82EF9D732C025F033C026F0D4
:1029380034C027F035C028F024EC13F02104C86E09
:10294800948694881200226E2250F00B216E8C50CF
:102958000F0B8C6E21508C108C6E8C96420EE82ECC
:10296800FED700D08C86420EE82EFED700D0223843
:10297800F00B226E2250F00B216E8C500F0B8C6ED8
:1029880021508C108C6E8C96420EE82EFED700D00B
:102998008C86420EE82EFED700D01200000E276E5D
:1029A800000E266E23502410D8B41CD0010E256EBC
:1029B80004D0D89023362436252A24AEFAD7D890C6
:1029C800263627362350215C24502258D8A005D01B
:1029D8002350215E2450225A2680D8902432233254
:1029E800252EEDD726C021F027C022F0120021C0E5
:1029F80023F0010E2316233ABD502318EF0B23189A
:102A0800BD6E22342230246E2130236E010E23162F
:102A1800233A2346BD502318DF0B2318BD6E21C06F
:102A280023F022C024F024342432233224342432E4
:102A380023322350BE6E12009C0E246ED70EE82E51
:102A4800FED7242EFCD700F0330E36EC16F0320EEB
:102A580036EC16F0280E36EC16F00F0E36EC16F0A3
:102A6800060E36EC16F0010E36EC16F09C0E246EAF
:102A7800D70EE82EFED7242EFCD700F012002A50DD
:102A88002B10D8B418D0010E2C6E04D0D8902A364A
:102A98002B362C2A2BAEFAD72A50285C2B502958D3
:102AA800D8A004D02A50285E2B50295AD8902B320F
:102AB8002A322C2EF1D728C028F029C029F012007C
:102AC800246E24C022F0080E236E22342232232ED4
:102AD800FCD72250AA6E24C0A9FF21C0A8FFA69E39
:102AE800A69CA684550EA76EAA0EA76EA682A1A8BC
:102AF800FED7A198A6941200236E23C021F0080ED9
:102B0800226E21342132222EFCD72150AA6E23C0F6
:102B1800A9FFA69EA69CA680A6B0FED7A850120024
:102B280000EEAFF0140EEE6AE806FDE100EE3DF0AF
:102B3800220EEE6AE806FDE15F905F92000EF86EE5
:102B4800000109EF00F0226E17EC16F0C58617ECAD
:102B580016F0C9CF23F017EC16F02250D8A402D0F3
:102B6800C58A01D0C59AC588235012002150230276
:102B7800F3CF25F0F4CF26F021502402F350262677
:102B880022502302F350262625C021F026C022F029
:102B9800120001500302F3CF05F0F4CF06F0015004
:102BA8000402F350062602500302F350062605C01D
:102BB80001F006C002F01200226E2244E846FC0B27
:102BC800C26EC280C28207D0340E216EF20EE82E89
:102BD800FED7212EFCD7C2A21200F6D7236E000E14
:102BE800226E3A0E236005D02F0E236402D0010E08
:102BF800226E22C021F02130120081A207D0813834
:102C08000F0B0F0B0001C26F81B2FED700F012004C
:102C180081A2FED781380F0B0F0B0001C26F81B262
:102C2800FED700F01200C7B4FED7C5CF21F01F0EA3
:102C38002116D8B41200F7D7B00ECD6EE90ECF6EBC
:102C48005B0ECE6ECD801200B00ECD6EE90ECF6E4B
:102C58005B0ECE6ECD801200236E8C842350A7ECC1
:102C680014F01200236E8C942350A7EC14F0120079
:102C780017EC16F022C0C9FF1200BA98BA9A000ED3
:102C8800BB6E1200BD98BD9A000EBE6E120017EC06
:0E2C980016F0C584120017EC16F0C58012006D
:10FE1200003132334134353642373839432A3023C0
:10FE2200440001000A006400E803102701001000EA
:10FE3200000100103003010412041753746172743C
:10FE42003A20253032783A253032783A25303278E5
:10FE520000446174653A20253032782F253032789B
:10FE62002F25303278003031323334353637383955
:10FE720061626364656600536F646120772F6F204F
:10FE82007461623A20256400536F757020772F6F7A
:10FE9200206C626C3A2025640052756E2325642022
:10FEA200202020413A4E6578740074657374696E3F
:10FEB200672050574D3220434357005669657720DB
:10FEC2004C6F67733F20423A596573002530327890
:10FED2002F253032782F253032782000536F64611D
:10FEE20020772F207461623A20256400536F757069
:10FEF20020772F206C626C3A20256400536F727455
:10FF0200696E672063616E732E2E2E0074657374A2
:10FF1200696E672050574D322043570074657374E1
:10FF2200696E672053207368616B6500536F72744A
:10FF320020646F6E652120413A4E6F00416E792038
:10FF42006B657920746F2073746F700074657374BD
:10FF5200696E672053312070696E73007465737423
:10FF6200696E672053322070696E73007465737412
:10FF7200696E672053332070696E73007465737401
:10FF8200696E672050574D310052756E74696D6508
:10FF92003A2025640074657374696E672053206289
:10FFA200006C6162656C20202074616200736F6472
:10FFB200613A20257820256400736F75703A2025F8
:10FFC200782025640074657374696E672053206617
:10FFD2000074657374696E67204952002578202089
:10FFE200202020200020413A4C6F677300333A539F
:0EFFF2007461727400257820002025780000CC
:020000040020DA
:08000000FFFFFFFFFFFFFFFF00
:020000040030CA
:0E000000FF081F1EFF8381FF0FC00FE00F409F
:00000001FF
